:0E0000000C944E000C9422010C9428010C94D8
:10000E0000000C9400000C9400000C9434010C942D
:10001E0047010C9400000C94D3000C9400000C9437
:10002E007E000C9400000C94B1000C9400000C9413
:10003E0000000C9400000C9400000C942E010C9403
:10004E0000000C9400001027E80364000A00010071
:10005E00001000011000010000000000204E204E94
:10006E00204E0A000A000A000A00000000000000EC
:10007E00000000000100020066000800A0016800F8
:10008E000700A80170000900050078000000F89430
:10009E00EE27ECBBF1E0FBBFEBBFE5BFF8E1F1BD36
:1000AE00E1BD8DE0A2E0BB27ED938A95E9F780E0F4
:1000BE0094E0A0E6ED930197E9F7E2E8F0E0859190
:1000CE009591009761F0A591B59105901590BF019E
:1000DE00F00105900D920197E1F7FB01F0CFEFE5EE
:1000EE00EDBFE4E0EEBFC0E6D1E00C947001EA9300
:1000FE00FA93EFB7EA931A930A931BB10CB1E12F5F
:10010E00EC7191F45524E42D4394F0E0E05AFE4F47
:10011E000083E0E2E41509F444246394E0E2E6157A
:10012E0019F46624689420F80991199125C01A9340
:10013E006620F1F3E72D7394F0E0E05AFE4F108144
:10014E00E0E2E71509F47724F8946A947894E12FA5
:10015E0019910895EA93FA93EFB7EA93BB2061F0F1
:10016E00BA94E82D8394F0E0E058FE4FE081ECB9AC
:10017E00E0E2E81509F48824E991EFBFF991E991DD
:10018E0018950E948102E129E2BB53C00E948102B0
:10019E00E095E121E2BB4DC00E948802E6E0E2BF9D
:1001AE005394EFE0E51538F4662011F0C0DFFCCF74
:1001BE00E1E0E093BD01EAEFE51508F4C09A7BC0DB
:1001CE000E9496023897BCF4E881EA93DADFCC20DD
:1001DE0031F40E94A102FBBDEABDC8800BC0E091C4
:1001EE00BC01E03039F40E94A102F9BDE8BDE881FE
:1001FE00E093BC011EC0CC2061F40CB41DB40E946F
:10020E009602E00DF11DFBBDEABDE881E061CE2E48
:10021E0010C0E091BC01E03061F40CB41DB40E943A
:10022E009602E00DF11DF9BDE8BDE881E061E093B5
:10023E00BC01219608950E948802E1E0EA93C0DF96
:10024E003AC00E948802E2E0EA93BADF34C00E940C
:10025E008802E3E0EA93B4DF2EC00E948802C4FE57
:10026E0009C00E94A102FBBDEABDE7E0CE22CA9200
:10027E0088DF05C0CC2019F0CA9288DFCC241BC0C1
:10028E000E948802E091BC01E07161F00E94A1021F
:10029E00F9BDE8BDE091BC01E770E093BC01EA93C3
:1002AE0070DF09C0E091BC01E03029F0EA936EDF07
:1002BE00E0E0E093BC01E991EFBFF991E991B991CA
:1002CE00A9919991899179916991F99019900990D3
:1002DE001895E0E0EBBBEABBE8BBE3E1E7BBE0E08F
:1002EE00E5BBE4BBE0EEE2BBE1BBE3E0E3BFE6E08F
:1002FE00E2BFE0E0ECBFEFBDE2E0EEBDE0E0EDBD61
:10030E00ECBDE7BDE6BDEBBDE1E0EABDE0E0E9BD79
:10031E00E1E0E8BDE0E0E2BDE5BDE4BDE3BDEBB785
:10032E00E06EEBBFEAE0E5BFE0E0E4BFE0EEEABF7F
:10033E00E9E1E9BFE0E0EBB9E8EDEAB9E6E8E0BDF6
:10034E00E0E0E0BDE7E6E9B9E0E8E8B9E0E0E0BF0B
:10035E00E6B9EDB9E6BF7894C498C198C09AE6E0C4
:10036E00E61520F4E091BD01E03009F4C1C0DFDEF6
:10037E00AE2EE6E6EA1511F00C947C02D8DEE630DD
:10038E0011F00C947C02D3DEE03611F00C947C025A
:10039E00C098DD24E3E0DE1610F00C947C020E947F
:1003AE00A602EA0FFB1FFF93EF93C1DEAF91BF9141
:1003BE00F0E0ED93FC930E94A6020E94AD02E4567B
:1003CE00F040FE93EE930E94B20241F00E94A6020C
:1003DE000E94B902DF010E941B0354F00E94B20278
:1003EE0031F40E94A6020E94B902FF230AF019C03E
:1003FE000E94BE020E94AD02EE0FFF1FFE93EE930F
:10040E000E94BE020E94B902E536A0E0FA0744F04F
:10041E000E94BE02AE0FBF1FE4E6F0E0ED93FC9328
:10042E001CC00E94A6020E94B9023097B1F00E9431
:10043E00BE020E94AD02F595E795FE93EE930E94E3
:10044E00BE020E94B902319744F40E94BE02AE0F62
:10045E00BF1FE1E0F0E0ED93FC930E94A6020E9424
:10046E00B902FF23D2F4F8940E94C5020E94C8027A
:10047E000E94D3020E94B9020E94D802319734F42E
:10048E000E94E902E1E0F0E0ED93FC9378940E9483
:10049E00C502E055FE4FA0E025C00E94A6020E94B4
:1004AE00B902DF010E941B03F4F4F8940E94C50206
:1004BE000E94C8020E94D3020E94B9020E94D80272
:1004CE00E132AEE4FA0714F4319734F40E94E902F3
:1004DE00E0E2FEE4ED93FC9378940E94C502E055B1
:1004EE00FE4FA1E0A083D39455CFE0E0E093BD0191
:1004FE0036CFFFCF12B2E881EC5FA1E00E94F4028A
:10050E0008950A921A92FA926A937A938A939A9318
:10051E00AA93BA93EA93FA93EFB7EA930895E88110
:10052E00A0EAB1E0F0E0EE0FFF1FAE0FBF1F0E947A
:10053E0017030895ECB5FDB5EC59FF4F0895ED2D59
:10054E00A4EBB1E0F0E0EE0FFF1F0895AE0FBF1F5A
:10055E00ED91FD910895ED2DF0E0E055FE4FE08117
:10056E00E0300895AE0FBF1F0E9417030895ED2DC2
:10057E00A8EAB1E0F0E0EE0FFF1F0895ED2DF0E0D8
:10058E0008953196A0EAB1E0EE0FFF1FEA0FFB1FB0
:10059E00CF0160817181EBCFAE0FBF1F0D901C900C
:1005AE00CECFD0010E940403E60FF71FDC01ED93BE
:1005BE00FC93AD2DBB27AA0FBB1FAE55BE4F0E949D
:1005CE0017030895AD2DBB27AA0FBB1FAE55BE4F07
:1005DE000895F195E195F0400895EE230E2EEA2F41
:1005EE0019F0EE0F0A94E9F70895FA9FF02DEB9F9C
:1005FE00F00DEA9FE02DF10D089504D0F6DF0EF414
:10060E00E8DF0895E894F7FF02C0E3DF6894B7FFD0
:10061E0006C0A095B095119600F8039400FA0895BF
:10062E00ED91FC911197089500240A160B0608957A
:00000001FF
