:0A0000000C944E000C9422010C94A5
:10000A0028010C9400000C9400000C9400000C943D
:10001A0034010C9447010C9400000C94D3000C9406
:10002A0000000C947E000C9400000C94B1000C9417
:10003A0000000C9400000C9400000C9400000C9436
:10004A002E010C9400000C9400001027E8036400B1
:10005A000A00010000100001100001000000000069
:10006A00204E204E204E0A000A000A000A00000014
:10007A000000000000000000010002006600080005
:10008A00A00168000700A8017000090005007800B7
:10009A000000F894EE27ECBBF1E0FBBFEBBFE5BF35
:1000AA00F8E1F1BDE1BD8DE0A2E0BB27ED938A95B1
:1000BA00E9F780E094E0A0E6ED930197E9F7E2E83A
:1000CA00F0E085919591009761F0A591B591059021
:1000DA001590BF01F00105900D920197E1F7FB0120
:1000EA00F0CFEFE5EDBFE4E0EEBFC0E6D1E00C945F
:1000FA007001EA93FA93EFB7EA931A930A931BB142
:10010A000CB1E12FEC7191F45524E42D4394F0E005
:10011A00E05AFE4F0083E0E2E41509F444246394B4
:10012A00E0E2E61519F46624689420F80991199119
:10013A0025C01A936620F1F3E72D7394F0E0E05A94
:10014A00FE4F1081E0E2E71509F47724F8946A94E7
:10015A007894E12F19910895EA93FA93EFB7EA9305
:10016A00BB2061F0BA94E82D8394F0E0E058FE4F8A
:10017A00E081ECB9E0E2E81509F48824E991EFBFDF
:10018A00F991E99118950E947F02E129E2BB53C0D7
:10019A000E947F02E095E121E2BB4DC00E948602E7
:1001AA00E6E0E2BF5394EFE0E51538F4662011F07B
:1001BA00C0DFFCCFE1E0E093BD01EAEFE51508F40A
:1001CA00C09A7BC00E9494023897BCF4E881EA93F3
:1001DA00DFDFCC2031F40E949F02FBBDEABDC8805C
:1001EA000BC0E091BC01E03039F40E949F02F9BDD6
:1001FA00E8BDE881E093BC011EC0CC2061F40CB4D8
:10020A001DB40E949402E00DF11DFBBDEABDE88118
:10021A00E061CE2E10C0E091BC01E03061F40CB474
:10022A001DB40E949402E00DF11DF9BDE8BDE881FC
:10023A00E061E093BC01219608950E948602E1E004
:10024A00EA93C0DF3AC00E948602E2E0EA93BADF8C
:10025A0034C00E948602E3E0EA93B4DF2EC00E9413
:10026A008602C4FE09C00E949F02FBBDEABDE7E008
:10027A00CE22CA928DDF05C0CC2019F0CA9283DF44
:10028A00CC241BC00E948602E091BC01E07161F09F
:10029A000E949F02F9BDE8BDE091BC01E770E093BE
:1002AA00BC01EA9375DF09C0E091BC01E03029F096
:1002BA00EA9369DFE0E0E093BC01E991EFBFF991CD
:1002CA00E991B991A9919991899179916991F99055
:1002DA00199009901895E0E0EBBBEABBE8BBE3E1B3
:1002EA00E7BBE0E0E5BBE4BBE0EEE2BBE1BBE3E099
:1002FA00E3BFE6E0E2BFE0E0ECBFEFBDE2E0EEBD67
:10030A00E0E0EDBDECBDE7BDE6BDEBBDE1E0EABD79
:10031A00E0E0E9BDE1E0E8BDE0E0E2BDE5BDE4BD65
:10032A00E3BDEBB7E06EEBBFEAE0E5BFE0E0E4BFB8
:10033A00E0EEEABFE9E1E9BFE0E0EBB9E8EDEAB9EE
:10034A00E6E8E0BDE0E0E0BDE7E6E9B9E0E8E8B903
:10035A00E0E0E0BFE6B9EDB9E6BF7894C498C19889
:10036A00C09AE6E0E61520F4E091BD01E03009F418
:10037A00BFC0DFDEE63611F00C947A02DADEE63030
:10038A0011F00C947A02D5DEE03611F00C947A0260
:10039A00C098DD24E3E0DE1610F00C947A020E9485
:1003AA00A402EA0FFB1FFF93EF93C3DEAF91BF9145
:1003BA00F0E0ED93FC930E94A4020E94AB02E45683
:1003CA00F040FE93EE930E94B00241F00E94A40214
:1003DA000E94B702DF010E94190354F00E94B00282
:1003EA0031F40E94A4020E94B702FF230AF019C046
:1003FA000E94BC020E94AB02EE0FFF1FFE93EE9317
:10040A000E94BC020E94B702E536A0E0FA0744F057
:10041A000E94BC02AE0FBF1FE4E6F0E0ED93FC932E
:10042A001CC00E94A4020E94B7023097B1F00E9439
:10043A00BC020E94AB02F595E795FE93EE930E94EB
:10044A00BC020E94B702319744F40E94BC02AE0F6C
:10045A00BF1FE1E0F0E0ED93FC930E94A4020E942A
:10046A00B702FF23D2F4F8940E94C3020E94C60284
:10047A000E94D1020E94B7020E94D602319734F438
:10048A000E94E702E1E0F0E0ED93FC9378940E9489
:10049A00C302E055FE4FA0E025C00E94A4020E94BC
:1004AA00B702DF010E941903F4F4F8940E94C30210
:1004BA000E94C6020E94D1020E94B7020E94D6027E
:1004CA00E132AEE4FA0714F4319734F40E94E702F9
:1004DA00E0E2FEE4ED93FC9378940E94C302E055B7
:1004EA00FE4FA1E0A083D39455CFE0E0E093BD0195
:1004FA0038CFFFCF12B2E881EC5FA1E00E94F2028E
:10050A0008950A921A92FA926A937A938A939A931C
:10051A00AA93BA93EA93FA93EFB7EA930895E88114
:10052A00A0EAB1E0F0E0EE0FFF1FAE0FBF1F0E947E
:10053A0015030895ECB5FDB5EC59FF4F0895ED2D5F
:10054A00A4EBB1E0F0E0EE0FFF1F0895AE0FBF1F5E
:10055A00ED91FD910895ED2DF0E0E055FE4FE0811B
:10056A00E0300895AE0FBF1F0E9415030895ED2DC8
:10057A00A8EAB1E0F0E0EE0FFF1F0895ED2DF0E0DC
:10058A0008953196A0EAB1E0EE0FFF1FEA0FFB1FB4
:10059A00CF0160817181EBCFAE0FBF1F0D901C9010
:1005AA00CECFD0010E940203E60FF71FDC01ED93C4
:1005BA00FC93AD2DBB27AA0FBB1FAE55BE4F0E94A1
:1005CA0015030895AD2DBB27AA0FBB1FAE55BE4F0D
:1005DA000895F195E195F0400895EE230E2EEA2F45
:1005EA0019F0EE0F0A94E9F70895FA9FF02DEB9FA0
:1005FA00F00DEA9FE02DF10D089504D0F6DF0EF418
:10060A00E8DF0895E894F7FF02C0E3DF6894B7FFD4
:10061A0006C0A095B095119600F8039400FA0895C3
:10062A00ED91FC911197089500240A160B0608957E
:00000001FF
