:0A0000000C94BB040C9400000C9457
:10000A0000000C9400000C9400000C9400000C9466
:10001A0000000C9400000C9400000C9400000C9456
:10002A0000000C9400000C9400000C9400000C9446
:10003A0000000C9400000C94920A0C9400000C949A
:10004A00AE090C9400000C94F1090C9400000C9475
:10005A0000000C9400000C9400000C9400000C9416
:10006A0000000C9400000C9400000C9400000C9406
:10007A00310A0C9400000C945C0A0C9400000C9455
:10008A000000000000000000000000000000000066
:10009A000000000000000000000000000000000056
:1000AA000000000000000000000000000000000046
:1000BA000000000000000000000001800180000034
:1000CA0000000000018003C007E006600C300C301D
:1000DA0018181818300C300C600660067FFE7FFE78
:1000EA00000000007FFE7FFE60066006300C300CC8
:1000FA00181818180C300C30066007E003C001808D
:10010A000000000007E00C30181818181818181802
:10011A00181818181818181818180C3007E00000C2
:10012A0000000000018003800780018001800180B7
:10013A0001800180018001800180018003C00000EC
:10014A000000000007E00C301818100800180030F2
:10015A00006000C00180030006000C181FF80000B0
:10016A000000000007E0081010081008001000E066
:10017A00003000180008000818180C3007E00000CA
:10018A00000000000030007000F001B003300630BB
:10019A000C3018301FF800300030003000780000B2
:1001AA00000000000FF80FF00800100010001FE018
:1001BA00003000180018001818181C300FE0000052
:1001CA000000000003E006100C00080018001FE001
:1001DA001C3018181818181818180C3007E00000E6
:1001EA00000000001FF81018001000200020004036
:1001FA0000400080008001000100020002000000AF
:10020A000000000007E00C30081008100C3007E06E
:10021A000C3018181818181818180C3007E00000B5
:10022A000000000007E00C301818181818180C38CD
:10023A0007F8001800100020002000C0030000008A
:10024A0000000000000000000000000000000000A4
:10025A000000000000000000000000000000000094
:10026A00000000000180018001800180018001807E
:10027A00018001800180018000000180018000006E
:10028A00000000000060008001000200020004007B
:10029A000400040002000200010000800060000067
:1002AA00000000000600010000800040004000201D
:1002BA0000200020004000400080010006000000ED
:1002CA00000000000000000800180030006000C0B4
:1002DA000180030006000C00180010000000000056
:1002EA00000000000000018001800180018001807F
:1002FA003FFC3FFC018001800180018001800000F9
:10030A0000000000000000000000000000000000E3
:10031A003FFC3FFC0000000000000000000000005D
:10032A0000000000000000000180018000000000C1
:10033A0000000000000001800180000000000000B1
:10034A00000000000030006000C0018003000600C9
:10035A000C0006000300018000C0006000300000AD
:10036A00000000000000000000000FF00FF0000085
:10037A00000000000FF00FF0000000000000000075
:10038A00000000000C0006000300018000C00060AD
:10039A000030006000C00180030006000C0000006D
:1003AA000000000003C006600C300C30043000600E
:1003BA0000C00180018001800000018001800000EE
:1003CA000000000000E000E00120012002300210DD
:1003DA00041004180FF81818100C300C781E0000BE
:1003EA00000000007FFE301E3002300030003FF86F
:1003FA003FFC300E30063006300E3FFC7FF800001E
:10040A00000000007FF03018300C300C30183FF834
:10041A003FFC300E30063006300E3FFC7FF80000FD
:10042A00000000007FFE301E300230003000300035
:10043A00300030003000300030003000780000001A
:10044A000000000003FC0118011801180118011826
:10045A0001180218041808183FFC383C300C200414
:10046A00000000007FFC301C3004300030803F80E8
:10047A003F803080300030003004301C7FFC0000A8
:10048A000000000063C6518A11880990099007E0AC
:10049A0007E00DB019981188318C218463C60000D9
:1004AA00000000000FE03838600C0004000C03F86C
:1004BA000008000400060006600C3FF80FE0000088
:1004CA0000000000781E300C301C303C306C30CC00
:1004DA00318C330C360C3C0C380C300C781E000076
:1004EA00000003C0799E300C301C303C306C30CC9C
:1004FA00318C330C360C3C0C380C300C781E000056
:10050A0000000000783C306C30C0318033003F007E
:10051A00398030C0306030303018300C781E00001E
:10052A000000000001FE008C008C008C008C010C85
:10053A00010C010C020C020C040C680C701E000069
:10054A0000000000700E381C381C342C342C342C5B
:10055A00324C324C324C318C318C318C781E00004A
:10056A0000000000781E300C300C300C300C3FFCC0
:10057A003FFC300C300C300C300C300C781E000074
:10058A000000000007E01E78381C300C700E700E58
:10059A00700E700E700E300C381C1E7807E00000CA
:1005AA00000000007FFE3FFC300C300C300C300C99
:1005BA00300C300C300C300C300C300C781E000033
:1005CA00000000007FF8300C300630063006300C90
:1005DA003FF8300030003000300030007800000072
:1005EA000000000007E01E78381C3004700070001C
:1005FA007000700070003004381C1E7807E000009C
:10060A00000000007FFE6186418201800180018036
:10061A0001800180018001800180018003C0000007
:10062A0000000000780E300418040C0806080310B5
:10063A00019000E0006000400C400C8007000000C0
:10064A000000000003C001800FF0399C61864182DE
:10065A0041826186399C0FF00180018003C000004D
:10066A0000000000781E300418080C100620034011
:10067A00018002C0046008301018200C781E0000A7
:10068A0000000000781E300C300C300C300C300C9E
:10069A00300C300C300C300C300C300C7FFE000665
:1006AA0000020000781E300C300C300C300C380C74
:1006BA001FFC000C000C000C000C000C001E0000BB
:1006CA00000000007BDE318C318C318C318C318C16
:1006DA00318C318C318C318C318C318C7FFE000025
:1006EA00000000007BDE318C318C318C318C318CF6
:1006FA00318C318C318C318C318C318C7FFE0006FF
:10070A00000200007C005800580058001800180029
:10071A001FF8180C180618061806180C3FF80000DF
:10072A0000000000781E300C300C300C300C300CFD
:10073A003F8C304C302C302C302C304C7F9E0000BB
:10074A000000000078003000300030003000300037
:10075A003FF8300C300630063006300C7FF80000C7
:10076A000000000007E01E78381C300C000E000E56
:10077A0000FE000E000E300C381C1E7807E0000048
:10078A000000000079F8330C3204360636063606C5
:10079A003E063606360636063204330C79F8000071
:1007AA000000000003FE060C0C0C0C0C0C0C060CD2
:1007BA0003FC030C060C0C0C180C300C781E000001
:1007CA000000F4010A002C010000F0000E01640090
:1007DA00F0000E017800DC00F0000E01F000540178
:1007EA00F0000E016801CC01B80BFA00E8032020E2
:1007FA0020202000CCC5CDDE0020202B0020202D7B
:10080A0000CFC0D3C7C000202020202020202020D5
:10081A002020202020202000CDC0CFD0DFC6C5CD8B
:10082A00C8C500D4C0C700D2CECA00CDC0CFD0DF61
:10083A00C6C5CDC8C520C820D2CECA00C2CEC7C13F
:10084A00D3C6C4C5CDC8DF00C4C5D1CACECC00D179
:10085A00D2C0D0D2000001002D4E414E00494E4672
:10086A00000001000200D20701000208D4070200BA
:10087A000408D60701000808D80701000A08DA07A1
:10088A0002000C08DC0701000E08DE070100100850
:10089A00E00701001208E20702001408E407010059
:1008AA001608E60702001808E80701001A08EA070E
:1008BA0002001C08EC0702001E08EE0702002008CE
:1008CA00F00702002E08F20701003008F4070200C0
:1008DA003208F60706000005F80706000605F807BD
:1008EA0006000C05F80706001205F80705001805AA
:1008FA00FE0704001D050308040021050708060079
:10090A0025050B0811002B05110811003C051108DB
:10091A000B004D052208040058052D0804005C054B
:10092A003108040060052D081100640535080C0023
:10093A007505460807008105520807008805520810
:10094A0007008F055208070096051B0807009D053A
:10095A001B080700A4051B080600AB05590806007A
:10096A00B1050B080100580860080000F894EE274A
:10097A00ECBBF1E0F5BFE5BFE0936C00F8E1F1BD37
:10098A00E1BD8DE0A2E0BB27ED938A95E9F780E00F
:10099A0090E1A0E0B1E0ED930197E9F7ECE6F8E029
:1009AA0085919591009761F0A591B5910590159063
:1009BA00BF01F00105900D920197E1F7FB01F0CF1D
:1009CA008BBFEFEFEDBFE0E1EEBFC0E0D5E00C94E6
:1009DA00A10D0E94A40FF595E795E575AE2FE88164
:1009EA00EE0FEA7AEA2BE8830E94A40F0E942714EA
:1009FA00E373AE2FE881EE0FEE0FEC7CEA2BE8836F
:100A0A000E94A40F0E942314EF70AE2FE881E29592
:100A1A00E07FEA2BE88323C095981D9A0E94A70FCE
:100A2A001D980E94A70F1D9A959A0E94A70F0895D4
:100A3A00959A97980E94AD0F00001F98969800000B
:100A4A001F9A969A00000BC0959A979A0E94AD0F2A
:100A5A0000001F98969800001F9A969A0000219607
:100A6A0008951A930A931A810B81959A979A1BBB38
:100A7A0005BB00001F98969800001F9A969A0000DE
:100A8A001981088124960895C7DF0E94B50F0E9434
:100A9A00B50F0E94B50F0E94B90F0E94C612E2EE6E
:100AAA00EA93C6DFE3E2EA93CFDFE2E00E94BE0FF9
:100ABA00E0EE0E94C50F0E94CC0FE0EE0E94D20F1A
:100ACA000E94B50FE8E7F0E00E94D90FE6EE0E9417
:100ADA00C50FEAEDEA93B8DFE3E7EA93B5DFE0EBA7
:100AEA00EA93A6DFE4E20E94DD0F0E94E40FEFED35
:100AFA000E94E80FEFE00E94DD0FE4EB0E94D20FA4
:100B0A00E4E80E94DD0FEAE5EA939EDFEAE00E944C
:100B1A00DD0FE8E00E94DD0FE6EB0E94C50FECE274
:100B2A000E94DD0FECE0EA938FDFEAE0EA938CDFC4
:100B3A00E0E00E94BE0FEAEBEA937ADFEFE0EA9385
:100B4A0083DFE8EBEA9374DFE7E00E94E80FE6E36D
:100B5A000E94D20FECEBEA936BDFE0E5EA9374DFD5
:100B6A00E0E9EA9371DFE0E50E94E80FE0EF0E9416
:100B7A00D20FE5E0F0E00E94D90FE9E2EA9358DFEC
:100B8A00E0EDEA9355DFEDE0EA935EDF0895EAE2ED
:100B9A00EA934EDFEF81EA9357DFEE81EA9354DF5F
:100BAA00ED81EA9351DFEC81EA934EDFEBE2EA93BF
:100BBA003FDFEB81EA9348DFEA81EA9345DFE98187
:100BCA00EA9342DFE881EA933FDF289608950E947C
:100BDA001115E8E2EA932CDF0E94EC0FEFEDF1E049
:100BEA000E94F10FEFE0F1E00E94F40F00E010E044
:100BFA000031E1E01E0780F420E030E0203EE1E031
:100C0A003E0738F4EC81FD810E94FC0F2F5F3F4FB5
:100C1A00F5CF0F5F1F4FECCFE9E2EA9309DF0E949D
:100C2A001815269608951A930A930E940010AA8509
:100C3A00BB8550961197BA93AA930E940510AC856A
:100C4A00BD8550961197BA93AA93A1DFECE2EA9375
:100C5A00EFDE10E01032E8F400E00830C0F4E12FD3
:100C6A00AA85BB85F0E0EA0FFB1F1490E02FA0E8ED
:100C7A000E941B14E121E13018F0EC81FD8102C0D1
:100C8A00EA81FB81FA93EA93ECDE0F5FE6CF1F5FFE
:100C9A00E1CF19810881C2C2E885F0E0E033A0E023
:100CAA00FA0719F4ECE0F1E08EC1E133A0E0FA07AB
:100CBA0019F4ECE2F1E087C1E233A0E0FA0719F493
:100CCA00ECE4F1E080C1E333A0E0FA0719F4ECE6C2
:100CDA00F1E079C1E433A0E0FA0719F4ECE8F1E0B5
:100CEA0072C1E533A0E0FA0719F4ECEAF1E06BC14E
:100CFA00E633A0E0FA0719F4ECECF1E064C1E7335B
:100D0A00A0E0FA0719F4ECEEF1E05DC1E833A0E0E7
:100D1A00FA0719F4ECE0F2E056C1E933A0E0FA0769
:100D2A0019F4ECE2F2E04FC1E132A0E0FA0719F45B
:100D3A00ECE6F2E048C1E832A0E0FA0719F4ECE880
:100D4A00F2E041C1E932A0E0FA0719F4ECEAF2E074
:100D5A003AC1EF32A0E0FA0719F4ECECF2E033C141
:100D6A00EA33A0E0FA0719F4ECE2F3E02CC1EC3321
:100D7A00A0E0FA0719F4ECE4F3E025C1ED33A0E0B2
:100D8A00FA0719F4ECE6F3E01EC1EE33A0E0FA0725
:100D9A0019F4ECE8F3E017C1EF33A0E0FA0719F40D
:100DAA00ECEAF3E010C1EB32A0E0FA0719F4ECEE3A
:100DBA00F2E009C1ED32A0E0FA0719F4ECE0F3E041
:100DCA0002C1E03CA0E0FA0719F4ECECF3E0FBC046
:100DDA00E13CA0E0FA0719F4ECEEF3E0F4C0E23CDF
:100DEA00A0E0FA0719F4ECE0F4E0EDC0E33CA0E07F
:100DFA00FA0719F4ECE2F4E0E6C0E43CA0E0FA07F2
:100E0A0019F4ECE4F4E0DFC0E53CA0E0FA0719F4D9
:100E1A00ECE6F4E0D8C0E63CA0E0FA0719F4ECE806
:100E2A00F4E0D1C0E73CA0E0FA0719F4ECEAF4E0F8
:100E3A00CAC0E83CA0E0FA0719F4ECECF4E0C3C03D
:100E4A00E93CA0E0FA0719F4ECEEF4E0BCC0EA3C95
:100E5A00A0E0FA0719F4ECE0F5E0B5C0EB3CA0E03D
:100E6A00FA0719F4ECE2F5E0AEC0EC3CA0E0FA07B0
:100E7A0019F4ECE4F5E0A7C0ED3CA0E0FA0719F498
:100E8A00ECE6F5E0A0C0EE3CA0E0FA0719F4ECE8C5
:100E9A00F5E099C0EF3CA0E0FA0719F4ECEAF5E0B6
:100EAA0092C0E03DA0E0FA0719F4ECECF5E08BC043
:100EBA00E13DA0E0FA0719F4ECEEF5E084C0E23D6A
:100ECA00A0E0FA0719F4ECE0F6E07DC0E33DA0E00B
:100EDA00FA0719F4ECE2F6E076C0E43DA0E0FA077E
:100EEA0019F4ECE4F6E06FC0E53DA0E0FA0719F466
:100EFA00ECE6F6E068C0E63DA0E0FA0719F4ECE893
:100F0A00F6E061C0E73DA0E0FA0719F4ECEAF6E082
:100F1A005AC0E83DA0E0FA0719F4ECECF6E053C039
:100F2A00E93DA0E0FA0719F4ECEEF6E04CC0EA3D20
:100F3A00A0E0FA0719F4ECE0F7E045C0EB3DA0E0C9
:100F4A00FA0719F4ECE2F7E03EC0EC3DA0E0FA073C
:100F5A0019F4ECE4F7E037C0ED3DA0E0FA0719F424
:100F6A00ECE6F7E030C0EE3DA0E0FA0719F4ECE851
:100F7A00F7E029C0EF3DA0E0FA0719F4ECEAF7E040
:100F8A0022C0EE32A0E0FA0719F4ECEAF0E01BC046
:100F9A00E032A0E0FA0719F4ECE4F2E014C0E13020
:100FAA00A0E0FA0719F4ECECF0E00DC0E230A0E0A2
:100FBA00FA0719F4ECEEF0E006C0E330A0E0FA0715
:100FCA0069F4ECE8F0E0FA93EA930E9400100E94B8
:100FDA0000100E9400100E94001025DE2996089534
:100FEA00A885B985EC91E03099F0ED91A887B98789
:100FFA00EA930E940A100E940A100E940A100E9494
:10100A000A104ADEEE81FF817096EE83FF83E8CFF5
:10101A002A9608950E940F100E94211012F40E942D
:10102A002B100E94321022F40E9442100E94471094
:10103A000E9452100E9465103CF4EA85FB850E94CA
:10104A00FC0F0E946D10F6CF05C12A970E940F155A
:10105A00A98DBA8DEF89F88DEA1BFB0BAF015523D9
:10106A0032F4FA01AFEFBFEF0E945E14AF01AD890F
:10107A00BE89EB89FC89EA1BFB0BEE87FF87AF85EC
:10108A00AA2332F4AFEFBFEF0E945E14EE87FF8708
:10109A00EF89F88DA98DBA8DAE17BF0718F4E1E074
:1010AA00F0E002C0EFEFFFEFEC87FD87EB89FC89E8
:1010BA00AD89BE89AE17BF0718F4E1E0F0E002C0BF
:1010CA00EFEFFFEFEA87FB87AE85BF85FA01EA1BE0
:1010DA00FB0BE887F987E98DFA8DFA93EA93EA8997
:1010EA000E947A10FA93EA93E98DFA8DFA93EA93B9
:1010FA00EE890E947A100E94F40FA889BB27E8891A
:10110A00F0E00E945E149F0100E010E02017310712
:10111A003CF0E989FA890E94FC0F0F5F1F4FF6CF56
:10112A00EF89F88DA98DBA8DEA17FB0739F4EB8997
:10113A00FC89AD89BE89EA17FB0709F001C032C0F4
:10114A00E885F985EE0FFF1FEE83FF83EE85FF85A5
:10115A000E940714AE81BF81EA17FB0774F4AE85BB
:10116A00BF850E948010E887F987EC85FD85A98DE7
:10117A00BA8DEA0FFB1FE98FFA8FAE81BF81A417E0
:10118A00B5077CF4FA01A885B985EA0FFB1FE88741
:10119A00F987EA85FB85AD89BE89EA0FFB1FED8BCE
:1011AA00FE8B99CF0E9416156B9608950E94051022
:1011BA000E9405100E940510E885F9850E94851095
:1011CA000E94001027DF0E940510EC81FD810E9419
:1011DA0085100E9405100E9405100E9400101ADF57
:1011EA000E9405100E940510AE81BF810E948010E6
:1011FA00FA93EA930E9405100E9400100BDFAA815D
:10120A00BB810E948010FA93EA930E9405100E9403
:10121A0005100E9405100E940010FCDE2C9608950D
:10122A000E940F100E94211012F40E942B100E949B
:10123A00321022F40E9442100E9447100E9452105B
:10124A000E9465103CF4EA85FB850E94FC0F0E940F
:10125A006D10F6CF19810881649608951A930A933E
:10126A001A980E94CC0FE3ED0E948C105BC01A936F
:10127A000A931A980E94CC0FE3E90E948C1052C07C
:10128A001A98E5E0F0E00E94D90FE0E9EA930E949B
:10129A009D0F80E991E00197F1F7E0E0EA930E945F
:1012AA009D0FE0E0EA930E949D0F1A9A08951A93FF
:1012BA000A93D4DFE451F5408F01112312F400E0C0
:1012CA0010E00E94A510E5E5F5ED65E772E40E94DD
:1012DA00AD1028C01A930A93CADFE453F8408F016D
:1012EA00112312F400E010E00E94A510EEE1FEE9DD
:1012FA006EEC72E40E94AD1015C01A930A9310E0C6
:10130A00A0E00B99A1E0A13060F40E94B41000E0C3
:10131A00003120F40E94C6100F5FFACF0E94F3102A
:10132A0011E0E12F0991199108951A981B9885E304
:10133A008A95F1F71A9A1B9A0E94B4104424E0E1A4
:10134A004E1620F40E94C6104394F9CF0E94F3105F
:10135A0008950E9413111A930A931BB10CB1E12F3D
:10136A00EC71D9F4E091DE07EF5FE093DE070E94AB
:10137A0019110083A091DE07A83019F4E0E0E09388
:10138A00DE07A091E007AF5FA093E007A83029F439
:10139A00E0E0E093E007689421F809911991A3C06D
:1013AA001A93E091E007E030E1F3E091DF07EF5FA5
:1013BA00E093DF070E9419111081A091DF07A8307E
:1013CA0019F4E0E0E093DF07F894E091E007E150D8
:1013DA00E093E0077894AAC10E941311E091EB0709
:1013EA00E03099F0E150E093EB07E091EA07EF5F14
:1013FA00E093EA070E941E11E081ECB9A091EA0786
:10140A00A83019F4E0E0E093EA076DC0A091EB0779
:10141A00A830E1F3F894E091EB07E03011F45D991C
:10142A0016C0E091E907EF5FE093E9070E941E11F9
:10143A00A881A083A091E907A83019F4E0E0E0931D
:10144A00E907E091EB07EF5FE093EB0702C0E88161
:10145A00ECB97894219608950E9413111A930A936D
:10146A0010919B0000919C00E12FEC71E9F4E0914E
:10147A00F407EF5FE093F407E150F0E0E451F84F2E
:10148A000083A091F407A83019F4E0E0E093F40790
:10149A00A091F607AF5FA093F607A83029F4E0E021
:1014AA00E093F607689422F8099119911CC00E94EA
:1014BA001311E0910108E030B1F0E150E093010826
:1014CA00E0910008EF5FE0930008E150F0E0E95096
:1014DA00F84FE081E0939C00A0910008A83019F42D
:1014EA00E0E0E0930008E991EFBFF991E991A99151
:1014FA0018950E94A40F309729F40E942311E095B1
:10150A00E12107C0E130A0E0FA0729F40E94231183
:10151A00E129A62FEC93229608950A921A92FA923A
:10152A006A937A938A939A93AA93BA93EA93FA93C9
:10153A00EFB7EA93E6E0E2BFA3E2B8E00E942C111B
:10154A00A8E3B8E00E942C11A0E5B8E00E942C1193
:10155A00A4E5B8E00E942C11A6E5B8E00E942C117F
:10156A00A0914B08A13010F00C94070BA0914C08E5
:10157A00A13020F50E9432110E943811A8E2B8E089
:10158A000E942C11A0912808B09129085F9710F0A9
:10159A000E943E11E0912E08F0912F08A091280890
:1015AA00B0912908EA17FB0740F4E0E0E093280825
:1015BA00E0932908E3E00E94441123C00E943E11EF
:1015CA000E943211ACE2B8E00E942C11A0912C08C2
:1015DA00B0912D085F9710F00E943811E0913208FF
:1015EA00F0913308A0912C08B0912D08EA17FB0757
:1015FA0040F4E0E0E0932C08E0932D08E5E00E9437
:10160A00441123C00E943E110E943811AAE2B8E098
:10161A000E942C11A0912A08B0912B085F9710F014
:10162A000E943211E0913008F0913108A0912A0805
:10163A00B0912B08EA17FB0740F4E0E0E0932A0890
:10164A00E0932B08E4E00E944411E991EFBFF9917D
:10165A00E991B991A9919991899179916991F990B1
:10166A001990099018951A9310E047DEE03011F4AA
:10167A000C949B0B0E944911E615F70528F40E9469
:10168A004E116E167F0608F00CC00E945311E81521
:10169A00F90528F40E9458118E169F0608F001C019
:1016AA0011E00E945D11E615F70528F40E94621107
:1016BA006E167F0608F00CC00E946711E815F9053E
:1016CA0028F40E946C118E169F0608F001C012E0E1
:1016DA000E947111E615F70528F40E9476116E161C
:1016EA007F0608F00CC00E947B11E815F90528F462
:1016FA000E9480118E169F0608F001C013E00E9416
:10170A008511E615F70528F40E948A116E167F06E0
:10171A0008F00CC00E948F11E815F90528F40E9400
:10172A0094118E169F0608F001C014E0E12F19915A
:10173A000895EC810E94991169F4E0E0F5E00E94B5
:10174A009E110E94A5110E9400100E94AA110E94D7
:10175A009E1132C0E230A0E0FA0769F4E6E0F5E053
:10176A000E94AF110E94A5110E9400100E94AA11A6
:10177A000E94AF1121C0E330A0E0FA0769F4ECE05F
:10178A00F5E00E94B6110E94A5110E9400100E9465
:10179A00AA110E94B61110C0E430A0E0FA07B1F411
:1017AA00E2E1F5E00E94BD110E94A5110E9400101D
:1017BA000E94AA110E94BD113F963897FA93EA93A4
:1017CA000E9400100E9400100E94F50727960895B3
:1017DA000E944911FA93EA930E944E11FA93EA93EE
:1017EA000E945311FA93EA930E9458110E94C4115D
:1017FA000E945D11FA93EA930E946211FA93EA93A6
:10180A000E946711FA93EA930E946C110E94C41114
:10181A000E947111FA93EA930E947611FA93EA935D
:10182A000E947B11FA93EA930E9480110E94C411CC
:10183A000E948511FA93EA930E948A11FA93EA9315
:10184A000E948F11FA93EA930E9494110E94C41184
:10185A000E9449113196FA93EA930E944E113197E8
:10186A00FA93EA930E9453113196FA93EA930E94EB
:10187A0058110E94CC110E94DB080E945D1131961A
:10188A00FA93EA930E9462113197FA93EA930E94BB
:10189A0067113196FA93EA930E946C110E94CC1157
:1018AA000E94DB080E9471113196FA93EA930E9412
:1018BA0076113197FA93EA930E947B113196FA9343
:1018CA00EA930E9480110E94CC110E94DB080E94B8
:1018DA0085113196FA93EA930E948A113197FA9305
:1018EA00EA930E948F113196FA93EA930E94941117
:1018FA000E94CC110E94DB08E8E1F5E0FA93EA9332
:10190A00E1E0EA930E94EC0F0E94D211EDE1F5E0CA
:10191A00FA93EA93E2E0EA930E94EC0F0E94D21152
:10192A00E1E2F5E0FA93EA93E3E0EA930E94EC0F2E
:10193A000E94D211E5E2F5E00E94D8110E94D2116C
:10194A0008950E9411150E94DD11A885B9850E948B
:10195A00E6118F010233E0E01E0714F402E310E0FF
:10196A00093EE0E01E0714F007EE10E0A4E0B0E044
:10197A000E94E114DF010E94DD110E94E6119F011D
:10198A002233E0E03E0714F422E330E00E94F7112C
:10199A000E9408120E9415090E94F711EBE4F0E078
:1019AA00FA93EA930E940F12E4E6F0E0FA93EA93BC
:1019BA000E940F12EDE7F0E0FA93EA930E940F12E9
:1019CA00E6E9F0E0FA93EA930E940F12EFEAF0E0F8
:1019DA00FA93EA930E940F120E94B90F0E94B90F5C
:1019EA00E8E0F1E2FA93EA930E940F080E94F711E5
:1019FA003A932A933A932A93E7E0FFEFFA93EA930A
:101A0A00E1E0EA930E942A080E94F711E091440853
:101A1A00F0914508FA93EA931A930A93EE85FF85A3
:101A2A00FA93EA93E2E0EA930E942A08EC81FD81A4
:101A3A00A0914208B0914308EA0FFB1FE0934208C5
:101A4A00F09343080093440810934508AC81BD8184
:101A5A00E0EEF1E0EA1BFB0BA0914208B0914308CB
:101A6A00EA17FB07C8F4E0914208F0914308FA9399
:101A7A00EA93E0EEF1E0FA93EA930E9408120E94D8
:101A8A001509E0E0E0934208E09343080E94F71149
:101A9A000E9408120E9415090E9418152A96089594
:101AAA00EBE2F5E00E9418120E9421120E94F5074B
:101ABA00ECE3F5E00E94181270960E9421120E942F
:101ACA00F507EC81F0E0309759F4EDE4F5E00E9477
:101ADA0018120E9421120E94F507E8E5F5E01DC0E0
:101AEA00E130A0E0FA0759F4ECE5F5E00E9418129B
:101AFA000E9421120E94F507E0E6F5E00EC0E230EE
:101B0A00A0E0FA07B9F4E4E6F5E00E9418120E9490
:101B1A0021120E94F507E5E7F5E0FA93EA93ED81D1
:101B2A00F0E0FA93EA93EE81F0E070960E942112B7
:101B3A000E94F507259608950FEF1FEFE0E0EBBB33
:101B4A00EFEFEABBE0E0E8BBE7EFE7BBE0E0E5BBCD
:101B5A00EFEFE4BBE0E0E2BBEBEFE1BBE0E0E3B9CF
:101B6A00E6EBE2B9E0E0E0936200E8EFE0936100BF
:101B7A00E0E0E0936500EFE1E0936400E0E0E0BFBD
:101B8A00E4E0E3BFE6E0E2BFE0E0E1BFEFBDEEBDC7
:101B9A00EDBDECBDE7BDE6BDEBBDEABDE9BDE8BD07
:101BAA00E0937900E0937800E5BDE4BDE3BDE093FE
:101BBA008B00E0938A00E0938900E0938800E09329
:101BCA008100E0938000E0938700E0938600E09331
:101BDA008500E0938400E0938300E0938200E09321
:101BEA006A00EABFE9BFE1E0E7BFE0E0E0937D0019
:101BFA00EBB9E8EDEAB9E6E0E0939500E0E0E093BE
:101C0A009000E8E0E9B9E0E0E0939B00E8EDE093BA
:101C1A009A00E6E0E0939D00E0E0E0939800E7E6B2
:101C2A00E0939900E0E8E8B9E0E0E0BDE7B9E4E86C
:101C3A00E6B9E2E5EDB9E0E0EEB9E09374000E949E
:101C4A00741278940E943E110E9432110E94381137
:101C5A00E8EEF3E00E94D90F0E9449050E9426127D
:101C6A00A6E0B0E00E94E514E230F0F04424E3E09C
:101C7A004E16A8F4E42D0E942C12EA0FFB1FBF0196
:101C8A00E42DACECB7E0F0E0EE0FFF1FEA0FFB1F0C
:101C9A000E94CB14DB010E94F1144394E8CFA6E022
:101CAA00B0E0E0E00E94F9140E94EC0F0E94EC05FB
:101CBA00E1E8F5E00E943212E0E7F0E00E94391212
:101CCA000E943E12E8E8F5E00E943212E0E8F0E0F5
:101CDA00FA93EA93E7E0FFEF0E94F10F0E943E12A7
:101CEA00EFE8F5E00E943212E0E9F0E00E943912D2
:101CFA000E943E12E6E9F5E00E943212E0E7F0E0C7
:101D0A000E94F10F0E94EC0F0E943E12EDE9F5E0ED
:101D1A000E943212E0E8F0E00E94F10F0E94EC0FFC
:101D2A000E943E12E4EAF5E00E943212E0E9F0E095
:101D3A000E94F10F0E94EC0F0E94F50749DD0E94F4
:101D4A009A09E2E3F0E0E0934408F0934508E0E002
:101D5A00E0934208E09343080E9443120E945512FE
:101D6A00EEE0F1E0E0933408F0933508E0914D0895
:101D7A00F0E0309711F00C94650FE7E4EA9346DB44
:101D8A00A091E007A13088F00E94D509FE2FE0E07B
:101D9A00FF93EF930E94D509F0E0AF91BF91EA0F4C
:101DAA00FB1FE0935208F09353080E944312E091FC
:101DBA005208F0915308FA93EA93E0E0FFE1FA93AC
:101DCA00EA93A2E0B0E00E94E114FA93EA93B9DD43
:101DDA000E948209E13010F40C94640F0E9462128E
:101DEA0079F4E0914A08EF5FE0934A08A0914A0823
:101DFA00A33018F0E0E0E0934A080E9455125FC051
:101E0A00E230A0E0FA0719F5E0914A08E03071F4EF
:101E1A000E946C120E946F12329738F00E946C1264
:101E2A000E946F123A970E94F11410C00E946C121D
:101E3A000E946F12E83EA3E0FA0740F40E946C1277
:101E4A000E946F1231960E94F114319738C0E33024
:101E5A00A0E0FA0719F5E0914A08E03081F40E94FF
:101E6A006C120E946F12E83EA3E0FA0738F40E944F
:101E7A006C120E946F123A960E94F1140EC00E94D0
:101E8A006C120E946F12329740F00E946C120E94EC
:101E9A006F1231970E94F114319611C0E430A0E01C
:101EAA00FA0769F4E8ECE0934D08EBEAF5E00E94E2
:101EBA00D8110E94D211EAEFF0E00E94D90F36C081
:101ECA00E130A0E0FA0791F1E83CA0E0FA0709F551
:101EDA000E948209E130E0F00E946212C9F0E23009
:101EEA00A0E0FA07A9F0E330A0E0FA0789F0E430AD
:101EFA00A0E0FA0769F4E0E0E0934D08E1EBF5E0D1
:101F0A000E94D8110E94D211EAEFF0E00E94D90F84
:101F1A000DC0EA3FA0E0FA0749F40E948209E130C5
:101F2A0028F0E0E0E0934D080E9426121FCFFFCF71
:101F3A00E881EFB9779BFECFEFB121960895E8814A
:101F4A00F0E00895E4E6F0E0FA93EA930C94C612FE
:101F5A00E881EA930E94EE04EBBBE0E0E5BB08955A
:101F6A00E1E0EA930C941D05E8ECF0E0FA93EA93B9
:101F7A000895EA930E942905E4E0EA930C9429055E
:101F8A00EA930E941D05E1E0EA930C942905E1E039
:101F9A00F0E0FA93EA930C94C612EA930E941D05A4
:101FAA00E3E0EA930C942905FA93EA930C94C61297
:101FBA00EA930E942905E0E0EA930C942905E1E0FE
:101FCA00EA930C942905EA930E942905F8CFE0E0E8
:101FDA00F0E0FA93EA930895FA93EA93F8CFFA9322
:101FEA00EA930E94CC05ECE2EA930C941D05FA935D
:101FFA00EA930C943605E885F985FA93EA930895ED
:10200A00EA85FB85FA93EA930895EF81F885FA93B6
:10201A00EA93089528971A930A93EA89FB89FA930F
:10202A00EA93EA89FB89FA93EA93EA89FB89FA93A4
:10203A00EA93EA89FB89D3CFAA89BB89E889F98916
:10204A00EA1BFB0B31968F0111230895F801AFEFBC
:10205A00BFEF0E945E148F010895AE85BF85EC859F
:10206A00FD85EA1BFB0B319666277727EA83FB83FC
:10207A006C837D83AD81AA230895EA81FB816C81FB
:10208A007D810895AFEFBFEF8FEF9FEF0E9463143A
:10209A00EA83FB836C837D830895F801AA81BB815F
:1020AA008C819D810E942C140E946314EA83FB8315
:1020BA006C837D83E0E0EE83EF83E887E987089508
:1020CA00DCDFAE81BF81888599850E940A15089553
:1020DA00EE81FF8168857985EF5FFF4F6F4F7F4FF4
:1020EA00EE83FF83688779870895F0E0AB8DBC8D16
:1020FA00EA0FFB1F0895E885F985EA1BFB0B089593
:10210A00AC85BD85EA0FFB1FFA93EA930895EA931B
:10211A000E949D0F80E991E00197F1F7E0E0EA93D0
:10212A000E949D0F0E2F1127102F0027E0E0EA933F
:10213A000E949D0FF0E00E0F1F1F1A9AF8010895D2
:10214A00F8010E942C140E943813DF01CB01089574
:10215A000E94BD130E9401138F01F8010895E0E067
:10216A00E093B705E093B805E093B905E093BA05A3
:10217A00E093BB05E093BC05E093BD05E093BE0583
:10218A0008950E945C09A091B705B091B8058091A5
:10219A00B9059091BA05662777270E940214E09341
:1021AA00B705F093B8056093B9057093BA050E9414
:1021BA006F09A091BB05B091BC058091BD059091B6
:1021CA00BE05662777270E940214E093BB05F093A9
:1021DA00BC056093BD057093BE050895A091B7052F
:1021EA00B091B8058091B9059091BA05E0E1F0E0A7
:1021FA0060E070E00E94A0143F01A091BB05B0917D
:10220A00BC058091BD059091BE05E0E1F0E060E07B
:10221A0070E00E94A0144F010C944509AA93EA9316
:10222A00FA93EFB7EA930895E150F0E0EA52F84FD3
:10223A000895E150F0E0EF51F84F0895A2E6B0E0BA
:10224A006A2F1C90E981A1E00E9413140895ED9170
:10225A00FD913196FE93EE930895E4E0EA93E1E06E
:10226A00EA930C947E0AE5E0EA93E1E0EA930C949F
:10227A007E0AE3E0EA93E1E0EA930C947E0AEA93A9
:10228A00E0E0EA930C947E0AE0910608F0910708D0
:10229A000895E0910808F09109080895E09102086C
:1022AA00F09103080895E0910408F0910508089553
:1022BA00E0910E08F0910F080895E0911008F0914E
:1022CA0011080895E0910A08F0910B080895E09129
:1022DA000C08F0910D080895E0911608F09117087E
:1022EA000895E0911808F09119080895E0911208EC
:1022FA00F09113080895E0911408F09115080895D3
:10230A00E0911E08F0911F080895E0912008F091CD
:10231A0021080895E0911A08F0911B080895E091A8
:10232A001C08F0911D080895F0E0E130A0E0FA07DA
:10233A000895FA93EA93A8DF3A96FA93EA93AECF0E
:10234A003F963897FA93EA9356CE0E94F507ED81A5
:10235A00FE810895FA93EA93ABDF3A96FA93EA93E9
:10236A00B1CFFA93EA93B8DF3A96FA93EA93BECFDB
:10237A00FA93EA93C5DF3A96FA93EA93CBCFFA93A4
:10238A00EA93EFEFFFEFFA93EA930C94150931976A
:10239A00FA93EA93E1E0F0E01FCEEFEFFFEFFA9352
:1023AA00EA930C949E0BFA93EA93E4E0EA930FCE35
:1023BA00E0914608F09147086091480870914908F1
:1023CA000895882799270E94D1140E94BD13A0E07E
:1023DA00B0E088E693E40E94D4140E946B130E9432
:1023EA0001130895E0914208F0914308FA93EA93A1
:1023FA00EE81FF81A0914208B0914308EA0FFB1FCA
:10240A00FA93EA930895E2E3F0E0FA93EA93E9EEA5
:10241A00F0E0E2CDFA93EA93E8E0F1E2FA93EA9384
:10242A000E940F08DFCFFA93EA93ED81F0E0FA9366
:10243A00EA93EE81F0E00895FA93EA93EE81FF8140
:10244A00CBCDE6E0EA93E1E0EA930C947E0AA0E0C1
:10245A00B0E0F0E0EE0FFF1F0895FA93EA93E0EC84
:10246A00F0E0FA93EA930895FA93EA93E0E0FFE141
:10247A00B3CD0E94F507ECE2F1E096CDA0E0B0E022
:10248A000E94E114DF01E6EBF0E00E946814A6E482
:10249A00B8E0662777270E9438130E94C614089569
:1024AA00E0914A08EA93EEE1EA93E0E1EA93E8EF81
:1024BA00F0E0FA93EA930C94550DE0E0E0935408A7
:1024CA00E09355080E94380BE09322082DCFE09143
:1024DA004A08BDCFAE0FBF1F0E94E114089590981D
:1024EA009198889A899815C089988898EE2700004B
:1024FA00819B0895809B089504D0899A02D0889A76
:10250A00E1E06BE107C0899A889A03D08898F9DFDD
:10251A00899865E36A95F1F7089578E08898F1DF7C
:10252A00809BFECFEEDF889481990894889AF1DF28
:10253A00EE1F7A9599F77991772311F4899801C05A
:10254A00899ADFDF8898E5DF889ADBDF8998D9CF17
:10255A00E99178E0EE0F10F4899801C0899AD9DFE1
:10256A008898CFDF809BFECFCCDF889A7A9591F747
:10257A008998C7DF8898CDDFE1E08199EE27889AAC
:10258A00C0CFE991F991309639F080EA9FE001973E
:10259A00F1F7A8953197C9F70895552342F45038B1
:1025AA0011F4E0FF04C03196691F791F6BF050E8FF
:1025BA00572711F45F93CAC05F3F31F0660F000CD2
:1025CA0057956795752F08955F9300200AF0CAC042
:1025DA00C3C050E8192E1522880F991F9527550F49
:1025EA00879550E8072E0522660F771F7527550F26
:1025FA0067950895689401C0E8945F93F2DF703894
:10260A0018F07F3F08F4A2C056E1571BAAF451956F
:10261A0058300EF4593030F0EFEFFFEF6FEF7FE7ED
:10262A0077F91AC077275523B9F0EE0FFF1F661FF7
:10263A00771F5A95D1F710C07727583028F0EF2F17
:10264A00F62F672F5850F9CF552331F076956795B5
:10265A00F795E7955A95D1F700200AF4D7D05F91FC
:10266A000895689401C0E894309760407040B1F0D2
:10267A00002426F0772312F40094C8D0172E7EE1A6
:10268A00112032F07A95EE0FFF1F661F111CF9CF49
:10269A00EF2FF62F612D5F938ADF5F9108954F9395
:1026AA00AF01FD01DA01AB01BC01CA01402D012CC9
:1026BA00142E4F910895EA0FFB1F681F0895E095A5
:1026CA00F0956095EF5FFF4F6F4F08955F9381DF3D
:1026DA00903849F150E81526703821F1572F591BC7
:1026EA002BF112F4DCDFFACF583118F0AA27BB27F6
:1026FA008827583028F0AB2FB82F88275850F9CFA1
:10270A00552329F08695B795A7955A95D9F7502D4F
:10271A00512572F0D0DF38F46795F795E7957395F0
:10272A0013F420C0BCDF43DF5F910895D8F7FBCFD5
:10273A00EA1BFB0B680B51F010F40094C0DF662310
:10274A0092F3EE0FFF1F661F7A95CBF7EE27FF274E
:10275A00662777275F910895EFEFFFEF6FE77FEF27
:10276A005F910895EFEFFFEF6FE77FE75F910895BD
:10277A005F932FDF703821F411200AF4EDCFF2CFE6
:10278A00903809F4E3CF01240894970B1BF4D4F38F
:10279A000020F3CF792F1F932F933F934F93112448
:1027AA001127222733274427552790E2AE17BF0760
:1027BA008607410730F0AE1BBF0B860B410B08940E
:1027CA0001C08894551F221F331F111CAA1FBB1F4B
:1027DA00881F441F9A9551F7F901612D4F913F9136
:1027EA002F911F91662332F0550FEE1FFF1F661FB0
:1027FA007A9543F2D2DE5F910895EA0FFB1F681FB4
:10280A00791F0895F195E195F0400895F095609546
:10281A007095E195FF4F6F4F7F4F0895EE230E2E6F
:10282A00EA2F19F0EE0F0A94E9F70895EE230E2E17
:10283A00EA2F19F0E6950A94E9F70895F595E795D0
:10284A00F595E795F595E795F595E79508956F2F31
:10285A00660F660B762F08958B2F880F880B982F9B
:10286A000895FA9FF02DEB9FF00DEA9FE02DF10DF0
:10287A0008957A9F702D6B9F700DF89F700DE99FD8
:10288A00700D6A9F602D710DFB9F600D711DE89F91
:10289A00600D711D8827FA9FF02D610D781FEB9F3F
:1028AA00F00D611D781FEA9FE02DF10D681F781F5A
:1028BA00089546D0D6DF0EF4A5DF08954FD0D9DFAC
:1028CA000EF4A4DF08950024112490E1AA0FBB1F7F
:1028DA00001C111C0E1A1F0A18F40E0E1F1E01C02E
:1028EA00A1609A9599F7FD01D00108953F934F93FE
:1028FA005F93002411244427552730E2AA0FBB1FF7
:10290A00881F991F001C111C441F551F0E1A1F0AED
:10291A00460B570B28F40E0E1F1E461F571F01C0E9
:10292A00A1603A9559F7FD01BC01D001CA015F9136
:10293A004F913F91089512D0D9DF0EF467DF0895C1
:10294A00E894F7FF02C05EDF6894B7FF06C0A0955F
:10295A00B095119600F8039400FA0895E89477FF69
:10296A0002C054DF689497FF0BC00024A095B0956D
:10297A00809590951196801D901D00F8039400FA99
:10298A000895ED93FD936D937C9308950590F491CA
:10299A00E02D0895689401C0E89401D065DE182EF0
:1029AA00862F612D192E972F712D1B2EBF2FF12DDA
:1029BA001A2EAE2FE12D0895119602D0FE2F1197EF
:1029CA00E199FECFFF93FFB7F894AEBBBFBBE09A85
:1029DA00EDB3FFBFFF91089507D01196EF93EF2F44
:1029EA0003D0EF9111970895E19B02C0A895FCCFFF
:1029FA009FB7F894AEBBBFBBE09A8DB3E81719F046
:102A0A00EDBBE29AE19A9FBF0895AE17BF0786070A
:102A1A00970708955A934A933A932A931A930A93D3
:102A2A0008955D814C813B812A811981088108952D
:00000001FF
