:0E0000000C94C5040C9400000C9400000C94A9
:10000E0000000C9400000C9400000C9400000C9462
:10001E0000000C9400000C9400000C9400000C9452
:10002E0000000C9400000C9400000C9400000C9442
:10003E0000000C94DF0A0C9400000C94B8090C9488
:10004E0000000C94140A0C9400000C9400000C9404
:10005E0000000C9400000C9400000C9400000C9412
:10006E0000000C9400000C9400000C94530A0C94A5
:10007E0000000C947E0A0C9400000C94000000000A
:10008E000000000000000000000000000000000062
:10009E000000000000000000000000000000000052
:1000AE000000000000000000000000000000000042
:1000BE000000000000000180018000000000000030
:1000CE00018003C007E006600C300C3018181818B9
:1000DE00300C300C600660067FFE7FFE00000000D4
:1000EE007FFE7FFE60066006300C300C1818181864
:1000FE000C300C30066007E003C0018000000000E9
:10010E0007E00C301818181818181818181818189E
:10011E001818181818180C3007E00000000000001E
:10012E0001800380078001800180018001800180B1
:10013E00018001800180018003C0000000000000EA
:10014E0007E00C301818100800180030006000C0CE
:10015E000180030006000C181FF8000000000000CC
:10016E0007E0081010081008001000E0003000181A
:10017E000008000818180C3007E00000000000000E
:10018E000030007000F001B0033006300C30183033
:10019E001FF8003000300030007800000000000032
:1001AE000FF80FF00800100010001FE000300018CC
:1001BE000018001818181C300FE000000000000096
:1001CE0003E006100C00080018001FE01C30181881
:1001DE001818181818180C3007E00000000000005E
:1001EE001FF8101800100020002000400040008072
:1001FE00008001000100020002000000000000006B
:10020E0007E00C30081008100C3007E00C301818FE
:10021E001818181818180C3007E00000000000001D
:10022E0007E00C301818181818180C3807F80018B2
:10023E0000100020002000C003000000000000009D
:10024E0000000000000000000000000000000000A0
:10025E000000000000000000000000000000000090
:10026E000180018001800180018001800180018078
:10027E00018001800000018001800000000000006C
:10028E00006000800100020002000400040004006F
:10029E00020002000100008000600000000000006B
:1002AE0006000100008000400040002000200020D9
:1002BE000040004000800100060000000000000029
:1002CE000000000800180030006000C0018003002C
:1002DE0006000C00180010000000000000000000D6
:1002EE000000018001800180018001803FFC3FFC05
:1002FE00018001800180018001800000000000006B
:10030E000000000000000000000000003FFC3FFC69
:10031E0000000000000000000000000000000000CF
:10032E0000000000018001800000000000000000BD
:10033E0000000180018000000000000000000000AD
:10034E000030006000C00180030006000C000600B3
:10035E000300018000C000600030000000000000BB
:10036E000000000000000FF00FF000000000000081
:10037E000FF00FF000000000000000000000000071
:10038E000C0006000300018000C000600030006019
:10039E0000C00180030006000C00000000000000F9
:1003AE0003C006600C300C300430006000C00180C9
:1003BE00018001800000018001800000000000002B
:1003CE0000E000E0012001200230021004100418A9
:1003DE000FF81818100C300C781E000000000000EA
:1003EE007FFE301E3002300030003FF83FFC300EF2
:1003FE0030063006300E3FFC7FF800000000000093
:10040E007FF03018300C300C30183FF83FFC300EB7
:10041E0030063006300E3FFC7FF800000000000072
:10042E007FFE301E300230003000300030003000D1
:10043E003000300030003000780000000000000076
:10044E0003FC0118011801180118011801180218EF
:10045E00041808183FFC383C300C20040000000043
:10046E007FFC301C3004300030803F803F80308075
:10047E00300030003004301C7FFC00000000000013
:10048E0063C6518A11880990099007E007E00DB004
:10049E0019981188318C218463C600000000000079
:1004AE000FE03838600C0004000C03F8000800045C
:1004BE0000060006600C3FF80FE000000000000090
:1004CE00781E300C301C303C306C30CC318C330C00
:1004DE00360C3C0C380C300C781E0000000003C0AB
:1004EE00799E300C301C303C306C30CC318C330C5F
:1004FE00360C3C0C380C300C781E0000000000004E
:10050E00783C306C30C0318033003F00398030C0D1
:10051E00306030303018300C781E000000000000C3
:10052E0001FE008C008C008C008C010C010C010C67
:10053E00020C020C040C680C701E0000000000007F
:10054E00700E381C381C342C342C342C324C324C5B
:10055E00324C318C318C318C781E00000000000042
:10056E00781E300C300C300C300C3FFC3FFC300C45
:10057E00300C300C300C300C781E000000000000E7
:10058E0007E01E78381C300C700E700E700E700E58
:10059E00700E300C381C1E7807E0000000000000C2
:1005AE007FFE3FFC300C300C300C300C300C300C1D
:1005BE00300C300C300C300C781E000000000000A7
:1005CE007FF8300C300630063006300C3FF8300025
:1005DE0030003000300030007800000000000000D5
:1005EE0007E01E78381C3004700070007000700038
:1005FE0070003004381C1E7807E000000000000078
:10060E007FFE618641820180018001800180018030
:10061E00018001800180018003C000000000000005
:10062E00780E300418040C0806080310019000E040
:10063E00006000400C400C8007000000000000002D
:10064E0003C001800FF0399C618641824182618630
:10065E00399C0FF00180018003C0000000000000F3
:10066E00781E300418080C1006200340018002C0CA
:10067E00046008301018200C781E000000000000E6
:10068E00781E300C300C300C300C300C300C300C22
:10069E00300C300C300C300C7FFE000600020000D7
:1006AE00781E300C300C300C300C380C1FFC000C4B
:1006BE00000C000C000C000C001E000000000000DE
:1006CE007BDE318C318C318C318C318C318C318C98
:1006DE00318C318C318C318C7FFE0000000000009B
:1006EE007BDE318C318C318C318C318C318C318C78
:1006FE00318C318C318C318C7FFE00060002000073
:10070E007C00580058005800180018001FF8180CEC
:10071E00180618061806180C3FF800000000000016
:10072E00781E300C300C300C300C300C3F8C304CB2
:10073E00302C302C302C304C7F9E000000000000FE
:10074E007800300030003000300030003FF8300CC0
:10075E00300630063006300C7FF800000000000036
:10076E0007E01E78381C300C000E000E00FE000E46
:10077E00000E300C381C1E7807E000000000000050
:10078E0079F8330C32043606360636063E06360641
:10079E00360636063204330C79F8000000000000ED
:1007AE0003FE060C0C0C0C0C0C0C060C03FC030CC0
:1007BE00060C0C0C180C300C781E00000000F40116
:1007CE000A002C010000F0000E016400F0000E0182
:1007DE007800DC00F0000E01F0005401F0000E0174
:1007EE006801CC01B80BFA00E80332003200320087
:1007FE003C00202020202000CCC5CDDE0020202B68
:10080E000020202D00CFC0D3C7C0002020202020E4
:10081E00202020202020202020202000CDC0CFD03E
:10082E00DFC6C5CDC8C500D4C0C700D2CECA00CD64
:10083E00C0CFD0DFC6C5CDC8C520C820D2CECA0015
:10084E00C2CEC7C1D3C6C4C5CDC8DF00C4C5D1CAC8
:10085E00CECC00D1D2C0D0D2000001002D4E414EE0
:10086E0000494E46000001000200D20701000A09AD
:10087E00D40702000C09D60701001009D8070100A1
:10088E001209DA0702001409DC0701001609DE0757
:10089E0001001809E00701001A09E20702001C090D
:1008AE00E40701001E09E60702002009E80701001F
:1008BE002209EA0702002409EC0702002609EE07C6
:1008CE0002002809F00702003609F2070100380974
:1008DE00F40702003A09F6070600000500080600B4
:1008EE000605000806000C050008060012050008A3
:1008FE0005001805060804001D050B080400210557
:10090E000F0806002505130805006009F807010009
:10091E006609FE0711002B05190811003C05190880
:10092E000B004D052A0804005805350804005C0527
:10093E003908040060053508110064053D080C00F7
:10094E0075054E08070081055A08070088055A08E4
:10095E0007008F055A0807009605230807009D0516
:10096E0023080700A40523080600AB05610806004E
:10097E00B10513080100680968080000F894EE2715
:10098E00ECBBF1E0F5BFE5BFE0936C00F8E1F1BD23
:10099E00E1BD8DE0A2E0BB27ED938A95E9F780E0FB
:1009AE0090E1A0E0B1E0ED930197E9F7E4E7F8E01C
:1009BE0085919591009761F0A591B591059015904F
:1009CE00BF01F00105900D920197E1F7FB01F0CF09
:1009DE008BBFEFEFEDBFE0E1EEBFC0E0D5E00C94D2
:1009EE00610E0E947810F595E795E575AE2FE881BA
:1009FE00EE0FEA7AEA2BE8830E9478100E94241503
:100A0E00E373AE2FE881EE0FEE0FEC7CEA2BE8835A
:100A1E000E9478100E942015EF70AE2FE881E295AB
:100A2E00E07FEA2BE88323C095981D9A0E947B10E5
:100A3E001D980E947B101D9A959A0E947B10089516
:100A4E00959A97980E94811000001F989698000022
:100A5E001F9A969A00000BC0959A979A0E94811041
:100A6E0000001F98969800001F9A969A00002196F3
:100A7E0008951A930A931A810B81959A979A1BBB24
:100A8E0005BB00001F98969800001F9A969A0000CA
:100A9E001981088124960895C7DF0E9489100E944B
:100AAE0089100E948910E8ECF0E00E948D10E2EEB1
:100ABE00EA93C6DFE3E2EA93CFDFE2E00E94911011
:100ACE00E0EE0E9498100E949F10E0EE0E94A2108D
:100ADE000E948910E8E7F0E00E948D10E6EE0E9479
:100AEE009810EAEDEA93B8DFE3E7EA93B5DFE0EBBF
:100AFE00EA93A6DFE4E20E94A9100E94B010EFED87
:100B0E000E94B410EFE00E94A910E4EB0E94A21024
:100B1E00E4E80E94A910EAE5EA939EDFEAE00E946B
:100B2E00A910E8E00E94A910E6EB0E949810ECE2F2
:100B3E000E94A910ECE0EA938FDFEAE0EA938CDFE3
:100B4E00E0E00E949110EAEBEA937ADFEFE0EA939D
:100B5E0083DFE8EBEA9374DFE7E00E94B410E6E38C
:100B6E000E94A210ECEBEA936BDFE0E5EA9374DFF0
:100B7E00E0E9EA9371DFE0E50E94B410E0EF0E9435
:100B8E00A210E5E0F0E00E948D10E9E2EA9358DF52
:100B9E00E0EDEA9355DFEDE0EA935EDF0895EAE2D9
:100BAE00EA934EDFEF81EA9357DFEE81EA9354DF4B
:100BBE00ED81EA9351DFEC81EA934EDFEBE2EA93AB
:100BCE003FDFEB81EA9348DFEA81EA9345DFE98173
:100BDE00EA9342DFE881EA933FDF289608950E9468
:100BEE00FB15E8E2EA932CDF0E94B810EFEDF1E07E
:100BFE000E94BD10EFE0F1E00E94C01000E010E096
:100C0E000031E1E01E0780F420E030E0203EE1E01C
:100C1E003E0738F4EC81FD810E94C8102F5F3F4FD4
:100C2E00F5CF0F5F1F4FECCFE9E2EA9309DF0E9489
:100C3E000216269608951A930A930E94CC10AA853E
:100C4E00BB8550961197BA93AA930E94D110AC858A
:100C5E00BD8550961197BA93AA93A1DFECE2EA9361
:100C6E00EFDE10E01032E8F400E00830C0F4E12FBF
:100C7E00AA85BB85F0E0EA0FFB1F1490E02FA0E8D9
:100C8E000E941815E121E13018F0EC81FD8102C0BF
:100C9E00EA81FB81FA93EA93ECDE0F5FE6CF1F5FEA
:100CAE00E1CF19810881C2C2E885F0E0E033A0E00F
:100CBE00FA0719F4ECE0F1E08EC1E133A0E0FA0797
:100CCE0019F4ECE2F1E087C1E233A0E0FA0719F47F
:100CDE00ECE4F1E080C1E333A0E0FA0719F4ECE6AE
:100CEE00F1E079C1E433A0E0FA0719F4ECE8F1E0A1
:100CFE0072C1E533A0E0FA0719F4ECEAF1E06BC13A
:100D0E00E633A0E0FA0719F4ECECF1E064C1E73346
:100D1E00A0E0FA0719F4ECEEF1E05DC1E833A0E0D3
:100D2E00FA0719F4ECE0F2E056C1E933A0E0FA0755
:100D3E0019F4ECE2F2E04FC1E132A0E0FA0719F447
:100D4E00ECE6F2E048C1E832A0E0FA0719F4ECE86C
:100D5E00F2E041C1E932A0E0FA0719F4ECEAF2E060
:100D6E003AC1EF32A0E0FA0719F4ECECF2E033C12D
:100D7E00EA33A0E0FA0719F4ECE2F3E02CC1EC330D
:100D8E00A0E0FA0719F4ECE4F3E025C1ED33A0E09E
:100D9E00FA0719F4ECE6F3E01EC1EE33A0E0FA0711
:100DAE0019F4ECE8F3E017C1EF33A0E0FA0719F4F9
:100DBE00ECEAF3E010C1EB32A0E0FA0719F4ECEE26
:100DCE00F2E009C1ED32A0E0FA0719F4ECE0F3E02D
:100DDE0002C1E03CA0E0FA0719F4ECECF3E0FBC032
:100DEE00E13CA0E0FA0719F4ECEEF3E0F4C0E23CCB
:100DFE00A0E0FA0719F4ECE0F4E0EDC0E33CA0E06B
:100E0E00FA0719F4ECE2F4E0E6C0E43CA0E0FA07DD
:100E1E0019F4ECE4F4E0DFC0E53CA0E0FA0719F4C5
:100E2E00ECE6F4E0D8C0E63CA0E0FA0719F4ECE8F2
:100E3E00F4E0D1C0E73CA0E0FA0719F4ECEAF4E0E4
:100E4E00CAC0E83CA0E0FA0719F4ECECF4E0C3C029
:100E5E00E93CA0E0FA0719F4ECEEF4E0BCC0EA3C81
:100E6E00A0E0FA0719F4ECE0F5E0B5C0EB3CA0E029
:100E7E00FA0719F4ECE2F5E0AEC0EC3CA0E0FA079C
:100E8E0019F4ECE4F5E0A7C0ED3CA0E0FA0719F484
:100E9E00ECE6F5E0A0C0EE3CA0E0FA0719F4ECE8B1
:100EAE00F5E099C0EF3CA0E0FA0719F4ECEAF5E0A2
:100EBE0092C0E03DA0E0FA0719F4ECECF5E08BC02F
:100ECE00E13DA0E0FA0719F4ECEEF5E084C0E23D56
:100EDE00A0E0FA0719F4ECE0F6E07DC0E33DA0E0F7
:100EEE00FA0719F4ECE2F6E076C0E43DA0E0FA076A
:100EFE0019F4ECE4F6E06FC0E53DA0E0FA0719F452
:100F0E00ECE6F6E068C0E63DA0E0FA0719F4ECE87E
:100F1E00F6E061C0E73DA0E0FA0719F4ECEAF6E06E
:100F2E005AC0E83DA0E0FA0719F4ECECF6E053C025
:100F3E00E93DA0E0FA0719F4ECEEF6E04CC0EA3D0C
:100F4E00A0E0FA0719F4ECE0F7E045C0EB3DA0E0B5
:100F5E00FA0719F4ECE2F7E03EC0EC3DA0E0FA0728
:100F6E0019F4ECE4F7E037C0ED3DA0E0FA0719F410
:100F7E00ECE6F7E030C0EE3DA0E0FA0719F4ECE83D
:100F8E00F7E029C0EF3DA0E0FA0719F4ECEAF7E02C
:100F9E0022C0EE32A0E0FA0719F4ECEAF0E01BC032
:100FAE00E032A0E0FA0719F4ECE4F2E014C0E1300C
:100FBE00A0E0FA0719F4ECECF0E00DC0E230A0E08E
:100FCE00FA0719F4ECEEF0E006C0E330A0E0FA0701
:100FDE0069F4ECE8F0E0FA93EA930E94CC100E94D8
:100FEE00CC100E94CC100E94CC1025DE29960895BC
:100FFE00A885B985EC91E03099F0ED91A887B98775
:10100E00EA930E94D6100E94D6100E94D6100E941B
:10101E00D6104ADEEE81FF817096EE83FF83E8CF15
:10102E002A9608950E94DB100E94ED1012F40E9481
:10103E00F7100E94FE1022F40E940E110E9413114E
:10104E000E941E110E9431113CF4EA85FB850E941C
:10105E00C8100E943911F6CF05C12A970E94F915C2
:10106E00A98DBA8DEF89F88DEA1BFB0BAF015523C5
:10107E0032F4FA01AFEFBFEF0E945615AF01AD8902
:10108E00BE89EB89FC89EA1BFB0BEE87FF87AF85D8
:10109E00AA2332F4AFEFBFEF0E945615EE87FF87FB
:1010AE00EF89F88DA98DBA8DAE17BF0718F4E1E060
:1010BE00F0E002C0EFEFFFEFEC87FD87EB89FC89D4
:1010CE00AD89BE89AE17BF0718F4E1E0F0E002C0AB
:1010DE00EFEFFFEFEA87FB87AE85BF85FA01EA1BCC
:1010EE00FB0BE887F987E98DFA8DFA93EA93EA8983
:1010FE000E944611FA93EA93E98DFA8DFA93EA93D8
:10110E00EE890E9446110E94C010A889BB27E8896B
:10111E00F0E00E9456159F0100E010E02017310705
:10112E003CF0E989FA890E94C8100F5F1F4FF6CF75
:10113E00EF89F88DA98DBA8DEA17FB0739F4EB8983
:10114E00FC89AD89BE89EA17FB0709F001C032C0E0
:10115E00E885F985EE0FFF1FEE83FF83EE85FF8591
:10116E000E940415AE81BF81EA17FB0774F4AE85A9
:10117E00BF850E944C11E887F987EC85FD85A98D06
:10118E00BA8DEA0FFB1FE98FFA8FAE81BF81A417CC
:10119E00B5077CF4FA01A885B985EA0FFB1FE8872D
:1011AE00F987EA85FB85AD89BE89EA0FFB1FED8BBA
:1011BE00FE8B99CF0E9400166B9608950E94D11057
:1011CE000E94D1100E94D110E885F9850E9451111C
:1011DE000E94CC1027DF0E94D110EC81FD810E946D
:1011EE0051110E94D1100E94D1100E94CC101ADF12
:1011FE000E94D1100E94D110AE81BF810E944C116D
:10120E00FA93EA930E94D1100E94CC100BDFAA81B0
:10121E00BB810E944C11FA93EA930E94D1100E9456
:10122E00D1100E94D1100E94CC10FCDE2C96089595
:10123E000E94DB100E94ED1012F40E94F7100E9423
:10124E00FE1022F40E940E110E9413110E941E1114
:10125E000E9431113CF4EA85FB850E94C8100E9461
:10126E003911F6CF19810881649608951A930A935D
:10127E001A980E949F10E3ED0E9458115BC01A93BA
:10128E000A931A980E949F10E3E90E94581152C0C7
:10129E001A98E5E0F0E00E948D10E0E9EA930E94D2
:1012AE00711080E991E00197F1F7E0E0EA930E9476
:1012BE007110E0E0EA930E9471101A9A08951A9341
:1012CE000A93D4DFE451F5408F01112312F400E0AC
:1012DE0010E00E947111E5E5F5ED65E772E40E94FC
:1012EE00791128C01A930A93CADFE453F8408F018C
:1012FE00112312F400E010E00E947111EEE1FEE9FC
:10130E006EEC72E40E94791115C01A930A9310E0E4
:10131E00A0E00B99A1E0A13060F40E94801100E0E2
:10132E00003120F40E9492110F5FFACF0E94BF117C
:10133E0011E0E12F0991199108951A981B9885E3F0
:10134E008A95F1F71A9A1B9A0E9480114424E0E1C3
:10135E004E1620F40E9492114394F9CF0E94BF11B1
:10136E0008950E94DF111A930A931BB10CB1E12F5D
:10137E00EC71D9F4E0915608EF5FE09356080E94A5
:10138E00E5110083A0915608A03819F4E0E0E0932F
:10139E005608A0915808AF5FA0935808A03829F4BA
:1013AE00E0E0E0935808689421F809911991BBC0C8
:1013BE001A93E0915808E030E1F3E0915708EF5F9F
:1013CE00E09357080E94E5111081A0915708A038AC
:1013DE0019F4E0E0E0935708F894E0915808E150D2
:1013EE00E09358087894F1C1A0915808A130A0F06C
:1013FE00E0915708EF5FE0935708A0915708A03887
:10140E0019F4E0E0E0935708F894E0915808E150A1
:10141E00E09358087894E8CF08950E94DF11E09188
:10142E006308E03099F0E150E0936308E0916208C0
:10143E00EF5FE09362080E94EA11E081ECB9A0919F
:10144E006208A83019F4E0E0E09362086CC0A09145
:10145E006308A830E1F3F894E0916308E03011F4EA
:10146E005D9916C0E0916108EF5FE09361080E94FC
:10147E00EA11A881A083A0916108A83019F4E0E0D8
:10148E00E0936108E0916308EF5FE093630802C0A8
:10149E00E881ECB9789476C00E94DF111A930A9312
:1014AE0010919B0000919C00E12FEC71E9F4E0910A
:1014BE008408EF5FE09384080E94EF11EC59F74F18
:1014CE000083A0918408A03219F4E0E0E093840830
:1014DE00A0918608AF5FA0938608A03229F4E0E0C1
:1014EE00E0938608689422F8099119911CC00E9415
:1014FE00DF11E0910909E030B1F0E150E093090904
:10150E00E0910809EF5FE09308090E94EF11E95797
:10151E00F74FE081E0939C00A0910809A03819F4E0
:10152E00E0E0E0930809E991EFBFF991E991A99103
:10153E001895A0910909A038E1F3F894E0910909F2
:10154E00E03021F4E0919B00E072C1F4E0910709D4
:10155E00EF5FE09307090E94EF11E957F74FA8815B
:10156E00A083A0910709A03819F4E0E0E0930709E1
:10157E00E0910909EF5FE093090903C0E881E09368
:10158E009C007894219608950E947810309729F443
:10159E000E94F211E095E12107C0E130A0E0FA07C8
:1015AE0029F40E94F211E129A62FEC9322960895B8
:1015BE000A921A92FA926A937A938A939A93AA93B8
:1015CE00BA93EA93FA93EFB7EA93E6E0E2BFABE29F
:1015DE00B9E00E94FB11AEE5B9E00E94FB11A0E458
:1015EE00B9E00E94FB11A8E5B9E00E94FB11AAE543
:1015FE00B9E00E94FB11ACE5B9E00E94FB11A0918D
:10160E005309A13010F00C94580BA0915409A1303D
:10161E0020F50E9401120E940712A0E3B9E00E9479
:10162E00FB11A0913009B09131095F9710F00E9423
:10163E000D12E0913609F0913709A0913009B09161
:10164E003109EA17FB0740F4E0E0E0933009E0933C
:10165E003109E3E00E94131223C00E940D120E9472
:10166E000112A4E3B9E00E94FB11A0913409B091DC
:10167E0035095F9710F00E940712E0913A09F09138
:10168E003B09A0913409B0913509EA17FB0740F4E4
:10169E00E0E0E0933409E0933509E5E00E9413128F
:1016AE0023C00E940D120E940712A2E3B9E00E940D
:1016BE00FB11A0913209B09133095F9710F00E948F
:1016CE000112E0913809F0913909A0913209B091D7
:1016DE003309EA17FB0740F4E0E0E0933209E093A8
:1016EE003309E4E00E941312E991EFBFF991E991F9
:1016FE00B991A9919991899179916991F9901990DE
:10170E00099018951A9310E000DEE03011F40C9455
:10171E00EC0B0E941812E615F70528F40E941D1214
:10172E006E167F0608F00CC00E942212E815F9050D
:10173E0028F40E9427128E169F0608F001C011E0B1
:10174E000E942C12E615F70528F40E9431126E162F
:10175E007F0608F00CC00E943612E815F90528F431
:10176E000E943B128E169F0608F001C012E00E94E6
:10177E004012E615F70528F40E9445126E167F06F4
:10178E0008F00CC00E944A12E815F90528F40E94D0
:10179E004F128E169F0608F001C013E00E945412DD
:1017AE00E615F70528F40E9459126E167F0608F00A
:1017BE000CC00E945E12E815F90528F40E9463120F
:1017CE008E169F0608F001C014E0E12F19910895BE
:1017DE00EC810E94681269F4E0E0F5E00E946D125F
:1017EE000E9474120E94CC100E9479120E946D12F7
:1017FE0032C0E230A0E0FA0769F4E6E0F5E00E94BC
:10180E007E120E9474120E94CC100E9479120E94C5
:10181E007E1221C0E330A0E0FA0769F4ECE0F5E0B7
:10182E000E9485120E9474120E94CC100E9479129E
:10183E000E94851210C0E430A0E0FA07B1F4E2E194
:10184E00F5E00E948C120E9474120E94CC100E942D
:10185E0079120E948C123F963897FA93EA930E945F
:10186E00CC100E94CC100E94FF07279608950E946C
:10187E001812FA93EA930E941D12FA93EA930E94A9
:10188E002212FA93EA930E9427120E9493120E9448
:10189E002C12FA93EA930E943112FA93EA930E9461
:1018AE003612FA93EA930E943B120E9493120E9400
:1018BE004012FA93EA930E944512FA93EA930E9419
:1018CE004A12FA93EA930E944F120E9493120E94B8
:1018DE005412FA93EA930E945912FA93EA930E94D1
:1018EE005E12FA93EA930E9463120E9493120E9470
:1018FE0018123196FA93EA930E941D123197FA93B9
:10190E00EA930E9422123196FA93EA930E942712CA
:10191E000E949B120E94E5080E942C123196FA93A7
:10192E00EA930E9431123197FA93EA930E9436128B
:10193E003196FA93EA930E943B120E949B120E94E8
:10194E00E5080E9440123196FA93EA930E944512DE
:10195E003197FA93EA930E944A123196FA93EA93D8
:10196E000E944F120E949B120E94E5080E94541280
:10197E003196FA93EA930E9459123197FA93EA93A9
:10198E000E945E123196FA93EA930E9463120E94AD
:10199E009B120E94E508E8E1F5E0FA93EA93E1E094
:1019AE00EA930E94B8100E94A112EDE1F5E00E94A8
:1019BE00A7120E94B8100E94A112E1E2F5E0FA937C
:1019CE00EA93E3E0EA930E94B8100E94A112E5E2C6
:1019DE00F5E00E94AC120E94A11208950E94B1126D
:1019EE00ED89F0E0ED87FE87EC89F0E0EF87F88B6C
:1019FE00EB89F0E0E98BFA8B0E94C8120E94D81294
:101A0E000E941F090E94C8123A932A933A932A936E
:101A1E000E94DF12F901F296FA93EA93F901F29617
:101A2E00FA93EA930E94DF12F901F297FA93EA937E
:101A3E00F901F2970E94E612AE81A33010F00C94D9
:101A4E00720D0E94F1120E94F8120E94FD120E9465
:101A5E0002130E94F8120E9412130E941913F170C1
:101A6E0039F00E94F1120E94F812FF6FFE93EE936E
:101A7E000E94F1120E94F812E20FF31FFE93EE93F2
:101A8E000E94F1120E941913E83EA0E0FA0724F01A
:101A9E000E94F1120E941E130E94F1120E9419134D
:101AAE00F29724F40E94F1120E9425130E94C8128C
:101ABE000E942C130E9433130E943C130E94A71203
:101ACE000E9445130E941913D001ED93FC93EE81F1
:101ADE00EF5FEE83B1CF0E94511340F40E94671363
:101AEE000E9472130E94D8120E941F090E940016B3
:101AFE00669608950E94B112EC89F0E0ED87FE879C
:101B0E00EB89F0E0EF87F88B0E94C8120E94D81282
:101B1E000E941F090E94C812F901B896FA93EA931F
:101B2E00F901B896FA93EA930E94DF12F901B89779
:101B3E00FA93EA93F901B8970E94E612AE81A230A9
:101B4E0010F00C94060E0E94F1120E94F8120E94E0
:101B5E00FD120E9402130E94F8120E9412130E949C
:101B6E001913F17039F00E94F1120E94F812FF6FF2
:101B7E00FE93EE93EE81E03051F40E94F1120E943A
:101B8E007A13B896EA0FFB1FD001ED93FC93AE814A
:101B9E00A13051F40E94F1120E947A13B897EA0F05
:101BAE00FB1FD001ED93FC930E94F1120E941913BA
:101BBE00E83EA0E0FA0724F00E94F1120E941E13E4
:101BCE000E94F1120E941913F29724F40E94F1124E
:101BDE000E9425130E94C8120E942C130E943313D8
:101BEE000E943C130E94A7120E9445130E941913D3
:101BFE00D001ED93FC93EE81EF5FEE839FCF0E94B9
:101C0E00511340F40E9467130E9472130E94D8125F
:101C1E000E941F090E94001665960895EBE2F5E0FA
:101C2E000E9483130E948C130E94FF07ECE3F5E0E1
:101C3E000E94831370960E948C130E94FF07EC8102
:101C4E000E94911359F4EDE4F5E00E9483130E9473
:101C5E008C130E94FF07E8E5F5E01DC0E130A0E01F
:101C6E00FA0759F4ECE5F5E00E9483130E948C13F9
:101C7E000E94FF07E0E6F5E00EC0E230A0E0FA07B2
:101C8E00B9F4E4E6F5E00E9483130E948C130E94DF
:101C9E00FF07E5E7F5E0FA93EA93ED81F0E0FA93BA
:101CAE00EA93EE81F0E070960E948C130E94FF077B
:101CBE002596089523970FEF1FEFE0E0EBBBEFEFB4
:101CCE00EABBE0E0E8BBE7EFE7BBE0E0E5BBEFEF48
:101CDE00E4BBE0E0E2BBEBEFE1BBE0E0E3B9E6EB57
:101CEE00E2B9E0E0E0936200E8EFE0936100E0E04B
:101CFE00E0936500EFE1E0936400E0E0E0BFE4E034
:101D0E00E3BFE6E0E2BFE0E0E1BFEFBDEEBDEDBD5B
:101D1E00ECBDE7BDE6BDEBBDEABDE9BDE8BDE093B8
:101D2E007900E0937800E5BDE4BDE3BDE0938B0060
:101D3E00E0938A00E0938900E0938800E0938100AD
:101D4E00E0938000E0938700E0938600E0938500A7
:101D5E00E0938400E0938300E0938200E0936A00B6
:101D6E00EABFE9BFE1E0E7BFE0E0E0937D00EBB959
:101D7E00E8EDEAB9E6E0E0939500E0E0E09390004C
:101D8E00E8E0E9B9E0E0E0939B00E8EDE0939A002B
:101D9E00E6E0E0939D00E0E0E0939800E7E6E09354
:101DAE009900E0E8E8B9E0E0E0BDE7B9E4E8E6B9BB
:101DBE00E2E5EDB9E0E0EEB9E09374000E94C813DD
:101DCE0078940E940D120E9401120E940712E8EEF2
:101DDE00F3E00E948D100E9453050E949413A6E01A
:101DEE00B0E00E94CF15E230D8F04424E3E04E1666
:101DFE0090F4E42DA0E0B0E00E949A13BF01E42D10
:101E0E00ACECB7E00E949A130E94C715DB010E944A
:101E1E00DB154394EBCFA6E0B0E0E0E00E94E315C3
:101E2E000E94B8100E94F605E1E8F5E00E94A013AA
:101E3E00E0E7F0E00E94A7130E94AC13E8E8F5E09B
:101E4E000E94A013E0E8F0E0FA93EA93E7E0FFEFD8
:101E5E000E94BD100E94AC13EFE8F5E00E94A013A3
:101E6E00E0E9F0E00E94A7130E94AC13E6E9F5E06A
:101E7E000E94A013E0E7F0E00E94BD100E94B8108F
:101E8E000E94AC13EDE9F5E00E94A013E0E8F0E04B
:101E9E000E94BD100E94B8100E94AC13E4EAF5E057
:101EAE000E94A013E0E9F0E00E94BD100E94B8105D
:101EBE000E94FF07DCDC0E94A409E2E3F0E0E0935D
:101ECE004C09F0934D09E0E0E0934A09E0934B0989
:101EDE00A0E0B0E00E94CB15DF01E6EBF0E00E943F
:101EEE006015AEE4B9E0662777270E948C140E9435
:101EFE00C2150E94B113EEE0F1E0E0933C09F093BD
:101F0E003D09949AE09155090E94911311F00C9499
:101F1E003910A0915808A33038F4A23020F0A091C7
:101F2E005209A23009F01FC00E94DF09E8830E9407
:101F3E00DF09E983E881EA93FCDAE981EA93F9DAC9
:101F4E00A0915209A23048F4E881EA93EA81EA931B
:101F5E000E94DF09EA9342DD05C0E881EA93EA8137
:101F6E00EA93C8DDD6CFA0916308A03041F4A091CA
:101F7E005E09B0915F09A132E3E0BE0708F41CC010
:101F8E00E0E0E0935E09E0935F090E94FB09E091B7
:101F9E0052090E94911311F4E5E50BC0E130A0E067
:101FAE00FA0711F4E9E405C0E230A0E0FA0721F4E3
:101FBE00EAE5EA930E942E0A0E948C09E13010F4A1
:101FCE000C9438100E94BE1389F40E94FB09E09114
:101FDE005209EF5FE0935209A0915209A33018F015
:101FEE00E0E0E09352090E94B1133BC0E230A0E062
:101FFE00FA0791F4A0916609B0916709A83CE0E058
:10200E00BE074CF4E0916609F09167093A96E093A9
:10201E006609F093670925C0E330A0E0FA0781F462
:10202E00A0916609B091670955974CF0E091660949
:10203E00F09167093A97E0936609F093670911C02A
:10204E00E430A0E0FA0769F4E8ECE0935509EBEA16
:10205E00F5E00E94AC120E94A112EAEFF0E00E949D
:10206E008D1036C0E130A0E0FA0791F1E83CA0E017
:10207E00FA0709F50E948C09E130E0F00E94BE13C8
:10208E00C9F0E230A0E0FA07A9F0E330A0E0FA07C9
:10209E0089F0E430A0E0FA0769F4E0E0E093550936
:1020AE00E1EBF5E00E94AC120E94A112EAEFF0E023
:1020BE000E948D100DC0EA3FA0E0FA0749F40E947D
:1020CE008C09E13028F0E0E0E09355090E9494136A
:1020DE0019CFFFCFE881EFB9779BFECFEFB12196F5
:1020EE000895E881F0E00895E4E6F0E0FA93EA93CB
:1020FE000C941A14E881EA930E94F804EBBBE0E01A
:10210E00E5BB0895E1E0EA930C942705FA93EA9370
:10211E000C941A14EA930E943305E4E0EA930C94AB
:10212E003305EA930E942705E1E0EA930C94330508
:10213E00E1E0F0E0EBCFEA930E942705E3E0EA93BB
:10214E000C943305EA930E943305E0E0EA930C9475
:10215E003305E1E0EA930C943305EA930E943305CC
:10216E00F8CFE0E0F0E0FA93EA930895FA93EA9359
:10217E00F8CFFA93EA930E94D605ECE2EA930C9418
:10218E002705FA93EA930C944005E885F985FA93AE
:10219E00EA930895EA85FB85FA93EA930895EF8111
:1021AE00F885FA93EA93089528971A930A93EA8981
:1021BE00FB89FA93EA93EA89FB89FA93EA93EA890F
:1021CE00FB89FA93EA93EA89FB89D3CFAA89BB8963
:1021DE00E889F989EA1BFB0B31968F0111230895CB
:1021EE00F801AFEFBFEF0E9456158F010895AE852F
:1021FE00BF85EC85FD85EA1BFB0B3196662777279D
:10220E00EA83FB836C837D83AD81AA230895EA81E3
:10221E00FB816C817D810895AFEFBFEF8FEF9FEF54
:10222E000E945B15EA83FB836C837D830895F8011E
:10223E00AA81BB818C819D810E9429150E945B150C
:10224E00EA83FB836C837D83E0E0EE83EF83E88794
:10225E00E9870895DCDFAE81BF81888599850E946C
:10226E00F4150895EE81FF8168857985EF5FFF4F44
:10227E006F4F7F4FEE83FF83688779870895F0E075
:10228E00AB8DBC8DEA0FFB1F0895E885F985EA1B1F
:10229E00FB0B0895AC85BD85EA0FFB1FFA93EA93FD
:1022AE000895EA930E94711080E991E00197F1F789
:1022BE00E0E0EA930E9471100E2F1127102F0027D5
:1022CE00E0E0EA930E947110F0E00E0F1F1F1A9AC1
:1022DE00F8010895F8010E9429150E948C14DF015F
:1022EE00CB0108950E94BA140E9455148F01F80173
:1022FE000895E0E0E093B705E093B805E093B905E3
:10230E00E093BA05E093BB05E093BC05E093BD05F1
:10231E00E093BE0508950E946609A091B705B0919D
:10232E00B8058091B9059091BA05662777270E9466
:10233E00FF14E093B705F093B8056093B905709359
:10234E00BA050E947909A091BB05B091BC05809198
:10235E00BD059091BE05662777270E94FF14E09376
:10236E00BB05F093BC056093BD057093BE05089543
:10237E00A091B705B091B8058091B9059091BA05B5
:10238E00E0E1F0E060E070E00E9498153F01A0915E
:10239E00BB05B091BC058091BD059091BE05E0E1F5
:1023AE00F0E060E070E00E9498154F010C944F0928
:1023BE00AA93EA93FA93EFB7EA930895E150F0E007
:1023CE00EA52F84F0895E150F0E0E75AF74F0895BA
:1023DE00E150F0E00895A2E6B0E06A2F1C90E9818A
:1023EE00A1E00E9410150895ED91FD913196FE9396
:1023FE00EE930895E4E0EA93E1E0EA930C94CB0ABD
:10240E00E5E0EA93E1E0EA930C94CB0AE3E0EA9389
:10241E00E1E0EA930C94CB0AEA93E0E0EA930C94A1
:10242E00CB0AE0910E09F0910F090895E091100981
:10243E00F09111090895E0910A09F0910B090895A0
:10244E00E0910C09F0910D090895E0911609F091B3
:10245E0017090895E0911809F09119090895E0916E
:10246E001209F09113090895E0911409F0911509DC
:10247E000895E0911E09F0911F090895E091200939
:10248E00F09121090895E0911A09F0911B09089520
:10249E00E0911C09F0911D090895E0912609F09133
:1024AE0027090895E0912809F09129090895E091EE
:1024BE002209F09123090895E0912409F09125094C
:1024CE000895F0E0E130A0E0FA070895FA93EA9358
:1024DE00A8DF3A96FA93EA93AECF3F963897FA93DF
:1024EE00EA9353CE0E94FF07ED81FE810895FA9381
:1024FE00EA93ABDF3A96FA93EA93B1CFFA93EA9363
:10250E00B8DF3A96FA93EA93BECFFA93EA93C5DF11
:10251E003A96FA93EA93CBCFFA93EA93EFEFFFEF63
:10252E00FA93EA930C941F093197FA93EA93E1E038
:10253E00F0E01CCEEFEFFFEFFA93EA930C94EF0B63
:10254E00FA93EA93E2E0EA930895FA93EA93E4E0C9
:10255E00EA9307CE2D97E7E0E983E0EEEA83E7E022
:10256E00EB83EFEFEC83E0E0ED83EFE1EE830E948F
:10257E00F915A2E0B0E00E94CB158F012DE830E0F6
:10258E000895E0914A09F0914B09FA93EA93F80104
:10259E00A0914A09B0914B09EA0FFB1FFA93EA93F7
:1025AE000895E2E3F0E0FA93EA93E9EEF0E0DECD8F
:1025BE00E8E0F1E2FA93EA930E941908E2CFFA9367
:1025CE00EA93E8E0F1E2FA93EA930E941908E0E058
:1025DE00EE830895EE81F0E0DE011D96EE0FFF1FF3
:1025EE000895AE0FBF1FED91FD910895E058F04094
:1025FE00FE93EE93EFCFEA0FFB1FBF01DF010E94A8
:10260E00BE15A0916609B09167090E945615DB01AF
:10261E00ED93FC93DFCF0E9422150E942015FE93AE
:10262E00EE93D8CFAE0FBF1F0E94BE150895AE0F0A
:10263E00BF1FE7EEF0E0ED93FC930895AE0FBF1FC2
:10264E00E2E3F0E0ED93FC930895EA85A0E6B9E0AD
:10265E00F0E0EE0FFF1FE6CFFA93EA93EC85F0E081
:10266E00DE015396EE0FFF1FDDCFFA93EA93EE8550
:10267E00F0E0DE011F96EE0FFF1FD4CF0E9434084C
:10268E00EE81A0E6B9E0F0E0EE0FFF1FEA0FFB1FB0
:10269E000F01A0CFF801A0914A09B0914B09EA0FA2
:1026AE00FB1FE0934A09F0934B09E0EEF1E0E01BCB
:1026BE00F10BA0914A09B0914B09EA17FB07089557
:1026CE00E0914A09F0914B09FA93EA93E0EEF1E0BA
:1026DE00FA93EA9366CF0E941F09E0E0E0934A095D
:1026EE00E0934B094ECFEA0FFB1F0F01DF010E9453
:1026FE00BE15DF01F9010895FA93EA93ED81F0E03A
:10270E00FA93EA93EE81F0E00895FA93EA93EE815C
:10271E00FF812CCDF0E030970895E6E0EA93E1E0FA
:10272E00EA930C94CB0AF0E0EE0FFF1FEA0FFB1FAB
:10273E000895FA93EA93E0ECF0E0FA93EA930895A1
:10274E00FA93EA93E0E0FFE111CD0E94FF07ECE27D
:10275E00F1E0DCCCE0915209EA93EEE1EA93E0E19C
:10276E00EA93E8EFF0E0FA93EA930C94150EE0E0AA
:10277E00E0935A09E0935B090E94890BE0932A09C2
:10278E00A0CE90989198889A899815C08998889823
:10279E00EE270000819B0895809B089504D0899AAE
:1027AE0002D0889AE1E06BE107C0899A889A03D03B
:1027BE008898F9DF899865E36A95F1F7089578E0CE
:1027CE008898F1DF809BFECFEEDF88948199089484
:1027DE00889AF1DFEE1F7A9599F77991772311F4A4
:1027EE00899801C0899ADFDF8898E5DF889ADBDF58
:1027FE008998D9CFE99178E0EE0F10F4899801C04D
:10280E00899AD9DF8898CFDF809BFECFCCDF889A5C
:10281E007A9591F78998C7DF8898CDDFE1E08199A5
:10282E00EE27889AC0CFE991F991309639F080EA77
:10283E009FE00197F1F7A8953197C9F708955523B1
:10284E0042F4503811F4E0FF04C03196691F791F2D
:10285E006BF050E8572711F45F9373C05F3F31F070
:10286E00660F000C57956795752F08955F9300209E
:10287E000AF073C06CC050E8192E1522880F991FEC
:10288E009527550F879550E8072E0522660F771F5F
:10289E007527550F67950895689401C0E8945F9366
:1028AE00F2DF703818F07F3F08F44BC056E1571B2B
:1028BE00AAF4519558300EF4593030F0EFEFFFEF87
:1028CE006FEF7FE777F91AC077275523B9F0EE0F30
:1028DE00FF1F661F771F5A95D1F710C07727583004
:1028EE0028F0EF2FF62F672F5850F9CF552331F0E0
:1028FE0076956795F795E7955A95D1F700200AF4E6
:10290E0080D05F910895689401C0E894309760403C
:10291E007040B1F0002426F0772312F4009471D0A9
:10292E00172E7EE1112032F07A95EE0FFF1F661FF3
:10293E00111CF9CFEF2FF62F612D5F938ADF5F9178
:10294E000895EE27FF27662777275F910895EFEF0B
:10295E00FFEF6FE77FEF5F910895EFEFFFEF6FE708
:10296E007FE75F9108955F9386DF703821F4112021
:10297E000AF4EDCFF2CF903809F4E3CF0124089496
:10298E00970B1BF4D4F30020F3CF792F1F932F93C3
:10299E003F934F931124112722273327442755277E
:1029AE0090E2AE17BF078607410730F0AE1BBF0B94
:1029BE00860B410B089401C08894551F221F331FAC
:1029CE00111CAA1FBB1F881F441F9A9551F7F901AE
:1029DE00612D4F913F912F911F91662332F0550F2C
:1029EE00EE1FFF1F661F7A9543F229DF5F91089550
:1029FE00EA0FFB1F681F791F0895F195E195F040CE
:102A0E000895F09560957095E195FF4F6F4F7F4F4C
:102A1E000895EE230E2EEA2F19F0EE0F0A94E9F721
:102A2E000895EE230E2EEA2F19F0E6950A94E9F793
:102A3E000895F595E795F595E795F595E795F5954F
:102A4E00E79508956F2F660F660B762F0895FA9F00
:102A5E00F02DEB9FF00DEA9FE02DF10D08957A9F7A
:102A6E00702D6B9F700DF89F700DE99F700D6A9F12
:102A7E00602D710DFB9F600D711DE89F600D711D26
:102A8E008827FA9FF02D610D781FEB9FF00D611DC9
:102A9E00781FEA9FE02DF10D681F781F089546D02C
:102AAE00D6DF0EF4AADF08954FD0D9DF0EF4A9DFDA
:102ABE0008950024112490E1AA0FBB1F001C111CC5
:102ACE000E1A1F0A18F40E0E1F1E01C0A1609A9551
:102ADE0099F7FD01D00108953F934F935F93002422
:102AEE0011244427552730E2AA0FBB1F881F991FB8
:102AFE00001C111C441F551F0E1A1F0A460B570BA4
:102B0E0028F40E0E1F1E461F571F01C0A1603A95D6
:102B1E0059F7FD01BC01D001CA015F914F913F9160
:102B2E00089512D0D9DF0EF46CDF0895E894F7FF04
:102B3E0002C063DF6894B7FF06C0A095B0951196EA
:102B4E0000F8039400FA0895E89477FF02C059DF65
:102B5E00689497FF0BC00024A095B0958095909532
:102B6E001196801D901D00F8039400FA0895ED91C2
:102B7E00FC9111970895ED93FD936D937C930895B9
:102B8E000590F491E02D0895119602D0FE2F119725
:102B9E00E199FECFFF93FFB7F894AEBBBFBBE09AAF
:102BAE00EDB3FFBFFF91089507D01196EF93EF2F6E
:102BBE0003D0EF9111970895E19B02C0A895FCCF29
:102BCE009FB7F894AEBBBFBBE09A8DB3E81719F070
:102BDE00EDBBE29AE19A9FBF0895AE17BF07860735
:102BEE00970708955A934A933A932A931A930A93FE
:102BFE0008955D814C813B812A8119810881089558
:00000001FF
