:080000000C94C5040C940000EF
:100008000C9400000C9400000C9400000C94000068
:100018000C9400000C9400000C9400000C94000058
:100028000C9400000C9400000C9400000C94000048
:100038000C9400000C9400000C94B50A0C94000079
:100048000C94B8090C9400000C94140A0C94000049
:100058000C9400000C9400000C9400000C94000018
:100068000C9400000C9400000C9400000C94000008
:100078000C94540A0C9400000C947F0A0C94000011
:100088000C940000000000000000000000000000C8
:100098000000000000000000000000000000000058
:1000A8000000000000000000000000000000000048
:1000B8000000000000000000000000000180018036
:1000C800000000000000018003C007E006600C305B
:1000D8000C3018181818300C300C600660067FFEBB
:1000E8007FFE000000007FFE7FFE60066006300C89
:1000F800300C181818180C300C30066007E003C0D4
:1001080001800000000007E00C30181818181818B3
:100118001818181818181818181818180C3007E094
:10012800000000000000018003800780018001803A
:10013800018001800180018001800180018003C06D
:1001480000000000000007E00C3018181008001824
:100158000030006000C00180030006000C181FF882
:1001680000000000000007E0081010081008001048
:1001780000E0003000180008000818180C3007E0EC
:100188000000000000000030007000F001B00330F3
:1001980006300C3018301FF800300030003000787E
:1001A8000000000000000FF80FF008001000100019
:1001B8001FE0003000180018001818181C300FE055
:1001C80000000000000003E006100C000800180002
:1001D8001FE01C3018181818181818180C3007E0E9
:1001E8000000000000001FF8101800100020002078
:1001F8000040004000800080010001000200020071
:1002080000000000000007E00C30081008100C3057
:1002180007E00C3018181818181818180C3007E0D0
:1002280000000000000007E00C3018181818181813
:100238000C3807F8001800100020002000C0030048
:1002480000000000000000000000000000000000A6
:100258000000000000000000000000000000000096
:100268000000000000000180018001800180018001
:1002780001800180018001800180000001800180EF
:100288000000000000000060008001000200020081
:100298000400040004000200020001000080006065
:1002A800000000000000060001000080004000403F
:1002B80000200020002000400040008001000600CF
:1002C8000000000000000000000800180030006076
:1002D80000C00180030006000C0018001000000098
:1002E8000000000000000000018001800180018002
:1002F80001803FFC3FFC018001800180018001807A
:1003080000000000000000000000000000000000E5
:1003180000003FFC3FFC000000000000000000005F
:1003280000000000000000000000018001800000C3
:1003380000000000000000000180018000000000B3
:100348000000000000000030006000C001800300D1
:1003580006000C0006000300018000C000600030A9
:100368000000000000000000000000000FF00FF087
:100378000000000000000FF00FF000000000000077
:100388000000000000000C0006000300018000C00F
:1003980000600030006000C00180030006000C000F
:1003A80000000000000003C006600C300C30043070
:1003B800006000C001800180018000000180018090
:1003C80000000000000000E000E0012001200230F1
:1003D8000210041004180FF81818100C300C781EAE
:1003E8000000000000007FFE301E300230003000A8
:1003F8003FF83FFC300E30063006300E3FFC7FF8E9
:100408000000000000007FF03018300C300C30186D
:100418003FF83FFC300E30063006300E3FFC7FF8C8
:100428000000000000007FFE301E30023000300067
:1004380030003000300030003000300030007800EC
:1004480000000000000003FC011801180118011841
:10045800011801180218041808183FFC383C300C21
:100468002004000000007FFC301C30043000308085
:100478003F803F803080300030003004301C7FFCEB
:1004880000000000000063C6518A11880990099095
:1004980007E007E00DB019981188318C218463C6F4
:1004A8000000000000000FE03838600C0004000C69
:1004B80003F80008000400060006600C3FF80FE08F
:1004C800000000000000781E300C301C303C306CFE
:1004D80030CC318C330C360C3C0C380C300C781E7C
:1004E8000000000003C0799E300C301C303C306C9A
:1004F80030CC318C330C360C3C0C380C300C781E5C
:10050800000000000000783C306C30C031803300BF
:100518003F00398030C0306030303018300C781EE1
:1005280000000000000001FE008C008C008C008C94
:10053800010C010C010C020C020C040C680C701E5E
:10054800000000000000700E381C381C342C342CBD
:10055800342C324C324C324C318C318C318C781EEC
:10056800000000000000781E300C300C300C300CFD
:100578003FFC3FFC300C300C300C300C300C781E3B
:1005880000000000000007E01E78381C300C700ED8
:10059800700E700E700E700E300C381C1E7807E04E
:1005A8000000000000007FFE3FFC300C300C300CD7
:1005B800300C300C300C300C300C300C300C781EF9
:1005C8000000000000007FF8300C300630063006CE
:1005D800300C3FF830003000300030003000780038
:1005E80000000000000007E01E78381C300470008E
:1005F80070007000700070003004381C1E7807E02E
:100608000000000000007FFE6186418201800180B9
:10061800018001800180018001800180018003C088
:10062800000000000000780E300418040C080608CA
:100638000310019000E0006000400C400C800700AF
:1006480000000000000003C001800FF0399C6186A3
:10065800418241826186399C0FF00180018003C08C
:10066800000000000000781E300418080C10062056
:100678000340018002C0046008301018200C781E66
:10068800000000000000781E300C300C300C300CDC
:10069800300C300C300C300C300C300C300C7FFE31
:1006A800000600020000781E300C300C300C300CB4
:1006B800380C1FFC000C000C000C000C000C001E79
:1006C8000000000000007BDE318C318C318C318CD5
:1006D800318C318C318C318C318C318C318C7FFE6A
:1006E8000000000000007BDE318C318C318C318CB5
:1006F800318C318C318C318C318C318C318C7FFE4A
:100708000006000200007C0058005800580018003D
:1007180018001FF8180C180618061806180C3FF8C9
:10072800000000000000781E300C300C300C300C3B
:10073800300C3F8C304C302C302C302C304C7F9E81
:100748000000000000007800300030003000300069
:1007580030003FF8300C300630063006300C7FF899
:1007680000000000000007E01E78381C300C000E66
:10077800000E00FE000E000E300C381C1E7807E03C
:1007880000000000000079F8330C32043606360603
:1007980036063E063606360636063204330C79F837
:1007A80000000000000003FE060C0C0C0C0C0C0CE6
:1007B800060C03FC030C060C0C0C180C300C781EF1
:1007C80000000000F4010A002C010000F0000E01F6
:1007D8006400F0000E017800DC00F0000E01F0006B
:1007E8005401F0000E016801CC01B80BFA00E803CF
:1007F8003200320032003C00202020202000CCC5EE
:10080800CDDE0020202B0020202D00CFC0D3C7C074
:1008180000202020202020202020202020202020F0
:100828002000CDC0CFD0DFC6C5CDC8C500D4C0C755
:1008380000D2CECA00CDC0CFD0DFC6C5CDC8C52036
:10084800C820D2CECA00C2CEC7C1D3C6C4C5CDC87F
:10085800DF00C4C5D1CACECC00D1D2C0D0D20000EE
:1008680001002D4E414E00494E4600000100020095
:10087800D20701007A09D40702007C09D6070100D3
:100888008009D80701008209DA0702008409DC0719
:1008980001008609DE0701008809E00701008A09CE
:1008A800E20702008C09E40701008E09E60702004E
:1008B8009009E80701009209EA0702009409EC0789
:1008C80002009609EE0702009809F0070200A6093F
:1008D800F2070100A809F4070200AA09F6070600B2
:1008E8000005000806000605000806000C050008BB
:1008F80006001205000805001805060804001D0575
:100908000B08040021050F0806002505130805003B
:10091800D009F8070100D609FE0711002B051908B0
:1009280011003C0519080B004D052A08040058055C
:10093800350804005C053908040060053508110015
:1009480064053D080C0075054E08070081055A0826
:10095800070088055A0807008F055A0807009605FA
:10096800230807009D0523080700A405230806009F
:10097800AB0561080600B10513080100D80968082D
:100988000000F894EE27ECBBF1E0F5BFE5BFE0937B
:100998006C00F8E1F1BDE1BD8DE0A2E0BB27ED936D
:1009A8008A95E9F780E090E1A0E0B1E0ED93019746
:1009B800E9F7E4E7F8E085919591009761F0A59152
:1009C800B59105901590BF01F00105900D92019722
:1009D800E1F7FB01F0CF8BBFEFEFEDBFE0E1EEBF3A
:1009E800C0E0D5E00C94370E0E944910F595E795C4
:1009F800E575AE2FE881EE0FEA7AEA2BE8830E94CC
:100A080049100E94F914E373AE2FE881EE0FEE0F40
:100A1800EC7CEA2BE8830E9449100E94F514EF70E1
:100A2800AE2FE881E295E07FEA2BE88323C0959812
:100A38001D9A0E944C101D980E944C101D9A959A60
:100A48000E944C100895959A97980E9452100000A1
:100A58001F98969800001F9A969A00000BC0959AC6
:100A6800979A0E94521000001F98969800001F9AAB
:100A7800969A0000219608951A930A931A810B8179
:100A8800959A979A1BBB05BB00001F989698000083
:100A98001F9A969A00001981088124960895C7DF45
:100AA8000E945A100E945A100E945A10E8ECF0E076
:100AB8000E945E10E2EEEA93C6DFE3E2EA93CFDF3C
:100AC800E2E00E946210E0EE0E9469100E9470103D
:100AD800E0EE0E9473100E945A10E8E7F0E00E94CE
:100AE8005E10E6EE0E946910EAEDEA93B8DFE3E7EC
:100AF800EA93B5DFE0EBEA93A6DFE4E20E947A101E
:100B08000E948110EFED0E948510EFE00E947A109C
:100B1800E4EB0E947310E4E80E947A10EAE5EA9395
:100B28009EDFEAE00E947A10E8E00E947A10E6EB85
:100B38000E946910ECE20E947A10ECE0EA938FDFE1
:100B4800EAE0EA938CDFE0E00E946210EAEBEA93C5
:100B58007ADFEFE0EA9383DFE8EBEA9374DFE7E01C
:100B68000E948510E6E30E947310ECEBEA936BDFBA
:100B7800E0E5EA9374DFE0E9EA9371DFE0E50E94DB
:100B88008510E0EF0E947310E5E0F0E00E945E102F
:100B9800E9E2EA9358DFE0EDEA9355DFEDE0EA9306
:100BA8005EDF0895EAE2EA934EDFEF81EA9357DFCA
:100BB800EE81EA9354DFED81EA9351DFEC81EA9309
:100BC8004EDFEBE2EA933FDFEB81EA9348DFEA810D
:100BD800EA9345DFE981EA9342DFE881EA933FDF60
:100BE800289608950E94D015E8E2EA932CDF0E9427
:100BF8008910EFEDF1E00E948E10EFE0F1E00E9425
:100C0800911000E010E00031E1E01E0780F420E0E0
:100C180030E0203EE1E03E0738F4EC81FD810E949F
:100C280099102F5F3F4FF5CF0F5F1F4FECCFE9E2D1
:100C3800EA9309DF0E94D715269608951A930A9316
:100C48000E949D10AA85BB8550961197BA93AA93C6
:100C58000E94A210AC85BD8550961197BA93AA93AD
:100C6800A1DFECE2EA93EFDE10E01032E8F400E0F6
:100C78000830C0F4E12FAA85BB85F0E0EA0FFB1F1E
:100C88001490E02FA0E80E94ED14E121E13018F063
:100C9800EC81FD8102C0EA81FB81FA93EA93ECDEE4
:100CA8000F5FE6CF1F5FE1CF19810881C2C2E885D7
:100CB800F0E0E033A0E0FA0719F4ECE0F1E08EC1CF
:100CC800E133A0E0FA0719F4ECE2F1E087C1E2337E
:100CD800A0E0FA0719F4ECE4F1E080C1E333A0E006
:100CE800FA0719F4ECE6F1E079C1E433A0E0FA0779
:100CF80019F4ECE8F1E072C1E533A0E0FA0719F461
:100D0800ECEAF1E06BC1E633A0E0FA0719F4ECEC89
:100D1800F1E064C1E733A0E0FA0719F4ECEEF1E082
:100D28005DC1E833A0E0FA0719F4ECE0F2E056C13F
:100D3800E933A0E0FA0719F4ECE2F2E04FC1E1323E
:100D4800A0E0FA0719F4ECE6F2E048C1E832A0E0C6
:100D5800FA0719F4ECE8F2E041C1E932A0E0FA0739
:100D680019F4ECEAF2E03AC1EF32A0E0FA0719F41C
:100D7800ECECF2E033C1EA33A0E0FA0719F4ECE254
:100D8800F3E02CC1EC33A0E0FA0719F4ECE4F3E04B
:100D980025C1ED33A0E0FA0719F4ECE6F3E01EC133
:100DA800EE33A0E0FA0719F4ECE8F3E017C1EF33EB
:100DB800A0E0FA0719F4ECEAF3E010C1EB32A0E086
:100DC800FA0719F4ECEEF2E009C1ED32A0E0FA07F7
:100DD80019F4ECE0F3E002C1E03CA0E0FA0719F4F2
:100DE800ECECF3E0FBC0E13CA0E0FA0719F4ECEE10
:100DF800F3E0F4C0E23CA0E0FA0719F4ECE0F4E018
:100E0800EDC0E33CA0E0FA0719F4ECE2F4E0E6C038
:100E1800E43CA0E0FA0719F4ECE4F4E0DFC0E53CB8
:100E2800A0E0FA0719F4ECE6F4E0D8C0E63CA0E04C
:100E3800FA0719F4ECE8F4E0D1C0E73CA0E0FA07BF
:100E480019F4ECEAF4E0CAC0E83CA0E0FA0719F4A7
:100E5800ECECF4E0C3C0E93CA0E0FA0719F4ECEECE
:100E6800F4E0BCC0EA3CA0E0FA0719F4ECE0F5E0D5
:100E7800B5C0EB3CA0E0FA0719F4ECE2F5E0AEC02F
:100E8800EC3CA0E0FA0719F4ECE4F5E0A7C0ED3C6F
:100E9800A0E0FA0719F4ECE6F5E0A0C0EE3CA0E00B
:100EA800FA0719F4ECE8F5E099C0EF3CA0E0FA077E
:100EB80019F4ECEAF5E092C0E03DA0E0FA0719F475
:100EC800ECECF5E08BC0E13DA0E0FA0719F4ECEE9C
:100ED800F5E084C0E23DA0E0FA0719F4ECE0F6E0A2
:100EE8007DC0E33DA0E0FA0719F4ECE2F6E076C035
:100EF800E43DA0E0FA0719F4ECE4F6E06FC0E53D44
:100F0800A0E0FA0719F4ECE6F6E068C0E63DA0E0D8
:100F1800FA0719F4ECE8F6E061C0E73DA0E0FA074B
:100F280019F4ECEAF6E05AC0E83DA0E0FA0719F433
:100F3800ECECF6E053C0E93DA0E0FA0719F4ECEE5A
:100F4800F6E04CC0EA3DA0E0FA0719F4ECE0F7E05F
:100F580045C0EB3DA0E0FA0719F4ECE2F7E03EC02B
:100F6800EC3DA0E0FA0719F4ECE4F7E037C0ED3DFA
:100F7800A0E0FA0719F4ECE6F7E030C0EE3DA0E097
:100F8800FA0719F4ECE8F7E029C0EF3DA0E0FA070A
:100F980019F4ECEAF7E022C0EE32A0E0FA0719F4FF
:100FA800ECEAF0E01BC0E032A0E0FA0719F4ECE448
:100FB800F2E014C0E130A0E0FA0719F4ECECF0E03C
:100FC8000DC0E230A0E0FA0719F4ECEEF0E006C03C
:100FD800E330A0E0FA0769F4ECE8F0E0FA93EA936A
:100FE8000E949D100E949D100E949D100E949D10BD
:100FF80025DE29960895A885B985EC91E03099F009
:10100800ED91A887B987EA930E94A7100E94A710BC
:101018000E94A7100E94A7104ADEEE81FF817096F9
:10102800EE83FF83E8CF2A9608950E94AC100E94B1
:10103800BE1012F40E94C8100E94CF1022F40E9421
:10104800DF100E94E4100E94EF100E9402113CF48D
:10105800EA85FB850E9499100E940A11F6CF05C106
:101068002A970E94CE15A98DBA8DEF89F88DEA1BB3
:10107800FB0BAF01552332F4FA01AFEFBFEF0E942B
:101088002B15AF01AD89BE89EB89FC89EA1BFB0BE7
:10109800EE87FF87AF85AA2332F4AFEFBFEF0E9438
:1010A8002B15EE87FF87EF89F88DA98DBA8DAE17BE
:1010B800BF0718F4E1E0F0E002C0EFEFFFEFEC87C4
:1010C800FD87EB89FC89AD89BE89AE17BF0718F487
:1010D800E1E0F0E002C0EFEFFFEFEA87FB87AE85C3
:1010E800BF85FA01EA1BFB0BE887F987E98DFA8DC2
:1010F800FA93EA93EA890E941711FA93EA93E98D21
:10110800FA8DFA93EA93EE890E9417110E949110C2
:10111800A889BB27E889F0E00E942B159F0100E011
:1011280010E0201731073CF0E989FA890E949910EC
:101138000F5F1F4FF6CFEF89F88DA98DBA8DEA178B
:10114800FB0739F4EB89FC89AD89BE89EA17FB07EF
:1011580009F001C032C0E885F985EE0FFF1FEE8364
:10116800FF83EE85FF850E94D914AE81BF81EA17FF
:10117800FB0774F4AE85BF850E941D11E887F987C7
:10118800EC85FD85A98DBA8DEA0FFB1FE98FFA8FD3
:10119800AE81BF81A417B5077CF4FA01A885B9858B
:1011A800EA0FFB1FE887F987EA85FB85AD89BE89C9
:1011B800EA0FFB1FED8BFE8B99CF0E94D5156B961E
:1011C80008950E94A2100E94A2100E94A210E88511
:1011D800F9850E9422110E949D1027DF0E94A2100B
:1011E800EC81FD810E9422110E94A2100E94A2108F
:1011F8000E949D101ADF0E94A2100E94A210AE81C8
:10120800BF810E941D11FA93EA930E94A2100E94C6
:101218009D100BDFAA81BB810E941D11FA93EA93EE
:101228000E94A2100E94A2100E94A2100E949D106B
:10123800FCDE2C9608950E94AC100E94BE1012F499
:101248000E94C8100E94CF1022F40E94DF100E9452
:10125800E4100E94EF100E9402113CF4EA85FB851D
:101268000E9499100E940A11F6CF1981088164968C
:1012780008951A930A931A980E947010E3ED0E9439
:1012880029115BC01A930A931A980E947010E3E917
:101298000E94291152C01A98E5E0F0E00E945E1001
:1012A800E0E9EA930E94421080E991E00197F1F7A2
:1012B800E0E0EA930E944210E0E0EA930E944210C4
:1012C8001A9A08951A930A93D4DFE451F5408F01CE
:1012D800112312F400E010E00E944211E5E5F5ED5B
:1012E80065E772E40E944A1128C01A930A93CADF7C
:1012F800E453F8408F01112312F400E010E00E943B
:101308004211EEE1FEE96EEC72E40E944A1115C04A
:101318001A930A9310E0A0E00B99A1E0A13060F4C1
:101328000E94511100E0003120F40E9463110F5F08
:10133800FACF0E94901111E0E12F099119910895B7
:101348001A981B9885E38A95F1F71A9A1B9A0E94B6
:1013580051114424E0E14E1620F40E946311439495
:10136800F9CF0E94901108950E94B0111A930A9320
:101378001BB10CB1E12FEC71D9F4E091C608EF5F15
:10138800E093C6080E94B6110083A091C608A03F4A
:1013980019F4E0E0E093C608A091C808AF5FA093F5
:1013A800C808A03F29F4E0E0E093C808689421F851
:1013B80009911991BCC01A93E091C808E030E1F393
:1013C800E091C708EF5FE093C7080E94B61110814B
:1013D800A091C708A03F19F4E0E0E093C708F8948B
:1013E800E091C808E150E093C8087894C7C1A0917B
:1013F800C808A130A0F0E091C708EF5FE093C708E4
:10140800A091C708A03F19F4E0E0E093C708F8945A
:10141800E091C808E150E093C8087894E8CF0895AF
:101428000E94B011E091D308E03099F0E150E093C8
:10143800D308E091D208EF5FE093D2080E94BB1175
:10144800E081ECB9A091D208A83019F4E0E0E0936B
:10145800D2086DC0A091D308A830E1F3F894E091C8
:10146800D308E03011F45D9916C0E091D108EF5F20
:10147800E093D1080E94BB11A881A083A091D10854
:10148800A83019F4E0E0E093D108E091D308EF5FC9
:10149800E093D30802C0E881ECB9789421960895C6
:1014A8000E94B0111A930A9310919B0000919C001E
:1014B800E12FEC71E9F4E091F408EF5FE093F408B0
:1014C800E150F0E0EC52F74F0083A091F408A0320D
:1014D80019F4E0E0E093F408A091F608AF5FA09358
:1014E800F608A03229F4E0E0E093F608689422F8C0
:1014F800099119911CC00E94B011E0917909E0305E
:10150800B1F0E150E0937909E0917809EF5FE09359
:101518007809E150F0E0E950F74FE081E0939C0052
:10152800A0917809A03819F4E0E0E0937809E991EE
:10153800EFBFF991E991A99118950E944910309748
:1015480029F40E94C011E095E12107C0E130A0E034
:10155800FA0729F40E94C011E129A62FEC932296DC
:1015680008950A921A92FA926A937A938A939A93AE
:10157800AA93BA93EA93FA93EFB7EA93E6E0E2BF45
:10158800ABE9B9E00E94C911AEECB9E00E94C911FB
:10159800A0EBB9E00E94C911A8ECB9E00E94C911FA
:1015A800AAECB9E00E94C911ACECB9E00E94C911DB
:1015B800A091C309A13010F00C942E0BA091C4097E
:1015C800A13020F50E94CF110E94D511A0EAB9E000
:1015D8000E94C911A091A009B091A1095F9710F0CC
:1015E8000E94DB11E091A609F091A709A091A0093A
:1015F800B091A109EA17FB0740F4E0E0E093A009E5
:10160800E093A109E3E00E94E11123C00E94DB11ED
:101618000E94CF11A4EAB9E00E94C911A091A409BF
:10162800B091A5095F9710F00E94D511E091AA0921
:10163800F091AB09A091A409B091A509EA17FB079D
:1016480040F4E0E0E093A409E093A509E5E00E94F6
:10165800E11123C00E94DB110E94D511A2EAB9E072
:101668000E94C911A091A209B091A3095F9710F037
:101678000E94CF11E091A809F091A909A091A209AF
:10168800B091A309EA17FB0740F4E0E0E093A20950
:10169800E093A309E4E00E94E111E991EFBFF99119
:1016A800E991B991A9919991899179916991F99063
:1016B8001990099018951A9310E02ADEE03011F479
:1016C8000C94C20B0E94E611E615F70528F40E9457
:1016D800EB116E167F0608F00CC00E94F011E81599
:1016E800F90528F40E94F5118E169F0608F001C02E
:1016F80011E00E94FA11E615F70528F40E94FF117F
:101708006E167F0608F00CC00E940412E815F90551
:1017180028F40E9409128E169F0608F001C012E0F4
:101728000E940E12E615F70528F40E9413126E1691
:101738007F0608F00CC00E941812E815F90528F475
:101748000E941D128E169F0608F001C013E00E9429
:101758002212E615F70528F40E9427126E167F0656
:1017680008F00CC00E942C12E815F90528F40E9414
:1017780031128E169F0608F001C014E0E12F19916E
:101788000895EC810E94361269F4E0E0F5E00E94C9
:101798003B120E9442120E949D100E9447120E9412
:1017A8003B1232C0E230A0E0FA0769F4E6E0F5E067
:1017B8000E944C120E9442120E949D100E944712E1
:1017C8000E944C1221C0E330A0E0FA0769F4ECE073
:1017D800F5E00E9453120E9442120E949D100E943E
:1017E80047120E94531210C0E430A0E0FA07B1F487
:1017F800E2E1F5E00E945A120E9442120E949D10F6
:101808000E9447120E945A123F963897FA93EA9319
:101818000E949D100E949D100E94FF072796089520
:101828000E94E611FA93EA930E94EB11FA93EA9365
:101838000E94F011FA93EA930E94F5110E94611236
:101848000E94FA11FA93EA930E94FF11FA93EA931D
:101858000E940412FA93EA930E9409120E946112EC
:101868000E940E12FA93EA930E941312FA93EA93D3
:101878000E941812FA93EA930E941D120E946112A4
:101888000E942212FA93EA930E942712FA93EA938B
:101898000E942C12FA93EA930E9431120E9461125C
:1018A8000E94E6113196FA93EA930E94EB11319760
:1018B800FA93EA930E94F0113196FA93EA930E9400
:1018C800F5110E9469120E94E5080E94FA113196EA
:1018D800FA93EA930E94FF113197FA93EA930E94D0
:1018E80004123196FA93EA930E9409120E9469122F
:1018F8000E94E5080E940E123196FA93EA930E941C
:1019080013123197FA93EA930E9418123196FA93B8
:10191800EA930E941D120E9469120E94E5080E9423
:1019280022123196FA93EA930E9427123197FA937A
:10193800EA930E942C123196FA93EA930E9431128C
:101948000E9469120E94E508E8E1F5E0FA93EA933B
:10195800E1E0EA930E9489100E946F12EDE1F5E040
:101968000E9475120E9489100E946F12E1E2F5E050
:10197800FA93EA93E3E0EA930E9489100E946F12B7
:10198800E5E2F5E00E947A120E946F1208950E9423
:101998007F12ED89F0E0ED87FE87EC89F0E0EF87B4
:1019A800F88BEB89F0E0E98BFA8B0E9496120E9483
:1019B800A6120E941F090E9496123A932A933A93FC
:1019C8002A930E94AD12F901F296FA93EA93F9016B
:1019D800F296FA93EA930E94AD12F901F297FA93FC
:1019E800EA93F901F2970E94B412AE81A33010F085
:1019F8000C94480D0E94BF120E94C6120E94CB127E
:101A08000E94D0120E94C6120E94E0120E94E712A1
:101A1800F17039F00E94BF120E94C612FF6FFE9348
:101A2800EE930E94BF120E94C612E20FF31FFE93AC
:101A3800EE930E94BF120E94E712E83EA0E0FA0768
:101A480024F00E94BF120E94EC120E94BF120E9452
:101A5800E712F29724F40E94BF120E94F3120E9428
:101A680096120E94FA120E9401130E940A130E9401
:101A780075120E9413130E94E712D001ED93FC9394
:101A8800EE81EF5FEE83B1CF0E941F1340F40E94F6
:101A980035130E9440130E94A6120E941F090E943B
:101AA800D515669608950E947F12EC89F0E0ED87BF
:101AB800FE87EB89F0E0EF87F88B0E9496120E9470
:101AC800A6120E941F090E949612F901B896FA936D
:101AD800EA93F901B896FA93EA930E94AD12F901D4
:101AE800B897FA93EA93F901B8970E94B412AE81B5
:101AF800A23010F00C94DC0D0E94BF120E94C61296
:101B08000E94CB120E94D0120E94C6120E94E012BC
:101B18000E94E712F17039F00E94BF120E94C612AB
:101B2800FF6FFE93EE93EE81E03051F40E94BF12F6
:101B38000E944813B896EA0FFB1FD001ED93FC935F
:101B4800AE81A13051F40E94BF120E944813B89789
:101B5800EA0FFB1FD001ED93FC930E94BF120E9475
:101B6800E712E83EA0E0FA0724F00E94BF120E94A4
:101B7800EC120E94BF120E94E712F29724F40E940E
:101B8800BF120E94F3120E9496120E94FA120E943B
:101B980001130E940A130E9475120E9413130E94D7
:101BA800E712D001ED93FC93EE81EF5FEE839FCFB8
:101BB8000E941F1340F40E9435130E9440130E9494
:101BC800A6120E941F090E94D51565960895EBE29A
:101BD800F5E00E9451130E945A130E94FF07ECE39C
:101BE800F5E00E94511370960E945A130E94FF0755
:101BF800EC810E945F1359F4EDE4F5E00E94511363
:101C08000E945A130E94FF07E8E5F5E01DC0E13085
:101C1800A0E0FA0759F4ECE5F5E00E9451130E94A0
:101C28005A130E94FF07E0E6F5E00EC0E230A0E09C
:101C3800FA07B9F4E4E6F5E00E9451130E945A133A
:101C48000E94FF07E5E7F5E0FA93EA93ED81F0E0FB
:101C5800FA93EA93EE81F0E070960E945A130E947C
:101C6800FF072596089523970FEF1FEFE0E0EBBBE2
:101C7800EFEFEABBE0E0E8BBE7EFE7BBE0E0E5BB9E
:101C8800EFEFE4BBE0E0E2BBEBEFE1BBE0E0E3B9A0
:101C9800E6EBE2B9E0E0E0936200E8EFE093610090
:101CA800E0E0E0936500EFE1E0936400E0E0E0BF8E
:101CB800E4E0E3BFE6E0E2BFE0E0E1BFEFBDEEBD98
:101CC800EDBDECBDE7BDE6BDEBBDEABDE9BDE8BDD8
:101CD800E0937900E0937800E5BDE4BDE3BDE093CF
:101CE8008B00E0938A00E0938900E0938800E093FA
:101CF8008100E0938000E0938700E0938600E09302
:101D08008500E0938400E0938300E0938200E093F1
:101D18006A00EABFE9BFE1E0E7BFE0E0E0937D00E9
:101D2800EBB9E8EDEAB9E6E0E0939500E0E0E0938E
:101D38009000E8E0E9B9E0E0E0939B00E8EDE0938B
:101D48009A00E6E0E0939D00E0E0E0939800E7E683
:101D5800E0939900E0E8E8B9E0E0E0BDE7B9E4E83D
:101D6800E6B9E2E5EDB9E0E0EEB9E09374000E946F
:101D78009D1378940E94DB110E94CF110E94D51107
:101D8800E8EEF3E00E945E100E9453050E94621381
:101D9800A6E0B0E00E94A415E230D8F04424E3E0C5
:101DA8004E1690F4E42DA0E0B0E00E946813BF0145
:101DB800E42DACECB7E00E9468130E949C15DB018F
:101DC8000E94B0154394EBCFA6E0B0E0E0E00E949B
:101DD800B8150E9489100E94F605E1E8F5E00E9416
:101DE8006E13E0E7F0E00E9475130E947A13E8E8AA
:101DF800F5E00E946E13E0E8F0E0FA93EA93E7E07A
:101E0800FFEF0E948E100E947A13EFE8F5E00E941F
:101E18006E13E0E9F0E00E9475130E947A13E6E978
:101E2800F5E00E946E13E0E7F0E00E948E100E9439
:101E380089100E947A13EDE9F5E00E946E13E0E83C
:101E4800F0E00E948E100E9489100E947A13E4EA42
:101E5800F5E00E946E13E0E9F0E00E948E100E9407
:101E680089100E94FF07DCDC0E94A409E2E3F0E08D
:101E7800E093BC09F093BD09E0E0E093BA09E09370
:101E8800BB09A0E0B0E00E94A015DF01E6EBF0E09E
:101E98000E943515AEEBB9E0662777270E946114DA
:101EA8000E9497150E947F13EEE0F1E0E093AC09E1
:101EB800F093AD09949AE091C5090E945F1311F05F
:101EC8000C940A10A091CE09B091CF091B97D0F0BD
:101ED800A091C808A33038F4A23020F0A091C2091C
:101EE800A23009F00FC0A091C209A23038F40E94B4
:101EF8008C130E94DF09EA934ADD03C00E948C1309
:101F0800D2DDE6CFA091D308A03041F4A091CE094C
:101F1800B091CF09A139E1E0BE0708F421C0E0E0A3
:101F2800E093CE09E093CF090E94FB09E0E0E0933B
:101F3800BA09E093BB09E091C2090E945F1311F44A
:101F4800E5E50BC0E130A0E0FA0711F4E9E405C0CB
:101F5800E230A0E0FA0721F4EAE5EA930E942E0AAB
:101F68000E948C09E13010F40C9409100E9493131C
:101F780089F40E94FB09E091C209EF5FE093C2096E
:101F8800A091C209A33018F0E0E0E093C2090E94D2
:101F98007F133BC0E230A0E0FA0791F4A091D60984
:101FA800B091D709A83CE0E0BE074CF4E091D6090F
:101FB800F091D7093A96E093D609F093D70925C04E
:101FC800E330A0E0FA0781F4A091D609B091D709CF
:101FD80055974CF0E091D609F091D7093A97E093DC
:101FE800D609F093D70911C0E430A0E0FA0769F4E4
:101FF800E8ECE093C509EBEAF5E00E947A120E944A
:102008006F12EAEFF0E00E945E1036C0E130A0E007
:10201800FA0791F1E83CA0E0FA0709F50E948C095B
:10202800E130E0F00E949313C9F0E230A0E0FA0733
:10203800A9F0E330A0E0FA0789F0E430A0E0FA075D
:1020480069F4E0E0E093C509E1EBF5E00E947A125B
:102058000E946F12EAEFF0E00E945E100DC0EA3FA6
:10206800A0E0FA0749F40E948C09E13028F0E0E08A
:10207800E093C5090E9462131ECFFFCFE881EFB934
:10208800779BFECFEFB121960895E881F0E008959F
:10209800E4E6F0E0FA93EA930C94EF13E881EA930C
:1020A8000E94F804EBBBE0E0E5BB0895E1E0EA93A9
:1020B8000C942705FA93EA930C94EF13EA930E9481
:1020C8003305E4E0EA930C943305EA930E9427056C
:1020D800E1E0EA930C943305E1E0F0E0EBCFEA931A
:1020E8000E942705E3E0EA930C943305EA930E94E3
:1020F8003305E0E0EA930C943305E1E0EA930C94AD
:102108003305EA930E943305F8CFE0E0F0E0FA9354
:10211800EA930895FA93EA93F8CFFA93EA930E9420
:10212800D605ECE2EA930C942705FA93EA930C940B
:102138004005E885F985FA93EA930895EA85FB85D1
:10214800FA93EA930895EF81F885FA93EA9308954C
:1021580028971A930A93EA89FB89FA93EA93EA89FA
:10216800FB89FA93EA93EA89FB89FA93EA93EA8965
:10217800FB89D3CFAA89BB89E889F989EA1BFB0BBC
:1021880031968F0111230895F801AFEFBFEF0E9438
:102198002B158F010895AE85BF85EC85FD85EA1B5B
:1021A800FB0B319666277727EA83FB836C837D8355
:1021B800AD81AA230895EA81FB816C817D81089510
:1021C800AFEFBFEF8FEF9FEF0E943015EA83FB83DD
:1021D8006C837D830895F801AA81BB818C819D81E0
:1021E8000E94FE140E943015EA83FB836C837D8372
:1021F800E0E0EE83EF83E887E9870895DCDFAE81CE
:10220800BF81888599850E94C9150895EE81FF814F
:1022180068857985EF5FFF4F6F4F7F4FEE83FF83B0
:10222800688779870895F0E0AB8DBC8DEA0FFB1FB6
:102238000895E885F985EA1BFB0B0895AC85BD85F3
:10224800EA0FFB1FFA93EA930895EA930E9442105B
:1022580080E991E00197F1F7E0E0EA930E944210EB
:102268000E2F1127102F0027E0E0EA930E9442105A
:10227800F0E00E0F1F1F1A9AF8010895F8010E9446
:10228800FE140E946114DF01CB0108950E948F148F
:102298000E942A148F01F8010895E0E0E093B70541
:1022A800E093B805E093B905E093BA05E093BB0560
:1022B800E093BC05E093BD05E093BE0508950E9438
:1022C8006609A091B705B091B8058091B9059091BC
:1022D800BA05662777270E94D414E093B705F093D0
:1022E800B8056093B9057093BA050E947909A09161
:1022F800BB05B091BC058091BD059091BE056627D0
:1023080077270E94D414E093BB05F093BC05609333
:10231800BD057093BE050895A091B705B091B805A5
:102328008091B9059091BA05E0E1F0E060E070E0D5
:102338000E946D153F01A091BB05B091BC0580912D
:10234800BD059091BE05E0E1F0E060E070E00E941C
:102358006D154F010C944F09AA93EA93FA93EFB7BE
:10236800EA930895E150F0E0EA52F84F0895E150F9
:10237800F0E0E753F74F0895A2E6B0E06A2F1C900B
:10238800E981A1E00E94E5140895ED91FD9131964F
:10239800FE93EE930895E4E0EA93E1E0EA930C9467
:1023A800A10AE5E0EA93E1E0EA930C94A10AE3E0EC
:1023B800EA93E1E0EA930C94A10AEA93E0E0EA9355
:1023C8000C94A10AE0917E09F0917F090895E091AB
:1023D8008009F09181090895E0917A09F0917B09CB
:1023E8000895E0917C09F0917D090895E0918609AE
:1023F800F09187090895E0918809F0918909089575
:10240800E0918209F09183090895E0918409F0919F
:1024180085090895E0918E09F0918F090895E0915A
:102428009009F09191090895E0918A09F0918B093A
:102438000895E0918C09F0918D090895E09196092D
:10244800F09197090895E0919809F09199090895F4
:10245800E0919209F09193090895E0919409F0911F
:1024680095090895F0E0E130A0E0FA070895FA939D
:10247800EA93A8DF3A96FA93EA93AECF3F96389755
:10248800FA93EA9356CE0E94FF07ED81FE810895E4
:10249800FA93EA93ABDF3A96FA93EA93B1CFFA93B9
:1024A800EA93B8DF3A96FA93EA93BECFFA93EA939F
:1024B800C5DF3A96FA93EA93CBCFFA93EA93EFEF14
:1024C800FFEFFA93EA930C941F093197FA93EA9372
:1024D800E1E0F0E01FCEEFEFFFEFFA93EA930C9400
:1024E800C50BFA93EA93E2E0EA930895FA93EA9324
:1024F800E4E0EA930ACE2D97E7E0E983E0EEEA8389
:10250800E7E0EB83EFEFEC83E0E0ED83EFE1EE83D0
:102518000E94CE15A2E0B0E00E94A0158F012DE820
:1025280030E00895E091BA09F091BB09FA93EA9373
:10253800F801A091BA09B091BB09EA0FFB1FFA9301
:10254800EA930895E2E3F0E0FA93EA93E9EEF0E023
:10255800E1CDE8E0F1E2FA93EA930E941908E2CFAC
:10256800FA93EA93E8E0F1E2FA93EA930E941908F1
:10257800E0E0EE830895EE81F0E0DE011D96EE0FB7
:10258800FF1F0895AE0FBF1FED91FD910895E0580C
:10259800F040FE93EE93EFCFEA0FFB1FBF01DF0180
:1025A8000E949315A091D609B091D7090E942B15C6
:1025B800DB01ED93FC93DFCF0E94F7140E94F51422
:1025C800FE93EE93D8CFAE0FBF1F0E9493150895C8
:1025D800AE0FBF1FE7EEF0E0ED93FC930895AE0F4A
:1025E800BF1FE2E3F0E0ED93FC930895EA85A0EDC8
:1025F800B9E0F0E0EE0FFF1FE6CFFA93EA93EC851F
:10260800F0E0DE015396EE0FFF1FDDCFFA93EA9359
:10261800EE85F0E0DE011F96EE0FFF1FD4CF0E947B
:102628003408EE81A0EDB9E0F0E0EE0FFF1FEA0FED
:10263800FB1F0F01A0CFF801A091BA09B091BB0907
:10264800EA0FFB1FE093BA09F093BB09E0EEF1E053
:10265800E01BF10BA091BA09B091BB09EA17FB077F
:102668000895E091BA09F091BB09FA93EA93E0EE74
:10267800F1E0FA93EA9366CF0E941F09E0E0E09345
:10268800BA09E093BB094ECFEA0FFB1F0F01DF0128
:102698000E949315DF01F9010895FA93EA93ED81F9
:1026A800F0E0FA93EA93EE81F0E00895FA93EA9362
:1026B800EE81FF812FCDF0E030970895E6E0EA93B0
:1026C800E1E0EA930C94A10AF0E0EE0FFF1FEA0F95
:1026D800FB1F0895FA93EA93E0ECF0E0FA93EA938B
:1026E8000895FA93EA93E0E0FFE114CD0E94FF0712
:1026F800ECE2F1E0DFCCE091C209EA93EEE1EA9383
:10270800E0E1EA93E8EFF0E0FA93EA930C94EB0D3A
:102718000E94DF09EA930E94DF09EA930895E0E046
:10272800E093CA09E093CB090E945F0BE0939A09F2
:1027380099CE90989198889A899815C08998889880
:10274800EE270000819B0895809B089504D0899A04
:1027580002D0889AE1E06BE107C0899A889A03D091
:102768008898F9DF899865E36A95F1F7089578E024
:102778008898F1DF809BFECFEEDF889481990894DA
:10278800889AF1DFEE1F7A9599F77991772311F4FA
:10279800899801C0899ADFDF8898E5DF889ADBDFAE
:1027A8008998D9CFE99178E0EE0F10F4899801C0A3
:1027B800899AD9DF8898CFDF809BFECFCCDF889AB3
:1027C8007A9591F78998C7DF8898CDDFE1E08199FC
:1027D800EE27889AC0CFE991F991309639F080EACE
:1027E8009FE00197F1F7A8953197C9F70895552308
:1027F80042F4503811F4E0FF04C03196691F791F84
:102808006BF050E8572711F45F9373C05F3F31F0C6
:10281800660F000C57956795752F08955F930020F4
:102828000AF073C06CC050E8192E1522880F991F42
:102838009527550F879550E8072E0522660F771FB5
:102848007527550F67950895689401C0E8945F93BC
:10285800F2DF703818F07F3F08F44BC056E1571B81
:10286800AAF4519558300EF4593030F0EFEFFFEFDD
:102878006FEF7FE777F91AC077275523B9F0EE0F86
:10288800FF1F661F771F5A95D1F710C0772758305A
:1028980028F0EF2FF62F672F5850F9CF552331F036
:1028A80076956795F795E7955A95D1F700200AF43C
:1028B80080D05F910895689401C0E8943097604093
:1028C8007040B1F0002426F0772312F4009471D000
:1028D800172E7EE1112032F07A95EE0FFF1F661F4A
:1028E800111CF9CFEF2FF62F612D5F938ADF5F91CF
:1028F8000895EE27FF27662777275F910895EFEF62
:10290800FFEF6FE77FEF5F910895EFEFFFEF6FE75E
:102918007FE75F9108955F9386DF703821F4112077
:102928000AF4EDCFF2CF903809F4E3CF01240894EC
:10293800970B1BF4D4F30020F3CF792F1F932F9319
:102948003F934F93112411272227332744275527D4
:1029580090E2AE17BF078607410730F0AE1BBF0BEA
:10296800860B410B089401C08894551F221F331F02
:10297800111CAA1FBB1F881F441F9A9551F7F90104
:10298800612D4F913F912F911F91662332F0550F82
:10299800EE1FFF1F661F7A9543F229DF5F910895A6
:1029A800EA0FFB1F681F791F0895F195E195F04024
:1029B8000895F09560957095E195FF4F6F4F7F4FA3
:1029C8000895EE230E2EEA2F19F0EE0F0A94E9F778
:1029D8000895EE230E2EEA2F19F0E6950A94E9F7EA
:1029E8000895F595E795F595E795F595E795F595A6
:1029F800E79508956F2F660F660B762F0895FA9F57
:102A0800F02DEB9FF00DEA9FE02DF10D08957A9FD0
:102A1800702D6B9F700DF89F700DE99F700D6A9F68
:102A2800602D710DFB9F600D711DE89F600D711D7C
:102A38008827FA9FF02D610D781FEB9FF00D611D1F
:102A4800781FEA9FE02DF10D681F781F089546D082
:102A5800D6DF0EF4AADF08954FD0D9DF0EF4A9DF30
:102A680008950024112490E1AA0FBB1F001C111C1B
:102A78000E1A1F0A18F40E0E1F1E01C0A1609A95A7
:102A880099F7FD01D00108953F934F935F93002478
:102A980011244427552730E2AA0FBB1F881F991F0E
:102AA800001C111C441F551F0E1A1F0A460B570BFA
:102AB80028F40E0E1F1E461F571F01C0A1603A952D
:102AC80059F7FD01BC01D001CA015F914F913F91B7
:102AD800089512D0D9DF0EF46CDF0895E894F7FF5B
:102AE80002C063DF6894B7FF06C0A095B095119641
:102AF80000F8039400FA0895E89477FF02C059DFBC
:102B0800689497FF0BC00024A095B0958095909588
:102B18001196801D901D00F8039400FA0895ED9118
:102B2800FC9111970895ED93FD936D937C9308950F
:102B38000590F491E02D0895119602D0FE2F11977B
:102B4800E199FECFFF93FFB7F894AEBBBFBBE09A05
:102B5800EDB3FFBFFF91089507D01196EF93EF2FC4
:102B680003D0EF9111970895E19B02C0A895FCCF7F
:102B78009FB7F894AEBBBFBBE09A8DB3E81719F0C6
:102B8800EDBBE29AE19A9FBF0895AE17BF0786078B
:102B9800970708955A934A933A932A931A930A9354
:102BA80008955D814C813B812A81198108810895AE
:00000001FF
