:0A0000000C9438000C9400000C94DE
:10000A0000000C9400000C94CB000C9400000C949B
:10001A0000000C9400000C9400000C94DF000C9477
:10002A0000000C9468000C9400000C949A000C9444
:10003A00E6000C9400000C9400000C9400000C9450
:10004A0000000C9400000C9400001027E8036400E0
:10005A000A00010000100001100001000000010068
:10006A00020066000000F894EE27ECBBF1E0FBBF4B
:10007A00EBBFE5BFF8E1F1BDE1BD8DE0A2E0BB2732
:10008A00ED938A95E9F780E094E0A0E6ED93019775
:10009A00E9F7E8E6F0E085919591009761F0A5917E
:1000AA00B59105901590BF01F00105900D92019749
:1000BA00E1F7FB01F0CFEFE5EDBFE4E0EEBFC0E60C
:1000CA00D1E00C946802EA93FA93EFB7EA931A9391
:1000DA000A931BB10CB1E12FEC7189F4E52D53940D
:1000EA00F0E0E05AFE4F0083E8E0E51509F45524F4
:1000FA007394E8E0E71519F47724689420F80991D5
:10010A00199125C01A937720F1F3E42D4394F0E076
:10011A00E05AFE4F1081E8E0E41509F44424F8940B
:10012A007A947894E12F19910895EA93FA93EFB7A4
:10013A00EA93882061F08A94E92D9394F0E0E859D3
:10014A00FE4FE081ECB9E0E8E91509F49924E99158
:10015A00EFBFF991E9911895E0E8E815E9F3F89409
:10016A00882011F45D990DC0E62D6394F0E0E859FA
:10017A00FE4FA881A083E0E8E61509F4662483947B
:10018A0002C0E881ECB9789421960895AA93EA937B
:10019A00EFB7EA93E6E0E4BDA0E0C599A1E0E1E0AB
:1001AA00EA2711F4C59801C0C59AE991EFBFE99110
:1001BA00A9911895EA93EFE5E2BFE0E0E3BFE99180
:1001CA0018950A921A926A937A938A939A93AA939F
:1001DA00BA93EA93FA93EFB7EA93E4B1F5B10E94BE
:1001EA00FB02BE2EED2DEF5FAE2EE7E0EA1508F416
:1001FA00AA24EA2DE7B9EFE5E2BFE1E0E3BFED2D7E
:10020A00A8E2EA9FF001E851FE4FDF01EC2DF0E091
:10021A00EA0FFB1FB082B7FE37C00E94B502E08129
:10022A00E03089F5E6E0ED1549F4ECB5FDB5E0936B
:10023A008903F0938A03E0E0EDBDECBDED2D0E9449
:10024A00BA02EA0FFB1F0F010E94C0020E94450377
:10025A00D0010E944B030E94C002E0E0F0E060E09F
:10026A0070E00E944B030E94B502A1E0A083AD2D6D
:10027A00B0E0AF57BC4F0E94C902E081EC930E94E4
:10028A00C902A0E0A08310C0E8E7BE1620F40E94CD
:10029A00B502A0E0A083EB2DF0E0AFE7B0E00E944A
:1002AA005003EA1BFB0BBE2EEFE7BE22ED2DA8E2A0
:1002BA00B3E0F0E00E94F602EA0FFB1FFF93EF9310
:1002CA00DF010E9445037F936F93FF93EF93AB2D5A
:1002DA00BB27EB2DF0E00E940D03AF91BF918F91E8
:1002EA009F910E9400030E94ED02AF91BF910E946C
:1002FA004B03AD2DB0E0A859BC4FEC91EF5FEC93E6
:10030A00D394E7E0ED1580F4DD24C394E8E2CE1639
:10031A0008F0CC24E0917803EC1531F40E94CE0267
:10032A0018F0E0E0E0937803E991EFBFF991E991E1
:10033A00B991A991999189917991699119900990A5
:10034A0018950E94570300E010E420E030E0F8011D
:10035A00E22BF32BAF0136952795EE81FF81E41747
:10036A00F50730F0202B312BE41BF50BEE83FF83CE
:10037A00F8010E94FB028F01309749F7EE81FF8155
:10038A002E173F0710F42F5F3F4FE22F0E945E03A4
:10039A00289608950E94590310E0183048F50E94E3
:1003AA00D502E03019F1E12F0E94BA02AE0FBF1F49
:1003BA000E944503DF01CB010E94D502F0E00E94B2
:1003CA0000030E9412039F010E94DB02EF57FC4FB9
:1003DA00A0E0A0830E94DB02E059FC4FFF93EF9359
:1003EA003A932A93AEDFAF91BF91EC931F5FD5CFBB
:1003FA00772011F40C94640285DEE535A1F408E057
:10040A00A0917803CA1671F015E0101720F40E9423
:10041A00DE021F5FFACF0E94CE0218F0E0E0E093FE
:10042A007803EECF4CC0E934A1F404E0A09178033C
:10043A00CA1671F011E0101720F40E94DE021F5F45
:10044A00FACF0E94CE0218F0E0E0E0937803EECFF4
:10045A0036C0EA35F1F4A0917803CA16C9F0A8E8C3
:10046A00B2E0E0917803F0E0AE0FBF1FEC91EA939F
:10047A0073DEE0917803F0E0E851FE4FE081EA9301
:10048A006BDE0E94CE0218F0E0E0E0937803E3CF3F
:10049A0016C0E335A1F4E0918903EA935DDEE091A9
:1004AA008A03EA9359DE10E0183048F40E94DB020E
:1004BA00E059FC4FE081EA934FDE1F5FF5CF0E94BF
:1004CA00600324960895E0E0EBBBEABBE8BBE0E2F8
:1004DA00E7BBE0E0E5BBE4BBE2BBE1BBE1E0E3BFD5
:1004EA00EFE5E2BFE0E0ECBFEFBDE3E0EEBDE0E048
:1004FA00EDBDE2E0ECBDE0E0E7BDE6BDEBBDEABD87
:10050A00E9BDE8BDE2BDE4E0E5BDE6E0E4BDE0E06A
:10051A00E3BDE5BFE4BFE1E4E9BFE0E0EBB9E8ED44
:10052A00EAB9E6E8E0BDE0E0E0BDE8E0E9B9E0E824
:10053A00E8B9E0E0E0BFE7B9EEEAE6B9E0B7EF71A3
:10054A00E0BFE0B7E068E0BFE0E0EDB9E6BFECE1AC
:10055A00E1BDECE0E1BD7894A8951CDFFDCFFFCFAB
:10056A00ED2DF0E0E758FC4F0895A8E4B3E0F0E081
:10057A000E94F6020895ED2DA8E2B3E0F0E00E9491
:10058A00F602AE0FBF1F0895ED2DF0E0E859FC4FBB
:10059A000895A0917803AF5FA0937803A8320895D5
:1005AA00E12FF0E0EF57FC4FE0810895E12FF0E0F2
:1005BA000895A8E21A9FF001E851FE4FDF01E09189
:1005CA007803F0E0AE0FBF1FEC91EA930C94B100F0
:1005DA00EA0FFB1F681F791F0895F195E195F04016
:1005EA000895EE0FFF1FEE0FFF1F0895F695E7958A
:1005FA00F695E79508956F2F660F660B762F089587
:10060A00FA9FF02DEB9FF00DEA9FE02DF10D089572
:10061A0029D0F6DF0EF4E1DF08953F934F935F93FD
:10062A00002411244427552730E2AA0FBB1F881F34
:10063A00991F001C111C441F551F0E1A1F0A460B36
:10064A00570B28F40E0E1F1E461F571F01C0A1602C
:10065A003A9559F7FD01BC01D001CA015F914F914A
:10066A003F910895E894F7FF02C0B7DF6894B7FF97
:10067A0006C0A095B095119600F8039400FA089563
:10068A00ED91FD916D917C9113970895ED93FD93F2
:10069A006D937C9308951B2EBF2FF12D1A2EAE2F2A
:1006AA00E12D08955A934A933A932A931A930A93F7
:1006BA0008955D814C813B812A81198108810895C1
:00000001FF
