:100000000C943C000C9400000C9400000C94000034
:100010000C94A8000C9400000C9400000C940000B8
:100020000C9400000C94A2000C9400000C946C0042
:100030000C9400000C9400000C94C2000C9400007E
:100040000C9400000C9400000C9400000C94000030
:100050000C9400001027E80364000A00010000105F
:100060000001100001000000000001000200660015
:1000700002000C0068000000F894EE27ECBBF1E0F1
:10008000FBBFEBBFE5BFF8E1F1BDE1BD8DE0A2E054
:10009000BB27ED938A95E9F780E094E0A0E6ED9325
:1000A0000197E9F7EAE6F0E085919591009761F014
:1000B000A591B59105901590BF01F00105900D92A5
:1000C0000197E1F7FB01F0CFEFE5EDBFE4E0EEBF14
:1000D000C0E6D1E00C943002EA93FA93EFB7EA93CA
:1000E0001A930A931BB10CB1E12FEC7189F4E52D41
:1000F0005394F0E0E05AFE4F0083E4E0E51509F484
:1001000055247394E4E0E71519F47724689420F8F3
:1001100009911991E991EFBFF991E99118951A9315
:100120007720F1F3E42D4394F0E0E05AFE4F108184
:10013000E4E0E41509F44424F8947A947894E12FE7
:1001400019910895EA93E0E0E3BFE2BFE9911895C1
:10015000AA93EA93EFB7EA93E6E0E4BD992069F445
:10016000EAEEE2BFE2E0E3BFA0E0C599A1E0E1E092
:10017000EA2711F4C59801C0C59AE991EFBFE9914A
:10018000A99118950A921A926A937A938A939A93EC
:10019000AA93BA93EA93FA93EFB7EA93E4B1F5B16D
:1001A0000E94CE026E2EE82DEF5F9E2EE7E0E9154D
:1001B00008F49924E92DE7B9992021F0EAEEE2BF8D
:1001C000E2E0E3BFE82DA0E5EA9FF001EC59FE4F25
:1001D000DF01EB2DF0E0EA0FFB1F608267FE33C00A
:1001E0000E948002E081E03069F5E6E0E81529F43C
:1001F000CCB4DDB4E0E0EDBDECBDE82D0E9485029D
:10020000EA0FFB1F0F010E948B020E941803D0010E
:100210000E941E030E948B02E0E0F0E060E070E0CC
:100220000E941E030E948002A1E0A083A82DB0E0DE
:10023000A45CBB4F0E949402E081EC930E94940264
:10024000A0E0A08310C0E8E76E1620F40E948002B0
:10025000A0E0A083E62DF0E0AFE7B0E00E9423032A
:10026000EA1BFB0B6E2EEFE76E22E82DA4EEB3E047
:10027000F0E00E94C902EA0FFB1FFF93EF93DF013A
:100280000E9418037F936F93FF93EF93A62DBB27D4
:10029000E62DF0E00E94E002AF91BF918F919F9117
:1002A0000E94D3020E94C002AF91BF910E941E0320
:1002B000A82DB0E0AC5DBB4FEC91EF5FEC93839465
:1002C000E7E0E81568F48824B394E0E5BE1608F08A
:1002D000BB24AB1429F4A394E0E5AE1608F0AA24DD
:1002E000E991EFBFF991E991B991A991999189911A
:1002F000799169911990099018950E942A0300E05C
:1003000010E420E030E0F801E22BF32BAF0136954A
:100310002795EE81FF81E417F50730F0202B312B74
:10032000E41BF50BEE83FF83F8010E94CE028F01E0
:10033000309749F7EE81FF812E173F0710F42F5FAA
:100340003F4FE22F0E943103289608950E942C030C
:1003500010E0183048F50E949902E03019F1E12FC1
:100360000E948502AE0FBF1F0E941803DF01CB0160
:100370000E949902F0E00E94D3020E94E5029F01D0
:100380000E949F02E45CFB4FA0E0A0830E949F02BA
:10039000E45DFB4FFF93EF933A932A93AEDFAF9167
:1003A000BF91EC931F5FD5CF772011F40C942C02F2
:1003B000B6DEE53589F408E0BA1469F015E01017E7
:1003C00020F40E94A2021F5FFACFA394E0E5AE16CC
:1003D00008F0AA24F1CF40C0E93489F404E0BA144B
:1003E00069F011E0101720F40E94A2021F5FFACFFB
:1003F000A394E0E5AE1608F0AA24F1CF2DC0EA35AB
:10040000C1F4BA14A9F0A4EAB2E0EE27AA0DBE1F07
:10041000EC91EA936FD0EA2DF0E0EC59FE4FE081C9
:10042000EA9368D0A394E0E5AE1608F0AA24E9CFD9
:1004300013C0E33589F4CA925DD0ED2DEA935AD00A
:1004400010E0183048F40E949F02E45DFB4FE08109
:10045000EA9350D01F5FF5CF0E943303249608958E
:10046000E0E0EBBBEABBE8BBE0E2E7BBE0E0E5BB1A
:10047000E4BBE2BBE1BBE2EEE2BFE0E0ECBFEFBD1C
:10048000E3E0EEBDE0E0EDBDE2E0ECBDE0E0E7BDC5
:10049000E6BDEBBDEABDE9BDE8BDE2BDE4E0E5BD1A
:1004A000E6E0E4BDE0E0E3BDE5BFE4BFE1E4E9BFD1
:1004B000E0E0EBB9E8ED0E94AF02E0E0EBB9E8E97B
:1004C0000E94AF02E0E8E8B9E0E0E0BFE7B9EEEA99
:1004D0000E94B702E7B9EFEA0E94B702EDB9E0E087
:1004E000E6BFECE1E1BDECE0E1BD7894A8952EDF3C
:1004F000FDCFFFCF5D9BFECFE881ECB9219608953B
:10050000E82DF0E0EC5CFB4F0895A4E0B4E0F0E0EF
:100510000E94C9020895E82DA4EEB3E0F0E00E9425
:10052000C902AE0FBF1F0895E82DF0E0EC5DFB4F50
:100530000895E12FF0E0E45CFB4FE0810895E12FA6
:10054000F0E00895A0E51A9FF001EC59FE4FDF019D
:10055000EE27AA0DBE1FEC91EA930C947A02EAB939
:10056000E6E8E0BDE0E0E0BDE8E0E9B90895E6B91D
:10057000E0B7EF71E0BFE0B7E068E0BFE0E008950A
:10058000EA0FFB1F681F791F0895F195E195F04070
:100590000895EE0FFF1FEE0FFF1F0895F695E795E4
:1005A000F695E79508956F2F660F660B762F0895E1
:1005B000FA9FF02DEB9FF00DEA9FE02DF10D0895CD
:1005C00029D0F6DF0EF4E1DF08953F934F935F9358
:1005D000002411244427552730E2AA0FBB1F881F8F
:1005E000991F001C111C441F551F0E1A1F0A460B91
:1005F000570B28F40E0E1F1E461F571F01C0A16087
:100600003A9559F7FD01BC01D001CA015F914F91A4
:100610003F910895E894F7FF02C0B7DF6894B7FFF1
:1006200006C0A095B095119600F8039400FA0895BD
:10063000ED91FD916D917C9113970895ED93FD934C
:100640006D937C9308951B2EBF2FF12D1A2EAE2F84
:10065000E12D08955A934A933A932A931A930A9351
:1006600008955D814C813B812A811981088108951B
:00000001FF
