:060000000C9438000C9482
:1000060000000C9400000C9400000C94AA000C94C0
:1000160000000C9400000C9400000C9400000C945A
:10002600A4000C9400000C9468000C9400000C943E
:1000360000000C94EC000C9400000C9400000C944E
:1000460000000C9400000C9400000C9400005F006B
:100056005F005F005F005F005F005F005F00000001
:1000660000000100020066000000F894EE27ECBBD9
:10007600F1E0FBBFEBBFE5BFF8E1F1BDE1BD8DE00F
:10008600A2E0BB27ED938A95E9F780E094E0A0E62D
:10009600ED930197E9F7E8E6F0E0859195910097F1
:1000A60061F0A591B59105901590BF01F0010590FD
:1000B6000D920197E1F7FB01F0CFEFE5EDBFE4E02C
:1000C600EEBFC0E6D1E00C94E602EA93FA93EFB7EE
:1000D600EA931A930A931BB10CB1E12FEC7189F4E0
:1000E600E52D5394F0E0E05AFE4F0083E8E0E51575
:1000F60009F455247394E8E0E71519F47724689415
:1001060020F809911991E991EFBFF991E9911895B4
:100116001A937720F1F3E42D4394F0E0E05AFE4F72
:100126001081E8E0E41509F44424F8947A9478946C
:10013600E12F199108955D9BFECFE881ECB92196D8
:100146000895EA93E0E0E3BFE2BFE9911895AA9328
:10015600EA93FA93EFB7EA93E6E0E4BDE091B803D9
:10016600EF5FE093B803E091B903EF5FE093B90363
:10017600E091BA03EF5FE093BA03E091BB03EF5F50
:10018600E093BB03E091BC03EF5FE093BC03E09117
:10019600BD03EF5FE093BD03E091BE03EF5FE09325
:1001A600BE03E091BF03EF5FE093BF03E0E0E61517
:1001B60011F485D209F007C088D2E1E0EA2711F4EC
:1001C600C59801C0C59AE991EFBFF991E991A99146
:1001D60018950A921A926A937A938A939A93AA9393
:1001E600BA93EA93FA93EFB7EA93C4B0D5B0E92D80
:1001F600EF5F6E2EE7E0E61508F46624E62DE7B914
:10020600662011F45CD241F060D2E091D603EA2771
:1002160011F4C59801C0C59AF6010E94DF03AE2EFF
:10022600E92DAEE3EA9FF001E859FE4FDF01E82D24
:10023600F0E0EA0FFB1FA082A7FE4EC04ED2E055AB
:10024600FC4FE081E03011F00C946E01E6E0E91518
:10025600A9F4A091C403AF5FA093C403AA3070F0C1
:10026600ECB5FDB5E093C203F093C303E0E0EDBD4A
:10027600ECBDE093C403E1E0E093C5032ED2E8565B
:10028600FC4FA081AF36E8F0E92D2AD2EA0FFB1F1A
:100296000F012CD20E944D04D0010E94530426D295
:1002A600E0E0F0E060E070E02AD2A056BC4F15D244
:1002B600E856FC4FE081EC9310D2E856FC4FA0E0E4
:1002C600A0830BD2E854FC4FA0E0A08306D2E055F1
:1002D600FC4FA1E0A0830DC0E9E7AE1628F4FDD1DE
:1002E600E055FC4FA0E0A083EFEFF1E0EC19FD092B
:1002F6006F01E1E0DE22D694C794E92DA8E5B3E0CC
:10030600F0E00E94DA03EA0FFB1FFF93EF93DF0191
:100316000E944D047F936F93FF93EF93F601D601EE
:100326000E94E403AF91BF918F919F916627772733
:100336000E94CD03AF91BF91E2D1A856BC4FEC917C
:10034600EF5FEC939394E7E0E91568F499248394BE
:10035600EEE38E1608F08824B81429F4B394EEE37D
:10036600BE1608F0BB24E991EFBFF991E991B99166
:10037600A991999189917991699119900990189506
:100386000E94850400E010E420E030E0F801E22B52
:10039600F32BAF0136952795EE81FF81E417F5071C
:1003A60030F0202B312BE41BF50BEE83FF83F80195
:1003B6000E94DF038F01309749F7EE81FF812E17E8
:1003C6003F0710F42F5F3F4FE22F0E948C042896C0
:1003D60008950E94870410E0183010F00C943A0239
:1003E60093D1A081AB3F60F08FD193D1A0E0A083E1
:1003F600163029F4E0E0E093C003E093C10335C072
:100406008FD1E081E03089F1E12F6AD1AE0FBF1FB5
:100416000E944D047F936F93FF93EF9386D10E94C2
:100426004904AF91BF918F919F91662777270E94CC
:10043600EC037F936F93FF93EF9372D1A081EFEF5D
:10044600EA9FF001AF91BF918F919F916627772721
:100456000E940C049F0164D15CD1FF93EF933A9301
:100466002A938EDFAF91BF91EC931F5FB5CFE091DA
:10047600C503E03099F0E091C203F091C30366270B
:100486007727A8E6B9E889E090E00E943104E09376
:10049600C003F093C103E0E0E093C503772011F4B5
:1004A6000C94E20235DEE53589F408E08B1469F038
:1004B60015E0101718F442D11F5FFBCFA895B3942F
:1004C600EEE3BE1608F0BB24F1CF79C0E93489F417
:1004D60004E08B1469F011E0101718F42FD11F5F98
:1004E600FBCFA895B394EEE3BE1608F0BB24F1CF7C
:1004F60066C0EA35B9F48B14A1F0A0E6B2E0EE27A7
:10050600AB0DBE1FEC91EA9316DEEB2DF0E0E85939
:10051600FE4F20D1A895B394EEE3BE1608F0BB2497
:10052600EACF4DC0E335D9F4E091C003EA9303DE88
:1005360008E015E0101718F410D11F5FFBCF04E098
:1005460011E0101718F409D11F5FFBCFE091AC033F
:10055600EA93F1DDE091A803EA93EDDD30C0E734DC
:1005660089F410E0193068F4E0D0EC91EA93E3DD09
:10057600DCD00E944904EF2FF0E0EA93DCDD1F5F38
:10058600F1CF1DC0EB34D9F4E2E0E715C0F4C0DDCD
:100596001E2FBEDD2E2F3327BBDDFE2FE0E02E2BD8
:1005A6003F2B183018F4DED020833183A8951930FC
:1005B60030F4E1D0AE0FBF1FF9010E946C040E9417
:1005C6008E042496089510E0193020F5CBD00F0143
:1005D600D2D0AE0FBF1F0E945C04D001ED93FC93F6
:1005E600A4D00E944904E935A2E0FA0710F4309736
:1005F60079F4B8D0BF01E12FA4E5B0E0F0E0EE0F4A
:10060600FF1FEA0FFB1F0E945804DB01ED93FC93CA
:100616001F5FDACFE091D603F091D703E170F07057
:10062600E093D603F093D703E0E0EBBBEABBE8BB6D
:10063600E0E2E7BBE0E0E5BBE4BBE2BBE1BBE2EE48
:10064600E2BFE0E0ECBFEFBDE4E0EEBDE0E0EDBD13
:10065600ECBDE7BDE6BDEBBDEABDE9BDE8BDE2BD6B
:10066600E4E0E5BDE6E0E4BDE0E0E3BDE5BFE4BF10
:10067600E1E4E9BFE0E0EBB9E8ED84D0E0E0EBB916
:10068600E8E980D0E0E8E8B9E0E0E0BFE7B917D0F4
:1006960011F0EEEA01C0EFEAE6B9E0B7EF71E0BFAC
:1006A600E0B7E068E0BFE0E0EDB9E6BFECE1E1BD50
:1006B600ECE0E1BD7894A8958CDEFDCFFFCFE0910C
:1006C600D603F091D70330970895ECEEE2BFE2E04F
:1006D600E3BFA0E0C599A1E00895E92DF0E00895F3
:1006E600A8E7B3E0F0E00E94DA030895E92DA8E553
:1006F600B3E0F0E00E94DA03AE0FBF1F08950E9438
:100706005304A92DB0E00895E12FF0E0E854FC4F22
:100716000895A0E0A083E12FF0E0E855FC4F08958E
:10072600E12FF0E0E056FC4F0895E12FA6ECB3E090
:10073600F0E0EE0FFF1FAE0FBF1F0895AEE31A9F46
:10074600F001E859FE4FDF01EE27AB0DBE1FEC911D
:10075600EA93F1CCE081EA93EECCE12FF0E0E855A4
:10076600FC4FF8CFE12FA6ECB3E0F0E0EE0FFF1F51
:10077600EA0FFB1F0895E12FA0E0B0E0F0E0EE0FD6
:10078600FF1F0895EAB9E6E8E0BDE0E0E0BDE8E075
:10079600E9B90895EA0FFB1F681F791F0895F095C0
:1007A60060957095E195FF4F6F4F7F4F0895EE0F5F
:1007B600FF1FEE0FFF1F0895F695E795F695E7954F
:1007C6000895FA9FF02DEB9FF00DEA9FE02DF10DB5
:1007D60008957A9F702D6B9F700DF89F700DE99F9D
:1007E600700D6A9F602D710DFB9F600D711DE89F56
:1007F600600D711D8827FA9FF02D610D781FEB9F04
:10080600F00D611D781FEA9FE02DF10D681F781F1E
:1008160008953F934F935F9300241124442755274F
:1008260030E2AA0FBB1F881F991F001C111C441F12
:10083600551F0E1A1F0A460B570B28F40E0E1F1EC5
:10084600461F571F01C0A1603A9559F7FD01BC012B
:10085600D001CA015F914F913F91089504D0D9DF2D
:100866000EF49DDF0895E89477FF02C098DF689440
:1008760097FF0BC00024A095B09580959095119692
:10088600801D901D00F8039400FA0895ED91FC91E7
:1008960011970895ED91FD916D917C9113970895AF
:1008A600ED93FD936D937C9308950590F491E02D5F
:1008B6000895119602D0FE2F1197E199FECFFF936E
:1008C600FFB7F894AEBBBFBBE09AEDB3FFBFFF9195
:1008D600089507D01196EF93EF2F03D0EF9111975C
:1008E6000895E19B02C0A895FCCF9FB7F894AEBBD4
:1008F600BFBBE09A8DB3E81719F0EDBBE29AE19A17
:100906009FBF08955A934A933A932A931A930A9348
:1009160008955D814C813B812A8119810881089562
:00000001FF
