:080000000C9438000C94000080
:100008000C9400000C9400000C94AA000C940000BE
:100018000C9400000C9400000C9400000C94A400B4
:100028000C9400000C9468000C9400000C940000E0
:100038000C94F2000C9400000C9400000C94000046
:100048000C9400000C9400000C9400005F005F000A
:100058005F005F005F005F005F005F00000000005E
:100068000100020066000000F894EE27ECBBF1E006
:10007800FBBFEBBFE5BFF8E1F1BDE1BD8DE0A2E05C
:10008800BB27ED938A95E9F780E094E0A0E6ED932D
:100098000197E9F7E8E6F0E085919591009761F01E
:1000A800A591B59105901590BF01F00105900D92AD
:1000B8000197E1F7FB01F0CFEFE5EDBFE4E0EEBF1C
:1000C800C0E6D1E00C944403EA93FA93EFB7EA93BD
:1000D8001A930A931BB10CB1E12FEC7189F4E52D49
:1000E8005394F0E0E05AFE4F0083E8E0E51509F488
:1000F80055247394E8E0E71519F47724689420F8F8
:1001080009911991E991EFBFF991E99118951A931D
:100118007720F1F3E42D4394F0E0E05AFE4F10818C
:10012800E8E0E41509F44424F8947A947894E12FEB
:10013800199108955D9BFECFE881ECB92196089549
:10014800EA93E0E0E3BFE2BFE9911895AA93EA9346
:10015800FA93EFB7EA93E6E0E4BDE091D803EF5FE6
:10016800E093D803E091D903EF5FE093D903E091DE
:10017800DA03EF5FE093DA03E091DB03EF5FE093EC
:10018800DB03E091DC03EF5FE093DC03E091DD0348
:10019800EF5FE093DD03E091DE03EF5FE093DE03C2
:1001A800E091DF03EF5FE093DF03E0E0E61511F491
:1001B800E4D209F00DC0ECEEE2BFE2E0E3BFA0E05C
:1001C800C599A1E0E1E0EA2711F4C59801C0C59AF4
:1001D800E991EFBFF991E991A99118950A921A92BC
:1001E8006A937A938A939A93AA93BA93EA93FA931F
:1001F800EFB7EA93C4B0D5B0E92DEF5F6E2EE7E014
:10020800E61508F46624E62DE7B9662011F4B5D2A0
:1002180079F0ECEEE2BFE2E0E3BF662049F4A0E04B
:10022800C599A1E0E1E0EA2711F4C59801C0C59A93
:10023800F6010E944404AE2EE92DA2E4EA9FF001E3
:10024800E859FE4FDF01E82DF0E0EA0FFB1FA0821E
:10025800A7FE4EC098D2E053FC4FE081E03011F089
:100268000C947B01E6E0E915A9F4A091E403AF5FE3
:10027800A093E403AA3070F0ECB5FDB5E093E20377
:10028800F093E303E0E0EDBDECBDE093E403E1E0CF
:10029800E093E50378D2E854FC4FA081AF36E8F04C
:1002A800E92D74D2EA0FFB1F0F0176D20E94B70422
:1002B800D0010E94BD0470D2E0E0F0E060E070E0A0
:1002C80074D2A054BC4F5FD2E854FC4FE081EC9349
:1002D8005AD2E854FC4FA0E0A08355D2E852FC4F14
:1002E800A0E0A08350D2E053FC4FA1E0A0830DC052
:1002F800E9E7AE1628F447D2E053FC4FA0E0A0830C
:10030800EFEFF1E0EC19FD096F01E1E0DE22D69490
:10031800C794E92DA8E7B3E0F0E00E943F04EA0F94
:10032800FB1FFF93EF93DF010E94B7047F936F9346
:10033800FF93EF93F601D6010E944E04AF91BF914F
:100348008F919F91662777270E943204AF91BF91C2
:100358002CD2A854BC4FEC91EF5FEC939394E7E058
:10036800E91568F499248394E2E48E1608F0882449
:10037800B81429F4B394E2E4BE1608F0BB24E9915A
:10038800EFBFF991E991B991A991999189917991E1
:1003980069911990099018950E94F60400E010E4FC
:1003A80020E030E0F801E22BF32BAF0136952795DA
:1003B800EE81FF81E417F50730F0202B312BE41B89
:1003C800F50BEE83FF83F8010E9444048F013097F8
:1003D80049F7EE81FF812E173F0710F42F5F3F4F3B
:1003E800E22F0E94FD04289608950E94F80410E068
:1003F800183014F00C944B02DDD1A081AB3F60F0B3
:10040800D9D1DDD1A0E0A083163029F4E0E0E09353
:10041800E003E093E10339C0D9D1E030B1F1E12F35
:10042800B5D1AE0FBF1F0E94B7047F936F93FF93A0
:10043800EF93D2D10E94B304AF91BF918F919F9156
:10044800662777270E9456047F936F93FF93EF9355
:10045800BDD1F0E00E944904A0E9B1E080E090E05D
:100468000E945604AF91BF918F919F910E9476048C
:100478009F01BBD1E054FC4FA2D1FF93EF933A9375
:100488002A938ADFAF91BF91EC931F5FB1CFE091C0
:10049800E503E03099F0E091E203F091E303662789
:1004A8007727A8E6B9E889E090E00E949B04E093EA
:1004B800E003F093E103E0E0E093E503772011F433
:1004C8000C94400324DEE53581F48B1469F017E0C1
:1004D80015301CF08DD11150FBCFA895B394E2E4F0
:1004E800BE1608F0BB24F1CFC7C0E93481F48B14E1
:1004F80069F013E011301CF07BD11150FBCFA895A7
:10050800B394E2E4BE1608F0BB24F1CFB5C0EA35D7
:10051800B9F48B14A1F0A0E7B2E0EE27AB0DBE1F33
:10052800EC91EA9307DEEB2DF0E0E859FE4F6CD131
:10053800A895B394E2E4BE1608F0BB24EACF9CC0A9
:10054800E335F9F4E091E003EA93F4DD17E01530C0
:1005580034F04BD1E853FC4F57D11150F8CF13E08A
:10056800113034F042D1E853FC4F4ED11150F8CF3E
:10057800E091CC03EA93DEDDE091C803EA93DADD8B
:100588007BC0E734E9F417E015302CF025D13FD1D2
:1005980042D11150F9CF13E011302CF01DD137D1D1
:1005A8003AD11150F9CF14E017D131D134D110E03C
:1005B80013D12DD130D118E00FD129D12CD15CC065
:1005C800EB3411F00C94400384E395E00197F1F7C4
:1005D800E2E0E71510F00C94400399DDEF701E2F50
:1005E80096DD2E2F332793DDFE2FE0E02E2B3F2BB9
:1005F80018D1309721F0E130A0E0FA0709F404C0DF
:10060800E230A0E0FA0749F40CD1A7E0B0E00E947C
:10061800C604EA1BFB0B1E2F21C0E330A0E0FA073B
:1006280021F0E430A0E0FA0709F404C0E530A0E0C6
:10063800FA0749F4F6D0A6E0B0E00E94C604EA1B27
:10064800FB0B1E2F0BC0E630A0E0FA0711F414E0F4
:1006580005C0E730A0E0FA0709F410E018301CF4F0
:10066800E5D020833183A895193034F4E8D0AE0F53
:10067800BF1FF9010E94DD040E94FF04249608951B
:1006880010E0193020F5D2D00F01D9D0AE0FBF1F1E
:100698000E94CD04D001ED93FC939ED00E94B30438
:1006A800E13DA7E0FA0710F4309779F4BFD0BF0115
:1006B800E12FA4E5B0E0F0E0EE0FFF1FEA0FFB1F0B
:1006C8000E94C204DB01ED93FC931F5FDACFE09137
:1006D800F603F091F703E170F070E093F603F093FE
:1006E800F703E0E0EBBBEABBE8BBE0E2E7BBE0E036
:1006F800E5BBE4BBE2BBE1BBE2E0E3BFE0E0E2BFB5
:10070800ECBFEFBDE4E0EEBDE0E0EDBDECBDE7BD64
:10071800E6BDEBBDEABDE9BDE8BDE2BDE4E0E5BD8F
:10072800E6E0E4BDE0E0E3BDE5BFE4BFE1E4E9BF46
:10073800E0E0EBB9E8ED8AD0E0E0EBB9E8E986D093
:10074800E0E8E8B9E0E0E0BFE7B917D011F0EEEA79
:1007580001C0EFEAE6B9E0B7EF71E0BFE0B7E068E3
:10076800E0BFE0E0EDB9E6BFECE1E1BDECE0E1BD02
:100778007894A8953ADEFDCFFFCFE091F603F0918B
:10078800F70330970895E92DF0E00895A8E9B3E05C
:10079800F0E00E943F040895E92DA8E7B3E0F0E0F7
:1007A8000E943F04AE0FBF1F08950E94BD04A92DEB
:1007B800B0E00895E12FF0E0E852FC4F0895A0E082
:1007C800A083E12FF0E0E853FC4F0895E12FF0E01B
:1007D800E054FC4FE0810895E12FA6EEB3E0F0E08D
:1007E800EE0FFF1FAE0FBF1F0895E12FF0E0089531
:1007F800A2E41A9FF001E859FE4FDF01EE27AB0D86
:10080800BE1FEC91EA9396CCE081EA9393CCEC91ED
:10081800EA9390DCE1CF0E94B304EF2FF0E0EA9373
:1008280089CCE12FF0E0E7FDFFEF0895E12FA6EE78
:10083800B3E0F0E0EE0FFF1FEA0FFB1F0895E12F72
:10084800A0E0B0E0F0E0EE0FFF1F0895EAB9E6E897
:10085800E0BDE0E0E0BDE8E0E9B90895EA0FFB1F7C
:10086800681F791F0895F09560957095E195FF4F81
:100878006F4F7F4F0895EE0FFF1FEE0FFF1F089574
:10088800F695E795F695E79508956F2F660F660B31
:10089800762F0895FA9FF02DEB9FF00DEA9FE02D3B
:1008A800F10D08957A9F702D6B9F700DF89F700D54
:1008B800E99F700D6A9F602D710DFB9F600D711D82
:1008C800E89F600D711D8827FA9FF02D610D781F34
:1008D800EB9FF00D611D781FEA9FE02DF10D681F59
:1008E800781F08953F934F935F9300241124442762
:1008F800552730E2AA0FBB1F881F991F001C111C27
:10090800441F551F0E1A1F0A460B570B28F40E0ECC
:100918001F1E461F571F01C0A1603A9559F7FD01D8
:10092800BC01D001CA015F914F913F91089504D055
:10093800D9DF0EF498DF0895E89477FF02C093DFBB
:10094800689497FF0BC00024A095B095809590956A
:100958001196801D901D00F8039400FA0895ED91FA
:10096800FC9111970895ED91FD916D917C911397EC
:100978000895ED93FD936D937C9308950590F491FC
:10098800E02D08951B2EBF2FF12D1A2EAE2FE12D2D
:100998000895119602D0FE2F1197E199FECFFF938B
:1009A800FFB7F894AEBBBFBBE09AEDB3FFBFFF91B2
:1009B800089507D01196EF93EF2F03D0EF91119779
:1009C8000895E19B02C0A895FCCF9FB7F894AEBBF1
:1009D800BFBBE09A8DB3E81719F0EDBBE29AE19A34
:1009E8009FBF08955A934A933A932A931A930A9366
:1009F80008955D814C813B812A8119810881089580
:00000001FF
