:0C0000000C9438000C9400000C940000DC
:10000C000C9400000C94CB000C9400000C94000099
:10001C000C9400000C9400000C94DF000C94000075
:10002C000C9468000C9400000C949A000C94E6005C
:10003C000C9400000C9400000C9400000C94000034
:10004C000C9400000C9400001027E80364000A00D4
:10005C00010000100001100001000000010002006E
:10006C0066000000F894EE27ECBBF1E0FBBFEBBFA1
:10007C00E5BFF8E1F1BDE1BD8DE0A2E0BB27ED935A
:10008C008A95E9F780E094E0A0E6ED930197E9F713
:10009C00E8E6F0E085919591009761F0A591B59116
:1000AC0005901590BF01F00105900D920197E1F7B5
:1000BC00FB01F0CFEFE5EDBFE4E0EEBFC0E6D1E031
:1000CC000C945902EA93FA93EFB7EA931A930A93B2
:1000DC001BB10CB1E12FEC7189F4E52D5394F0E0D8
:1000EC00E05AFE4F0083E8E0E51509F455247394BB
:1000FC00E8E0E71519F47724689420F80991199130
:10010C0025C01A937720F1F3E42D4394F0E0E05AE4
:10011C00FE4F1081E8E0E41509F44424F8947A9435
:10012C007894E12F19910895EA93FA93EFB7EA9333
:10013C00882061F08A94E92D9394F0E0E859FE4F01
:10014C00E081ECB9E0E8E91509F49924E991EFBFF5
:10015C00F991E9911895E0E8E815E9F3F89488200D
:10016C0011F45D990DC0E62D6394F0E0E859FE4F53
:10017C00A881A083E0E8E61509F46624839402C004
:10018C00E881ECB9789421960895AA93EA93EFB795
:10019C00EA93E6E0E4BDA0E0C599A1E0E1E0EA273E
:1001AC0011F4C59801C0C59AE991EFBFE991A991E5
:1001BC001895EA93EFE5E2BFE0E0E3BFE99118950B
:1001CC000A921A926A937A938A939A93AA93BA93FD
:1001DC00EA93FA93EFB7EA93E4B1F5B10E94EC021B
:1001EC00BE2EED2DEF5FAE2EE7E0EA1508F4AA2443
:1001FC00EA2DE7B9EFE5E2BFE1E0E3BFED2DA8E2C0
:10020C00EA9FF001E851FE4FDF01EE27AC0DBE1F57
:10021C00E0E8EB25EC93B7FE37C00E94A602E08124
:10022C00E03089F5E6E0ED1549F4ECB5FDB5E09369
:10023C008903F0938A03E0E0EDBDECBDED2D0E9447
:10024C00AB02EA0FFB1F0F010E94B1020E943603A2
:10025C00D0010E943C030E94B102E0E0F0E060E0BB
:10026C0070E00E943C030E94A602A1E0A083AD2D89
:10027C00B0E0AF57BC4F0E94BA02E081EC930E94F1
:10028C00BA02A0E0A08310C0E8E7BE1620F40E94DA
:10029C00A602A0E0A083EB2DF0E0AFE7B0E00E9457
:1002AC004103EA1BFB0BBE2EEFE7BE22ED2DA8E2AD
:1002BC00B3E0F0E00E94E702EA0FFB1FFF93EF931D
:1002CC00DF010E9436037F936F93FF93EF93AB2D67
:1002DC00BB27EB2DF0E00E94FE02AF91BF918F91F6
:1002EC009F910E94F1020E94DE02AF91BF910E9489
:1002FC003C03AD2DB0E0A859BC4FEC91EF5FEC93F3
:10030C00D394E7E0ED1530F4DD24C394E8E2CE1687
:10031C0008F0CC24E991EFBFF991E991B991A99139
:10032C0099918991799169911990099018950E94E8
:10033C00480300E010E420E030E0F801E22BF32B5E
:10034C00AF0136952795EE81FF81E417F50730F064
:10035C00202B312BE41BF50BEE83FF83F8010E945D
:10036C00EC028F01309749F7EE81FF812E173F0782
:10037C0010F42F5F3F4FE22F0E944F0328960895F1
:10038C000E944A0310E0183048F50E94BF02E0308A
:10039C0019F1E12F0E94AB02AE0FBF1F0E94360372
:1003AC00DF01CB010E94BF02F0E00E94F1020E942B
:1003BC0003039F010E94C502EF57FC4FA0E0A083EE
:1003CC000E94C502E059FC4FFF93EF933A932A9396
:1003DC00AEDFAF91BF91EC931F5FD5CF772011F4B7
:1003EC000C9455028EDEE535A1F408E0A09178035B
:1003FC00CA1671F015E0101720F40E94C8021F5F96
:10040C00FACF0E94D70218F0E0E0E0937803EECF29
:10041C0046C0E93471F404E0A0917803CA1641F0A7
:10042C0011E0101720F40E94C8021F5FFACFF4CF1E
:10043C0036C0EA35F1F4A0917803CA16C9F0A8E8E1
:10044C00B2E0E0917803F0E0AE0FBF1FEC91EA93BD
:10045C0082DEE0917803F0E0E851FE4FE081EA9310
:10046C007ADE0E94D70218F0E0E0E0937803E3CF45
:10047C0016C0E335A1F4E0918903EA936CDEE091B8
:10048C008A03EA9368DE10E0183048F40E94C50233
:10049C00E059FC4FE081EA935EDE1F5FF5CF0E94CE
:1004AC00510324960895E0E0EBBBEABBE8BBE0E225
:1004BC00E7BBE0E0E5BBE4BBE2BBE1BBE1E0E3BFF3
:1004CC00EFE5E2BFE0E0ECBFEFBDE3E0EEBDE0E066
:1004DC00EDBDE2E0ECBDE0E0E7BDE6BDEBBDEABDA5
:1004EC00E9BDE8BDE2BDE4E0E5BDE6E0E4BDE0E089
:1004FC00E3BDE5BFE4BFE1E4E9BFE0E0EBB9E8ED63
:10050C00EAB9E6E8E0BDE0E0E0BDE8E0E9B9E0E842
:10051C00E8B9E0E0E0BFE7B9EEEAE6B9E0B7EF71C1
:10052C00E0BFE0B7E068E0BFE0E0EDB9E6BFECE1CA
:10053C00E1BDECE0E1BD7894A89522DFFDCFFFCFC3
:10054C00ED2DF0E0E758FC4F0895A8E4B3E0F0E09F
:10055C000E94E7020895ED2DA8E2B3E0F0E00E94BE
:10056C00E702AE0FBF1F0895ED2DF0E0E859FC4FE8
:10057C000895E12FF0E0EF57FC4FE0810895E12F53
:10058C00F0E00895A8E21A9FF001E851FE4FDF0158
:10059C00E0917803F0E0AE0FBF1FEC91EA930C945E
:1005AC00B100A0917803AF5FA0937803A8320895AF
:1005BC00EA0FFB1F681F791F0895F195E195F04034
:1005CC000895EE0FFF1FEE0FFF1F0895F695E795A8
:1005DC00F695E79508956F2F660F660B762F0895A5
:1005EC00FA9FF02DEB9FF00DEA9FE02DF10D089591
:1005FC0029D0F6DF0EF4E1DF08953F934F935F931C
:10060C00002411244427552730E2AA0FBB1F881F52
:10061C00991F001C111C441F551F0E1A1F0A460B54
:10062C00570B28F40E0E1F1E461F571F01C0A1604A
:10063C003A9559F7FD01BC01D001CA015F914F9168
:10064C003F910895E894F7FF02C0B7DF6894B7FFB5
:10065C0006C0A095B095119600F8039400FA089581
:10066C00ED91FD916D917C9113970895ED93FD9310
:10067C006D937C9308951B2EBF2FF12D1A2EAE2F48
:10068C00E12D08955A934A933A932A931A930A9315
:10069C0008955D814C813B812A81198108810895DF
:00000001FF
