:0C0000000C9433000C9400000C940000E1
:10000C000C9400000C94A5000C9400000C940000BF
:10001C000C9400000C9400000C949F000C940000B5
:10002C000C9463000C9400000C9400000C94EC00F5
:10003C000C9400000C9400000C9400000C94000034
:10004C000C9400000C940000000000000100020061
:10005C00540001000D0056000000F894EE27ECBB94
:10006C00F1E0FBBFEBBFE5BFF8E1F1BDE1BD8DE019
:10007C00A2E0BB27ED938A95E9F780E094E0A0E637
:10008C00ED930197E9F7E8E5F0E0859195910097FC
:10009C0061F0A591B59105901590BF01F001059007
:1000AC000D920197E1F7FB01F0CFEFE5EDBFE4E036
:1000BC00EEBFC0E6D1E00C949B02EA93FA93EFB743
:1000CC00EA931A930A931BB10CB1E12FEC7189F4EA
:1000DC00E52D5394F0E0E05AFE4F0083E4E0E51583
:1000EC0009F455247394E4E0E71519F47724689423
:1000FC0020F809911991E991EFBFF991E9911895BF
:10010C001A937720F1F3E42D4394F0E0E05AFE4F7C
:10011C001081E4E0E41509F44424F8947A9478947A
:10012C00E12F199108955D9BFECFE881ECB92196E2
:10013C000895EA93E0E0E3BFE2BFE9911895AA9332
:10014C00EA93EFB7EA93E6E0E4BDE091B403EF5F26
:10015C00E093B403E091B503EF5FE093B503E09156
:10016C00B603EF5FE093B603E091B703EF5FE09364
:10017C00B703E091B803EF5FE093B803E091B903E4
:10018C00EF5FE093B903E091BA03EF5FE093BA033A
:10019C00E091BB03EF5FE093BB03E091BC03EF5F27
:1001AC00E093BC03992069F4ECEEE2BFE2E0E3BF1C
:1001BC00A0E0C599A1E0E1E0EA2711F4C59801C0DF
:1001CC00C59AE991EFBFE991A99118950A921A92F3
:1001DC006A937A938A939A93AA93BA93EA93FA932B
:1001EC00EFB7EA93E4B1F5B10E9429036E2EE82D26
:1001FC00EF5F9E2EE7E0E91508F49924E92DE7B9A5
:10020C00992021F0ECEEE2BFE2E0E3BFE82DAEE393
:10021C00EA9FF001EC59FE4FDF01EB2DF0E0EA0F05
:10022C00FB1F608267FE32C0C4D1E081E03069F50B
:10023C00E6E0E81559F4ECB5FDB5E093BD03F09399
:10024C00BE03E0E0EDBDECBDE1E0DE2EE82DB6D165
:10025C00EA0FFB1F0F01B8D10E948603D0010E9448
:10026C008C03B2D1E0E0F0E060E070E00E948C031F
:10027C00A0D1A1E0A083A82DB0E0A455BC4FADD176
:10028C00E081EC93AAD1A0E0A0830FC0E8E76E1642
:10029C0018F48FD1A0E0A083E62DF0E0AFE7B0E03A
:1002AC000E949103EA1BFB0B6E2EEFE76E22E82DEA
:1002BC00A4E5B3E0F0E00E942403EA0FFB1FFF93D8
:1002CC00EF93DF010E9486037F936F93FF93EF936D
:1002DC00A62DBB27E62DF0E00E943B03AF91BF910A
:1002EC008F919F910E942E030E941B03AF91BF918F
:1002FC000E948C03A82DB0E0AC56BC4FEC91EF5F84
:10030C00EC938394E7E0E81568F48824B394EEE367
:10031C00BE1608F0BB24AB1429F4A394EEE3AE167E
:10032C0008F0AA24E991EFBFF991E991B991A9914B
:10033C0099918991799169911990099018950E94D8
:10034C00980300E010E420E030E0F801E22BF32BFE
:10035C00AF0136952795EE81FF81E417F50730F054
:10036C00202B312BE41BF50BEE83FF83F8010E944D
:10037C0029038F01309749F7EE81FF812E173F0734
:10038C0010F42F5F3F4FE22F0E949F032896089591
:10039C000E949A0310E0183010F00C94140222D131
:1003AC00E455FC4FE081E03039F11CD1EC54FC4FAA
:1003BC00A0E0A083E12F02D1AE0FBF1F0E948603E5
:1003CC00DF01CB010FD1E455FC4FE081F0E00E943E
:1003DC002E030E9453039F0105D1E455FC4FA0E06E
:1003EC00A08300D1E456FC4FFF93EF933A932A93EA
:1003FC00A6DFAF91BF91EC93F5D0EC54FC4FA081EC
:10040C00AB3F50F0EFD0EC54FC4FA0E0A083EAD00F
:10041C00E456FC4FA0E0A0831F5FBDCFDD2081F030
:10042C00E0E0E093BC03E091BD03F091BE03A4E2D5
:10043C00B4EF0E944003E093BF03F093C003DD24AC
:10044C00A091BC03AB3F38F0E0E0E093BC03E09339
:10045C00BF03E093C003772011F40C94970250DE95
:10046C00E53589F408E0BA1469F015E0101718F4B2
:10047C00BCD01F5FFBCFA895A394EEE3AE1608F09B
:10048C00AA24F1CF4EC0E93489F404E0BA1469F01F
:10049C0011E0101718F4A9D01F5FFBCFA895A394F7
:1004AC00EEE3AE1608F0AA24F1CF3BC0EA35B9F45E
:1004BC00BA14A1F0ACE5B2E0EE27AA0DBE1FEC9188
:1004CC00EA9331DEEA2DF0E0EC59FE4F9AD0A89574
:1004DC00A394EEE3AE1608F0AA24EACF22C0E335CB
:1004EC0001F5E091BF03EA931EDE08E015E010175A
:1004FC0030F478D0E456FC4F84D01F5FF8CF04E082
:10050C0011E0101730F46ED0E456FC4F7AD01F5F18
:10051C00F8CFE091A003EA9306DEE0919C03EA9306
:10052C0002DE0E94A10324960895E0E0EBBBEABB37
:10053C00E8BBE0E2E7BBE0E0E5BBE4BBE2BBE1BB70
:10054C00E2EEE2BFE0E0ECBFEFBDE4E0EEBDE0E0E8
:10055C00EDBDECBDE7BDE6BDEBBDEABDE9BDE8BD5B
:10056C00E2BDE4E0E5BDE6E0E4BDE0E0E3BDE5BF0F
:10057C00E4BFE1E4E9BFE0E0EBB9E8ED45D0E0E051
:10058C00EBB9E8E941D0E0E8E8B9E0E0E0BFE7B971
:10059C00EEEA42D0E7B9EFEA3FD0EDB9E0E0E6BFD2
:1005AC00ECE1E1BDECE0E1BD7894A895F1DEFDCF86
:1005BC00FFCFE82DF0E0EC55FC4F0895A4E7B3E035
:1005CC00F0E00E9424030895E82DA4E5B3E0F0E0E8
:1005DC000E942403AE0FBF1F0895E82DF0E0EC56E7
:1005EC00FC4F0895E12FF0E00895AEE31A9FF0015F
:1005FC00EC59FE4FDF01EE27AA0DBE1FEC91EA93DA
:10060C0092CDE081EA938FCDEAB9E6E8E0BDE0E077
:10061C00E0BDE8E0E9B90895E6B9E0B7EF71E0BFF5
:10062C00E0B7E068E0BFE0E00895EA0FFB1F681F49
:10063C00791F0895F195E195F0400895EE0FFF1F95
:10064C00EE0FFF1F0895F695E795F695E79508953B
:10065C006F2F660F660B762F0895FA9FF02DEB9F88
:10066C00F00DEA9FE02DF10D08953CD0F6DF0EF46D
:10067C00E1DF08950024112490E1AA0FBB1F001C98
:10068C00111C0E1A1F0A18F40E0E1F1E01C0A160B9
:10069C009A9599F7FD01D00108953F934F935F937D
:1006AC00002411244427552730E2AA0FBB1F881FB2
:1006BC00991F001C111C441F551F0E1A1F0A460BB4
:1006CC00570B28F40E0E1F1E461F571F01C0A160AA
:1006DC003A9559F7FD01BC01D001CA015F914F91C8
:1006EC003F910895E894F7FF02C0A4DF6894B7FF28
:1006FC0006C0A095B095119600F8039400FA0895E1
:10070C00ED91FD916D917C9113970895ED93FD936F
:10071C006D937C9308951B2EBF2FF12D1A2EAE2FA7
:10072C00E12D08955A934A933A932A931A930A9374
:10073C0008955D814C813B812A811981088108953E
:00000001FF
