:020000000C945E
:10000200E4040C9400000C9400000C9400000C9486
:1000120000000C9400000C9400000C9400000C945E
:1000220000000C9400000C9400000C9400000C944E
:1000320000000C9400000C9400000C9400000C943E
:100042000C120C9400000C94AE0A0C9400000C9458
:100052001E0B0C9400000C9400000C9400000C94F5
:1000620000000C9400000C9400000C9400000C940E
:1000720000000C9400000C94650B0C9400000C948E
:10008200900B0C9400000C94000000000000000093
:10009200000000000000000000000000000000005E
:1000A200000000000000000000000000000000004E
:1000B200000000000000000000000000000000003E
:1000C200000001800180000000000000018003C0E8
:1000D20007E006600C300C3018181818300C300C81
:1000E200600660067FFE7FFE000000007FFE7FFE4E
:1000F20060066006300C300C181818180C300C30E2
:10010200066007E003C001800000000007E00C3039
:10011200181818181818181818181818181818185D
:1001220018180C3007E00000000000000180038076
:1001320007800180018001800180018001800180AF
:100142000180018003C000000000000007E00C30C5
:100152001818100800180030006000C00180030069
:1001620006000C181FF800000000000007E008104D
:1001720010081008001000E0003000180008000805
:1001820018180C3007E0000000000000003000707A
:1001920000F001B0033006300C3018301FF8003088
:1001A2000030003000780000000000000FF80FF06F
:1001B2000800100010001FE000300018001800189E
:1001C20018181C300FE000000000000003E00610C9
:1001D2000C00080018001FE01C3018181818181816
:1001E20018180C3007E00000000000001FF810187B
:1001F200001000200020004000400080008001002C
:1002020001000200020000000000000007E00C30C4
:10021200081008100C3007E00C30181818181818BD
:1002220018180C3007E000000000000007E00C3056
:100232001818181818180C3807F8001800100020A1
:10024200002000C0030000000000000000000000C9
:10025200000000000000000000000000000000009C
:10026200000000000000000000000000018001808A
:100272000180018001800180018001800180018074
:10028200000001800180000000000000006000808A
:100292000100020002000400040004000200020047
:1002A2000100008000600000000000000600010064
:1002B200008000400040002000200020004000405C
:1002C200008001000600000000000000000000089D
:1002D20000180030006000C00180030006000C001E
:1002E2001800100000000000000000000000018063
:1002F20001800180018001803FFC3FFC0180018080
:100302000180018001800000000000000000000068
:1003120000000000000000003FFC3FFC0000000065
:1003220000000000000000000000000000000000CB
:100332000180018000000000000000000000018038
:10034200018000000000000000000000003000609A
:1003520000C00180030006000C00060003000180BB
:1003620000C000600030000000000000000000003B
:1003720000000FF00FF00000000000000FF00FF07F
:100382000000000000000000000000000C00060059
:100392000300018000C000600030006000C00180E6
:1003A200030006000C0000000000000003C006600D
:1003B2000C300C300430006000C0018001800180EC
:1003C20000000180018000000000000000E000E069
:1003D2000120012002300210041004180FF818182E
:1003E200100C300C781E0000000000007FFE301E52
:1003F2003002300030003FF83FFC300E300630064D
:10040200300E3FFC7FF80000000000007FF0301843
:10041200300C300C30183FF83FFC300E30063006FE
:10042200300E3FFC7FF80000000000007FFE301E0F
:100432003002300030003000300030003000300038
:1004420030003000780000000000000003FC0118BA
:1004520001180118011801180118021804180818C7
:100462003FFC383C300C2004000000007FFC301CB4
:100472003004300030803F803F80308030003000D8
:100482003004301C7FFC00000000000063C6518A6B
:1004920011880990099007E007E00DB019981188BA
:1004A200318C218463C60000000000000FE0383860
:1004B200600C0004000C03F80008000400060006AB
:1004C200600C3FF80FE0000000000000781E300CC6
:1004D200301C303C306C30CC318C330C360C3C0C44
:1004E200380C300C781E0000000003C0799E300CDE
:1004F200301C303C306C30CC318C330C360C3C0C24
:10050200380C300C781E000000000000783C306C83
:1005120030C0318033003F00398030C0306030302D
:100522003018300C781E00000000000001FE008C24
:10053200008C008C008C010C010C010C020C020CD2
:10054200040C680C701E000000000000700E381CC5
:10055200381C342C342C342C324C324C324C318CEE
:10056200318C318C781E000000000000781E300CA7
:10057200300C300C300C3FFC3FFC300C300C300C9B
:10058200300C300C781E00000000000007E01E78DE
:10059200381C300C700E700E700E700E700E300C17
:1005A200381C1E7807E00000000000007FFE3FFCC0
:1005B200300C300C300C300C300C300C300C300C59
:1005C200300C300C781E0000000000007FF8300C68
:1005D200300630063006300C3FF830003000300074
:1005E20030003000780000000000000007E01E78B4
:1005F200381C30047000700070007000700030040D
:10060200381C1E7807E00000000000007FFE6186B3
:10061200418201800180018001800180018001808E
:100622000180018003C0000000000000780E300449
:1006320018040C0806080310019000E00060004056
:100642000C400C80070000000000000003C0018085
:100652000FF0399C6186418241826186399C0FF09C
:100662000180018003C0000000000000781E3004F9
:1006720018080C1006200340018002C004600830F4
:100682001018200C781E000000000000781E300CAC
:10069200300C300C300C300C300C300C300C300C78
:1006A200300C300C7FFE000600020000781E300C79
:1006B200300C300C300C380C1FFC000C000C000C01
:1006C200000C000C001E0000000000007BDE318CDC
:1006D200318C318C318C318C318C318C318C318C30
:1006E200318C318C7FFE0000000000007BDE318CFB
:1006F200318C318C318C318C318C318C318C318C10
:10070200318C318C7FFE0006000200007C00580014
:1007120058005800180018001FF8180C1806180680
:100722001806180C3FF8000000000000781E300C7C
:10073200300C300C300C300C3F8C304C302C302CC8
:10074200302C304C7F9E000000000000780030000A
:1007520030003000300030003FF8300C30063006F8
:100762003006300C7FF800000000000007E01E7821
:10077200381C300C000E000E00FE000E000E300C75
:10078200381C1E7807E000000000000079F8330CE6
:1007920032043606360636063E0636063606360675
:1007A2003204330C79F800000000000003FE060C4E
:1007B2000C0C0C0C0C0C060C03FC030C060C0C0CA5
:1007C200180C300C781E000000001027E8036400AB
:1007D2000A00010000100001100001000000FAFFF1
:1007E2005A005A003200202020202000CCC5CDDE45
:1007F2000020202B0020202D00CFC0D3C7C0002016
:100802002020202020202020202020202020200006
:10081200CDC0CFD0DFC6C5CDC8C500D4C0C700D2B9
:10082200CECA00CDC0CFD0DFC6C5CDC8C520C82036
:10083200D2CECA00C2CEC7C1D3C6C4C5CDC8DF009E
:10084200C4C8D100C0CCCF00CEC2C500204B5500D9
:10085200204B49004B5549004661737441444300A3
:10086200C3D600CDE0EFF0F3E3F320F3E1E0E2FCE6
:10087200200A00CDE0EFF0F3E3E820EFF0E8E1E05A
:10088200E2FC200A00CFEEE4E4E0E920EEE1EEF043
:10089200EEF2EEE2200A00CDE520E3EEEDE82C20B8
:1008A200EFEEECE5E4EBE5EDEDE5E5200A00D1D273
:1008B200C0D0D200C4C5D1CACECC00000100020013
:1008C200DE0706000005E80706000605E807060041
:1008D2000C05E80706001205E80705001805EE07F3
:1008E20004001D05F30704002105F707060025058E
:1008F200FB070200B107E0070500B307E20711009A
:100902002B05010811003C0501080B004D051208DA
:10091200040058051D0804005C0521080400600558
:100922001D081100640525080C0075053608040031
:1009320081054208040085054608040089054A0825
:1009420004008D054208040091054608040095053F
:100952004A0804009905420804009D05460804005F
:10096200A1054A080400A5054E080400A90552087D
:100972000400AD0556080800B1055A080D00B90576
:1009820005080D00C60505080300D3056208060028
:10099200D605B0080600DC05FB070600E205FB07EA
:1009A2000700E805B6080700EF05B6080700F605D8
:1009B200B6080700FD050B08070004060B08070030
:1009C2000B060B080000F894EE27ECBBF1E0F5BF34
:1009D200E5BFE0936C00F8E1F1BDE1BD8DE0A2E07E
:1009E200BB27ED938A95E9F780E090E1A0E0B1E0C2
:1009F200ED930197E9F7EEEBF8E085919591009779
:100A020061F0A591B59105901590BF01F001059097
:100A12000D920197E1F7FB01F0CF8BBFEFEFEDBF36
:100A2200E0E1EEBFC0E0D5E00C942712EFEFEABBA5
:100A3200E4BBE1B3E06EE1BBE2B1E06AE2B9089582
:100A42000E947F14F595E795E575AE2FE881EE0FCC
:100A5200EA7AEA2BE8830E947F140E94C218E373A9
:100A6200AE2FE881EE0FEE0FEC7CEA2BE8830E94BA
:100A72007F140E94BE18EF70AE2FE881E295E07FEE
:100A8200EA2BE88323C095981D9A0E9482141D9830
:100A92000E9482141D9A959A0E9482140895959A32
:100AA20097980E94881400001F98969800001F9A39
:100AB200969A00000BC0959A979A0E94881400009B
:100AC2001F98969800001F9A969A00002196089502
:100AD2001A930A931A810B81959A979A1BBB05BBAD
:100AE20000001F98969800001F9A969A000019819C
:100AF2000881249608959ADFC6DF0E9490140E940E
:100B020090140E9490140E949414E2EEEA93C7DFBC
:100B1200E3E2EA93D0DFE2E00E949A14E0EE0E9460
:100B2200A1140E94A814E0EE0E94AE140E94901438
:100B3200E8E7F0E00E94B514E6EE0E94A114EAEDA7
:100B4200EA93B9DFE3E7EA93B6DFE0EBEA93A7DFE4
:100B5200E4E20E94B9140E94C014EFED0E94C41492
:100B6200EFE00E94B914E4EB0E94AE14E4E80E94A4
:100B7200B914EAE5EA939FDFEAE00E94B914E8E0DB
:100B82000E94B914E6EB0E94A114ECE20E94B9148F
:100B9200ECE0EA9390DFEAE0EA938DDFE0E00E9486
:100BA2009A14EAEBEA937BDFEFE0EA9384DFE8EB67
:100BB200EA9375DFE7E00E94C414E6E30E94AE14F4
:100BC200ECEBEA936CDFE0E5EA9375DFE0E9EA93A8
:100BD20072DFE0E50E94C414E0EF0E94AE14E5E08B
:100BE200F0E00E94B514E9E2EA9359DFE0EDEA93FE
:100BF20056DFEDE0EA935FDF0895EAE2EA934FDF22
:100C0200EF81EA9358DFEE81EA9355DFED81EA93B3
:100C120052DFEC81EA934FDFEBE2EA9340DFEB81B4
:100C2200EA9349DFEA81EA9346DFE981EA9343DF07
:100C3200E881EA9340DF289608950E947519E8E258
:100C4200EA932DDF0E94C814EFEDF1E00E94CD146B
:100C5200EFE0F1E00E94D01400E010E00031E1E0AA
:100C62001E0780F420E030E0203EE1E03E0738F449
:100C7200EC81FD810E94D8142F5F3F4FF5CF0F5FAB
:100C82001F4FECCFE9E2EA930ADF0E947C19269615
:100C920008951A930A930E94DC14AA85BB85509684
:100CA2001197BA93AA930E94E114AC85BD85509620
:100CB2001197BA93AA93A1DFECE2EA93F0DE10E077
:100CC2001032E8F400E00830C0F4E12FAA85BB85B9
:100CD200F0E0EA0FFB1F1490E02FA0E80E94B61884
:100CE200E121E13018F0EC81FD8102C0EA81FB8153
:100CF200FA93EA93EDDE0F5FE6CF1F5FE1CF198132
:100D0200088132C30E94E614E033A0E0FA0719F426
:100D1200ECE0F1E08EC1E133A0E0FA0719F4ECE275
:100D2200F1E087C1E233A0E0FA0719F4ECE4F1E064
:100D320080C1E333A0E0FA0719F4ECE6F1E079C1EF
:100D4200E433A0E0FA0719F4ECE8F1E072C1E5330C
:100D5200A0E0FA0719F4ECEAF1E06BC1E633A0E097
:100D6200FA0719F4ECECF1E064C1E733A0E0FA070A
:100D720019F4ECEEF1E05DC1E833A0E0FA0719F4F2
:100D8200ECE0F2E056C1E933A0E0FA0719F4ECE234
:100D9200F2E04FC1E132A0E0FA0719F4ECE6F2E02A
:100DA20048C1E832A0E0FA0719F4ECE8F2E041C1E8
:100DB200E932A0E0FA0719F4ECEAF2E03AC1EF32C4
:100DC200A0E0FA0719F4ECECF2E033C1EA33A0E058
:100DD200FA0719F4ECE2F3E02CC1EC33A0E0FA07D5
:100DE20019F4ECE4F3E025C1ED33A0E0FA0719F4BD
:100DF200ECE6F3E01EC1EE33A0E0FA0719F4ECE8EA
:100E0200F3E017C1EF33A0E0FA0719F4ECEAF3E0DC
:100E120010C1EB32A0E0FA0719F4ECEEF2E009C1DE
:100E2200ED32A0E0FA0719F4ECE0F3E002C1E03C95
:100E3200A0E0FA0719F4ECECF3E0FBC0E13CA0E01F
:100E4200FA0719F4ECEEF3E0F4C0E23CA0E0FA0792
:100E520019F4ECE0F4E0EDC0E33CA0E0FA0719F489
:100E6200ECE2F4E0E6C0E43CA0E0FA0719F4ECE4BA
:100E7200F4E0DFC0E53CA0E0FA0719F4ECE6F4E0A8
:100E8200D8C0E63CA0E0FA0719F4ECE8F4E0D1C0DF
:100E9200E73CA0E0FA0719F4ECEAF4E0CAC0E83C47
:100EA200A0E0FA0719F4ECECF4E0C3C0E93CA0E0DE
:100EB200FA0719F4ECEEF4E0BCC0EA3CA0E0FA0751
:100EC20019F4ECE0F5E0B5C0EB3CA0E0FA0719F448
:100ED200ECE2F5E0AEC0EC3CA0E0FA0719F4ECE479
:100EE200F5E0A7C0ED3CA0E0FA0719F4ECE6F5E066
:100EF200A0C0EE3CA0E0FA0719F4ECE8F5E099C0D6
:100F0200EF3CA0E0FA0719F4ECEAF5E092C0E03D0C
:100F1200A0E0FA0719F4ECECF5E08BC0E13DA0E0AB
:100F2200FA0719F4ECEEF5E084C0E23DA0E0FA071E
:100F320019F4ECE0F6E07DC0E33DA0E0FA0719F415
:100F4200ECE2F6E076C0E43DA0E0FA0719F4ECE446
:100F5200F6E06FC0E53DA0E0FA0719F4ECE6F6E032
:100F620068C0E63DA0E0FA0719F4ECE8F6E061C0DB
:100F7200E73DA0E0FA0719F4ECEAF6E05AC0E83DD2
:100F8200A0E0FA0719F4ECECF6E053C0E93DA0E06A
:100F9200FA0719F4ECEEF6E04CC0EA3DA0E0FA07DD
:100FA20019F4ECE0F7E045C0EB3DA0E0FA0719F4D4
:100FB200ECE2F7E03EC0EC3DA0E0FA0719F4ECE405
:100FC200F7E037C0ED3DA0E0FA0719F4ECE6F7E0F0
:100FD20030C0EE3DA0E0FA0719F4ECE8F7E029C0D2
:100FE200EF3DA0E0FA0719F4ECEAF7E022C0EE3296
:100FF200A0E0FA0719F4ECEAF0E01BC0E032A0E04E
:10100200FA0719F4ECE4F2E014C0E130A0E0FA07C8
:1010120019F4ECECF0E00DC0E230A0E0FA0719F4AC
:10102200ECEEF0E006C0E330A0E0FA0769F4ECE889
:10103200F0E0FA93EA930E94DC140E94DC140E940E
:10104200DC140E94DC1425DE29960895A885B98552
:10105200EC91E03099F0ED91A887B987EA930E946C
:10106200E9140E94E9140E94E9140E94E9144ADE7C
:10107200EE81FF817096EE83FF83E8CF2A96089572
:10108200EC81F0E0E530A0E0FA0799F4A985BA8591
:10109200E0E1F7E20E94EE140E94DC140E94E914DF
:1010A2000E94E9140E94F314E0E1F7E20E94F814AE
:1010B20004C0E430A0E0FA0799F4A985BA85E8EE05
:1010C200F3E00E94EE140E94DC140E94E9140E94D4
:1010D200E9140E94F314E8EEF3E00E94F81404C04D
:1010E200E330A0E0FA0799F4A985BA85E4E6F0E0D6
:1010F2000E94EE140E94DC140E94E9140E94E9147A
:101102000E94F314E4E6F0E00E94F81404C0E23016
:10111200A0E0FA0799F4A985BA85EAE0F0E00E9416
:10112200EE140E94DC140E94E9140E94E9140E9449
:10113200F314EAE0F0E00E94F81404C0E130A0E009
:10114200FA0761F4E985E05DEA930E94DC140E94EB
:10115200DC140E94E9140E94E914D4DD2B96089550
:101162000E9402150E94141512F40E941E150E947C
:10117200251522F40E9435150E943A150E94451544
:101182000E9458153CF4EA85FB850E94D8140E94FF
:101192006015F6CF05C12A970E947319A98DBA8DE1
:1011A200EF89F88DEA1BFB0BAF01552332F4FA01EC
:1011B200AFEFBFEF0E94F418AF01AD89BE89EB8992
:1011C200FC89EA1BFB0BEE87FF87AF85AA2332F46B
:1011D200AFEFBFEF0E94F418EE87FF87EF89F88D1B
:1011E200A98DBA8DAE17BF0718F4E1E0F0E002C096
:1011F200EFEFFFEFEC87FD87EB89FC89AD89BE89B4
:10120200AE17BF0718F4E1E0F0E002C0EFEFFFEF26
:10121200EA87FB87AE85BF85FA01EA1BFB0BE887ED
:10122200F987E98DFA8DFA93EA93EA890E946D159E
:10123200FA93EA93E98DFA8DFA93EA93EE890E9482
:101242006D150E94D014A889BB27E889F0E00E949E
:10125200F4189F0100E010E0201731073CF0E98903
:10126200FA890E94D8140F5F1F4FF6CFEF89F88DCD
:10127200A98DBA8DEA17FB0739F4EB89FC89AD8990
:10128200BE89EA17FB0709F001C032C0E885F9857B
:10129200EE0FFF1FEE83FF83EE85FF850E94AA18E3
:1012A200AE81BF81EA17FB0774F4AE85BF850E9449
:1012B2007315E887F987EC85FD85A98DBA8DEA0F4C
:1012C200FB1FE98FFA8FAE81BF81A417B5077CF4AB
:1012D200FA01A885B985EA0FFB1FE887F987EA8535
:1012E200FB85AD89BE89EA0FFB1FED8BFE8B99CF83
:1012F2000E947A196B9608950E94E1140E94E114EB
:101302000E94E114E885F9850E9478150E94DC1498
:1013120027DF0E94E114EC81FD810E9478150E9472
:10132200E1140E94E1140E94DC141ADF0E94E1140D
:101332000E94E114AE81BF810E947315FA93EA9371
:101342000E94E1140E94DC140BDFAA81BB810E947F
:101352007315FA93EA930E94E1140E94E1140E9429
:10136200E1140E94DC14FCDE2C9608950E94021502
:101372000E94141512F40E941E150E94251522F4D3
:101382000E9435150E943A150E9445150E94581573
:101392003CF4EA85FB850E94D8140E946015F6CFC2
:1013A2001981088164960895129A139808951A93E0
:1013B2000A931A980E94A814E3ED0E947F159AC01E
:1013C2001A930A931A980E94A814E3E90E947F15BF
:1013D20091C01A98E5E0F0E00E94B514E0E9EA93C2
:1013E2000E94FF1280E991E00197F1F7E0E0EA93B1
:1013F2000E94FF12E0E0EA930E94FF121A9A0895F7
:101402001A930A93D4DFE451F5408F01112312F4A9
:1014120000E010E00E949815E5E5F5ED65E772E45D
:101422000E94A01567C01A930A93CADFE453F840DA
:101432008F01112312F400E010E00E949815EEE1F2
:10144200FEE96EEC72E40E94A01554C01A930A934E
:1014520010E00E94A71510F00C947A0A0E94AC15B5
:101462000E94B61500E0003160F4A1DFE451F540BE
:101472000E94C015A5DFE453F8400E94D5150F5F06
:10148200F2CFA0911506AA2312F40E94AC15A091E6
:101492001906AA2312F40E94B615E0911206F091E1
:1014A200130660911406709115060E942E18DF0132
:1014B200CB01E5E5F5ED65E774E40E945C180E9456
:1014C200F5172F01E0911606F091170660911806A4
:1014D200709119060E942E18DF01CB01EEE1FEE9A0
:1014E2006EEC74E40E945C180E94F5173F0171DFF4
:1014F20011E0E12F0991199108951A9355DF1A9875
:101502001B9885E38A95F1F71A9A1B9A0E94AC15EB
:101512000E94B61510E0103140F472DF0E94C0152F
:1015220082DF0E94D5151F5FF6CFA0911206B091FF
:10153200130680911406909115060E94EA152F0158
:10154200A0911606B091170680911806909119067F
:101552000E94EA153F013DDF44C2EA93FA93EFB7D6
:10156200EA931A930A931BB10CB1E12FEC7191F536
:10157200E0912F06E03081F0ED2DD394F0E0E65EAD
:10158200F94F0083E4E1ED1509F4DD24E0912E0624
:10159200EF5FE0932E061EC0E0913007EF5FE0930D
:1015A20030070E94F1150083E0913207EF5FE0936C
:1015B2003207E03079F4689420F8EFEFE0933207D5
:1015C200E0913007E03011F0E15002C0E0913207C3
:1015D200E093300709911991E991EFBFF991E991EF
:1015E20018951A93E0913207E030E1F3E091310768
:1015F200EF5FE09331070E94F1151081F894E091BA
:101602003207E150E09332077894EAC11A93E091ED
:101612002E06E030E1F3EC2DC394F0E0E65EF94FE4
:101622001081E4E1EC1509F4CC24F894E0912E0643
:10163200E150E0932E067894D3C10E94F615E09112
:101642003D07E03099F0E150E0933D07E0913C071F
:10165200EF5FE0933C070E94FC15E081ECB9A0919A
:101662003C07A83019F4E0E0E0933C0774C0A09175
:101672003D07A830E1F3F894E0913D07E03011F422
:101682005D9916C0E0913B07EF5FE0933B070E9434
:10169200FC15A881A083A0913B07A83019F4E0E0D3
:1016A200E0933B07E0913D07EF5FE0933D0702C007
:1016B200E881ECB978947EC0E0E00E9401167AC01D
:1016C200E2E00E94011676C00E94F6151A930A9370
:1016D20010919B0000919C00E12FEC71E9F4E091E4
:1016E2005E07EF5FE0935E070E940716E25CF84F29
:1016F2000083A0915E07A03219F4E0E0E0935E0758
:10170200A0916007AF5FA0936007A03229F4E0E0E8
:10171200E0936007689421F8099119911CC00E9416
:10172200F615E091A307E030B1F0E150E093A30792
:10173200E091A207EF5FE093A2070E940716EF591C
:10174200F84FE081E0939C00A091A207A03419F425
:10175200E0E0E093A207E991EFBFF991E991A99145
:101762001895A091A307A034E1F3F894E091A307A0
:10177200E03021F4E0919B00E072C1F4E091A10716
:10178200EF5FE093A1070E940716EF59F84FA88177
:10179200A083A091A107A03419F4E0E0E093A1078F
:1017A200E091A307EF5FE093A30703C0E881E09312
:1017B2009C00789421960895EC81F0E0E130A0E05D
:1017C200FA0779F4E0E0F5E0FA93EA93E0E1F0E079
:1017D2000E940A160E94DC140E941116E0E1F0E059
:1017E20038C0E230A0E0FA0779F4E6E0F5E0FA93D7
:1017F200EA93E8E8F0E00E940A160E94DC140E94D4
:101802001116E8E8F0E025C0E330A0E0FA0779F429
:10181200ECE0F5E0FA93EA93E0E0F1E00E940A16C8
:101822000E94DC140E941116E0E0F1E012C0E430E4
:10183200A0E0FA07D1F4E2E1F5E0FA93EA93E8E7EF
:10184200F1E00E940A160E94DC140E941116E8E7D9
:10185200F1E0FA93EA93E7EFF0E0FA93EA930E9459
:10186200DC140E94DC140E942708FCC1E6E0F0E0D0
:10187200FA93EA93EAE6F0E00E941816EEE7F0E047
:10188200FA93EA93E2EEF0E00E941816E6EFF0E037
:10189200FA93EA93EAE5F1E00E941816EEE6F1E027
:1018A200FA93EA93E2EDF1E00E941816E7E0F0E025
:1018B200FA93EA93E9E6F0E00E9428161DDDEFE7CD
:1018C200F0E0FA93EA93E1EEF0E00E94281614DDCC
:1018D200E7EFF0E0FA93EA93E9E5F1E00E942816D7
:1018E2000BDDEFE6F1E0FA93EA93E1EDF1E00E941D
:1018F200281602DDE8E1F5E0FA93EA93E1E0EA93E3
:101902000E94C8140E943516EDE1F5E00E943B16D4
:101912000E94C8140E943516E1E2F5E0FA93EA93B8
:10192200E3E0EA930E94C8140E943516E5E2F5E06E
:101932000E9440160E94351608951A9310E086DD23
:10194200E03011F40C94F10CE6E0F0E0E415F5055A
:1019520028F4EAE6F0E04E165F0608F008C00E949E
:10196200451618F40E944A1608F001C011E0EEE78D
:10197200F0E0E415F50528F4E2EEF0E04E165F061D
:1019820008F008C00E94451618F40E944A1608F092
:1019920001C012E0E6EFF0E0E415F50528F4EAE50F
:1019A200F1E04E165F0608F008C00E94451618F4D2
:1019B2000E944A1608F001C013E0EEE6F1E0E415D9
:1019C200F50528F4E2EDF1E04E165F0608F008C0D6
:1019D2000E94451618F40E944A1608F001C014E04D
:1019E200E12F199108950E94751900E110E026E097
:1019F20030E0EBE2F5E00E944F160E9454160E947E
:101A02002708ECE3F5E00E944F160E9459160E9447
:101A12002708EE810E94601689F4EDE4F5E00E9449
:101A22004F160E9454160E942708E8E5F5E00E942E
:101A32004F160E9459160E94270812C1E130A0E0F9
:101A4200FA0789F4ECE5F5E00E944F160E9454165D
:101A52000E942708E0E6F5E00E944F160E94591600
:101A62000E942708FDC0E230A0E0FA0789F4E4E60C
:101A7200F5E00E944F160E9454160E942708E5E7DF
:101A8200F5E00E944F160E9459160E942708E8C0EE
:101A9200E530A0E0FA07D9F5E1E8F5E00E944F163B
:101AA2000E9454160E942708E5E8F5E00E944F16AE
:101AB2000E9459160E9463160E9468160E946D16B3
:101AC2000E944108005A1F4FE9E8F5E00E944F16B4
:101AD2000E9454160E9463160E9474160E94791680
:101AE2000E9480160E948B160E9492160E949D16DA
:101AF2000E948B160E94CD140E94A2160E94A71665
:101B02000E948B160E94CD140E944108A9C0E630A3
:101B1200A0E0FA07D9F5EDE8F5E00E944F160E9421
:101B220054160E942708E1E9F5E00E944F160E9430
:101B320059160E9463160E9468160E946D160E9432
:101B42004108005B1F4FE5E9F5E00E944F160E9435
:101B520054160E9463160E9474160E9479160E94FF
:101B620080160E948B160E94CD140E94A2160E941B
:101B72009D160E948B160E9492160E94A7160E9422
:101B82008B160E94CD140E9441086AC0E730A0E083
:101B9200FA07E9F5E9E9F5E00E944F160E945416AA
:101BA2000E942708EDE9F5E00E944F160E9459169F
:101BB2000E9463160E9468160E946D160E944108D8
:101BC200005B1F4FE1EAF5E00E944F160E94541697
:101BD2000E9463160E9474160E9479160E94801653
:101BE2000E948B160E94CD140E94A2160E949D167E
:101BF2000E948B160E94CD140E94A2160E94A71664
:101C02000E948B160E94AC160E94410829C0E8303F
:101C1200A0E0FA0759F4E5EAF5E00E944F160E94A7
:101C220054160E942708E9EAF5E00EC0EE30A0E063
:101C3200FA07B1F4EDEAF5E00E944F160E9454163D
:101C42000E942708E1EBF5E0FA93EA931A930A93CC
:101C52000E9459160E946316005C1F4F005C1F4FC2
:101C62000E947C19279608950E94731902E211E0DE
:101C720026E030E048EF50E0E9EBF5E00E944F1635
:101C82000E94B3160E942708E6ECF5E00E944F1668
:101C9200F9017096FA93EA930E94B8160E942708F7
:101CA200A091A507A23059F10E94BB160E94BE1650
:101CB2000E94A2160E94E6140E944F160E94BE16AF
:101CC2000E94A216EF81F0E00E944F160E94BE16FB
:101CD2000E94410802E611E0205F3F4FEE81F0E0F2
:101CE2000E944F160E94BE160E94A216E3EDF5E076
:101CF2000E944F160E94B3160E94270812C0005C71
:101D02001F4F0E94BB160E94BE160E944108205F10
:101D12003F4F0E94E6140E944F160E94BE160E9478
:101D220041080E947A192A960895EAEFFFEF0E946D
:101D3200C31608952C97E0E0E883EFE1E983E7E03A
:101D4200EA83EFEFEB83E7E0EC83E0EEED830E94C2
:101D520073190E94C8163C968F0129E830E00E9450
:101D6200CD165CF00E94D516E0913207E03011F0FA
:101D720038DCFACFE0E0E093A707A0913207A23067
:101D820038F0A33020F4A091A507A23009F413C0C3
:101D9200A091AD07B091AE07A536E0E0BE0758F0BE
:101DA2000E94D516E0913207E03011F01ADCFACF2A
:101DB200E0E0E093A707E091A707E03009F484C1CF
:101DC2000F3DE1E01E0714F00EED11E0A091B20705
:101DD200AA2312F40C94370F0E94C816FA93EA93BE
:101DE200F8013296FA93EA93EAE2F0E0FA93EA9380
:101DF200E9EEF0E00E94CD140E94B7090E94DE16BF
:101E02003A932A933A932A93E8E0F1E2FA93EA9317
:101E12000E94E016F901BD96FA93EA93F901BD9684
:101E22000E94AC160E94E016F901BD97FA93EA935C
:101E3200F901BD970E94AC160E94E016F901E65A1C
:101E4200FF4FFA93EA93F901E65AFF4F0E94AC164C
:101E52000E94E016F901EA55F040FA93EA93F9017B
:101E6200EA55F0400E94AC160E94B108A091A50765
:101E7200A23011F40C94CC0F40E0423010F00C94DC
:101E8200CB0F0E94CD160CF085C00E94E31614F011
:101E92000EED11E0A0913207A33018F00E94A715B1
:101EA20008F478C00E94EA16EC87FD870E94EA16C1
:101EB200EE87FF870E94EA16E88BF98B50E05330D9
:101EC20010F00C94C40F0E94EE16EA0FFB1FBF0124
:101ED2000E94EE160E94F5160E94FA160E9404173E
:101EE2000E9411170E9418170E941D170E94F516D2
:101EF200F17039F00E94EE160E941817FF6FFE93E0
:101F0200EE930E94EE160E941817E20FF31FFE9343
:101F1200EE930E94EE160E94F516E93EA0E0FA0743
:101F220024F00E94EE160E9424170E94EE160E94D0
:101F3200F516BA9724F40E94EE160E942B17A09170
:101F4200B207AA2392F00E94DE160E9432170E9464
:101F5200F5160E9439170E943E170E9439170E94F7
:101F620043170E943B160E94CC080E943217EA0FC8
:101F7200FB1F0F010E94EE160E94F516D001ED9391
:101F8200FC935F5F9CCF0E94C81636960E94C316D0
:101F92004F5F73CF99C040E0423010F00C9465104F
:101FA2000E94CD160CF090C00E94E31614F00EEDC4
:101FB20011E0A0913207A23018F00E94A71508F490
:101FC20083C00E94EA16EC87FD870E94EA16EE871C
:101FD200FF8750E0523010F00C945E100E94EE1613
:101FE200EA0FFB1FBF010E94EE160E94F5160E9427
:101FF200FA160E9404170E9411170E9418170E94D5
:102002001D170E94F516F17039F00E94EE160E941B
:102012001817FF6FFE93EE930E94EE16EA0FFB1F56
:10202200BF0100801180A52FB0E0119719F4EDE2F5
:10203200F0E002C0E3EDFFEFE20FF31FE00DF11D50
:10204200DB01ED93FC930E94EE160E94F516E93E29
:10205200A0E0FA0724F00E94EE160E9424170E94C4
:10206200EE160E94F516BA9724F40E94EE160E940C
:102072002B17A091B207AA2392F00E94DE160E94AB
:1020820032170E94F5160E9439170E943E170E94CD
:1020920039170E9443170E943B160E94CC080E94E7
:1020A2003217EA0FFB1F0F010E94EE160E94F5166F
:1020B200D001ED93FC935F5F8DCF0E94C8163696D8
:1020C2000E94C3164F5F68CF0E947A1962960895E4
:1020D200949AAA81AF3620F0E5E6F8E00E9448170C
:1020E200AA81AA3520F4E5E7F8E00E944817A88102
:1020F200A23320F4E7E8F8E00E944817A881A3334E
:1021020020F0E9E9F8E00E94481783C10E9475199E
:10211200E091A6070E94601611F00C94DC10A091C9
:10212200AB07B091AC07A139E1E0BE0778F0A0910E
:10213200A607A23058F4E3E5EA93C2DAE1E0E093BD
:10214200A607E0E0E093AB07E093AC07A091A707F6
:10215200A03041F4A091A407A03021F4A091A607D9
:10216200A03009F027C0E1DDE0913207E03019F03C
:102172000E94F20AF9CFE091A5070E94601611F4BD
:10218200E5E50BC0E130A0E0FA0711F4E9E405C08F
:10219200E230A0E0FA0719F4EAE5EA938DDAE2E028
:1021A200E093A607E1E0E093A707E0E0E093AD0744
:1021B200E093AE0754C0E130A0E0FA0711F00C94AE
:1021C2002111A0912E06A930D0F10E94070B1E2FDB
:1021D2000E944F170A933A932A931A9379DFE09158
:1021E200A407E03011F5E091A507F0E0E230A0E0AD
:1021F200FA0769F40E94070B0E94070B0E94070B63
:102202000E94070B0E2F0E94070B3E2F09C0E130E0
:10221200A0E0FA0719F40E944F1702C0309729F480
:102222000A933A932A931A931FDDE0912E06E03027
:1022320019F00E94070BF9CFE0E0E093A6070FC068
:10224200E230A0E0FA0759F4A091AD07B091AE07D1
:10225200A93CE0E0BE0718F0E0E0E093A607E091B9
:10226200A4070E94601611F00C948711E091A70751
:10227200E03009F05FDD61DBE13079F4A091A50780
:10228200AF5FA093A507A33018F0E0E0E093A507A5
:102292000E945917E4E6F0E034C0E23081F40E9473
:1022A20062170E94F516E83CA0E0FA073CF40E948F
:1022B20062170E9418173A960E946A1726C0E330E6
:1022C20071F40E9462170E94F51675973CF00E9405
:1022D20062170E9418173A970E946A1716C0E430D4
:1022E200A1F4E5E0E093A407E0E0E093A807E6EDBF
:1022F200F5E00E9440160E9435160E946F17E8EC26
:10230200F0E0FA93EA930E94BC1781C0E530A0E0A6
:10231200FA0711F00C94E11110DBE13079F4A0918D
:10232200A807AF5FA093A807A33018F0E0E0E093FE
:10233200A8070E946F17E4E6F0E03DC0E230B1F476
:102342000E947B170E94F516E83CA0E0FA076CF4A5
:102352000E947B170E9418173A96FE93EE930E94F2
:102362006F17E4E1F0E00E94B51429C0E330A1F454
:102372000E947B170E94F51675976CF00E947B17DE
:102382000E9418173A97FE93EE930E946F17E4E1AA
:10239200F0E00E94B51413C0E43089F4E0E0E09369
:1023A200A407ECEDF5E00E9440160E9435160E944B
:1023B2005917E8ECF0E0FA93EA930E94BC1727C0A1
:1023C200E83CA0E0FA07B9F4B8DAE13099F0E2307B
:1023D20089F0E33079F0E43069F4E0E0E093A407B7
:1023E200E2EEF5E00E9440160E943516EAEFF0E0B8
:1023F2000E94B5140CC0EA3FA0E0FA0741F40E9423
:10240200270AE13020F0E0E0E093A407C7980E9499
:102412007C1924960895AA93BA93EA93FA93EFB794
:10242200EA93E6E0E2BFA9EAB7E00E948317ABEACB
:10243200B7E00E948317ADEAB7E00E948317E991E3
:10244200EFBFF991E991B991A9911895E0E0EBBB41
:10245200EABBE0E8E8BBE7E8E7BBE0E0E5BBE4BBFA
:10246200E2BBE0E1E1BBE3B9E2B9E0E0E0936200A4
:10247200E0936100E0936500E0936400E0BFE4E074
:10248200E3BFE6E0E2BFE0E0E1BFEFBDEEBDEDBDE0
:10249200ECBDE7BDE6BDEBBDEABDE9BDE8BDE0933D
:1024A2007900E0937800E5BDE4BDE3BDE0938B00E5
:1024B200E0938A00E0938900E0938800E093810032
:1024C200E0938000E0938700E0938600E09385002C
:1024D200E0938400E0938300E0938200E0936A003B
:1024E200EABFE9BFE1E0E7BFE0E0E0937D00EBB9DE
:1024F200E8EDEAB9E6E0E0939500E0E0E0939000D1
:10250200E8E0E9B9E0E0E0939B00E8EDE0939A00AF
:10251200E6E0E0939D00E0E0E0939800E7E6E093D8
:102522009900E0E8E8B9E0E0E0BDE6B9E2E5EDB93E
:10253200E0E0EEB9E093740078940E947C050E947A
:102542007E0A0E94C8140E941E06E8EEF5E00E9470
:102552008917E0E7F0E0FA93EA93E8EFF0E00E94EF
:10256200CD140E942708C7980E949414EFEEF5E05C
:102572000E948917E0E8F0E0FA93EA93E0E0FFE1D5
:102582000E94CD140E949017E6EFF5E00E94891791
:10259200E0E9F0E0FA93EA93E7E0F0EE0E94CD146E
:1025A2000E949017EDEFF5E00E948917E0E7F0E056
:1025B2000E94CD140E94C8140E949017E4E0F6E035
:1025C2000E948917E0E8F0E00E94CD140E94C8142E
:1025D2000E949017EBE0F6E00E948917E0E9F0E034
:1025E2000E94CD140E94C8140E9427083FD9A895C2
:1025F2000E945917A8958ADDFDCFFFCFE881EFB978
:10260200779BFECFEFB121960895EA81EA930E946B
:10261200B20BA881B9810E94831723960895269749
:102622000E94731910E0AC85BD85E0E0F0E0ED9307
:10263200FC93EA89FB893196EA8BFB8B3197E49113
:102642002E2FE03011F40C943D14E12FE03039F4D8
:10265200253211F411E002C00E9493170CC1E1303F
:10266200A9F4253219F40E94931704C112E040E044
:1026720000E02D3211F401E0FEC02B3211F44BE2E6
:10268200FAC0203211F440E2F6C002C0E23039F45E
:1026920050E013E0203311F40068EDC004C0E330D1
:1026A20011F00C943C14203310F02A3308F007C0C8
:1026B200AAE05A9F502DE22FE0535E0FDCC0E22FBA
:1026C200E33649F40E949C17E889F989A481AA9308
:1026D2000E94A217CFC0E33741F40E949C170E94C8
:1026E200AA170E946A141E2F0AC0E03761F40E94E2
:1026F2009C170E94AA170E9474141E2F0860026081
:102702000F7730E035C0E43611F0E93611F4046099
:1027120002C0E53731F4ECECF7E0EE83FF8315E01D
:102722000DC0E83511F4086004C0E83711F00C94CC
:102732003B14E6EDF7E0EE83FF8314E002FF14C0E2
:102742000E949C170E94B417AB85AA233AF4EA852B
:10275200FB850E94AA18EA87FB874DE2403011F000
:102762001F5F01C00B7F04C00E949C170E94B41718
:1027720000FD11C0151778F407FF08C002FF04C05E
:102782000B7F242F115001C020E301C020E20E94E0
:1027920093175150EFCF312F01FF17C03030A1F006
:1027A20003FF06C0EE81FF812591EE83FF8305C002
:1027B200AE81BF812D91AE83BF830E9493175030AB
:1027C20009F051503150EACF4BC020E3EE81FF8136
:1027D2000E946319E887F987EE81FF813296EE83C2
:1027E200FF83E885F985AA85BB85AE17BF0750F040
:1027F2002F5FA885B985EA85FB85EA1BFB0BEA8773
:10280200FB87EFCF2A3328F003FF02C0295F01C004
:10281200295D04FD1AC0213320F4A885B9851197DA
:1028220009F409C0531710F000FF01C013C020E2E1
:1028320007FF0BC020E3006102FF07C00B7F4A9332
:102842000E94A217503009F051500E949317503045
:1028520009F051503150A885B985129708F0B5CFCB
:1028620000FF08C0503031F05150E0E2EA930E947C
:10287200A217F8CF10E0DDCEAC85BD850E945F19AE
:102882000E947A1964960895FF92F82E26971A9359
:102892000A93DE0114960E94A1188D01E0E0EC83F8
:1028A200ED83EE83EF83DE0118960E94A1180E9449
:1028B2005F190E944F16E6E0F3E1FA93EA93FE01F4
:1028C2003896FA93EA93ABDE198108812896FF9035
:1028D2000895A991B991EE27FF276D91662311F012
:1028E2003196FBCF0895AA27BB27E991F99105906C
:1028F200002011F01196FBCFFD010895E881F0E070
:102902000895E4E6F0E0FA93EA930C94BC17E881A8
:10291200EA930E942105EBBBE0E0E5BB0895E1E00C
:10292200EA930C945005E8ECF0E0FA93EA930C94E5
:10293200BC17EA930E945C05E4E0EA930C945C0500
:10294200EA930E945005E1E0EA930C945C05E1E011
:10295200F0E0FA93EA930C94BC17EA930E945005B4
:10296200E3E0EA930C945C05FA93EA930C94BC17A7
:10297200EA930E945C05E0E0EA930C945C05E1E0D6
:10298200EA930C945C05EA930E945C05F8CFE0E0C0
:10299200F0E0FA93EA930895FA93EA93F8CFFA9360
:1029A200EA930E94FE05ECE2EA930C945005FA9336
:1029B200EA930C946905E885F985FA93EA930895F8
:1029C200EA85FB85FA93EA930895E885F0E0089595
:1029D200EF81F885FA93EA9308950E94FE18E05D6C
:1029E200EA93E9CF0E948306A985BA8508950E94D9
:1029F2003B19E987FA87EF81F8857096EF83F887AC
:102A0200089528971A930A93EA89FB89FA93EA931D
:102A1200EA89FB89FA93EA93EA89FB89FA93EA93B2
:102A2200EA89FB89BCCFAA89BB89E889F989EA1BB3
:102A3200FB0B31968F0111230895F801AFEFBFEF21
:102A42000E94F4188F010895AE85BF85EC85FD853F
:102A5200EA1BFB0B319666277727EA83FB836C839D
:102A62007D83AD81AA230895EA81FB816C817D81FA
:102A72000895AFEFBFEF8FEF9FEF0E94F918EA833F
:102A8200FB836C837D830895F801AA81BB818C81CD
:102A92009D810E94C7180E94F918EA83FB836C8308
:102AA2007D83E0E0EE83EF83E887E9870895DCDF4A
:102AB200AE81BF81888599850E946E190895EE8145
:102AC200FF8168857985EF5FFF4F6F4F7F4FEE8300
:102AD200FF83688779870895F0E0AB8DBC8DEA0F9C
:102AE200FB1F0895E885F985EA1BFB0B0895AC8569
:102AF200BD85EA0FFB1FFA93EA930895EA930E94B9
:102B0200FF1280E991E00197F1F7E0E0EA930E9479
:102B1200FF120E2F1127102F0027E0E0EA930E94E8
:102B2200FF12F0E00E0F1F1F1A9AF8010895F80124
:102B32000E94C7180E942E18DF01CB0108950E943F
:102B42005C180E94F7178F01F8010895A0E00B9915
:102B5200A1E0A1300895E0E0E0931206E0931306AD
:102B6200E0931406E09315060895E0E0E09316065C
:102B7200E0931706E0931806E09319060895A091D2
:102B82001206B091130680911406909115066627DD
:102B920077270E94A518E0931206F093130660931C
:102BA2001406709315060895A0911606B0911706A3
:102BB2008091180690911906662777270E94A5181A
:102BC200E0931606F09317066093180670931906A1
:102BD2000895E0E1F0E060E070E00E9436190895A7
:102BE200E150F0E0E05DF94F0895AA93EA93FA9379
:102BF200EFB7EA930895E150F0E0ED5CF84F0895E5
:102C0200E0932F06E881EA930C94380BE150F0E050
:102C12000895FA93EA93E7EFF0E0FA93EA93CBCEC2
:102C22000E942708ED81FE81FA93EA930895FA93B0
:102C3200EA93E0EFF0E0FA93EA93EEE0F1E0FA9340
:102C4200EA93EFEFFFEFFA93EA930C94B709FA9342
:102C5200EA93E1EFF0E0FA93EA93EDE0F1E0FA9320
:102C6200EA93E1E0F0E098CEEFEFFFEFFA93EA9318
:102C72000C94DD0BFA93EA93E2E0EA930895FA9357
:102C8200EA93E4E0EA9383CEE0EFF0E0E615F7059D
:102C92000895EEE0F1E06E167F060895FA93EA9346
:102CA2001A930A9308953A932A93EA85FB8574CE80
:102CB200F9017096FA93EA93EA85FB856DCEF0E00E
:102CC200309708950E942708005C1F4F0895E091F5
:102CD200AF07F091B007E2CF3A932A93E4E0EA9388
:102CE200EB85FC8559CEE0E020FCE1E0F0E0D6CFB8
:102CF2003A932A93E1E0EA93EB85FC854DCE0E945C
:102D0200410800E510E026E130E0E091B307F091E0
:102D1200B407C4CF3A932A93E3E0EA93EB85FC85A8
:102D22000895FA93EA93E8E0F1E2FA93EA930E94B3
:102D32004108005C1F4F0895E091B507F091B60776
:102D4200ADCF0E944108005C1F4F0895E091B70784
:102D5200F091B807A3CFFA93EA93E8E0F1E2FA938D
:102D6200EA9308953A932A935A934A9310CE5A9328
:102D72004A930DCEE985F0E091CF3A932A93E3E0AE
:102D8200EA93F5CFE093B107F093B2070895E0918B
:102D9200B107F091B2070895A091B107B091B207BF
:102DA200AF3DE1E0BE070895E091AD07F091AE07B7
:102DB200E093AF07F093B0070895E9DF6FCF0E9469
:102DC200B108FBCFE4DF36968F010F3DE1E01E072D
:102DD20008950E94F20AF0E00895E52FF0E0DE0186
:102DE2001C96EE0FFF1F0895AE0FBF1F0E945F19C2
:102DF2000895A0E8B0E00E946719EA1BFB0BDB0113
:102E0200ED93FC93EACFEA0FFB1FBF010080118014
:102E1200E091A507A3EBB7E0F0E0EE0FFF1FE4CFD0
:102E2200D0010E94F418DB01ED93FC93D6CFAE0FD4
:102E3200BF1FED91FD9108950E94C0180E94BE1817
:102E4200FE93EE93CACFAE0FBF1FE8EEF0E0ED9314
:102E5200FC930895AE0FBF1FEAE2F0E0ED93FC93FE
:102E62000895E52FA9EBB7E0F0E0EE0FFF1F0895FC
:102E7200FA93EA93E52FF0E00895DE015296EE0F01
:102E8200FF1FB2CFDE011E96EE0FFF1FADCFFA93EA
:102E9200EA9380E00E944514229608950E94070B4F
:102EA2000E2F0E94070B3E2F0E94070B2E2F089514
:102EB200E091A507EA93E8EFF0E0FA93EA930C9425
:102EC200F40CE091A507A3EBB7E0F0E0EE0FFF1FD3
:102ED2000895FE93EE93E4E1F0E046CDE091A4077D
:102EE200A091A807EA0FEA93EFE0F8E7FA93EA93D2
:102EF2000C94F40CE091A807A3EBB7E0F0E0EE0F1E
:102F0200FF1F0895ED91FD913196FE93EE93089582
:102F1200FA93EA93E0ECF0E0FA93EA9308950E94C0
:102F2200270801CD2A93ED85FE85FA93EA93E98974
:102F3200FA8909950895E889F9893497E88BF98B1C
:102F42000895ED85FE85FA93EA93E989FA89099550
:102F52000895A889B98914960E945F19EE83FF83A8
:102F6200FA93EA930895A889B98914960E945F1981
:102F7200EA87FB870895E991F991309639F080EA62
:102F82009FE00197F1F7A8953197C9F70895552366
:102F920042F4503811F4E0FF04C03196691F791FE2
:102FA2006BF050E8572711F45F9373C05F3F31F025
:102FB200660F000C57956795752F08955F93002053
:102FC2000AF073C06CC050E8192E1522880F991FA1
:102FD2009527550F879550E8072E0522660F771F14
:102FE2007527550F67950895689401C0E8945F931B
:102FF200F2DF703818F07F3F08F44BC056E1571BE0
:10300200AAF4519558300EF4593030F0EFEFFFEF3B
:103012006FEF7FE777F91AC077275523B9F0EE0FE4
:10302200FF1F661F771F5A95D1F710C077275830B8
:1030320028F0EF2FF62F672F5850F9CF552331F094
:1030420076956795F795E7955A95D1F700200AF49A
:1030520084D05F910895689401C0E89430976040ED
:103062007040B1F0002426F0772312F4009475D05A
:10307200172E7EE1112032F07A95EE0FFF1F661FA8
:10308200111CF9CFEF2FF62F612D5F938ADF5F912D
:103092000895EE27FF27662777275F910895EFEFC0
:1030A200FFEF6FE77FEF5F910895EFEFFFEF6FE7BD
:1030B2007FE75F9108955F9386DF703821F41120D6
:1030C2000AF4EDCFF2CF903809F4E3CF012408944B
:1030D200970B1BF4D4F30020F3CF792F1F932F9378
:1030E2003F934F9311241127222733274427552733
:1030F20090E2AE17BF078607410730F0AE1BBF0B49
:10310200860B410B089401C08894551F221F331F60
:10311200111CAA1FBB1F881F441F9A9551F7F90162
:10312200612D4F913F912F911F91662332F0550FE0
:10313200EE1FFF1F661F7A9543F229DF5F91089504
:103142000024AF0DB01D0895EA0FFB1F681F791F01
:103152000895F195E195F0400895F0956095709588
:10316200E195FF4F6F4F7F4F0895EE230E2EEA2F0A
:1031720019F0E6950A94E9F70895F595E795F5951E
:10318200E795F595E795F595E79508956F2F660F05
:10319200660B762F0895FA9FF02DEB9FF00DEA9FB4
:1031A200E02DF10D08957A9F702D6B9F700DF89FA1
:1031B200700DE99F700D6A9F602D710DFB9F600D70
:1031C200711DE89F600D711D8827FA9FF02D610D1A
:1031D200781FEB9FF00D611D781FEA9FE02DF10D26
:1031E200681F781F089549D0D6DF0EF4B2DF089524
:1031F20052D0D9DF0EF4B1DF08950024112490E1FA
:10320200AA0FBB1F001C111C0E1A1F0A18F40E0E67
:103212001F1E01C0A1609A9599F7FD01D001089582
:103222003F934F935F93002411244427552730E2A4
:10323200AA0FBB1F881F991F001C111C441F551F7A
:103242000E1A1F0A460B570B28F40E0E1F1E461F9E
:10325200571F01C0A1603A9559F7FD01BC01D00189
:10326200CA015F914F913F91089515D0D9DF0EF4B5
:1032720074DF0895C2DFFD010895E894F7FF02C0EC
:1032820068DF6894B7FF06C0A095B095119600F864
:10329200039400FA0895E89477FF02C05EDF689411
:1032A20097FF0BC00024A095B0958095909511963C
:1032B200801D901D00F8039400FA0895ED91FC9191
:1032C200119708950590F491E02D08951B2EBF2FBC
:1032D200F12D1A2EAE2FE12D0895AE17BF078607E6
:1032E200970708955A934A933A932A931A930A9303
:1032F20008955D814C813B812A811981088108955D
:00000001FF
