:060000000C9474040C9442
:1000060000000C9400000C9400000C9400000C946A
:1000160000000C9400000C9400000C9400000C945A
:1000260000000C9400000C9400000C9400000C944A
:1000360000000C9400000C9400000C947D0D0C94B0
:1000460000000C94CA090C9400000C94030A0C944A
:1000560000000C9400000C9400000C9400000C941A
:1000660000000C9400000C9400000C9400000C940A
:1000760000000C94430A0C9400000C946E0A0C9435
:1000860000000C94000000000000000000000000CA
:10009600000000000000000000000000000000005A
:1000A600000000000000000000000000000000004A
:1000B60000000000000000000000000000000180B9
:1000C6000180000000000000018003C007E0066018
:1000D6000C300C3018181818300C300C60066006FE
:1000E6007FFE7FFE000000007FFE7FFE600660064A
:1000F600300C300C181818180C300C30066007E05D
:1001060003C001800000000007E00C301818181822
:1001160018181818181818181818181818180C304D
:1001260007E00000000000000180038007800180D6
:1001360001800180018001800180018001800180B1
:1001460003C000000000000007E00C30181810087B
:1001560000180030006000C00180030006000C1883
:100166001FF800000000000007E008101008100843
:10017600001000E0003000180008000818180C30C5
:1001860007E00000000000000030007000F001B041
:10019600033006300C3018301FF8003000300030C5
:1001A60000780000000000000FF80FF008001000B3
:1001B60010001FE0003000180018001818181C3036
:1001C6000FE000000000000003E006100C0008002D
:1001D60018001FE01C3018181818181818180C30BA
:1001E60007E00000000000001FF8101800100020B3
:1001F6000020004000400080008001000100020055
:10020600020000000000000007E00C300810081093
:100216000C3007E00C3018181818181818180C307D
:1002260007E000000000000007E00C30181818185E
:1002360018180C3807F8001800100020002000C01D
:1002460003000000000000000000000000000000A5
:100256000000000000000000000000000000000098
:100266000000000000000000018001800180018084
:1002760001800180018001800180018000000180F1
:100286000180000000000000006000800100020004
:1002960002000400040004000200020001000080C5
:1002A6000060000000000000060001000080004021
:1002B6000040002000200020004000400080010097
:1002C60006000000000000000000000800180030D2
:1002D600006000C00180030006000C00180010003A
:1002E6000000000000000000000001800180018085
:1002F600018001803FFC3FFC01800180018001807C
:100306000180000000000000000000000000000066
:10031600000000003FFC3FFC000000000000000061
:1003260000000000000000000000000001800180C5
:1003360000000000000000000000018001800000B5
:1003460000000000000000000030006000C00180D6
:10035600030006000C0006000300018000C00060D8
:1003660000300000000000000000000000000FF058
:100376000FF00000000000000FF00FF0000000007A
:1003860000000000000000000C00060003000180D1
:1003960000C000600030006000C00180030006005D
:1003A6000C0000000000000003C006600C300C309A
:1003B6000430006000C001800180018000000180DF
:1003C600018000000000000000E000E001200120A4
:1003D60002300210041004180FF81818100C300C14
:1003E600781E0000000000007FFE301E3002300044
:1003F60030003FF83FFC300E30063006300E3FFC32
:100406007FF80000000000007FF03018300C300C40
:1004160030183FF83FFC300E30063006300E3FFCF9
:100426007FF80000000000007FFE301E3002300022
:100436003000300030003000300030003000300036
:10044600780000000000000003FC011801180118E4
:100456000118011801180218041808183FFC383C46
:10046600300C2004000000007FFC301C30043000FB
:1004760030803F803F803080300030003004301CB8
:100486007FFC00000000000063C6518A11880990B5
:10049600099007E007E00DB019981188318C218486
:1004A60063C60000000000000FE03838600C00044E
:1004B600000C03F80008000400060006600C3FF874
:1004C6000FE0000000000000781E300C301C303CAD
:1004D600306C30CC318C330C360C3C0C380C300C78
:1004E600781E0000000003C0799E300C301C303CA2
:1004F600306C30CC318C330C360C3C0C380C300C58
:10050600781E000000000000783C306C30C031805E
:1005160033003F00398030C0306030303018300C46
:10052600781E00000000000001FE008C008C008C8C
:10053600008C010C010C010C020C020C040C680C62
:10054600701E000000000000700E381C381C342C91
:10055600342C342C324C324C324C318C318C318C24
:10056600781E000000000000781E300C300C300CA5
:10057600300C3FFC3FFC300C300C300C300C300C97
:10058600781E00000000000007E01E78381C300CC2
:10059600700E700E700E700E700E300C381C1E78B9
:1005A60007E00000000000007FFE3FFC300C300C2E
:1005B600300C300C300C300C300C300C300C300C55
:1005C600781E0000000000007FF8300C3006300670
:1005D6003006300C3FF8300030003000300030007C
:1005E600780000000000000007E01E78381C300488
:1005F600700070007000700070003004381C1E78A7
:1006060007E00000000000007FFE61864182018055
:1006160001800180018001800180018001800180CC
:1006260003C0000000000000780E300418040C0817
:1006360006080310019000E0006000400C400C80AA
:10064600070000000000000003C001800FF0399C85
:100656006186418241826186399C0FF0018001806A
:1006660003C0000000000000781E300418080C10BB
:1006760006200340018002C0046008301018200CD8
:10068600781E000000000000781E300C300C300C84
:10069600300C300C300C300C300C300C300C300C74
:1006A6007FFE000600020000781E300C300C300C75
:1006B600300C380C1FFC000C000C000C000C000C5D
:1006C600001E0000000000007BDE318C318C318C76
:1006D600318C318C318C318C318C318C318C318C2C
:1006E6007FFE0000000000007BDE318C318C318CF7
:1006F600318C318C318C318C318C318C318C318C0C
:100706007FFE0006000200007C00580058005800DA
:10071600180018001FF8180C180618061806180CEA
:100726003FF8000000000000781E300C300C300C42
:10073600300C300C3F8C304C302C302C302C304C64
:100746007F9E00000000000078003000300030007E
:10075600300030003FF8300C300630063006300CE2
:100766007FF800000000000007E01E78381C300CFF
:10077600000E000E00FE000E000E300C381C1E7817
:1007860007E000000000000079F8330C320436065A
:10079600360636063E063606360636063204330C6E
:1007A60079F800000000000003FE060C0C0C0C0C8F
:1007B6000C0C060C03FC030C060C0C0C180C300C71
:1007C600781E000000001027E80364000A000100FC
:1007D600001000011000010000005A002020202017
:1007E6002000CCC5CDDE0020202B0020202D00CF00
:1007F600C0D3C7C000202020202020202020202079
:10080600202020202000CDC0CFD0DFC6C5CDC8C552
:1008160000D4C0C700D2CECA00CDC0CFD0DFC6C577
:10082600CDC8C520C820D2CECA00C2CEC7C1D3C645
:10083600C4C5CDC8DF00C4C5D1CACECC00D1D2C094
:10084600D0D2000001000200DE0706000005E20724
:1008560006000605E20706000C05E207060012057B
:10086600E20705001805E80704001D05ED0704006A
:100876002105F10706002505F50711002B05FB07E5
:1008860011003C05FB070B004D050C08040058053C
:10089600170804005C051B08040060051708110012
:1008A60064051F080C007505300801000F07E007F6
:1008B600070081053C08070088053C0807008F05EE
:1008C6003C0807009605050807009D050508070072
:1008D600A40505080600AB0543080600B105F507A3
:1008E6000000F894EE27ECBBF1E0F5BFE5BFE0931E
:1008F6006C00F8E1F1BDE1BD8DE0A2E0BB27ED9310
:100906008A95E9F780E090E1A0E0B1E0ED930197E8
:10091600E9F7EAE4F8E085919591009761F0A591F1
:10092600B59105901590BF01F00105900D920197C4
:10093600E1F7FB01F0CF8BBFEFEFEDBFE0E1EEBFDC
:10094600C0E0D5E00C94930DEFEFEABBE4BBE1B356
:10095600E06EE1BBE2B1E06AE2B908950E94C60E1C
:10096600F595E795E575AE2FE881EE0FEA7AEA2B65
:10097600E8830E94C60E0E94B711E373AE2FE8818A
:10098600EE0FEE0FEC7CEA2BE8830E94C60E0E9467
:10099600B311EF70AE2FE881E295E07FEA2BE88392
:1009A60023C095981D9A0E94C90E1D980E94C90ED3
:1009B6001D9A959A0E94C90E0895959A97980E9435
:1009C600CF0E00001F98969800001F9A969A000076
:1009D6000BC0959A979A0E94CF0E00001F98969882
:1009E60000001F9A969A0000219608951A930A937A
:1009F6001A810B81959A979A1BBB05BB00001F981D
:100A0600969800001F9A969A0000198108812496EC
:100A160008959ADFC6DF0E94D70E0E94D70E0E9465
:100A2600D70E0E94DB0EE2EEEA93C7DFE3E2EA931B
:100A3600D0DFE2E00E94E10EE0EE0E94E80E0E94A6
:100A4600EF0EE0EE0E94F50E0E94D70EE8E7F0E00A
:100A56000E94FC0EE6EE0E94E80EEAEDEA93B9DF8C
:100A6600E3E7EA93B6DFE0EBEA93A7DFE4E20E946E
:100A7600000F0E94070FEFED0E940B0FEFE00E94A0
:100A8600000FE4EB0E94F50EE4E80E94000FEAE591
:100A9600EA939FDFEAE00E94000FE8E00E94000F61
:100AA600E6EB0E94E80EECE20E94000FECE0EA930F
:100AB60090DFEAE0EA938DDFE0E00E94E10EEAEBE8
:100AC600EA937BDFEFE0EA9384DFE8EBEA9375DFF6
:100AD600E7E00E940B0FE6E30E94F50EECEBEA93CB
:100AE6006CDFE0E5EA9375DFE0E9EA9372DFE0E5C3
:100AF6000E940B0FE0EF0E94F50EE5E0F0E00E9489
:100B0600FC0EE9E2EA9359DFE0EDEA9356DFEDE009
:100B1600EA935FDF0895EAE2EA934FDFEF81EA9313
:100B260058DFEE81EA9355DFED81EA9352DFEC81DF
:100B3600EA934FDFEBE2EA9340DFEB81EA9349DF8A
:100B4600EA81EA9346DFE981EA9343DFE881EA93A3
:100B560040DF289608950E941F12E8E2EA932DDFEF
:100B66000E940F0FEFEDF1E00E94140FEFE0F1E0AD
:100B76000E94170F00E010E00031E1E01E0780F44C
:100B860020E030E0203EE1E03E0738F4EC81FD81D4
:100B96000E941F0F2F5F3F4FF5CF0F5F1F4FECCF08
:100BA600E9E2EA930ADF0E942612269608951A932E
:100BB6000A930E94230FAA85BB8550961197BA9374
:100BC600AA930E94280FAC85BD8550961197BA93BB
:100BD600AA93A1DFECE2EA93F0DE10E01032E8F42B
:100BE60000E00830C0F4E12FAA85BB85F0E0EA0FEB
:100BF600FB1F1490E02FA0E80E94AB11E121E13029
:100C060018F0EC81FD8102C0EA81FB81FA93EA9338
:100C1600EDDE0F5FE6CF1F5FE1CF19810881C2C20B
:100C2600E885F0E0E033A0E0FA0719F4ECE0F1E043
:100C36008EC1E133A0E0FA0719F4ECE2F1E087C1D6
:100C4600E233A0E0FA0719F4ECE4F1E080C1E33303
:100C5600A0E0FA0719F4ECE6F1E079C1E433A0E08C
:100C6600FA0719F4ECE8F1E072C1E533A0E0FA07FF
:100C760019F4ECEAF1E06BC1E633A0E0FA0719F4E7
:100C8600ECECF1E064C1E733A0E0FA0719F4ECEE0E
:100C9600F1E05DC1E833A0E0FA0719F4ECE0F2E018
:100CA60056C1E933A0E0FA0719F4ECE2F2E04FC1CD
:100CB600E132A0E0FA0719F4ECE6F2E048C1E832C6
:100CC600A0E0FA0719F4ECE8F2E041C1E932A0E04D
:100CD600FA0719F4ECEAF2E03AC1EF32A0E0FA07BB
:100CE60019F4ECECF2E033C1EA33A0E0FA0719F4A8
:100CF600ECE2F3E02CC1EC33A0E0FA0719F4ECE4E3
:100D0600F3E025C1ED33A0E0FA0719F4ECE6F3E0D1
:100D16001EC1EE33A0E0FA0719F4ECE8F3E017C1C0
:100D2600EF33A0E0FA0719F4ECEAF3E010C1EB3276
:100D3600A0E0FA0719F4ECEEF2E009C1ED32A0E00A
:100D4600FA0719F4ECE0F3E002C1E03CA0E0FA0790
:100D560019F4ECECF3E0FBC0E13CA0E0FA0719F46F
:100D6600ECEEF3E0F4C0E23CA0E0FA0719F4ECE0A4
:100D7600F4E0EDC0E33CA0E0FA0719F4ECE2F4E09D
:100D8600E6C0E43CA0E0FA0719F4ECE4F4E0DFC0C6
:100D9600E53CA0E0FA0719F4ECE6F4E0D8C0E63C3E
:100DA600A0E0FA0719F4ECE8F4E0D1C0E73CA0E0D3
:100DB600FA0719F4ECEAF4E0CAC0E83CA0E0FA0746
:100DC60019F4ECECF4E0C3C0E93CA0E0FA0719F42E
:100DD600ECEEF4E0BCC0EA3CA0E0FA0719F4ECE063
:100DE600F5E0B5C0EB3CA0E0FA0719F4ECE2F5E05B
:100DF600AEC0EC3CA0E0FA0719F4ECE4F5E0A7C0BD
:100E0600ED3CA0E0FA0719F4ECE6F5E0A0C0EE3CF4
:100E1600A0E0FA0719F4ECE8F5E099C0EF3CA0E091
:100E2600FA0719F4ECEAF5E092C0E03DA0E0FA0713
:100E360019F4ECECF5E08BC0E13DA0E0FA0719F4FB
:100E4600ECEEF5E084C0E23DA0E0FA0719F4ECE030
:100E5600F6E07DC0E33DA0E0FA0719F4ECE2F6E027
:100E660076C0E43DA0E0FA0719F4ECE4F6E06FC0C2
:100E7600E53DA0E0FA0719F4ECE6F6E068C0E63DC9
:100E8600A0E0FA0719F4ECE8F6E061C0E73DA0E05F
:100E9600FA0719F4ECEAF6E05AC0E83DA0E0FA07D2
:100EA60019F4ECECF6E053C0E93DA0E0FA0719F4BA
:100EB600ECEEF6E04CC0EA3DA0E0FA0719F4ECE0EF
:100EC600F7E045C0EB3DA0E0FA0719F4ECE2F7E0E5
:100ED6003EC0EC3DA0E0FA0719F4ECE4F7E037C0B9
:100EE600ED3DA0E0FA0719F4ECE6F7E030C0EE3D80
:100EF600A0E0FA0719F4ECE8F7E029C0EF3DA0E01E
:100F0600FA0719F4ECEAF7E022C0EE32A0E0FA079D
:100F160019F4ECEAF0E01BC0E032A0E0FA0719F49D
:100F2600ECE4F2E014C0E130A0E0FA0719F4ECECCE
:100F3600F0E00DC0E230A0E0FA0719F4ECEEF0E0C4
:100F460006C0E330A0E0FA0769F4ECE8F0E0FA93B3
:100F5600EA930E94230F0E94230F0E94230F0E94F0
:100F6600230F25DE29960895A885B985EC91E030F2
:100F760099F0ED91A887B987EA930E942D0F0E94F8
:100F86002D0F0E942D0F0E942D0F4ADEEE81FF814C
:100F96007096EE83FF83E8CF2A9608950E94320F5B
:100FA6000E94440F12F40E944E0F0E94550F22F425
:100FB6000E94650F0E946A0F0E94750F0E94880F9B
:100FC6003CF4EA85FB850E941F0F0E94900FF6CF26
:100FD60005C12A970E941D12A98DBA8DEF89F88D39
:100FE600EA1BFB0BAF01552332F4FA01AFEFBFEF5B
:100FF6000E94E911AF01AD89BE89EB89FC89EA1B24
:10100600FB0BEE87FF87AF85AA2332F4AFEFBFEF66
:101016000E94E911EE87FF87EF89F88DA98DBA8DB9
:10102600AE17BF0718F4E1E0F0E002C0EFEFFFEF04
:10103600EC87FD87EB89FC89AD89BE89AE17BF07B2
:1010460018F4E1E0F0E002C0EFEFFFEFEA87FB877C
:10105600AE85BF85FA01EA1BFB0BE887F987E98DA8
:10106600FA8DFA93EA93EA890E949D0FFA93EA931E
:10107600E98DFA8DFA93EA93EE890E949D0F0E94FC
:10108600170FA889BB27E889F0E00E94E9119F01A4
:1010960000E010E0201731073CF0E989FA890E9448
:1010A6001F0F0F5F1F4FF6CFEF89F88DA98DBA8DF1
:1010B600EA17FB0739F4EB89FC89AD89BE89EA1783
:1010C600FB0709F001C032C0E885F985EE0FFF1F66
:1010D600EE83FF83EE85FF850E949F11AE81BF815F
:1010E600EA17FB0774F4AE85BF850E94A30FE88755
:1010F600F987EC85FD85A98DBA8DEA0FFB1FE98F6F
:10110600FA8FAE81BF81A417B5077CF4FA01A885D2
:10111600B985EA0FFB1FE887F987EA85FB85AD8964
:10112600BE89EA0FFB1FED8BFE8B99CF0E9424121E
:101136006B9608950E94280F0E94280F0E94280F80
:10114600E885F9850E94A80F0E94230F27DF0E94D9
:10115600280FEC81FD810E94A80F0E94280F0E9493
:10116600280F0E94230F1ADF0E94280F0E94280FC3
:10117600AE81BF810E94A30FFA93EA930E94280FC3
:101186000E94230F0BDFAA81BB810E94A30FFA9353
:10119600EA930E94280F0E94280F0E94280F0E949F
:1011A600230FFCDE2C9608950E94320F0E94440FF6
:1011B60012F40E944E0F0E94550F22F40E94650FF2
:1011C6000E946A0F0E94750F0E94880F3CF4EA8500
:1011D600FB850E941F0F0E94900FF6CF1981088190
:1011E60064960895129A139808951A930A931A9872
:1011F6000E94EF0EE3ED0E94AF0FB4C01A930A935C
:101206001A980E94EF0EE3E90E94AF0FABC01A983E
:10121600E5E0F0E00E94FC0EE0E9EA930E94BF0ED2
:1012260080E991E00197F1F7E0E0EA930E94BF0EB2
:10123600E0E0EA930E94BF0E1A9A08951A930A9361
:10124600D4DFE451F5408F01112312F400E010E0E1
:101256000E94C80FE5E5F5ED65E772E40E94D00F40
:1012660081C01A930A93CADFE453F8408F01112311
:1012760012F400E010E00E94C80FEEE1FEE96EEC09
:1012860072E40E94D00F6EC01A930A9310E0A0E099
:101296000B99A1E0A13010F00C94B4090E94D70F6D
:1012A6000E94E10F00E0003100F59FDFA091B70535
:1012B600B091B8058091B9059091BA056627772750
:1012C6000E949A110E94EB0F99DFA091BB05B09185
:1012D600BC058091BD059091BE05662777270E94C3
:1012E6009A110E94F40F0F5FDECF0E94FD0FE054AB
:1012F600F145604070400E94EB0F0E940610E054DA
:10130600F348604070400E94F40FA091BA05AA23EA
:1013160012F40E94D70FA091BE05AA2312F40E94D0
:10132600E10F0E94FD0F0E942711DF01CB01E5E5C9
:10133600F5ED65E774E40E9455110E94EE102F0149
:101346000E9406100E942711DF01CB01EEE1FEE9A3
:101356006EEC74E40E9455110E94EE103F0157DFB7
:1013660011E0E12F0991199108953CDF1A981B9815
:1013760085E38A95F1F71A9A1B9A0E94D70F0E9465
:10138600E10F5CDF2F016DDF3F0141DF08950E9411
:101396000F101A930A931BB10CB1E12FEC71B1F443
:1013A600ED2DD394F0E0E154FA4F0083EAEFED150A
:1013B60009F4DD24A091B906AF5FA093B906AA3F50
:1013C60029F4E0E0E093B906689420F809911991B0
:1013D6009EC01A93E091B906E030E1F3EC2DC39478
:1013E600F0E0E154FA4F1081EAEFEC1509F4CC2451
:1013F600F894E091B906E150E093B9067894A0C15B
:101406000E940F10E091C406E03099F0E150E0939D
:10141600C406E091C306EF5FE093C3060E94151071
:10142600E081ECB9A091C306A83019F4E0E0E0939E
:10143600C3066DC0A091C406A830E1F3F894E0910C
:10144600C406E03011F45D9916C0E091C206EF5F64
:10145600E093C2060E941510A881A083A091C2063F
:10146600A83019F4E0E0E093C206E091C406EF5F0D
:10147600E093C40602C0E881ECB978940C94C40EDB
:101486000E940F101A930A9310919B0000919C00E2
:10149600E12FEC71E9F4E091E506EF5FE093E506F4
:1014A600E150F0E0EB53F94F0083A091E506A0323E
:1014B60019F4E0E0E093E506A091E706AF5FA0939C
:1014C600E706A03229F4E0E0E093E706689421F805
:1014D600099119911CC00E940F10E0910A07E03093
:1014E600B1F0E150E0930A07E0910907EF5FE0935E
:1014F6000907E150F0E0E851F94FE081E0939C00E4
:10150600A0910907A03219F4E0E0E0930907E991F8
:10151600EFBFF991E991A9911895EC81F0E0E130DE
:10152600A0E0FA0779F4E0E0F5E0FA93EA93EAE05E
:10153600F0E00E941A100E94230F0E942110EAE098
:10154600F0E038C0E230A0E0FA0779F4E6E0F5E032
:10155600FA93EA93E2E8F0E00E941A100E94230F41
:101566000E942110E2E8F0E025C0E330A0E0FA078F
:1015760079F4ECE0F5E0FA93EA93EAEFF0E00E9402
:101586001A100E94230F0E942110EAEFF0E012C009
:10159600E430A0E0FA07C9F4E2E1F5E0FA93EA9351
:1015A600E2E7F1E00E941A100E94230F0E94211028
:1015B600E2E7F1E0FA93EA93E7EFF0E0FA93EA93D1
:1015C6000E94230F0E94230FCFDC279608950E94C6
:1015D6000F0FE4E6F0E00E942810E8E7F0E0FA9347
:1015E600EA93ECEDF0E00E942810E0EFF0E0FA93C9
:1015F600EA93E4E5F1E00E942810E8E6F1E0FA93C8
:10160600EA93ECECF1E00E942810E1E0F0E0FA93B6
:10161600EA93E3E6F0E00E9438108CDDE9E7F0E0BB
:10162600FA93EA93EBEDF0E00E94381083DDE1EFE8
:10163600F0E0FA93EA93E3E5F1E00E9438107ADDF0
:10164600E9E6F1E0FA93EA93EBECF1E00E94381058
:1016560071DDE8E1F5E0FA93EA93E1E0EA930E94AE
:101666000F0F0E944510EDE1F5E0FA93EA93E2E0F0
:10167600EA930E940F0F0E944510E1E2F5E0FA930B
:10168600EA93E3E0EA930E940F0F0E944510E5E219
:10169600F5E00E944B100E94451008951A9310E041
:1016A600F3DDE03011F40C94A30B002404140504BC
:1016B60028F4E4E6F0E04E165F0608F008C00E9443
:1016C600501018F40E94551008F001C011E0E8E728
:1016D600F0E0E415F50528F4ECEDF0E04E165F06B3
:1016E60008F008C00E94501018F40E94551008F027
:1016F60001C012E0E0EFF0E0E415F50528F4E4E5BA
:10170600F1E04E165F0608F008C00E94501018F46B
:101716000E94551008F001C013E0E8E6F1E0E41578
:10172600F50528F4ECECF1E04E165F0608F008C06B
:101736000E94501018F40E94551008F001C014E0E1
:10174600E12F199108951A930A931EE100E1EBE245
:10175600F5E00E945A100E94631006DCECE3F5E007
:101766000E945A1070960E946310FEDBEC810E9464
:10177600681051F4EDE4F5E00E945A100E946310DF
:10178600F3DBE8E5F5E01BC0E130A0E0FA0751F431
:10179600ECE5F5E00E945A100E946310E5DBE0E6F6
:1017A600F5E00DC0E230A0E0FA07A9F4E4E6F5E0C2
:1017B6000E945A100E946310D7DBE5E7F5E0FA9322
:1017C600EA93E12FF0E0FA93EA93E02FF0E07096C7
:1017D6000E946310C9DB19810881259608950E942D
:1017E6001F120EE810E02FED31E0E0E0E0930D0768
:1017F600E0930E07E9EFFFEFE0930D07F0930E0776
:101806000E942612249608952C97E7E0E883E0EEDE
:10181600E983E7E0EA83EFEFEB83E0E0EC83EFE1D7
:10182600ED830E941D120E946B1037968F012EE8E1
:1018360030E0A0910D07B0910E07A03EE1E0BE0793
:101846000CF007C1EC89F0E0EC87FD87EB89F0E04E
:10185600EE87FF87EA89F0E0E88BF98BA0910E0707
:10186600AA23E2F10E947010E4E3F0E0FA93EA930F
:10187600E8EEF0E00E94140F97DC0E9470103A9395
:101886002A933A932A930E947610F901BD96FA9309
:10189600EA93F901BD960E947D10F901BD97FA936E
:1018A600EA93F901BD970E947D10F901E65AFF4FB0
:1018B600FA93EA93F901E65AFF4F0E947D10F90167
:1018C600EA55F040FA93EA93F901EA55F040FA93A3
:1018D600EA93E8E0F1E2FA93EA9360DB50E05330F2
:1018E60010F00C94250D0E9480100E948710E0587D
:1018F600F040FE93EE930E948010EA0FFB1FBF019B
:10190600DF010E941412A0910F07B09110070E94E8
:10191600E911DB01ED93FC930E9480100E94871071
:101926000E94B5110E94B311FE93EE930E9480109F
:101936000E948C10F17039F00E9480100E9487106E
:10194600FF6FFE93EE930E9480100E948710E20FB5
:10195600F31FFE93EE93A0910C07A230D9F40E94D8
:101966009110BF01DE011C96EE0FFF1FEA0FFB1F51
:101976000F01DF010E941412DF01062E072A19F05B
:10198600E3EDFFEF02C0EDE2F0E0EA0FFB1FD0014E
:10199600ED93FC930E9480100E948C10E93EA0E01B
:1019A600FA0744F00E948010AE0FBF1FE8EEF0E089
:1019B600ED93FC930E9480100E948C10F49744F4DF
:1019C6000E948010AE0FBF1FE4E3F0E0ED93FC939E
:1019D600A0910E07AA2302F10E9470100E94941093
:1019E6000E948C10FA93EA930E949110DE0152969F
:1019F600EE0FFF1F0E948C10FA93EA930E9491103B
:101A0600DE011E96EE0FFF1F0E948C10FA93EA93DA
:101A1600E2E0EA930E94EC070E949410EA0FFB1F93
:101A26000F010E9480100E948C10D001ED93FC9350
:101A3600A0910C07A23011F4513009F001C002C088
:101A46005F5F4DCF0E946B103796E0930D07F093C2
:101A56000E070E94241265960895A0911707B0916B
:101A660018071B97C8F0A091B906A33038F4A23026
:101A760020F0A0910C07A23009F00EC0A0910C072F
:101A8600A23020F40E949B10A4DC03C00E949B108D
:101A9600E0E0EA93B9DEE7CFA091C406A03041F4B6
:101AA600A0911707B0911807A139E1E0BE0708F425
:101AB60020C0E0E0E0931707E093180790DEE0917E
:101AC600B906E03011F085DCFACFE0910C070E94F0
:101AD600681011F4E5E50BC0E130A0E0FA0711F457
:101AE600E9E405C0E230A0E0FA0719F4EAE5EA9372
:101AF600A1DC0895AA93BA93EA93FA93EFB7EA930F
:101B0600E6E0E2BFA7E1B7E0ED91FD913196FE93E5
:101B1600EE93E991EFBFF991E991B991A9911895E1
:101B2600E0E0EBBBEABBE0E8E8BBE7BBE0E0E5BB37
:101B3600E4BBE2BBE0E1E1BBE3B9E0E5E2B9E0E04A
:101B4600E0936200E0936100E0936500E093640037
:101B5600E0BFE4E0E3BFE6E0E2BFE0E0E1BFEFBD07
:101B6600EEBDEDBDECBDE7BDE6BDEBBDEABDE9BD35
:101B7600E8BDE0937900E0937800E5BDE4BDE3BD00
:101B8600E0938B00E0938A00E0938900E09388005D
:101B9600E0938100E0938000E0938700E093860065
:101BA600E0938500E0938400E0938300E093820055
:101BB600E0936A00EABFE9BFE1E0E7BFE0E0E09357
:101BC6007D00EBB9E8EDEAB9E6E0E0939500E0E0E8
:101BD600E0939000E8E0E9B9E0E0E0939B00E8EDEF
:101BE600E0939A00E6E0E0939D00E0E0E093980041
:101BF600E7E6E0939900E0E8E8B9E0E0E0BDE6B9A1
:101C0600E2E5EDB9E0E0EEB9E093740078940E9465
:101C16000C050E94B8090E940F0F0E94AE05E1E86C
:101C2600F5E00E94A210E0E7F0E0FA93EA93E8EF0D
:101C3600F0E00E94140F0E94B707C7980E94DB0EBF
:101C4600E8E8F5E00E94A210E0E8F0E0FA93EA93F3
:101C5600E0E0FFE10E94140F0E94A910EFE8F5E012
:101C66000E94A210E0E9F0E0FA93EA93E7E0F0EED2
:101C76000E94140F0E94A910E6E9F5E00E94A21046
:101C8600E0E7F0E00E94140F0E940F0F0E94A910D7
:101C9600EDE9F5E00E94A210E0E8F0E00E94140FE2
:101CA6000E940F0F0E94A910E4EAF5E00E94A2101C
:101CB600E0E9F0E00E94140F0E940F0F0E94B707A0
:101CC60086DCA8950E94AC10A895E0910B070E94AF
:101CD600681029F5C2DEE2DCE13069F4A0910C0758
:101CE600AF5FA0930C07A33018F0E0E0E0930C0779
:101CF6000E94AC1013C0E23089F0E33079F0E43092
:101D060069F4E8ECE0930B07EBEAF5E00E944B1070
:101D16000E944510EAEFF0E00E94FC0E2BC0E13075
:101D2600A0E0FA0739F1E83CA0E0FA07B9F4B6DC1E
:101D3600E13099F0E23089F0E33079F0E43069F48B
:101D4600E0E0E0930B07E1EBF5E00E944B100E9408
:101D56004510EAEFF0E00E94FC0E0CC0EA3FA0E05E
:101D6600FA0741F40E944709E13020F0E0E0E093F1
:101D76000B07C798A9CFFFCFE881EFB9779BFECFB6
:101D8600EFB121960895E881F0E00895E4E6F0E0E9
:101D9600FA93EA930C94B510E881EA930E94B10491
:101DA600EBBBE0E0E5BB0895E1E0EA930C94E004C8
:101DB600E8ECF0E0FA93EA930C94B510EA930E94EB
:101DC600EC04E4E0EA930C94EC04EA930E94E00449
:101DD600E1E0EA930C94EC04E1E0F0E0FA93EA9394
:101DE6000C94B510EA930E94E004E3E0EA930C94A5
:101DF600EC04FA93EA930C94B510EA930E94EC046F
:101E0600E0E0EA930C94EC04E1E0EA930C94EC0431
:101E1600EA930E94EC04F8CFE0E0F0E0FA93EA934C
:101E26000895FA93EA93F8CFFA93EA930E948E05FF
:101E3600ECE2EA930C94E004FA93EA930C94F90426
:101E4600E885F985FA93EA930895EA85FB85FA937E
:101E5600EA930895EF81F885FA93EA93089528970F
:101E66001A930A93EA89FB89FA93EA93EA89FB892A
:101E7600FA93EA93EA89FB89FA93EA93EA89FB895A
:101E8600D3CFAA89BB89E889F989EA1BFB0B31966E
:101E96008F0111230895F801AFEFBFEF0E94E911FA
:101EA6008F010895AE85BF85EC85FD85EA1BFB0B8A
:101EB600319666277727EA83FB836C837D83AD8122
:101EC600AA230895EA81FB816C817D810895AFEF95
:101ED600BFEF8FEF9FEF0E94EE11EA83FB836C83C7
:101EE6007D830895F801AA81BB818C819D810E9422
:101EF600BC110E94EE11EA83FB836C837D83E0E0D4
:101F0600EE83EF83E887E9870895DCDFAE81BF8142
:101F1600888599850E9418120895EE81FF8168854B
:101F26007985EF5FFF4F6F4F7F4FEE83FF836887A3
:101F360079870895F0E0AB8DBC8DEA0FFB1F0895FD
:101F4600E885F985EA1BFB0B0895AC85BD85EA0F8C
:101F5600FB1FFA93EA930895EA930E94BF0E80E965
:101F660091E00197F1F7E0E0EA930E94BF0E0E2F91
:101F76001127102F0027E0E0EA930E94BF0EF0E041
:101F86000E0F1F1F1A9AF8010895F8010E94BC113E
:101F96000E942711DF01CB0108950E9455110E946E
:101FA600F0108F01F8010895E0E0E093B705E093A3
:101FB600B805E093B905E093BA050895E0E0E0932B
:101FC600BB05E093BC05E093BD05E093BE0508950F
:101FD600E093B705F093B8056093B9057093BA0519
:101FE6000895E093BB05F093BC056093BD0570931F
:101FF600BE050895E091B705F091B8056091B90561
:102006007091BA050895E091BB05F091BC05609109
:10201600BD057091BE050895AA93EA93FA93EFB7AA
:10202600EA930895E150F0E0E654F94F0895FA93E3
:10203600EA93E7EFF0E0FA93EA9302CF0E94B7073C
:10204600ED81FE81FA93EA930895FA93EA93E0EF1D
:10205600F0E0FA93EA93EEE0F1E0FA93EA93EFEF19
:10206600FFEFFA93EA930C94D708FA93EA93E1EF19
:10207600F0E0FA93EA93EDE0F1E0FA93EA93E1E017
:10208600F0E0CFCEEFEFFFEFFA93EA930C94900ACD
:10209600FA93EA93E4E0EA93BFCEE0EFF0E0E615C8
:1020A600F7050895EEE0F1E06E167F060895FA93BF
:1020B600EA93E12FF0E0FA93EA93E02FF0E0089537
:1020C600FA93EA93E885F985ACCEF0E03097089567
:1020D600E0910D07F0910E070895FADFFA93EA935F
:1020E6001A930A930895E8E0F1E2FA93EA930E94BC
:1020F600D107F3CFFA93EA93F6CFE52FF0E0DE01AE
:102106001C96EE0FFF1F0895AE0FBF1FED91FD91B8
:102116000895AE0FBF1F0E9414120895E52FF0E038
:102126000895E52FA1E1B7E0F0E0EE0FFF1F089557
:102136000E94EC09EA930E94EC09EA930895FA9347
:10214600EA93E0ECF0E0FA93EA9308950E94B70769
:102156002FCEE0910C07EA93E8EFF0E0FA93EA93CA
:102166000C94A60BE991F991309639F080EA9FE03C
:102176000197F1F7A8953197C9F70895552342F4C9
:10218600503811F4E0FF04C03196691F791F6BF0D7
:1021960050E8572711F45F9373C05F3F31F0660F25
:1021A600000C57956795752F08955F9300200AF0E8
:1021B60073C06CC050E8192E1522880F991F9527F9
:1021C600550F879550E8072E0522660F771F75274E
:1021D600550F67950895689401C0E8945F93F2DF00
:1021E600703818F07F3F08F44BC056E1571BAAF42D
:1021F600519558300EF4593030F0EFEFFFEF6FEF96
:102206007FE777F91AC077275523B9F0EE0FFF1F3E
:10221600661F771F5A95D1F710C07727583028F0D8
:10222600EF2FF62F672F5850F9CF552331F07695BB
:102236006795F795E7955A95D1F700200AF480D06F
:102246005F910895689401C0E894309760407040AB
:10225600B1F0002426F0772312F4009471D0172EE3
:102266007EE1112032F07A95EE0FFF1F661F111CDA
:10227600F9CFEF2FF62F612D5F938ADF5F910895D7
:10228600EE27FF27662777275F910895EFEFFFEF89
:102296006FE77FEF5F910895EFEFFFEF6FE77FE75F
:1022A6005F9108955F9386DF703821F411200AF458
:1022B600EDCFF2CF903809F4E3CF01240894970BC1
:1022C6001BF4D4F30020F3CF792F1F932F933F9362
:1022D6004F9311241127222733274427552790E2AD
:1022E600AE17BF078607410730F0AE1BBF0B860B44
:1022F600410B089401C08894551F221F331F111CDF
:10230600AA1FBB1F881F441F9A9551F7F901612D1B
:102316004F913F912F911F91662332F0550FEE1F7B
:10232600FF1F661F7A9543F229DF5F910895EA0F32
:10233600FB1F681F791F0895F195E195F0400895F8
:10234600F09560957095E195FF4F6F4F7F4F08951B
:10235600EE230E2EEA2F19F0E6950A94E9F7089572
:10236600F595E795F595E795F595E795F595E7954F
:1023760008956F2F660F660B762F0895FA9FF02D3E
:10238600EB9FF00DEA9FE02DF10D08957A9F702DD9
:102396006B9F700DF89F700DE99F700D6A9F602D01
:1023A600710DFB9F600D711DE89F600D711D8827E3
:1023B600FA9FF02D610D781FEB9FF00D611D781FC0
:1023C600EA9FE02DF10D681F781F089509D0D6DF2A
:1023D6000EF4B2DF089512D0D9DF0EF4B1DF0895FE
:1023E600E894F7FF02C0A8DF6894B7FF06C0A0957F
:1023F600B095119600F8039400FA0895E89477FFD3
:1024060002C09EDF689497FF0BC00024A095B0958C
:10241600809590951196801D901D00F8039400FA02
:102426000895ED91FC9111970895AE17BF078607A1
:10243600970708955A934A933A932A931A930A93BD
:1024460008955D814C813B812A8119810881089517
:00000001FF
