:040000000C948404D4
:100004000C9400000C9400000C9400000C9400006C
:100014000C9400000C9400000C9400000C9400005C
:100024000C9400000C9400000C9400000C9400004C
:100034000C9400000C9400000C9400000C94920E9C
:100044000C9400000C94500A0C9400000C948A0A3E
:100054000C9400000C9400000C9400000C9400001C
:100064000C9400000C9400000C9400000C9400000C
:100074000C9400000C94CA0A0C9400000C94F50A29
:100084000C9400000C94000000000000000000002C
:10009400000000000000000000000000000000005C
:1000A400000000000000000000000000000000004C
:1000B400000000000000000000000000000000003C
:1000C40001800180000000000000018003C007E0FF
:1000D40006600C300C3018181818300C300C600600
:1000E40060067FFE7FFE000000007FFE7FFE60064C
:1000F4006006300C300C181818180C300C300660E0
:1001040007E003C001800000000007E00C3018186D
:10011400181818181818181818181818181818185B
:100124000C3007E00000000000000180038007801D
:1001340001800180018001800180018001800180B3
:10014400018003C000000000000007E00C30181814
:10015400100800180030006000C001800300060091
:100164000C181FF800000000000007E00810100839
:100174001008001000E000300018000800081818EB
:100184000C3007E00000000000000030007000F0B8
:1001940001B0033006300C3018301FF80030003046
:1001A400003000780000000000000FF80FF0080095
:1001B400100010001FE00030001800180018181874
:1001C4001C300FE000000000000003E006100C00EB
:1001D400080018001FE01C301818181818181818F0
:1001E4000C3007E00000000000001FF81018001099
:1001F4000020002000400040008000800100010039
:100204000200020000000000000007E00C300810AB
:1002140008100C3007E00C301818181818181818A3
:100224000C3007E000000000000007E00C30181854
:10023400181818180C3807F80018001000200020AF
:1002440000C00300000000000000000000000000E7
:10025400000000000000000000000000000000009A
:100264000000000000000000000001800180018007
:1002740001800180018001800180018001800000F3
:100284000180018000000000000000600080010087
:100294000200020004000400040002000200010045
:1002A40000800060000000000000060001000080E3
:1002B400004000400020002000200040004000805A
:1002C4000100060000000000000000000008001803
:1002D4000030006000C00180030006000C0018001C
:1002E40010000000000000000000000001800180F8
:1002F4000180018001803FFC3FFC0180018001807E
:1003040001800180000000000000000000000000E7
:100314000000000000003FFC3FFC00000000000063
:100324000000000000000000000000000000018048
:100334000180000000000000000000000180018036
:10034400000000000000000000000030006000C059
:100354000180030006000C0006000300018000C0B9
:1003640000600030000000000000000000000000F9
:100374000FF00FF00000000000000FF00FF000007D
:10038400000000000000000000000C000600030054
:10039400018000C000600030006000C001800300E4
:1003A40006000C0000000000000003C006600C30D2
:1003B4000C300430006000C0018001800180000026
:1003C4000180018000000000000000E000E0012046
:1003D400012002300210041004180FF81818100C31
:1003E400300C781E0000000000007FFE301E30023A
:1003F400300030003FF83FFC300E30063006300E3F
:100404003FFC7FF80000000000007FF03018300C43
:10041400300C30183FF83FFC300E30063006300EFA
:100424003FFC7FF80000000000007FFE301E300219
:100434003000300030003000300030003000300038
:100444003000780000000000000003FC01180118CF
:1004540001180118011801180218041808183FFCA3
:10046400383C300C2004000000007FFC301C3004B9
:10047400300030803F803F803080300030003004D6
:10048400301C7FFC00000000000063C6518A118804
:100494000990099007E007E00DB019981188318C94
:1004A400218463C60000000000000FE03838600CAF
:1004B4000004000C03F80008000400060006600CA9
:1004C4003FF80FE0000000000000781E300C301CE4
:1004D400303C306C30CC318C330C360C3C0C380C4A
:1004E400300C781E0000000003C0799E300C301CD4
:1004F400303C306C30CC318C330C360C3C0C380C2A
:10050400300C781E000000000000783C306C30C0D5
:10051400318033003F00398030C0306030303018D3
:10052400300C781E00000000000001FE008C008CDE
:10053400008C008C010C010C010C020C020C040C4C
:10054400680C701E000000000000700E381C381C7F
:10055400342C342C342C324C324C324C318C318C83
:10056400318C781E000000000000781E300C300C26
:10057400300C300C3FFC3FFC300C300C300C300C99
:10058400300C781E00000000000007E01E78381CC4
:10059400300C700E700E700E700E700E300C381C15
:1005A4001E7807E00000000000007FFE3FFC300CD6
:1005B400300C300C300C300C300C300C300C300C57
:1005C400300C781E0000000000007FF8300C30066C
:1005D40030063006300C3FF8300030003000300078
:1005E4003000780000000000000007E01E78381C8E
:1005F4003004700070007000700070003004381C0B
:100604001E7807E00000000000007FFE6186418242
:1006140001800180018001800180018001800180CE
:10062400018003C0000000000000780E30041804AC
:100634000C0806080310019000E0006000400C4024
:100644000C80070000000000000003C001800FF0D0
:10065400399C6186418241826186399C0FF0018018
:10066400018003C0000000000000781E3004180858
:100674000C1006200340018002C0046008301018EA
:10068400200C781E000000000000781E300C300C96
:10069400300C300C300C300C300C300C300C300C76
:1006A400300C7FFE000600020000781E300C300C77
:1006B400300C300C380C1FFC000C000C000C000C2F
:1006C400000C001E0000000000007BDE318C318C29
:1006D400318C318C318C318C318C318C318C318C2E
:1006E400318C7FFE0000000000007BDE318C318CF9
:1006F400318C318C318C318C318C318C318C318C0E
:10070400318C7FFE0006000200007C005800580077
:100714005800180018001FF8180C180618061806B8
:10072400180C3FF8000000000000781E300C300C5C
:10073400300C300C300C3F8C304C302C302C302CA6
:10074400304C7F9E00000000000078003000300034
:100754003000300030003FF8300C300630063006F0
:10076400300C7FF800000000000007E01E78381C01
:10077400300C000E000E00FE000E000E300C381C73
:100784001E7807E000000000000079F8330C320402
:100794003606360636063E06360636063606320473
:1007A400330C79F800000000000003FE060C0C0C6A
:1007B4000C0C0C0C060C03FC030C060C0C0C180C97
:1007C400300C781E000000001027E80364000A00C3
:1007D400010000100001100001000000F8FF5A00A1
:1007E4005A003200202020202000CCC5CDDE00207D
:1007F400202B0020202D00CFC0D3C7C000202020F4
:100804002020202020202020202020202000CDC0B7
:10081400CFD0DFC6C5CDC8C500D4C0C700D2CECAAC
:1008240000CDC0CFD0DFC6C5CDC8C520C820D2CE2C
:10083400CA00C2CEC7C1D3C6C4C5CDC8DF00C3D6A3
:1008440000C4C5D1CACECC00D1D2C0D0D2000100E0
:100854000200DE0706000005E80706000605E807B3
:1008640006000C05E80706001205E8070500180550
:10087400EE0704001D05F30704002105F707060031
:100884002505FB0711002B05010811003C05010893
:100894000B004D051208040058051D0804005C05F2
:1008A4002108040060051D081100640525080C00DA
:1008B4007505360802002B07E00705002D07E2073F
:1008C4000D00810505080D008E05050803009B0534
:1008D400420807009E0545080700A50545080700CE
:1008E400AC0545080700B3050B080700BA050B085B
:1008F4000700C1050B080600C8054C080600CE0514
:10090400FB070000F894EE27ECBBF1E0F5BFE5BF70
:10091400E0936C00F8E1F1BDE1BD8DE0A2E0BB27FE
:10092400ED938A95E9F780E090E1A0E0B1E0ED93E2
:100934000197E9F7E2E5F8E085919591009761F078
:10094400A591B59105901590BF01F00105900D9208
:100954000197E1F7FB01F0CF8BBFEFEFEDBFE0E1D3
:10096400EEBFC0E0D5E00C94A80EEFEFEABBE4BB09
:10097400E1B3E06EE1BBE2B1E06AE2B908950E943E
:10098400F70FF595E795E575AE2FE881EE0FEA7A56
:10099400EA2BE8830E94F70F0E943713E373AE2F0C
:1009A400E881EE0FEE0FEC7CEA2BE8830E94F70F50
:1009B4000E943313EF70AE2FE881E295E07FEA2BBB
:1009C400E88323C095981D9A0E94FA0F1D980E94EF
:1009D400FA0F1D9A959A0E94FA0F0895959A97987E
:1009E4000E94001000001F98969800001F9A969A83
:1009F40000000BC0959A979A0E94001000001F985F
:100A0400969800001F9A969A0000219608951A93CA
:100A14000A931A810B81959A979A1BBB05BB000018
:100A24001F98969800001F9A969A000019810881D1
:100A3400249608959ADFC6DF0E9408100E940810C9
:100A44000E9408100E940C10E2EEEA93C7DFE3E272
:100A5400EA93D0DFE2E00E941210E0EE0E94191047
:100A64000E942010E0EE0E9426100E940810E8E781
:100A7400F0E00E942D10E6EE0E941910EAEDEA93D0
:100A8400B9DFE3E7EA93B6DFE0EBEA93A7DFE4E25A
:100A94000E9431100E943810EFED0E943C10EFE0EC
:100AA4000E943110E4EB0E942610E4E80E94311009
:100AB400EAE5EA939FDFEAE00E943110E8E00E9451
:100AC4003110E6EB0E941910ECE20E943110ECE0C8
:100AD400EA9390DFEAE0EA938DDFE0E00E941210EF
:100AE400EAEBEA937BDFEFE0EA9384DFE8EBEA9357
:100AF40075DFE7E00E943C10E6E30E942610ECEB71
:100B0400EA936CDFE0E5EA9375DFE0E9EA9372DFEC
:100B1400E0E50E943C10E0EF0E942610E5E0F0E0E2
:100B24000E942D10E9E2EA9359DFE0EDEA9356DFE3
:100B3400EDE0EA935FDF0895EAE2EA934FDFEF81A5
:100B4400EA9358DFEE81EA9355DFED81EA9352DFB1
:100B5400EC81EA934FDFEBE2EA9340DFEB81EA9327
:100B640049DFEA81EA9346DFE981EA9343DFE881DA
:100B7400EA9340DF289608950E94E613E8E2EA9398
:100B84002DDF0E944010EFEDF1E00E944510EFE0F0
:100B9400F1E00E94481000E010E00031E1E01E079F
:100BA40080F420E030E0203EE1E03E0738F4EC81C0
:100BB400FD810E9450102F5F3F4FF5CF0F5F1F4FF5
:100BC400ECCFE9E2EA930ADF0E94ED13269608953A
:100BD4001A930A930E945410AA85BB8550961197C4
:100BE400BA93AA930E945910AC85BD85509611976B
:100BF400BA93AA93A1DFECE2EA93F0DE10E010329C
:100C0400E8F400E00830C0F4E12FAA85BB85F0E0E9
:100C1400EA0FFB1F1490E02FA0E80E942B13E121A0
:100C2400E13018F0EC81FD8102C0EA81FB81FA9386
:100C3400EA93EDDE0F5FE6CF1F5FE1CF19810881F4
:100C440032C30E945E10E033A0E0FA0719F4ECE02E
:100C5400F1E08EC1E133A0E0FA0719F4ECE2F1E02F
:100C640087C1E233A0E0FA0719F4ECE4F1E080C1B3
:100C7400E333A0E0FA0719F4ECE6F1E079C1E433D8
:100C8400A0E0FA0719F4ECE8F1E072C1E533A0E062
:100C9400FA0719F4ECEAF1E06BC1E633A0E0FA07D5
:100CA40019F4ECECF1E064C1E733A0E0FA0719F4BD
:100CB400ECEEF1E05DC1E833A0E0FA0719F4ECE0F2
:100CC400F2E056C1E933A0E0FA0719F4ECE2F2E0ED
:100CD4004FC1E132A0E0FA0719F4ECE6F2E048C1B2
:100CE400E832A0E0FA0719F4ECE8F2E041C1E93295
:100CF400A0E0FA0719F4ECEAF2E03AC1EF32A0E01E
:100D0400FA0719F4ECECF2E033C1EA33A0E0FA0795
:100D140019F4ECE2F3E02CC1EC33A0E0FA0719F487
:100D2400ECE4F3E025C1ED33A0E0FA0719F4ECE6B6
:100D3400F3E01EC1EE33A0E0FA0719F4ECE8F3E0A7
:100D440017C1EF33A0E0FA0719F4ECEAF3E010C19D
:100D5400EB32A0E0FA0719F4ECEEF2E009C1ED324F
:100D6400A0E0FA0719F4ECE0F3E002C1E03CA0E0F3
:100D7400FA0719F4ECECF3E0FBC0E13CA0E0FA075D
:100D840019F4ECEEF3E0F4C0E23CA0E0FA0719F445
:100D9400ECE0F4E0EDC0E33CA0E0FA0719F4ECE287
:100DA400F4E0E6C0E43CA0E0FA0719F4ECE4F4E073
:100DB400DFC0E53CA0E0FA0719F4ECE6F4E0D8C0A3
:100DC400E63CA0E0FA0719F4ECE8F4E0D1C0E73C13
:100DD400A0E0FA0719F4ECEAF4E0CAC0E83CA0E0A9
:100DE400FA0719F4ECECF4E0C3C0E93CA0E0FA071C
:100DF40019F4ECEEF4E0BCC0EA3CA0E0FA0719F404
:100E0400ECE0F5E0B5C0EB3CA0E0FA0719F4ECE245
:100E1400F5E0AEC0EC3CA0E0FA0719F4ECE4F5E030
:100E2400A7C0ED3CA0E0FA0719F4ECE6F5E0A0C099
:100E3400EE3CA0E0FA0719F4ECE8F5E099C0EF3CC9
:100E4400A0E0FA0719F4ECEAF5E092C0E03DA0E076
:100E5400FA0719F4ECECF5E08BC0E13DA0E0FA07E9
:100E640019F4ECEEF5E084C0E23DA0E0FA0719F4D1
:100E7400ECE0F6E07DC0E33DA0E0FA0719F4ECE213
:100E8400F6E076C0E43DA0E0FA0719F4ECE4F6E0FD
:100E94006FC0E53DA0E0FA0719F4ECE6F6E068C09F
:100EA400E63DA0E0FA0719F4ECE8F6E061C0E73D9E
:100EB400A0E0FA0719F4ECEAF6E05AC0E83DA0E035
:100EC400FA0719F4ECECF6E053C0E93DA0E0FA07A8
:100ED40019F4ECEEF6E04CC0EA3DA0E0FA0719F490
:100EE400ECE0F7E045C0EB3DA0E0FA0719F4ECE2D2
:100EF400F7E03EC0EC3DA0E0FA0719F4ECE4F7E0BB
:100F040037C0ED3DA0E0FA0719F4ECE6F7E030C095
:100F1400EE3DA0E0FA0719F4ECE8F7E029C0EF3D54
:100F2400A0E0FA0719F4ECEAF7E022C0EE32A0E000
:100F3400FA0719F4ECEAF0E01BC0E032A0E0FA078B
:100F440019F4ECE4F2E014C0E130A0E0FA0719F47B
:100F5400ECECF0E00DC0E230A0E0FA0719F4ECEE9E
:100F6400F0E006C0E330A0E0FA0769F4ECE8F0E052
:100F7400FA93EA930E9454100E9454100E94541051
:100F84000E94541025DE29960895A885B985EC9110
:100F9400E03099F0ED91A887B987EA930E94611037
:100FA4000E9461100E9461100E9461104ADEEE816D
:100FB400FF817096EE83FF83E8CF2A960895EC8133
:100FC400F0E0E530A0E0FA0799F4A985BA85E0E1FC
:100FD400F7E20E9466100E9454100E9461100E9461
:100FE40061100E946B10E0E1F7E20E94701004C0EF
:100FF400E430A0E0FA0799F4A985BA85E8EEF3E0B5
:101004000E9466100E9454100E9461100E94611098
:101014000E946B10E8EEF3E00E94701004C0E3300D
:10102400A0E0FA0799F4A985BA85E4E6F0E00E9405
:1010340066100E9454100E9461100E9461100E9468
:101044006B10E4E6F0E00E94701004C0E230A0E00F
:10105400FA0799F4A985BA85EAE0F0E00E946610DF
:101064000E9454100E9461100E9461100E946B1033
:10107400EAE0F0E00E94701004C0E130A0E0FA075A
:1010840061F4E985E05DEA930E9454100E945410D3
:101094000E9461100E946110D4DD2B9608950E9475
:1010A4007A100E948C1012F40E9496100E949D10D7
:1010B40022F40E94AD100E94B2100E94BD100E9442
:1010C400D0103CF4EA85FB850E9450100E94D81091
:1010D400F6CF05C12A970E94E413A98DBA8DEF8932
:1010E400F88DEA1BFB0BAF01552332F4FA01AFEF85
:1010F400BFEF0E946913AF01AD89BE89EB89FC89FA
:10110400EA1BFB0BEE87FF87AF85AA2332F4AFEF10
:10111400BFEF0E946913EE87FF87EF89F88DA98DD1
:10112400BA8DAE17BF0718F4E1E0F0E002C0EFEFAC
:10113400FFEFEC87FD87EB89FC89AD89BE89AE178B
:10114400BF0718F4E1E0F0E002C0EFEFFFEFEA8739
:10115400FB87AE85BF85FA01EA1BFB0BE887F9879D
:10116400E98DFA8DFA93EA93EA890E94E510FA93DD
:10117400EA93E98DFA8DFA93EA93EE890E94E510D9
:101184000E944810A889BB27E889F0E00E946913EF
:101194009F0100E010E0201731073CF0E989FA894B
:1011A4000E9450100F5F1F4FF6CFEF89F88DA98D65
:1011B400BA8DEA17FB0739F4EB89FC89AD89BE893E
:1011C400EA17FB0709F001C032C0E885F985EE0F84
:1011D400FF1FEE83FF83EE85FF850E941F13AE8100
:1011E400BF81EA17FB0774F4AE85BF850E94EB103C
:1011F400E887F987EC85FD85A98DBA8DEA0FFB1F79
:10120400E98FFA8FAE81BF81A417B5077CF4FA0188
:10121400A885B985EA0FFB1FE887F987EA85FB856E
:10122400AD89BE89EA0FFB1FED8BFE8B99CF0E941F
:10123400EB136B9608950E9459100E9459100E9456
:101244005910E885F9850E94F0100E94541027DF98
:101254000E945910EC81FD810E94F0100E945910E7
:101264000E9459100E9454101ADF0E9459100E94C3
:101274005910AE81BF810E94EB10FA93EA930E9449
:1012840059100E9454100BDFAA81BB810E94EB10FD
:10129400FA93EA930E9459100E9459100E9459101F
:1012A4000E945410FCDE2C9608950E947A100E942D
:1012B4008C1012F40E9496100E949D1022F40E9439
:1012C400AD100E94B2100E94BD100E94D0103CF4D8
:1012D400EA85FB850E9450100E94D810F6CF198130
:1012E400088164960895129A139808951A930A939C
:1012F4001A980E942010E3ED0E94F7109CC01A93E4
:101304000A931A980E942010E3E90E94F71093C0F0
:101314001A98E5E0F0E00E942D10E0E9EA930E94BB
:10132400F00F80E991E00197F1F7E0E0EA930E9481
:10133400F00FE0E0EA930E94F00F1A9A08951A93CE
:101344000A93D4DFE451F5408F01112312F400E035
:1013540010E00E941011E5E5F5ED65E772E40E94E6
:10136400181169C01A930A93CADFE453F8408F0135
:10137400112312F400E010E00E941011EEE1FEE9E6
:101384006EEC72E40E94181156C01A930A9310E08E
:10139400A0E00B99A1E0A13010F00C941C0A0E946B
:1013A4001F110E94291100E0003160F49FDFE45115
:1013B400F5400E943311A3DFE453F8400E94481122
:1013C4000F5FF2CFA091D705AA2312F40E941F1138
:1013D400A091DB05AA2312F40E942911E091D405FF
:1013E400F091D5056091D6057091D7050E94A7129A
:1013F400DF01CB01E5E5F5ED65E774E40E94D51264
:101404000E946E122F01E091D805F091D9056091E8
:10141400DA057091DB050E94A712DF01CB01EEE132
:10142400FEE96EEC74E40E94D5120E946E123F0134
:101434006FDF11E0E12F0991199108951A9353DF99
:101444001A981B9885E38A95F1F71A9A1B9A0E94B9
:101454001F110E94291110E0103140F470DF0E9426
:10146400331180DF0E9448111F5FF6CFA091D4058D
:10147400B091D5058091D6059091D7050E945D1154
:101484002F01A091D805B091D9058091DA059091EA
:10149400DB050E945D113F013BDF40C40E946411E3
:1014A4001A930A931BB10CB1E12FEC71B1F4ED2D39
:1014B400D394F0E0E452FA4F0083EAEFED1509F417
:1014C400DD24A091D606AF5FA093D606AA3F29F4E7
:1014D400E0E0E093D606689420F8099119919FC042
:1014E4001A93E091D606E030E1F3EC2DC394F0E0DA
:1014F400E452FA4F1081EAEFEC1509F4CC24F89485
:10150400E091D606E150E093D6067894E12F06C424
:101514000E946411E091E106E03099F0E150E0931B
:10152400E106E091E006EF5FE093E0060E946A11B5
:10153400E081ECB9A091E006A83019F4E0E0E09372
:10154400E0066DC0A091E106A830E1F3F894E091C3
:10155400E106E03011F45D9916C0E091DF06EF5F1B
:10156400E093DF060E946A11A881A083A091DF06A0
:10157400A83019F4E0E0E093DF06E091E106EF5FC4
:10158400E093E10602C0E881ECB9789421960895CD
:101594000E9464111A930A9310919B0000919C007D
:1015A400E12FEC71E9F4E0910207EF5FE0930207A9
:1015B400E150F0E0EE51F94F0083A0910207A03210
:1015C40019F4E0E0E0930207A0910407AF5FA09351
:1015D4000407A03229F4E0E0E0930407689421F8BA
:1015E400099119911CC00E946411E0912707E03011
:1015F400B1F0E150E0932707E0912607EF5FE09315
:101604002607E150F0E0EB5FF84FE081E0939C00A7
:10161400A0912607A03219F4E0E0E0932607E991AF
:10162400EFBFF991E991A9911895EC81F0E0E130CF
:10163400A0E0FA0779F4E0E0F5E0FA93EA93E0E158
:10164400F0E00E946F110E9454100E947611E0E1B4
:10165400F0E038C0E230A0E0FA0779F4E6E0F5E023
:10166400FA93EA93E8E8F0E00E946F110E945410A4
:101674000E947611E8E8F0E025C0E330A0E0FA0724
:1016840079F4ECE0F5E0FA93EA93E0E0F1E00E940B
:101694006F110E9454100E947611E0E0F1E012C034
:1016A400E430A0E0FA07C9F4E2E1F5E0FA93EA9342
:1016B400E8E7F1E00E946F110E9454100E94761135
:1016C400E8E7F1E0FA93EA93E7EFF0E0FA93EA93BC
:1016D4000E9454100E94541058DC04C1E6E0F0E06B
:1016E400FA93EA93EAE6F0E00E947D11EEE7F0E077
:1016F400FA93EA93E2EEF0E00E947D11E6EFF0E067
:10170400FA93EA93EAE5F1E00E947D11EEE6F1E056
:10171400FA93EA93E2EDF1E00E947D11E7E0F0E054
:10172400FA93EA93E9E6F0E00E948D1184DDEFE795
:10173400F0E0FA93EA93E1EEF0E00E948D117BDD94
:10174400E7EFF0E0FA93EA93E9E5F1E00E948D1106
:1017540072DDEFE6F1E0FA93EA93E1EDF1E00E9445
:101764008D1169DDE8E1F5E0FA93EA93E1E0EA93AB
:101774000E9440100E949A11EDE1F5E0FA93EA9379
:10178400E2E0EA930E9440100E949A11E1E2F5E03F
:10179400FA93EA93E3E0EA930E9440100E949A11BC
:1017A400E5E2F5E00E94A0110E949A1108951A93AF
:1017B40010E0EBDDE03011F40C942C0CE6E0F0E0EA
:1017C400E415F50528F4EAE6F0E04E165F0608F0A5
:1017D40008C00E94A51118F40E94AA1108F001C0C3
:1017E40011E0EEE7F0E0E415F50528F4E2EEF0E0B0
:1017F4004E165F0608F008C00E94A51118F40E9456
:10180400AA1108F001C012E0E6EFF0E0E415F505D6
:1018140028F4EAE5F1E04E165F0608F008C00E94DD
:10182400A51118F40E94AA1108F001C013E0EEE615
:10183400F1E0E415F50528F4E2EDF1E04E165F065B
:1018440008F008C00E94A51118F40E94AA1108F01B
:1018540001C014E0E12F62C20E94E6130EE110E021
:1018640020E130E0EBE2F5E00E94AF110E94B411F8
:101874008CDBECE3F5E00E94AF110E94B91185DB2B
:10188400EE810E94C01151F4EDE4F5E00E94AF1125
:101894000E94B4117ADBE8E5F5E01BC0E130A0E07A
:1018A400FA0751F4ECE5F5E00E94AF110E94B4117F
:1018B4006CDBE0E6F5E00DC0E230A0E0FA0781F46D
:1018C400E4E6F5E00E94AF110E94B4115EDBE5E7A7
:1018D400F5E0FA93EA931A930A930E94B91155DB3F
:1018E4000E94ED13279608950E94E41302E211E08A
:1018F40020E130E048EF50E0E1E8F5E00E94AF116C
:101904000E94C31142DBEEE8F5E00E94AF11F90139
:101914007096FA93EA930E94C81137DBA0912907C5
:10192400A23049F1EF810E94CB110E94CD110E9497
:10193400D2110E945E100E94AF110E94CD110E942C
:10194400D211E9850E94CB110E94CD1138DB02E649
:1019540011E0205F3F4FEE810E94CB110E94CD1118
:101964000E94D211EBE9F5E00E94AF110E94C3116D
:101974000E94C70713C0005C1F4FE9850E94CB116A
:101984000E94CD110E94E107205F3F4F0E945E102C
:101994000E94AF110E94CD110E94E1070E94EB1337
:1019A4002A960895E8EFFFEFE0932B07F0932C07B6
:1019B40008952C97E7E0E883E0EEE983E7E0EA8323
:1019C400EFEFEB83E0E0EC83EFE1ED830E94E413BF
:1019D4000E94D71138968F012EE830E0A0912B0792
:1019E400B0912C07A03EE1E0BE070CF014C1003E0C
:1019F400E1E01E0714F00FED11E0EC89F0E0EC8754
:101A0400FD87EB89F0E0EE87FF87EA89F0E0E88B59
:101A1400F98BA0912C07AA2312F40C94540D0E9464
:101A2400D711FA93EA93F8013296FA93EA93E4E32E
:101A3400F0E0FA93EA93E9EEF0E00E94451035DC19
:101A44000E94DC113A932A933A932A930E94DE115E
:101A5400F901BD96FA93EA93F901BD960E94E51146
:101A6400F901BD97FA93EA93F901BD970E94E51134
:101A7400F901E65AFF4FFA93EA93F901E65AFF4F48
:101A84000E94E511F901EA55F040FA93EA93F9014D
:101A9400EA55F040FA93EA93E8E0F1E2FA93EA9324
:101AA4000E94510850E0533010F00C94060E0E942E
:101AB400E811EA0FFB1FBF010E94E8110E94EF1119
:101AC400A0E8B0E00E94D813EA1BFB0BDB01ED9306
:101AD400FC930E94E811EA0FFB1FBF0100801180F4
:101AE4000E94F411D0010E946913DB01ED93FC9371
:101AF4000E94E8110E94FC110E9435130E943313C6
:101B0400FE93EE930E94E8110E94EF11F17039F0F8
:101B14000E94E8110E94FC11FF6FFE93EE930E9455
:101B2400E8110E94FC11E20FF31FFE93EE93A091C3
:101B34002907A230A9F40E94E811EA0FFB1FBF0194
:101B440000801180A52FB0E0119719F4EDE2F0E0C8
:101B540002C0E3EDFFEFE00DF11DDB01ED93FC931B
:101B64000E94E8110E94EF11E93EA0E0FA0744F058
:101B74000E94E811AE0FBF1FE8EEF0E0ED93FC9376
:101B84000E94E8110E94EF11F49744F40E94E811B6
:101B9400AE0FBF1FE4E3F0E0ED93FC93A0912C079C
:101BA400AA23E2F00E94DC110E9401120E94EF11AC
:101BB4000E940812DE015296EE0FFF1F0E94EF11E1
:101BC4000E940812DE011E96EE0FFF1F0E94EF1105
:101BD400FA93EA93E2E0EA930E946C080E940112ED
:101BE400EA0FFB1F0F010E94E8110E94EF11D001C0
:101BF400ED93FC93A0912907A23011F4513009F020
:101C040001C002C05F5F4FCF0E94D7113896E093A6
:101C14002B07F0932C070E94EB13659608951A93F3
:101C2400A0912A07A03021F4A091D606A93008F487
:101C34003EC0E1E0E0932A0753DC1E2FE091290720
:101C4400F0E0E230A0E0FA0741F40E940D120E9495
:101C54000D120E941312E0E00CC0E130A0E0FA077C
:101C640019F40E940D1202C0309731F40E9413122D
:101C740037DCEA931A9338DE95DEE091D606E0303D
:101C840011F02EDCFACFE09129070E94C01111F463
:101C9400E5E50BC0E130A0E0FA0711F4E9E405C082
:101CA400E230A0E0FA0719F4EAE5EA934BDCA091EC
:101CB4002A07A130D9F4A0912907A23020F4A091D9
:101CC400D606A33008F404C00E94131209DC0CC029
:101CD400A0912907A23021F4A091D606A23008F4DD
:101CE40005C00E941312E0E0EA9363DEA091390775
:101CF400B0913A07AD3DE5E0BE0780F0E0E0E09347
:101D04003907E0933A07E0932A07E091D606E030DA
:101D140011F0E6DBFACFE3E5EA9314DC19910895B8
:101D2400AA93BA93EA93FA93EFB7EA93E6E0E2BF91
:101D3400A9E3B7E0ED91FD913196FE93EE93E9911D
:101D4400EFBFF991E991B991A9911895E0E0EBBB46
:101D5400EABBE0E8E8BBE7E8E7BBE0E0E5BBE4BBFF
:101D6400E2BBE0E1E1BBE3B9E2B9E0E0E0936200A9
:101D7400E0936100E0936500E0936400E0BFE4E079
:101D8400E3BFE6E0E2BFE0E0E1BFEFBDEEBDEDBDE5
:101D9400ECBDE7BDE6BDEBBDEABDE9BDE8BDE09342
:101DA4007900E0937800E5BDE4BDE3BDE0938B00EA
:101DB400E0938A00E0938900E0938800E093810037
:101DC400E0938000E0938700E0938600E093850031
:101DD400E0938400E0938300E0938200E0936A0040
:101DE400EABFE9BFE1E0E7BFE0E0E0937D00EBB9E3
:101DF400E8EDEAB9E6E0E0939500E0E0E0939000D6
:101E0400E8E0E9B9E0E0E0939B00E8EDE0939A00B4
:101E1400E6E0E0939D00E0E0E0939800E7E6E093DD
:101E24009900E0E8E8B9E0E0E0BDE6B9E2E5EDB943
:101E3400E0E0EEB9E093740078940E941C050E94DF
:101E4400200A0E9440100E94BE05EEE9F5E00E94BF
:101E54001A12E0E7F0E0FA93EA93E8EFF0E00E9468
:101E640045100E94C707C7980E940C10E5EAF5E0E8
:101E74000E941A12E0E8F0E0FA93EA93E0E0FFE14E
:101E84000E9445100E942112ECEAF5E00E941A1209
:101E9400E0E9F0E0FA93EA93E7E0F0EE0E944510FF
:101EA4000E942112E3EBF5E00E941A12E0E7F0E051
:101EB4000E9445100E9440100E942112EAEBF5E0B6
:101EC4000E941A12E0E8F0E00E9445100E944010BF
:101ED4000E942112E1ECF5E00E941A12E0E9F0E020
:101EE4000E9445100E9440100E94C707F7DBA89586
:101EF4000E942412A895E09128070E94C01111F0B5
:101F04000C94C30F8CDE53DCE13069F4A0912907F3
:101F1400AF5FA0932907A33018F0E0E0E09329070E
:101F24000E94241229C0E23071F40E94F411E83CAA
:101F3400A0E0FA073CF40E942D123A96FE93EE9329
:101F44000E94FA0F1DC0E33061F40E94F4117597EA
:101F54003CF00E942D123A97FE93EE930E94FA0FE2
:101F64000FC0E43069F4E8ECE0932807E8ECF5E00E
:101F74000E94A0110E949A11EAEFF0E00E942D1035
:101F84002BC0E330A0E0FA0739F1E83CA0E0FA07FF
:101F9400B9F40DDCE13099F0E23089F0E33079F006
:101FA400E43069F4E0E0E0932807EEECF5E00E9409
:101FB400A0110E949A11EAEFF0E00E942D100CC0CB
:101FC400EA3FA0E0FA0741F40E94C709E13020F09B
:101FD400E0E0E0932807C7988DCFFFCFE881EFB901
:101FE400779BFECFEFB121960895E881F0E0089544
:101FF400E4E6F0E0FA93EA930C943512E881EA936C
:102004000E94C104EBBBE0E0E5BB0895E1E0EA9384
:102014000C94F004E8ECF0E0FA93EA930C94351293
:10202400EA930E94FC04E4E0EA930C94FC04EA932F
:102034000E94F004E1E0EA930C94FC04E1E0F0E097
:10204400FA93EA930C943512EA930E94F004E3E0C5
:10205400EA930C94FC04FA93EA930C943512EA93F1
:102064000E94FC04E0E0EA930C94FC04E1E0EA93AF
:102074000C94FC04EA930E94FC04F8CFE0E0F0E046
:10208400FA93EA930895FA93EA93F8CFFA93EA93CA
:102094000E949E05ECE2EA930C94F004FA93EA930E
:1020A4000C940905E885F985FA93EA930895EA857D
:1020B400FB85FA93EA930895E885F0E00895EF81AB
:1020C400F885FA93EA9308950E947313E05DEA9306
:1020D400E9CF0E942306A985BA8508950E94B0130A
:1020E400E987FA87EF81F8857096EF83F88708957A
:1020F40028971A930A93EA89FB89FA93EA93EA895F
:10210400FB89FA93EA93EA89FB89FA93EA93EA89C9
:10211400FB89BCCFAA89BB89E889F989EA1BFB0B37
:1021240031968F0111230895F801AFEFBFEF0E949C
:1021340069138F010895AE85BF85EC85FD85EA1B83
:10214400FB0B319666277727EA83FB836C837D83B9
:10215400AD81AA230895EA81FB816C817D81089574
:10216400AFEFBFEF8FEF9FEF0E946E13EA83FB8305
:102174006C837D830895F801AA81BB818C819D8144
:102184000E943C130E946E13EA83FB836C837D835D
:10219400E0E0EE83EF83E887E9870895DCDFAE8132
:1021A400BF81888599850E94DF130895EE81FF81A0
:1021B40068857985EF5FFF4F6F4F7F4FEE83FF8315
:1021C400688779870895F0E0AB8DBC8DEA0FFB1F1B
:1021D4000895E885F985EA1BFB0B0895AC85BD8558
:1021E400EA0FFB1FFA93EA930895EA930E94F00F13
:1021F40080E991E00197F1F7E0E0EA930E94F00FA3
:102204000E2F1127102F0027E0E0EA930E94F00F11
:10221400F0E00E0F1F1F1A9AF8010895F8010E94AA
:102224003C130E94A712DF01CB0108950E94D5122E
:102234000E9470128F01F8010895E0E0E093D40544
:10224400E093D505E093D605E093D7050895E0E043
:10225400E093D805E093D905E093DA05E093DB0534
:102264000895A091D405B091D5058091D60590919B
:10227400D705662777270E941A13E093D405F093B5
:10228400D5056093D6057093D7050895A091D80518
:10229400B091D9058091DA059091DB0566277727FF
:1022A4000E941A13E093D805F093D9056093DA05D8
:1022B4007093DB050895E0E1F0E060E070E00E94D7
:1022C400AB130895AA93EA93FA93EFB7EA930895A8
:1022D400E150F0E0E952F94F0895FA93EA93E7EFF9
:1022E400F0E0FA93EA93DECE0E94C707ED81FE8107
:1022F400FA93EA930895FA93EA93E0EFF0E0FA93FD
:10230400EA93EEE0F1E0FA93EA93EFEFFFEFFA934A
:10231400EA930C945709FA93EA93E1EFF0E0FA9305
:10232400EA93EDE0F1E0FA93EA93E1E0F0E0ABCE7A
:10233400EFEFFFEFFA93EA930C94170BFA93EA93F7
:10234400E4E0EA939BCEE0EFF0E0E615F7050895AC
:10235400EEE0F1E06E167F060895FA93EA931A937D
:102364000A9308953A932A93EA85FB858CCEF90162
:102374007096FA93EA93EA85FB8585CEF0E0309770
:1023840008953A932A935A934A9378CE5A934A9348
:1023940075CEF0E0E2CF3A932A93E3E0EA93F6CFE6
:1023A4000E94E107005C1F4F0895E0912B07F09114
:1023B4002C070895FADFD1CFE8E0F1E2FA93EA932B
:1023C4000E945108F7CFFA93EA93F6CFE52FF0E095
:1023D400DE011C96EE0FFF1F0895AE0FBF1F0E9473
:1023E400D4130895E0912907ADE2B7E0F0E0EE0FD1
:1023F400FF1FF3CFAE0FBF1FED91FD910895E52FA1
:10240400A3E3B7E0F0E0EE0FFF1F0895FA93EA9319
:10241400E52FF0E008950E94720A0E94720A0C945B
:10242400720A0E94720AEA930E94720AEA93089559
:10243400FA93EA93E0ECF0E0FA93EA9308950E94A9
:10244400C707E8CDE0912907EA93E8EFF0E0FA93B3
:10245400EA930C942E0CE0912907ADE2B7E0F0E08A
:10246400EE0FFF1FC7CFE991F991309639F080EA5A
:102474009FE00197F1F7A8953197C9F7089555237F
:1024840042F4503811F4E0FF04C03196691F791FFB
:102494006BF050E8572711F45F9373C05F3F31F03E
:1024A400660F000C57956795752F08955F9300206C
:1024B4000AF073C06CC050E8192E1522880F991FBA
:1024C4009527550F879550E8072E0522660F771F2D
:1024D4007527550F67950895689401C0E8945F9334
:1024E400F2DF703818F07F3F08F44BC056E1571BF9
:1024F400AAF4519558300EF4593030F0EFEFFFEF55
:102504006FEF7FE777F91AC077275523B9F0EE0FFD
:10251400FF1F661F771F5A95D1F710C077275830D1
:1025240028F0EF2FF62F672F5850F9CF552331F0AD
:1025340076956795F795E7955A95D1F700200AF4B3
:1025440080D05F910895689401C0E894309760400A
:102554007040B1F0002426F0772312F4009471D077
:10256400172E7EE1112032F07A95EE0FFF1F661FC1
:10257400111CF9CFEF2FF62F612D5F938ADF5F9146
:102584000895EE27FF27662777275F910895EFEFD9
:10259400FFEF6FE77FEF5F910895EFEFFFEF6FE7D6
:1025A4007FE75F9108955F9386DF703821F41120EF
:1025B4000AF4EDCFF2CF903809F4E3CF0124089464
:1025C400970B1BF4D4F30020F3CF792F1F932F9391
:1025D4003F934F931124112722273327442755274C
:1025E40090E2AE17BF078607410730F0AE1BBF0B62
:1025F400860B410B089401C08894551F221F331F7A
:10260400111CAA1FBB1F881F441F9A9551F7F9017B
:10261400612D4F913F912F911F91662332F0550FF9
:10262400EE1FFF1F661F7A9543F229DF5F9108951D
:10263400EA0FFB1F681F791F0895F195E195F0409B
:102644000895F09560957095E195FF4F6F4F7F4F1A
:102654000895EE230E2EEA2F19F0E6950A94E9F771
:102664000895F595E795F595E795F595E795F5952D
:10267400E79508956F2F660F660B762F0895FA9FDE
:10268400F02DEB9FF00DEA9FE02DF10D08957A9F58
:10269400702D6B9F700DF89F700DE99F700D6A9FF0
:1026A400602D710DFB9F600D711DE89F600D711D04
:1026B4008827FA9FF02D610D781FEB9FF00D611DA7
:1026C400781FEA9FE02DF10D681F781F089549D007
:1026D400D6DF0EF4B2DF089552D0D9DF0EF4B1DFA5
:1026E40008950024112490E1AA0FBB1F001C111CA3
:1026F4000E1A1F0A18F40E0E1F1E01C0A1609A952F
:1027040099F7FD01D00108953F934F935F930024FF
:1027140011244427552730E2AA0FBB1F881F991F95
:10272400001C111C441F551F0E1A1F0A460B570B81
:1027340028F40E0E1F1E461F571F01C0A1603A95B4
:1027440059F7FD01BC01D001CA015F914F913F913E
:10275400089515D0D9DF0EF474DF0895C2DFFD01AA
:102764000895E894F7FF02C068DF6894B7FF06C0D5
:10277400A095B095119600F8039400FA0895E89492
:1027840077FF02C05EDF689497FF0BC00024A0951A
:10279400B095809590951196801D901D00F8039436
:1027A40000FA0895ED91FC91119708951B2EBF2F07
:1027B400F12D1A2EAE2FE12D0895AE17BF0786070F
:1027C400970708955A934A933A932A931A930A932C
:1027D40008955D814C813B812A8119810881089586
:00000001FF
