:020000000C945E
:10000200FE040C9400000C9400000C9400000C946C
:1000120000000C9400000C9400000C9400000C945E
:1000220000000C9400000C9400000C9400000C944E
:1000320000000C9400000C9400000C9400000C943E
:10004200B80C0C9400000C94C80A0C9400000C9498
:100052003A0B0C9400000C9400000C9400000C94D9
:1000620000000C9400000C9400000C9400000C940E
:1000720000000C9400000C94810B0C9400000C9472
:10008200AC0B0C9400000C94000000000000000077
:10009200000000000000000000000000000000005E
:1000A200000000000000000000000000000000004E
:1000B200000000000000000000000000000000003E
:1000C200000001800180000000000000018003C0E8
:1000D20007E006600C300C3018181818300C300C81
:1000E200600660067FFE7FFE000000007FFE7FFE4E
:1000F20060066006300C300C181818180C300C30E2
:10010200066007E003C001800000000007E00C3039
:10011200181818181818181818181818181818185D
:1001220018180C3007E00000000000000180038076
:1001320007800180018001800180018001800180AF
:100142000180018003C000000000000007E00C30C5
:100152001818100800180030006000C00180030069
:1001620006000C181FF800000000000007E008104D
:1001720010081008001000E0003000180008000805
:1001820018180C3007E0000000000000003000707A
:1001920000F001B0033006300C3018301FF8003088
:1001A2000030003000780000000000000FF80FF06F
:1001B2000800100010001FE000300018001800189E
:1001C20018181C300FE000000000000003E00610C9
:1001D2000C00080018001FE01C3018181818181816
:1001E20018180C3007E00000000000001FF810187B
:1001F200001000200020004000400080008001002C
:1002020001000200020000000000000007E00C30C4
:10021200081008100C3007E00C30181818181818BD
:1002220018180C3007E000000000000007E00C3056
:100232001818181818180C3807F8001800100020A1
:10024200002000C0030000000000000000000000C9
:10025200000000000000000000000000000000009C
:10026200000000000000000000000000018001808A
:100272000180018001800180018001800180018074
:10028200000001800180000000000000006000808A
:100292000100020002000400040004000200020047
:1002A2000100008000600000000000000600010064
:1002B200008000400040002000200020004000405C
:1002C200008001000600000000000000000000089D
:1002D20000180030006000C00180030006000C001E
:1002E2001800100000000000000000000000018063
:1002F20001800180018001803FFC3FFC0180018080
:100302000180018001800000000000000000000068
:1003120000000000000000003FFC3FFC0000000065
:1003220000000000000000000000000000000000CB
:100332000180018000000000000000000000018038
:10034200018000000000000000000000003000609A
:1003520000C00180030006000C00060003000180BB
:1003620000C000600030000000000000000000003B
:1003720000000FF00FF00000000000000FF00FF07F
:100382000000000000000000000000000C00060059
:100392000300018000C000600030006000C00180E6
:1003A200030006000C0000000000000003C006600D
:1003B2000C300C300430006000C0018001800180EC
:1003C20000000180018000000000000000E000E069
:1003D2000120012002300210041004180FF818182E
:1003E200100C300C781E0000000000007FFE301E52
:1003F2003002300030003FF83FFC300E300630064D
:10040200300E3FFC7FF80000000000007FF0301843
:10041200300C300C30183FF83FFC300E30063006FE
:10042200300E3FFC7FF80000000000007FFE301E0F
:100432003002300030003000300030003000300038
:1004420030003000780000000000000003FC0118BA
:1004520001180118011801180118021804180818C7
:100462003FFC383C300C2004000000007FFC301CB4
:100472003004300030803F803F80308030003000D8
:100482003004301C7FFC00000000000063C6518A6B
:1004920011880990099007E007E00DB019981188BA
:1004A200318C218463C60000000000000FE0383860
:1004B200600C0004000C03F80008000400060006AB
:1004C200600C3FF80FE0000000000000781E300CC6
:1004D200301C303C306C30CC318C330C360C3C0C44
:1004E200380C300C781E0000000003C0799E300CDE
:1004F200301C303C306C30CC318C330C360C3C0C24
:10050200380C300C781E000000000000783C306C83
:1005120030C0318033003F00398030C0306030302D
:100522003018300C781E00000000000001FE008C24
:10053200008C008C008C010C010C010C020C020CD2
:10054200040C680C701E000000000000700E381CC5
:10055200381C342C342C342C324C324C324C318CEE
:10056200318C318C781E000000000000781E300CA7
:10057200300C300C300C3FFC3FFC300C300C300C9B
:10058200300C300C781E00000000000007E01E78DE
:10059200381C300C700E700E700E700E700E300C17
:1005A200381C1E7807E00000000000007FFE3FFCC0
:1005B200300C300C300C300C300C300C300C300C59
:1005C200300C300C781E0000000000007FF8300C68
:1005D200300630063006300C3FF830003000300074
:1005E20030003000780000000000000007E01E78B4
:1005F200381C30047000700070007000700030040D
:10060200381C1E7807E00000000000007FFE6186B3
:10061200418201800180018001800180018001808E
:100622000180018003C0000000000000780E300449
:1006320018040C0806080310019000E00060004056
:100642000C400C80070000000000000003C0018085
:100652000FF0399C6186418241826186399C0FF09C
:100662000180018003C0000000000000781E3004F9
:1006720018080C1006200340018002C004600830F4
:100682001018200C781E000000000000781E300CAC
:10069200300C300C300C300C300C300C300C300C78
:1006A200300C300C7FFE000600020000781E300C79
:1006B200300C300C300C380C1FFC000C000C000C01
:1006C200000C000C001E0000000000007BDE318CDC
:1006D200318C318C318C318C318C318C318C318C30
:1006E200318C318C7FFE0000000000007BDE318CFB
:1006F200318C318C318C318C318C318C318C318C10
:10070200318C318C7FFE0006000200007C00580014
:1007120058005800180018001FF8180C1806180680
:100722001806180C3FF8000000000000781E300C7C
:10073200300C300C300C300C3F8C304C302C302CC8
:10074200302C304C7F9E000000000000780030000A
:1007520030003000300030003FF8300C30063006F8
:100762003006300C7FF800000000000007E01E7821
:10077200381C300C000E000E00FE000E000E300C75
:10078200381C1E7807E000000000000079F8330CE6
:1007920032043606360636063E0636063606360675
:1007A2003204330C79F800000000000003FE060C4E
:1007B2000C0C0C0C0C0C060C03FC030C060C0C0CA5
:1007C200180C300C781E000000000A000A000A0013
:1007D20005000500050005000500050005000500EF
:1007E20001001400140014000500050005000500B6
:1007F20005000500050005000000DC00DC00DC004F
:100802005802580258025802580258025802580216
:1008120001005A005A002D00640064006400640064
:10082200640064006400640000001027E8036400B0
:100832000A00010000100001100001000000FAFF90
:10084200202020202000D1CBC5C40020202B002056
:10085200202D00CFC0D3C7C0002020202020202080
:1008620020202020202020202000CDC0CFD0DFC695
:10087200C5CDC8C500D4C0C700D2CECA00CDC0CF36
:10088200D0DFC6C5CDC8C520C820D2CECA00C2CED0
:10089200C7C1D3C6C4C5CDC8DF00CEC1CD00C0CC50
:1008A200CF00CFC5D00020CACD0020CAD200CACD09
:1008B200D200C1DBD1D2C0D6CF00C3D600CDE0EF8B
:1008C200F0F3E3F320F3E1E0E2FC200A00CDE0EFF5
:1008D200F0F3E3E820EFF0E8E1E0E2FC200A00CFE9
:1008E200EEE4E4E0E920EEE1EEF0EEF2EEE2200AE0
:1008F20000CDE520E3EEEDE82C20EFEEECE5E4EBB5
:10090200E5EDEDE5E5200A00CCC5CDDE00CDC0C7A2
:10091200C0C400C4C5D1CACECC00010002003E084A
:1009220006000005420806000605420806000C05FE
:10093200420806001205420805001805480804008E
:100942001D054D080400210551080600250555081E
:1009520002009807400811002B055B0811003C05B6
:100962005B080B004D056C0804005805770804006D
:100972005C057B08040060057708110064057F08A8
:100982000C0075059008040081059C08040085058B
:10099200A00804008905A40804008D05A808040025
:1009A2009105AC0804009505B00808009905B40843
:1009B2000D00A1055F080D00AE055F080300BB0531
:1009C200BC080500BE050A090600C3050F0906009A
:1009D200C90555080700CF0515090700D6051509F1
:1009E2000700DD0515090700E40565080700EB05AA
:1009F20065080700F20565080000F894EE27ECBBD5
:100A0200F1E0F5BFE5BFE0936C00F8E1F1BDE1BDB7
:100A12008DE0A2E0BB27ED938A95E9F780E090E1B3
:100A2200A0E0B1E0ED930197E9F7ECE1F9E08591FF
:100A32009591009761F0A591B59105901590BF0130
:100A4200F00105900D920197E1F7FB01F0CF8BBF0A
:100A5200EFEFEDBFE0E1EEBFC0E0D5E00C9406148D
:100A6200EFEFEABBE4BBE1B3E06EE1BBE2B1E06A07
:100A7200E2B908950E946516F595E795E575AE2FE2
:100A8200E881EE0FEA7AEA2BE8830E9465160E945B
:100A9200DE1AE373AE2FE881EE0FEE0FEC7CEA2B49
:100AA200E8830E9465160E94DA1AEF70AE2FE88181
:100AB200E295E07FEA2BE88323C095981D9A0E9475
:100AC20068161D980E9468161D9A959A0E946816CB
:100AD2000895959A97980E946E1600001F9896980E
:100AE20000001F9A969A00000BC0959A979A0E944E
:100AF2006E1600001F98969800001F9A969A0000A2
:100B0200219608951A930A931A810B81959A979ABE
:100B12001BBB05BB00001F98969800001F9A969A6F
:100B2200000019810881249608959ADFC6DF0E9489
:100B320076160E9476160E9476160E947A16E2EEC9
:100B4200EA93C7DFE3E2EA93D0DFE2E00E94801695
:100B5200E0EE0E9487160E948E16E0EE0E94941626
:100B62000E947616E8E7F0E00E949B16E6EE0E94ED
:100B72008716EAEDEA93B9DFE3E7EA93B6DFE0EB43
:100B8200EA93A7DFE4E20E949F160E94A616EFED09
:100B92000E94AA16EFE00E949F16E4EB0E949416B0
:100BA200E4E80E949F16EAE5EA939FDFEAE00E94EA
:100BB2009F16E8E00E949F16E6EB0E948716ECE281
:100BC2000E949F16ECE0EA9390DFEAE0EA938DDF61
:100BD200E0E00E948016EAEBEA937BDFEFE0EA9323
:100BE20084DFE8EBEA9375DFE7E00E94AA16E6E30A
:100BF2000E949416ECEBEA936CDFE0E5EA9375DF72
:100C0200E0E9EA9372DFE0E50E94AA16E0EF0E94B3
:100C12009416E5E0F0E00E949B16E9E2EA9359DFC0
:100C2200E0EDEA9356DFEDE0EA935FDF0895EAE252
:100C3200EA934FDFEF81EA9358DFEE81EA9355DFC3
:100C4200ED81EA9352DFEC81EA934FDFEBE2EA9324
:100C520040DFEB81EA9349DFEA81EA9346DFE981EB
:100C6200EA9343DFE881EA9340DF289608950E94E1
:100C7200BD1BE8E2EA932DDF0E94AE16EFEDF1E034
:100C82000E94B316EFE0F1E00E94B61600E010E019
:100C92000031E1E01E0780F420E030E0203EE1E098
:100CA2003E0738F4EC81FD810E94BE162F5F3F4F54
:100CB200F5CF0F5F1F4FECCFE9E2EA930ADF0E9404
:100CC200C41B269608951A930A930E94C216AA85F7
:100CD200BB8550961197BA93AA930E94C716AC850A
:100CE200BD8550961197BA93AA93A1DFECE2EA93DD
:100CF200F0DE10E01032E8F400E00830C0F4E12F3A
:100D0200AA85BB85F0E0EA0FFB1F1490E02FA0E854
:100D12000E94D21AE121E13018F0EC81FD8102C07B
:100D2200EA81FB81FA93EA93EDDE0F5FE6CF1F5F64
:100D3200E1CF1981088132C30E94CC16E033A0E0D2
:100D4200FA0719F4ECE0F1E08EC1E133A0E0FA0712
:100D520019F4ECE2F1E087C1E233A0E0FA0719F4FA
:100D6200ECE4F1E080C1E333A0E0FA0719F4ECE629
:100D7200F1E079C1E433A0E0FA0719F4ECE8F1E01C
:100D820072C1E533A0E0FA0719F4ECEAF1E06BC1B5
:100D9200E633A0E0FA0719F4ECECF1E064C1E733C2
:100DA200A0E0FA0719F4ECEEF1E05DC1E833A0E04F
:100DB200FA0719F4ECE0F2E056C1E933A0E0FA07D1
:100DC20019F4ECE2F2E04FC1E132A0E0FA0719F4C3
:100DD200ECE6F2E048C1E832A0E0FA0719F4ECE8E8
:100DE200F2E041C1E932A0E0FA0719F4ECEAF2E0DC
:100DF2003AC1EF32A0E0FA0719F4ECECF2E033C1A9
:100E0200EA33A0E0FA0719F4ECE2F3E02CC1EC3388
:100E1200A0E0FA0719F4ECE4F3E025C1ED33A0E019
:100E2200FA0719F4ECE6F3E01EC1EE33A0E0FA078C
:100E320019F4ECE8F3E017C1EF33A0E0FA0719F474
:100E4200ECEAF3E010C1EB32A0E0FA0719F4ECEEA1
:100E5200F2E009C1ED32A0E0FA0719F4ECE0F3E0A8
:100E620002C1E03CA0E0FA0719F4ECECF3E0FBC0AD
:100E7200E13CA0E0FA0719F4ECEEF3E0F4C0E23C46
:100E8200A0E0FA0719F4ECE0F4E0EDC0E33CA0E0E6
:100E9200FA0719F4ECE2F4E0E6C0E43CA0E0FA0759
:100EA20019F4ECE4F4E0DFC0E53CA0E0FA0719F441
:100EB200ECE6F4E0D8C0E63CA0E0FA0719F4ECE86E
:100EC200F4E0D1C0E73CA0E0FA0719F4ECEAF4E060
:100ED200CAC0E83CA0E0FA0719F4ECECF4E0C3C0A5
:100EE200E93CA0E0FA0719F4ECEEF4E0BCC0EA3CFD
:100EF200A0E0FA0719F4ECE0F5E0B5C0EB3CA0E0A5
:100F0200FA0719F4ECE2F5E0AEC0EC3CA0E0FA0717
:100F120019F4ECE4F5E0A7C0ED3CA0E0FA0719F4FF
:100F2200ECE6F5E0A0C0EE3CA0E0FA0719F4ECE82C
:100F3200F5E099C0EF3CA0E0FA0719F4ECEAF5E01D
:100F420092C0E03DA0E0FA0719F4ECECF5E08BC0AA
:100F5200E13DA0E0FA0719F4ECEEF5E084C0E23DD1
:100F6200A0E0FA0719F4ECE0F6E07DC0E33DA0E072
:100F7200FA0719F4ECE2F6E076C0E43DA0E0FA07E5
:100F820019F4ECE4F6E06FC0E53DA0E0FA0719F4CD
:100F9200ECE6F6E068C0E63DA0E0FA0719F4ECE8FA
:100FA200F6E061C0E73DA0E0FA0719F4ECEAF6E0EA
:100FB2005AC0E83DA0E0FA0719F4ECECF6E053C0A1
:100FC200E93DA0E0FA0719F4ECEEF6E04CC0EA3D88
:100FD200A0E0FA0719F4ECE0F7E045C0EB3DA0E031
:100FE200FA0719F4ECE2F7E03EC0EC3DA0E0FA07A4
:100FF20019F4ECE4F7E037C0ED3DA0E0FA0719F48C
:10100200ECE6F7E030C0EE3DA0E0FA0719F4ECE8B8
:10101200F7E029C0EF3DA0E0FA0719F4ECEAF7E0A7
:1010220022C0EE32A0E0FA0719F4ECEAF0E01BC0AD
:10103200E032A0E0FA0719F4ECE4F2E014C0E13087
:10104200A0E0FA0719F4ECECF0E00DC0E230A0E009
:10105200FA0719F4ECEEF0E006C0E330A0E0FA077C
:1010620069F4ECE8F0E0FA93EA930E94C2160E9457
:10107200C2160E94C2160E94C21625DE2996089543
:10108200A885B985EC91E03099F0ED91A887B987F0
:10109200EA930E94CF160E94CF160E94CF160E949A
:1010A200CF164ADEEE81FF817096EE83FF83E8CF92
:1010B2002A960895EC81F0E0E530A0E0FA0799F471
:1010C200A985BA85E0E1F7E20E94D4160E94C21611
:1010D2000E94CF160E94CF160E94D916E0E1F7E2D5
:1010E2000E94DE1604C0E430A0E0FA0799F4A98554
:1010F200BA85E8EEF3E00E94D4160E94C2160E945E
:10110200CF160E94CF160E94D916E8EEF3E00E9495
:10111200DE1604C0E330A0E0FA0799F4A985BA8587
:10112200E4E6F0E00E94D4160E94C2160E94CF1696
:101132000E94CF160E94D916E4E6F0E00E94DE1665
:1011420004C0E230A0E0FA0799F4A985BA85EAE082
:10115200F0E00E94D4160E94C2160E94CF160E948E
:10116200CF160E94D916EAE0F0E00E94DE1604C013
:10117200E130A0E0FA0761F4E985E05DEA930E94BC
:10118200C2160E94C2160E94CF160E94CF16D4DD4C
:101192002B9608950E94E8160E94FA1612F40E94F5
:1011A20004170E940B1722F40E941B170E9420179B
:1011B2000E942B170E943E173CF4EA85FB850E9491
:1011C200BE160E944617F6CF05C12A970E94BB1B86
:1011D200A98DBA8DEF89F88DEA1BFB0BAF01552360
:1011E20032F4FA01AFEFBFEF0E94101BAF01AD89DD
:1011F200BE89EB89FC89EA1BFB0BEE87FF87AF8573
:10120200AA2332F4AFEFBFEF0E94101BEE87FF87D5
:10121200EF89F88DA98DBA8DAE17BF0718F4E1E0FA
:10122200F0E002C0EFEFFFEFEC87FD87EB89FC896E
:10123200AD89BE89AE17BF0718F4E1E0F0E002C045
:10124200EFEFFFEFEA87FB87AE85BF85FA01EA1B66
:10125200FB0BE887F987E98DFA8DFA93EA93EA891D
:101262000E945317FA93EA93E98DFA8DFA93EA935F
:10127200EE890E9453170E94B616A889BB27E889F7
:10128200F0E00E94101B9F0100E010E020173107E0
:101292003CF0E989FA890E94BE160F5F1F4FF6CF14
:1012A200EF89F88DA98DBA8DEA17FB0739F4EB891E
:1012B200FC89AD89BE89EA17FB0709F001C032C07B
:1012C200E885F985EE0FFF1FEE83FF83EE85FF852C
:1012D2000E94C61AAE81BF81EA17FB0774F4AE857D
:1012E200BF850E945917E887F987EC85FD85A98D8E
:1012F200BA8DEA0FFB1FE98FFA8FAE81BF81A41767
:10130200B5077CF4FA01A885B985EA0FFB1FE887C7
:10131200F987EA85FB85AD89BE89EA0FFB1FED8B54
:10132200FE8B99CF0E94C21B6B9608950E94C7162E
:101332000E94C7160E94C716E885F9850E945E17AB
:101342000E94C21627DF0E94C716EC81FD810E940F
:101352005E170E94C7160E94C7160E94C2161ADFA5
:101362000E94C7160E94C716AE81BF810E945917FC
:10137200FA93EA930E94C7160E94C2160BDFAA8153
:10138200BB810E945917FA93EA930E94C7160E94E2
:10139200C7160E94C7160E94C216FCDE2C9608953C
:1013A2000E94E8160E94FA1612F40E9404170E9484
:1013B2000B1722F40E941B170E9420170E942B1762
:1013C2000E943E173CF4EA85FB850E94BE160E94ED
:1013D2004617F6CF1981088164960895129A1398D8
:1013E20008951A930A931A980E948E16E3ED0E94AA
:1013F20065179AC01A930A931A980E948E16E3E907
:101402000E94651791C01A98E5E0F0E00E949B16D1
:10141200E0E9EA930E94E51480E991E00197F1F78F
:10142200E0E0EA930E94E514E0E0EA930E94E5140A
:101432001A9A08951A930A93D4DFE451F5408F0162
:10144200112312F400E010E00E947E17E5E5F5EDAD
:1014520065E772E40E94861767C01A930A93CADF8F
:10146200E453F8408F01112312F400E010E00E94CF
:101472007E17EEE1FEE96EEC72E40E94861754C01C
:101482001A930A9310E00E948D1710F00C94940A9C
:101492000E9492170E949C1700E0003160F4A1DFC5
:1014A200E451F5400E94A617A5DFE453F8400E94DC
:1014B200BB170F5FF2CFA091FC05AA2312F40E9482
:1014C2009217A0910006AA2312F40E949C17E091A1
:1014D200F905F091FA056091FB057091FC050E94F7
:1014E2004A1ADF01CB01E5E5F5ED65E774E40E94F8
:1014F200781A0E94111A2F01E091FD05F091FE0564
:101502006091FF05709100060E944A1ADF01CB012B
:10151200EEE1FEE96EEC74E40E94781A0E94111A60
:101522003F0171DF11E0E12F0991199108951A939A
:1015320055DF1A981B9885E38A95F1F71A9A1B9A38
:101542000E9492170E949C1710E0103140F472DF43
:101552000E94A61782DF0E94BB171F5FF6CFA091E1
:10156200F905B091FA058091FB059091FC050E9466
:10157200D0172F01A091FD05B091FE058091FF05C6
:10158200909100060E94D0173F013DDF79C2EA9395
:10159200FA93EFB7EA931A930A931BB10CB1E12FB6
:1015A200EC71A1F5E0911606E03081F0ED2DD394B7
:1015B200F0E0EF5FF94F0083E4E1ED1509F4DD247B
:1015C200E0911506EF5FE093150620C020FC1EC0D7
:1015D200E0911707EF5FE09317070E94D717008388
:1015E200E0911907EF5FE0931907E03079F468940E
:1015F20020F8EFEFE0931907E0911707E03011F0C0
:10160200E15002C0E0911907E0931707099119917F
:10161200E991EFBFF991E99118951A93E0911907B1
:10162200E030E1F3E0911807EF5FE09318070E94C2
:10163200D7171081F894E0911907E150E093190748
:1016420078941DC21A93E0911506E030E1F3EC2D77
:10165200C394F0E0EF5FF94F1081E4E1EC1509F477
:10166200CC24F894E0911506E150E09315067894A5
:1016720006C20E94DC17E0912407E03099F0E150A5
:10168200E0932407E0912307EF5FE09323070E9492
:10169200E217E081ECB9A0912307A83019F4E0E049
:1016A200E093230774C0A0912407A830E1F3F894D3
:1016B200E0912407E03011F45D9916C0E091220711
:1016C200EF5FE09322070E94E217A881A083A09116
:1016D2002207A83019F4E0E0E0932207E091240702
:1016E200EF5FE093240702C0E881ECB978947EC0F2
:1016F200E0E00E94E7177AC0E2E00E94E71776C0B6
:101702000E94DC171A930A9310919B0000919C008F
:10171200E12FEC71E9F4E0914507EF5FE0934507B3
:101722000E94ED17EB5DF84F0083A0914507A032B0
:1017320019F4E0E0E0934507A0914707AF5FA0935B
:101742004707A03229F4E0E0E0934707689421F8C4
:10175200099119911CC00E94DC17E0918A07E030C0
:10176200B1F0E150E0938A07E0918907EF5FE093DF
:1017720089070E94ED17E85BF84FE081E0939C0037
:10178200A0918907A03419F4E0E0E0938907E99178
:10179200EFBFF991E991A9911895A0918A07A03418
:1017A200E1F3F894E0918A07E03021F4E0919B00A4
:1017B200E072C1F4E0918807EF5FE09388070E942E
:1017C200ED17E85BF84FA881A083A0918807A034A9
:1017D20019F4E0E0E0938807E0918A07EF5FE09375
:1017E2008A0703C0E881E0939C00789421960895CB
:1017F200EC810E94F01779F4E0E0F5E0FA93EA93C5
:10180200E0E1F0E00E94F5170E94C2160E94FC1768
:10181200E0E1F0E038C0E230A0E0FA0779F4E6E077
:10182200F5E0FA93EA93E8E8F0E00E94F5170E94E7
:10183200C2160E94FC17E8E8F0E025C0E330A0E001
:10184200FA0779F4ECE0F5E0FA93EA93E0E0F1E0EC
:101852000E94F5170E94C2160E94FC17E0E0F1E018
:1018620012C0E430A0E0FA07D1F4E2E1F5E0FA9325
:10187200EA93E8E7F1E00E94F5170E94C2160E947F
:10188200FC17E8E7F1E0FA93EA93E7EFF0E0FA9366
:10189200EA930E94C2160E94C2160E944108B8C270
:1018A200E6E0F0E0FA93EA93EAE6F0E00E94031839
:1018B200EEE7F0E0FA93EA93E2EEF0E00E9403181A
:1018C200E6EFF0E0FA93EA93EAE5F1E00E9403180A
:1018D200EEE6F1E0FA93EA93E2EDF1E00E940318FA
:1018E200E7E0F0E0FA93EA93E9E6F0E00E941318E9
:1018F2001DDDEFE7F0E0FA93EA93E1EEF0E00E94FB
:10190200131814DDE7EFF0E0FA93EA93E9E5F1E06A
:101912000E9413180BDDEFE6F1E0FA93EA93E1ED92
:10192200F1E00E94131802DDE8E1F5E0FA93EA9390
:10193200E1E0EA930E94AE160E942018EDE1F5E084
:101942000E9426180E94AE160E942018E1E2F5E0DD
:10195200FA93EA93E3E0EA930E94AE160E942018FB
:10196200E5E2F5E00E942B180E9420180895AA9340
:10197200BA93EA93FA93EFB7EA93E6E0E2BF0E94E2
:101982003018AF3FE0E0BE0720F4A0E9B7E00E94C4
:101992003518A2E9B7E00E943518A4E9B7E00E9421
:1019A2003518E991EFBFF991E991B991A99118958B
:1019B2001A9310E00E943018D39718F061DDE030DE
:1019C20009F45DC0E6E0F0E0E415F50528F4EAE686
:1019D200F0E04E165F0608F00EC00E943B1848F475
:1019E2000E94401830F40E943018A739E0E0BE0788
:1019F20008F401C011E0EEE7F0E0E415F50528F483
:101A0200E2EEF0E04E165F0608F008C00E943B18B6
:101A120018F40E94401808F001C012E0E6EFF0E06E
:101A2200E415F50528F4EAE5F1E04E165F0608F044
:101A320008C00E943B1818F40E94401808F001C028
:101A420013E0EEE6F1E0E415F50528F4E2EDF1E04D
:101A52004E165F0608F00EC00E943B1848F40E9422
:101A6200401830F40E943018A739E0E0BE0708F4AD
:101A720001C014E0E0E0E0939007E0939107E12FCA
:101A8200199108950E94BD1B00E110E026E030E0AC
:101A9200EBE2F5E00E9445180E944A180E944108B4
:101AA200ECE3F5E00E9445180E944F180E9441089D
:101AB200EE810E94561889F4EDE4F5E00E94451883
:101AC2000E944A180E944108E8E5F5E00E94451884
:101AD2000E944F180E94410899C1E130A0E0FA0724
:101AE20089F4ECE5F5E00E9445180E944A180E942C
:101AF2004108E0E6F5E00E9445180E944F180E9456
:101B0200410884C1E230A0E0FA0789F4E4E6F5E096
:101B12000E9445180E944A180E944108E5E7F5E034
:101B22000E9445180E944F180E9441086FC1E5307B
:101B3200A0E0FA0721F0E630A0E0FA0709F406C0B7
:101B4200E730A0E0FA0711F00C94120EE1E8F5E09C
:101B52000E9445180E944A180E944108E5E8F5E0F3
:101B62000E9445180E944F180E94410800E510E0AB
:101B7200E0919607F09197070E9445183A932A93AD
:101B8200E4E0EA93EB85FC850E94B3160E945B08B1
:101B9200005A1F4FE9E8F5E00E9445180E944A18D2
:101BA2000E944108005C1F4FE0E020FCE1E00E943F
:101BB20059180E945B180E94B3160E946218E091A5
:101BC200A007F091A1070E9445180E946918159775
:101BD20019F4E8E0F1E202C0E0E0F0E00E947418DB
:101BE200E091A207F091A3070E9445180E9469188C
:101BF200169719F4E8E0F1E202C0E0E0F0E00E949A
:101C02007418E091A407F091A5070E9445180E945C
:101C12006918179719F4E8E0F1E202C0E0E0F0E099
:101C2200F1C0E830A0E0FA0721F0E930A0E0FA07BD
:101C320009F404C0EA30A0E0FA0709F404C0EB306A
:101C4200A0E0FA0709F404C0EC30A0E0FA0709F4B6
:101C520006C0ED30A0E0FA0711F00C94A90EEDE8F1
:101C6200F5E00E9445180E944A180E944108E1E9E5
:101C7200F5E00E9445180E944F180E94410800E5B5
:101C820010E0E091A607F091A7070E9445180E9474
:101C92006918189719F4E8E0F1E202C0E0E0F0E018
:101CA2000E947418E091A807F091A9070E944518B4
:101CB2000E946918199719F4E8E0F1E202C0E0E025
:101CC200F0E00E947418E091AA07F091AB070E941D
:101CD20045180E9469181A9719F4E8E0F1E202C067
:101CE200E0E0F0E0FA93EA930E946218E091AC0718
:101CF200F091AD070E9445180E9469181B9719F4CC
:101D0200E8E0F1E202C0E0E0F0E00E947418E09145
:101D1200AE07F091AF070E9445180E9469181C9700
:101D220019F4E8E0F1E202C0E0E0F0E00E94741889
:101D3200E091B007F091B1070E9445180E9469181E
:101D42001D9719F4E8E0F1E202C0E0E0F0E05AC0C9
:101D5200EE30A0E0FA0721F0EF30A0E0FA0709F434
:101D620006C0E031A0E0FA0711F00C94070FE5E994
:101D7200F5E00E9445180E944A180E944108E9E9CC
:101D8200F5E00E9445180E944F180E944108005C2D
:101D92001F4FE091B207F091B3070E9445180E94CD
:101DA20069181E9719F4E8E0F1E202C0E0E0F0E001
:101DB2000E947418E091B407F091B5070E9445188B
:101DC2000E9469181F9719F4E8E0F1E202C0E0E00E
:101DD200F0E0FA93EA930E945B08205F3F4FE091A4
:101DE200B607F091B7070E9445180E945B18FA9354
:101DF200EA93AF85B0E0509719F4E8E0F1E202C04F
:101E0200E0E0F0E0FA93EA930E945B080E94C41BB0
:101E1200279608950E94BB1B02E211E026E030E003
:101E220048EF50E0E1EAF5E00E9445180E947B1875
:101E32000E944108EEEAF5E00E944518F901709609
:101E4200FA93EA930E9480180E944108A0918C079D
:101E5200A23051F1E9850E9459180E9483180E940C
:101E620088180E94CC160E9445180E9483180E946E
:101E72008818EF810E9459180E9483180E945B08FB
:101E820002E611E0205F3F4FEE810E9459180E9446
:101E920083180E948818EBEBF5E00E9445180E9417
:101EA2007B180E94410813C0005C1F4FE9850E9405
:101EB20059180E9483180E945B08205F3F4F0E94BE
:101EC200CC160E9445180E9483180E945B080E944B
:101ED200C21B2A960895EAEFFFEF0E948D1808951B
:101EE2002C97E0E0E883EFE1E983E7E0EA83EFEFB4
:101EF200EB83E7E0EC83E0EEED830E94BB1B0E94E4
:101F020092183C968F0129E830E00E94971864F0FD
:101F12000E949F18E0911907E03019F00E940E0B01
:101F2200F9CFE0E0E0938E07A0911907A23038F0D4
:101F3200A33020F4A0918C07A23009F412C00E94B1
:101F4200A818A536E0E0BE0760F00E949F18E09155
:101F52001907E03019F00E940E0BF9CFE0E0E09390
:101F62008E07A0918E07A03041F00E948D1720F4B9
:101F72000E943018D39708F401C095C10F3DE1E0EB
:101F82001E0714F00EED11E0A0919907AA2312F496
:101F92000C940F100E949218FA93EA93F801329669
:101FA200FA93EA93EAE2F0E0FA93EA93E9EEF0E0D8
:101FB2000E94B3160E94D1090E94AD183A932A9347
:101FC2003A932A930E94AF18F901BD96FA93EA93C5
:101FD200F901BD960E94B618F901BD97FA93EA93EA
:101FE200F901BD970E94B618F901E65AFF4FFA931C
:101FF200EA93F901E65AFF4F0E94B618F901EA5531
:10200200F040FA93EA93F901EA55F040FA93EA9321
:10201200E8E0F1E2FA93EA930E94CB080E948D175E
:1020220020F40E943018DD9708F401C03CC1A09151
:102032008C07A23011F40C94B41040E0423010F03E
:102042000C94B3100E9497180CF08CC00E94B9181F
:1020520014F00EED11E0A0911907A33050F00E9488
:102062008D1730F40E943018A734E0E0BE0708F460
:1020720001C019C10E94C018EC87FD870E94C018D8
:10208200EE87FF870E94C018E88BF98B50E053302F
:1020920010F00C94AC100E94C418EA0FFB1FBF0191
:1020A2000E94C4180E94CB180E94D0180E94DA180D
:1020B2000E94E7180E94EE180E94F3180E94CB18A3
:1020C200F17039F00E94C4180E94EE18FF6FFE935F
:1020D200EE930E94C4180E94EE18E20FF31FFE93C3
:1020E200EE930E94C4180E94CB18E93EA0E0FA07C2
:1020F20024F00E94C4180E94FA180E94C4180E9478
:10210200CB18BA9724F40E94C4180E940119A09116
:102112009907AA2392F00E94AD180E9408190E9402
:10212200CB180E940F190E9414190E940F190E94C5
:1021320019190E9426180E94E6080E940819EA0F3F
:10214200FB1F0F010E94C4180E94CB18D001ED930F
:10215200FC935F5F9CCF0E94921836960E948D1866
:102162004F5F6CCFA0C040E0423010F00C9454118D
:102172000E9497180CF097C00E94B91814F00EED47
:1021820011E0A0911907A23050F00E948D1730F48F
:102192000E943018A734E0E0BE0708F401C083C0F3
:1021A2000E94C018EC87FD870E94C018EE87FF8747
:1021B20050E0523010F00C944D110E94C418EA0FF6
:1021C200FB1FBF010E94C4180E94CB180E94D018A6
:1021D2000E94DA180E94E7180E94EE180E94F31873
:1021E2000E94CB18F17039F00E94C4180E94EE18B8
:1021F200FF6FFE93EE930E94C418EA0FFB1FBF010C
:1022020000801180A52FB0E0119719F4EDE2F0E003
:1022120002C0E3EDFFEFE20FF31FE00DF11DDB0162
:10222200ED93FC930E94C4180E94CB18E93EA0E0F3
:10223200FA0724F00E94C4180E94FA180E94C418D7
:102242000E94CB18BA9724F40E94C4180E94011964
:10225200A0919907AA2392F00E94AD180E94081932
:102262000E94CB180E940F190E9414190E940F1984
:102272000E9419190E9426180E94E6080E94081955
:10228200EA0FFB1F0F010E94C4180E94CB18D00155
:10229200ED93FC935F5F8DCF0E94921836960E9459
:1022A2008D184F5F61CF0E94C21B62960895949A67
:1022B200AA81AF3620F0EFEBF8E00E941E19AA8146
:1022C200AA3520F4EFECF8E00E941E19A881A2338F
:1022D20020F4E1EEF8E00E941E19A881A33320F059
:1022E200E3EFF8E00E941E1907C2A881A330B0F004
:1022F200EBE4EA930E94540B0E94651633970E9406
:102302002519AE0FBF1FEC910E9425190E94CB1810
:10231200EF2FF0E0EA930E94540B0EC0E8810E9476
:102322002F19EA0FFB1F0F01E8810E9435190E9445
:10233200CB18D0010E949D1B0C94EA140E94BD1B75
:10234200E0918D070E94561811F00C94FE11A09195
:102352009207B0919307AD32E1E0BE07B0F0A091D1
:102362008D07A23090F4E0911506E03019F00E943A
:10237200230BF9CFE3E5EA93BFD9E1E0E0938D07C0
:10238200E0E0E0939207E0939307A0918E07A030DC
:1023920041F4A0918B07A03021F4A0918D07A030C9
:1023A20009F02AC0E0911907E03019F00E940E0BE3
:1023B200F9CFE0918C070E94561811F4E5E50BC0A5
:1023C200E130A0E0FA0711F4E9E405C0E230A0E050
:1023D200FA0721F4EAE5EA930E94790BE2E0E0933E
:1023E2008D07E1E0E0938E0776DDE0E0E09394076D
:1023F200E0939507E89420F86CC0E130A0E0FA077A
:10240200F1F5A0911506A930C8F10E94230B1E2FE9
:102412000E943B190A933A932A931A9348DFE09158
:102422008B07E03009F50E944519E230A0E0FA0777
:1024320069F40E94230B0E94230B0E94230B0E942B
:10244200230B0E2F0E94230B3E2F09C0E130A0E088
:10245200FA0719F40E943B1902C0309729F40A9333
:102462003A932A931A93D6DCE0911506E03019F0DC
:102472000E94230BF9CFE0E0E0938D072AC0E230FF
:10248200A0E0FA0731F5A0918C07A23051F40E9426
:10249200A818A035E0E0BE0720F40E94A8185F97B4
:1024A20008F40EC0A0912407A03029F4A0E020FC7B
:1024B200A1E0A03009F004C0EAE5EA930E94790B9A
:1024C2000E94A818A93CE0E0BE0718F0E0E0E09303
:1024D2008D07E0918B070E94F01761F4E0E0E09332
:1024E2008B07EEEBF5E00E942B180E9420180E9449
:1024F200491904C0309711F00C94D312E0918E0761
:10250200E03009F0EDDC54DAE13069F4A0918C0797
:10251200AF5FA0938C07A33018F0E0E0E0938C0744
:102522000E9449193EC0E230E9F40E9452190E9409
:102532005519ECEFF7E0DF010E9445190E945A1984
:102542006E177F0770F40E945219EA0FFB1FCF012A
:102552000E9461190E945A19E60FF71FDC01ED93E0
:10256200FC931FC0E330C1F40E9452190E94551916
:10257200E4EEF7E0DF010E9445190E945A19E617BE
:10258200F70748F40E945219EA0FFB1F0F010E943D
:1025920061190E94691905C0E43019F4E4E0E0937E
:1025A2008B07A8C0E430A0E0FA07A9F4E5E0E093C5
:1025B2008B07E0E0E0938F07E3ECF5E00E942B1835
:1025C2000E9420180E9476190E94CB18E093B80747
:1025D200F093B90706C0E530A0E0FA0711F00C94B9
:1025E2005413E6D9E13011F50E9485190E94CB18E7
:1025F200A091B807B091B907EA17FB0721F0E09163
:102602008F07EA9372DEA0918F07AF5FA0938F07C7
:10261200AC3018F0E0E0E0938F070E9476190E9438
:10262200CB18E093B807F093B9073CC0E230E1F46D
:102632000E9485190E945519ECEFF7E00E94881953
:102642006E177F0780F40E948519EA0FFB1FCF01E6
:102652000E948D190E945A19E60FF71FDC01ED93B3
:10266200FC930E9495191EC0E330B9F40E948519AB
:102672000E945519E4EEF7E00E948819E617F70761
:1026820058F40E948519EA0FFB1F0F010E948D1951
:102692000E9469190E94951905C0E43019F4E1E01D
:1026A200E0938B0727C0E83CA0E0FA07B9F480D991
:1026B200E13099F0E23089F0E33079F0E43069F406
:1026C200E0E0E0938B07E9ECF5E00E942B180E9412
:1026D2002018EAEFF0E00E949B160CC0EA3FA0E04F
:1026E200FA0741F40E94410AE13020F0E0E0E09371
:1026F2008B07C7980E94C41B249608951A93E7E497
:10270200EA930E947D0BE0E0E0939207E093930747
:10271200E5E0E0938D07A0911506A23140F4A09167
:102722009207B0919307A436E0E0BE0708F001C01B
:10273200F2CF10E01C3010F00C940114133078F436
:10274200E12F0E943519EA0FFB1F0F01E12F0E94B2
:102752002F19AE0FBF1F0E948D1BD00128C0A09160
:102762001506A23030F1E12F0E943519EA0FFB1F46
:10277200FF93EF930E94230BAF91BF91F0E0ED9393
:10278200FC93E12F0E943519EA0FFB1FFF93EF9391
:10279200DF010E947B1BFF93EF930E94230BFE2F0E
:1027A200E0E0AF91BF91EA2BFB2BAF91BF91ED938C
:1027B200FC93E12F0E9435190E945519E4EEF7E0CF
:1027C2000E94A1196E177F0760F0E12F0E94351950
:1027D2000E945519ECEFF7E00E94A119E617F707DE
:1027E20068F4E12F0E943519EA0FFB1FBF01E4E1F3
:1027F200F8E00E94A119DB01ED93FC931F5F9ACFD1
:10280200E0E0E0938D0719910895E0E0EBBBEABBAD
:10281200E0E8E8BBE7E8E7BBE0E0E5BBE4BBE2BB3E
:10282200E0E1E1BBE3B9E2B9E0E0E0936200E0930A
:102832006100E0936500E0936400E0BFE4E0E3BF81
:10284200E6E0E2BFE0E0E1BFEFBDEEBDEDBDECBD15
:10285200E7BDE6BDEBBDEABDE9BDE8BDE0937900A9
:10286200E0937800E5BDE4BDE3BDE0938B00E09327
:102872008A00E0938900E0938800E0938100E0936E
:102882008000E0938700E0938600E0938500E09368
:102892008400E0938300E0938200E0936A00EABF41
:1028A200E9BFE1E0E7BFE0E0E0937D00EBB9E8EDEE
:1028B200EAB9E6E0E0939500E0E0E0939000E8E01A
:1028C200E9B9E0E0E0939B00E8EDE0939A00E6E0EE
:1028D200E0939D00E0E0E0939800E7E6E093990042
:1028E200E0E8E8B9E0E0E0BDE6B9E2E5EDB9E0E054
:1028F200EEB9E093740078940E9496050E94980ABB
:102902000E94AE160E943806EFECF5E00E94A5196F
:10291200E0E7F0E0FA93EA93E8EFF0E00E94B31602
:102922000E944108C7980E947A16E6EDF5E00E94DF
:10293200A519E0E8F0E0FA93EA93E0E0FFE10E94F3
:10294200B3160E94AC19EDEDF5E00E94A519E0E97D
:10295200F0E0FA93EA93E7E0F0EE0E94B3160E94E9
:10296200AC19E4EEF5E00E94A519E0E7F0E00E9460
:10297200B3160E94AE160E94AC19EBEEF5E00E946F
:10298200A519E0E8F0E00E94B3160E94AE160E947C
:10299200AC19E2EFF5E00E94A519E0E9F0E00E942F
:1029A200B3160E94AE160E9441080E94510CE1E04B
:1029B200E0938B07A3DEA895EFE1E1BDEFE0E1BD77
:1029C200A895BCDCFDCFFFCFE881EFB9779BFECFA6
:1029D200EFB121960895EA81EA930E94CE0BA88175
:1029E200B9810E9435182396089526970E94BB1B31
:1029F20010E0AC85BD85E0E0F0E0ED93FC93EA8960
:102A0200FB893196EA8BFB8B3197E4912E2FE030D4
:102A120011F40C942316E12FE03039F4253211F42D
:102A220011E002C00E94AF190CC1E130A9F42532B5
:102A320019F40E94AF1904C112E040E000E02D3207
:102A420011F401E0FEC02B3211F44BE2FAC0203245
:102A520011F440E2F6C002C0E23039F450E013E073
:102A6200203311F40068EDC004C0E33011F00C947F
:102A72002216203310F02A3308F007C0AAE05A9F2A
:102A8200502DE22FE0535E0FDCC0E22FE33649F413
:102A92000E94B819E889F989A481AA930E94BE19F3
:102AA200CFC0E33741F40E94B8190E94C6190E94B0
:102AB20050161E2F0AC0E03761F40E94B8190E9416
:102AC200C6190E945A161E2F086002600F7730E066
:102AD20035C0E43611F0E93611F4046002C0E5377E
:102AE20031F4ECE2F8E0EE83FF8315E00DC0E83547
:102AF20011F4086004C0E83711F00C942116E6E3E3
:102B0200F8E0EE83FF8314E002FF14C00E94B819BC
:102B12000E94D019AB85AA233AF4EA85FB850E946C
:102B2200C61AEA87FB874DE2403011F01F5F01C0F1
:102B32000B7F04C00E94B8190E94D01900FD11C079
:102B4200151778F407FF08C002FF04C00B7F242F7B
:102B5200115001C020E301C020E20E94AF19515080
:102B6200EFCF312F01FF17C03030A1F003FF06C0B5
:102B7200EE81FF812591EE83FF8305C0AE81BF8187
:102B82002D91AE83BF830E94AF19503009F051508E
:102B92003150EACF4BC020E3EE81FF810E947F1BC0
:102BA200E887F987EE81FF813296EE83FF83E8851D
:102BB200F985AA85BB85AE17BF0750F02F5FA885A0
:102BC200B985EA85FB85EA1BFB0BEA87FB87EFCF1A
:102BD2002A3328F003FF02C0295F01C0295D04FDEA
:102BE2001AC0213320F4A885B985119709F409C0C8
:102BF200531710F000FF01C013C020E207FF0BC003
:102C020020E3006102FF07C00B7F4A930E94BE19B6
:102C1200503009F051500E94AF19503009F0515014
:102C22003150A885B985129708F0B5CF00FF08C0CA
:102C3200503031F05150E0E2EA930E94BE19F8CFD1
:102C420010E0DDCEAC85BD850E947B1B0E94C21BBD
:102C520064960895FF92F82E26971A930A93DE013E
:102C620014960E94BD1A8D01E0E0EC83ED83EE83A1
:102C7200EF83DE0118960E94BD1A0E947B1B0E9400
:102C82004518ECEEF4E1FA93EA93FE013896FA93D2
:102C9200EA93ABDE198108812896FF900895A991E5
:102CA200B991EE27FF276D91662311F03196FBCF84
:102CB2000895AA27BB27E991F9910590002011F008
:102CC2001196FBCFFD010895E881F0E00895E4E656
:102CD200F0E0FA93EA930C94D819E881EA930E94FF
:102CE2003B05EBBBE0E0E5BB0895E1E0EA930C9421
:102CF2006A05E8ECF0E0FA93EA930C94D819EA93A7
:102D02000E947605E4E0EA930C947605EA930E9429
:102D12006A05E1E0EA930C947605E1E0F0E0FA93CB
:102D2200EA930C94D819EA930E946A05E3E0EA93C5
:102D32000C947605FA93EA930C94D819EA930E94BC
:102D42007605E0E0EA930C947605E1E0EA930C94D0
:102D52007605EA930E947605F8CFE0E0F0E0FA9378
:102D6200EA930895FA93EA93F8CFFA93EA930E94CA
:102D72001806ECE2EA930C946A05FA93EA930C942F
:102D82008305E885F985FA93EA930895EA85FB8538
:102D9200FA93EA930895E885F0E00895EF81F885C3
:102DA200FA93EA9308950E941A1BE05DEA93E9CF31
:102DB2000E949D06A985BA8508950E94571BE9873E
:102DC200FA87EF81F8857096EF83F8870895289740
:102DD2001A930A93EA89FB89FA93EA93EA89FB89AF
:102DE200FA93EA93EA89FB89FA93EA93EA89FB89DF
:102DF200BCCFAA89BB89E889F989EA1BFB0B31960A
:102E02008F0111230895F801AFEFBFEF0E94101B4D
:102E12008F010895AE85BF85EC85FD85EA1BFB0B0E
:102E2200319666277727EA83FB836C837D83AD81A6
:102E3200AA230895EA81FB816C817D810895AFEF19
:102E4200BFEF8FEF9FEF0E94151BEA83FB836C831A
:102E52007D830895F801AA81BB818C819D810E94A6
:102E6200E31A0E94151BEA83FB836C837D83E0E0F7
:102E7200EE83EF83E887E9870895DCDFAE81BF81C7
:102E8200888599850E94B61B0895EE81FF81688529
:102E92007985EF5FFF4F6F4F7F4FEE83FF83688728
:102EA20079870895F0E0AB8DBC8DEA0FFB1F089582
:102EB200E885F985EA1BFB0B0895AC85BD85EA0F11
:102EC200FB1FFA93EA930895EA930E94E51480E9BE
:102ED20091E00197F1F7E0E0EA930E94E5140E2FEA
:102EE2001127102F0027E0E0EA930E94E514F0E09A
:102EF2000E0F1F1F1A9AF8010895F8010E94E31A93
:102F02000E944A1ADF01CB0108950E94781A0E949A
:102F1200131A8F01F8010895A0E00B99A1E0A130E6
:102F22000895E0E0E093F905E093FA05E093FB05EC
:102F3200E093FC050895E0E0E093FD05E093FE05D3
:102F4200E093FF05E09300060895A091F905B09182
:102F5200FA058091FB059091FC05662777270E9470
:102F6200C11AE093F905F093FA056093FB0570939B
:102F7200FC050895A091FD05B091FE058091FF0525
:102F820090910006662777270E94C11AE093FD05FB
:102F9200F093FE056093FF05709300060895E0E14B
:102FA200F0E060E070E00E94521B0895E150F0E012
:102FB200E95EF94F0895AA93EA93FA93EFB7EA9379
:102FC2000895E150F0E0E65EF84F0895E0931606AA
:102FD200E881EA930C94540BE150F0E00895F0E09C
:102FE200E130A0E0FA070895FA93EA93E7EFF0E000
:102FF200FA93EA93C6CE0E944108ED81FE81FA93CC
:10300200EA930895FA93EA93E0EFF0E0FA93EA93F1
:10301200EEE0F1E0FA93EA93EFEFFFEFFA93EA932F
:103022000C94D109FA93EA93E1EFF0E0FA93EA9370
:10303200EDE0F1E0FA93EA93E1E0F0E093CEEFEF16
:10304200FFEFFA93EA930C94F90BFA93EA93E2E016
:10305200EA930895FA93EA93E4E0EA937ECEA0918C
:103062009007B09191070895ED91FD913196FE93ED
:10307200EE930895E0EFF0E0E615F7050895EEE02F
:10308200F1E06E167F060895FA93EA931A930A9373
:1030920008953A932A93EA85FB8564CEF9017096E6
:1030A200FA93EA93EA85FB855DCEF0E030970895C6
:1030B200F0E0EACF3A932A93E1E0EA93EB85FC85CC
:1030C20008950E945B0800E510E026E130E00895D3
:1030D2003A932A93E3E0EA93EB85FC85FA93EA9329
:1030E200AF85B0E00895FA93EA930E945B08005C12
:1030F2001F4F08953A932A935A934A932ECE5A9386
:103102004A932BCE3A932A93E3E0EA93F8CF0E94B4
:103112005B08005C1F4F0895E0939807F0939907AE
:103122000895E0919807F09199070895A091980762
:10313200B0919907AF3DE1E0BE070895E091940791
:10314200F0919507E0939607F09397070895A09161
:103152009407B09195070895E4DF96CFE8E0F1E295
:10316200FA93EA930E94CB08F7CFFA93EA93F6CF49
:10317200D8DF36968F010F3DE1E01E0708950E94C9
:103182000E0BF0E00895E52FF0E0DE011C96EE0F45
:10319200FF1F0895AE0FBF1F0E947B1B0895A0E87A
:1031A200B0E00E94861BEA1BFB0BDB01ED93FC9354
:1031B200EACFEA0FFB1FBF0100801180E0918C076C
:1031C200A0EAB7E0F0E0EE0FFF1FE4CFD0010E94CB
:1031D200E81ADB01ED93FC93D6CFAE0FBF1FED9142
:1031E200FD9108950E94DC1A0E94DA1AFE93EE9372
:1031F200CACFAE0FBF1FE8EEF0E0ED93FC93089547
:10320200AE0FBF1FEAE2F0E0ED93FC930895E52FC5
:10321200AAE9B7E0F0E0EE0FFF1F0895FA93EA93F0
:10322200E52FF0E00895DE015296EE0FFF1FB2CFB8
:10323200DE011E96EE0FFF1FADCFFA93EA9380E0F8
:103242000E942B1622960895EA930E94540BE8815D
:10325200A0EAB7E0F0E0EE0FFF1F0895A0E0B0E0B3
:10326200F0E0EE0FFF1F0895A0EAB7E0F0E0EE0FE6
:10327200FF1F08950E94230B0E2F0E94230B3E2F47
:103282000E94230B2E2F0895E0918C07F0E0089501
:10329200E0918C07EA93E8EFF0E0FA93EA930C945A
:1032A200430DE0918C07E0CFAE0FBF1F6D917C9173
:1032B2000895EE0FFF1FEA0FFB1F0E947F1B089568
:1032C20060817181E0918C07ACECB7E0F0E0089589
:1032D200EE0FFF1FEA0FFB1F0E94831BFB01EA1B7D
:1032E200FB0BD001ED93FC930895E0918B07A09125
:1032F2008F07EA0FEA93EFE0F8E7FA93EA930E9466
:10330200430DE0918F07B0CFE0918F07ADCFDF0182
:10331200E0918F07F0E0CDCF60817181E0918F075E
:10332200ACECB7E0F0E00895E0918B07A0918F0735
:10333200EA0FEA93EFE0F8E7FA93EA930C94430D6D
:10334200DF01E12FF0E0B5CFFA93EA93E0ECF0E091
:10335200FA93EA9308950E944108CBCC2A93ED8513
:10336200FE85FA93EA93E989FA8909950895E8892D
:10337200F9893497E88BF98B0895ED85FE85FA93E8
:10338200EA93E989FA8909950895A889B989149671
:103392000E947B1BEE83FF83FA93EA930895A88928
:1033A200B98914960E947B1BEA87FB870895E991ED
:1033B200F991309639F080EA9FE00197F1F7A895EC
:1033C2003197C9F70895552342F4503811F4E0FFBC
:1033D20004C03196691F791F6BF050E8572711F42A
:1033E2005F9373C05F3F31F0660F000C579567958E
:1033F200752F08955F9300200AF073C06CC050E8E7
:10340200192E1522880F991F9527550F879550E879
:10341200072E0522660F771F7527550F67950895AA
:10342200689401C0E8945F93F2DF703818F07F3F30
:1034320008F44BC056E1571BAAF4519558300EF4CC
:10344200593030F0EFEFFFEF6FEF7FE777F91AC0F7
:1034520077275523B9F0EE0FFF1F661F771F5A9586
:10346200D1F710C07727583028F0EF2FF62F672FAB
:103472005850F9CF552331F076956795F795E79532
:103482005A95D1F700200AF484D05F910895689488
:1034920001C0E894309760407040B1F0002426F0FB
:1034A200772312F4009475D0172E7EE1112032F0AA
:1034B2007A95EE0FFF1F661F111CF9CFEF2FF62F23
:1034C200612D5F938ADF5F910895EE27FF276627BC
:1034D20077275F910895EFEFFFEF6FE77FEF5F913F
:1034E2000895EFEFFFEF6FE77FE75F9108955F9336
:1034F20086DF703821F411200AF4EDCFF2CF903834
:1035020009F4E3CF01240894970B1BF4D4F30020B1
:10351200F3CF792F1F932F933F934F9311241127AA
:10352200222733274427552790E2AE17BF07860785
:10353200410730F0AE1BBF0B860B410B089401C054
:103542008894551F221F331F111CAA1FBB1F881FDF
:10355200441F9A9551F7F901612D4F913F912F9197
:103562001F91662332F0550FEE1FFF1F661F7A95DB
:1035720043F229DF5F9108950024AF0DB01D089535
:10358200EA0FFB1F681F791F0895F195E195F0403E
:103592000895F09560957095E195FF4F6F4F7F4FBD
:1035A2000895EE230E2EEA2F19F0E6950A94E9F714
:1035B2000895F595E795F595E795F595E795F595D0
:1035C200E79508956F2F660F660B762F0895FA9F81
:1035D200F02DEB9FF00DEA9FE02DF10D08957A9FFB
:1035E200702D6B9F700DF89F700DE99F700D6A9F93
:1035F200602D710DFB9F600D711DE89F600D711DA7
:103602008827FA9FF02D610D781FEB9FF00D611D49
:10361200781FEA9FE02DF10D681F781F089549D0A9
:10362200D6DF0EF4B2DF089552D0D9DF0EF4B1DF47
:1036320008950024112490E1AA0FBB1F001C111C45
:103642000E1A1F0A18F40E0E1F1E01C0A1609A95D1
:1036520099F7FD01D00108953F934F935F930024A2
:1036620011244427552730E2AA0FBB1F881F991F38
:10367200001C111C441F551F0E1A1F0A460B570B24
:1036820028F40E0E1F1E461F571F01C0A1603A9557
:1036920059F7FD01BC01D001CA015F914F913F91E1
:1036A200089515D0D9DF0EF474DF0895C2DFFD014D
:1036B2000895E894F7FF02C068DF6894B7FF06C078
:1036C200A095B095119600F8039400FA0895E89435
:1036D20077FF02C05EDF689497FF0BC00024A095BD
:1036E200B095809590951196801D901D00F80394D9
:1036F20000FA0895ED91FC91119708950590F491C7
:10370200E02D0895A591B49108951B2EBF2FF12DA0
:103712001A2EAE2FE12D0895119602D0FE2F119789
:10372200E199FECFFF93FFB7F894AEBBBFBBE09A1F
:10373200EDB3FFBFFF91089507D01196EF93EF2FDE
:1037420003D0EF9111970895E19B02C0A895FCCF99
:103752009FB7F894AEBBBFBBE09A8DB3E81719F0E0
:10376200EDBBE29AE19A9FBF0895AE17BF078607A5
:10377200970708955A934A933A932A931A930A936E
:1037820008955D814C813B812A81198108810895C8
:00000001FF
