:060000000C94DF050C94D6
:1000060000000C9400000C9400000C9400000C946A
:1000160000000C9400000C9400000C9400000C945A
:1000260000000C9400000C9400000C9400000C944A
:1000360000000C9400000C9400000C9449110C94E0
:1000460000000C94D20E0C9400000C94610F0C94DA
:1000560000000C9400000C9400000C9400000C941A
:1000660000000C9400000C9400000C9400000C940A
:1000760000000C94A80D0C9400000C94F80D0C9440
:1000860000000C94000000000000000000000000CA
:10009600000000000000000000000000000000005A
:1000A600000000000000000000000000000000004A
:1000B60000000000000000000000000000000180B9
:1000C6000180000000000000018003C007E0066018
:1000D6000C300C3018181818300C300C60066006FE
:1000E6007FFE7FFE000000007FFE7FFE600660064A
:1000F600300C300C181818180C300C30066007E05D
:1001060003C001800000000007E00C301818181822
:1001160018181818181818181818181818180C304D
:1001260007E00000000000000180038007800180D6
:1001360001800180018001800180018001800180B1
:1001460003C000000000000007E00C30181810087B
:1001560000180030006000C00180030006000C1883
:100166001FF800000000000007E008101008100843
:10017600001000E0003000180008000818180C30C5
:1001860007E00000000000000030007000F001B041
:10019600033006300C3018301FF8003000300030C5
:1001A60000780000000000000FF80FF008001000B3
:1001B60010001FE0003000180018001818181C3036
:1001C6000FE000000000000003E006100C0008002D
:1001D60018001FE01C3018181818181818180C30BA
:1001E60007E00000000000001FF8101800100020B3
:1001F6000020004000400080008001000100020055
:10020600020000000000000007E00C300810081093
:100216000C3007E00C3018181818181818180C307D
:1002260007E000000000000007E00C30181818185E
:1002360018180C3807F8001800100020002000C01D
:1002460003000000000000000000000000000000A5
:100256000000000000000000000000000000000098
:100266000000000000000000018001800180018084
:1002760001800180018001800180018000000180F1
:100286000180000000000000006000800100020004
:1002960002000400040004000200020001000080C5
:1002A6000060000000000000060001000080004021
:1002B6000040002000200020004000400080010097
:1002C60006000000000000000000000800180030D2
:1002D600006000C00180030006000C00180010003A
:1002E6000000000000000000000001800180018085
:1002F600018001803FFC3FFC01800180018001807C
:100306000180000000000000000000000000000066
:10031600000000003FFC3FFC000000000000000061
:1003260000000000000000000000000001800180C5
:1003360000000000000000000000018001800000B5
:1003460000000000000000000030006000C00180D6
:10035600030006000C0006000300018000C00060D8
:1003660000300000000000000000000000000FF058
:100376000FF00000000000000FF00FF0000000007A
:1003860000000000000000000C00060003000180D1
:1003960000C000600030006000C00180030006005D
:1003A6000C0000000000000003C006600C300C309A
:1003B6000430006000C001800180018000000180DF
:1003C600018000000000000000E000E001200120A4
:1003D60002300210041004180FF81818100C300C14
:1003E600781E0000000000007FFE301E3002300044
:1003F60030003FF83FFC300E30063006300E3FFC32
:100406007FF80000000000007FF03018300C300C40
:1004160030183FF83FFC300E30063006300E3FFCF9
:100426007FF80000000000007FFE301E3002300022
:100436003000300030003000300030003000300036
:10044600780000000000000003FC011801180118E4
:100456000118011801180218041808183FFC383C46
:10046600300C2004000000007FFC301C30043000FB
:1004760030803F803F803080300030003004301CB8
:100486007FFC00000000000063C6518A11880990B5
:10049600099007E007E00DB019981188318C218486
:1004A60063C60000000000000FE03838600C00044E
:1004B600000C03F80008000400060006600C3FF874
:1004C6000FE0000000000000781E300C301C303CAD
:1004D600306C30CC318C330C360C3C0C380C300C78
:1004E600781E0000000003C0799E300C301C303CA2
:1004F600306C30CC318C330C360C3C0C380C300C58
:10050600781E000000000000783C306C30C031805E
:1005160033003F00398030C0306030303018300C46
:10052600781E00000000000001FE008C008C008C8C
:10053600008C010C010C010C020C020C040C680C62
:10054600701E000000000000700E381C381C342C91
:10055600342C342C324C324C324C318C318C318C24
:10056600781E000000000000781E300C300C300CA5
:10057600300C3FFC3FFC300C300C300C300C300C97
:10058600781E00000000000007E01E78381C300CC2
:10059600700E700E700E700E700E300C381C1E78B9
:1005A60007E00000000000007FFE3FFC300C300C2E
:1005B600300C300C300C300C300C300C300C300C55
:1005C600781E0000000000007FF8300C3006300670
:1005D6003006300C3FF8300030003000300030007C
:1005E600780000000000000007E01E78381C300488
:1005F600700070007000700070003004381C1E78A7
:1006060007E00000000000007FFE61864182018055
:1006160001800180018001800180018001800180CC
:1006260003C0000000000000780E300418040C0817
:1006360006080310019000E0006000400C400C80AA
:10064600070000000000000003C001800FF0399C85
:100656006186418241826186399C0FF0018001806A
:1006660003C0000000000000781E300418080C10BB
:1006760006200340018002C0046008301018200CD8
:10068600781E000000000000781E300C300C300C84
:10069600300C300C300C300C300C300C300C300C74
:1006A6007FFE000600020000781E300C300C300C75
:1006B600300C380C1FFC000C000C000C000C000C5D
:1006C600001E0000000000007BDE318C318C318C76
:1006D600318C318C318C318C318C318C318C318C2C
:1006E6007FFE0000000000007BDE318C318C318CF7
:1006F600318C318C318C318C318C318C318C318C0C
:100706007FFE0006000200007C00580058005800DA
:10071600180018001FF8180C180618061806180CEA
:100726003FF8000000000000781E300C300C300C42
:10073600300C300C3F8C304C302C302C302C304C64
:100746007F9E00000000000078003000300030007E
:10075600300030003FF8300C300630063006300CE2
:100766007FF800000000000007E01E78381C300CFF
:10077600000E000E00FE000E000E300C381C1E7817
:1007860007E000000000000079F8330C320436065A
:10079600360636063E063606360636063204330C6E
:1007A60079F800000000000003FE060C0C0C0C0C8F
:1007B6000C0C060C03FC030C060C0C0C180C300C71
:1007C600781E0000000000C1814001C0804101C0C8
:1007D600804100C1814001C0804100C1814000C10B
:1007E600814001C0804101C0804100C1814000C1FB
:1007F600814001C0804100C1814001C0804101C0EB
:10080600804100C1814001C0804100C1814000C1DA
:10081600814001C0804100C1814001C0804101C0CA
:10082600804100C1814000C1814001C0804101C0BA
:10083600804100C1814001C0804100C1814000C1AA
:10084600814001C0804101C0804100C1814000C19A
:10085600814001C0804100C1814001C0804101C08A
:10086600804100C1814000C1814001C0804101C07A
:10087600804100C1814001C0804100C1814000C16A
:10088600814001C0804100C1814001C0804101C05A
:10089600804100C1814001C0804100C1814000C14A
:1008A600814001C0804101C0804100C1814000C13A
:1008B600814001C0804100C1814001C0804101C02A
:1008C600804100C1814000C0C101C30302C2C60607
:1008D60007C705C5C404CC0C0DCD0FCFCE0E0ACA72
:1008E600CB0BC90908C8D81819D91BDBDA1A1EDEC2
:1008F600DF1FDD1D1CDC14D4D515D71716D6D21272
:1009060013D311D1D010F03031F133F3F23236F681
:10091600F737F53534F43CFCFD3DFF3F3EFEFA3A31
:100926003BFB39F9F83828E8E929EB2B2AEAEE2EC1
:100936002FEF2DEDEC2CE42425E527E7E62622E231
:10094600E323E12120E0A06061A163A3A26266A681
:10095600A767A56564A46CACAD6DAF6F6EAEAA6AF1
:100966006BAB69A9A86878B8B979BB7B7ABABE7E41
:100976007FBF7DBDBC7CB47475B577B7B67672B2F1
:10098600B373B17170B05090915193535292965681
:100996005797559594549C5C5D9D5F9F9E5E5A9AB1
:1009A6009B5B99595898884849894B8B8A4A4E8E41
:1009B6008F4F8D4D4C8C44848545874746868242B1
:1009C6004383418180400A000A000A0005000500B1
:1009D60005000500050005000500050001001400DE
:1009E60014001400050005000500050005000500BB
:1009F600050005000000DC00DC00DC00E803E8037D
:100A0600E803E803E803E803E803E80301005A0003
:100A16005A002D00640064006400640064006400F1
:100A26006400640000000100FAFF2020202020005E
:100A3600D1CBC5C40020202B0020202D00CFC0D351
:100A4600C7C0002020202020202020202020202079
:100A560020202000CDC0CFD0DFC6C5CDC8C500D46C
:100A6600C0C700C3D600D2CECA00CDC0CFD0DFC625
:100A7600C5CDC8C520C820D2CECA00C2CEC7C1D3F4
:100A8600C6C4C5CDC8DF00CEC1CD00C0CCCF00CF17
:100A9600C5D00020CACD0020CAD200CACDD200C11E
:100AA600DBD1D2C0D6CF00CCC5CDDE00CDC0C7C00D
:100AB600C400C4C5D1CACECC000001009F062C0AD2
:100AC60006000005300A06000605300A06000C0579
:100AD600300A06001205300A05001805360A040019
:100AE6001D053B0A040021053F0A06002505430AA9
:100AF6000200D6072E0A11002B05490A11003C05F3
:100B0600490A0B004D055A0A04005805650A0D00EE
:100B16005C054D0A0D0069054D0A03007605690A54
:100B2600040079056C0A04007D05650A0D0081053F
:100B36004D0A0D008E054D0A03009B05690A11003A
:100B46009E05700A0C00AF05810A0D00BB054D0A13
:100B56000D00C8054D0A0400D5058D0A0400D90507
:100B6600910A0400DD05950A0400E105990A0400CE
:100B7600E5059D0A0400E905A10A0800ED05A50A98
:100B86000500F505AD0A0600FA05B20A06000006DC
:100B9600430A07000606B80A07000D06B80A07004A
:100BA6001406B80A07001B06530A07002206530A52
:100BB60007002906530A0000F894EE27ECBBF1E083
:100BC600F5BFE5BFE0936C00F8E1F1BDE1BD8DE056
:100BD600A2E0BB27ED938A95E9F780E090E1A0E0DB
:100BE600B1E0ED930197E9F7E0ECFAE08591959194
:100BF600009761F0A591B59105901590BF01F001A0
:100C060005900D920197E1F7FB01F0CF8BBFEFEF57
:100C1600EDBFE0E1EEBFC0E0D5E00C94321EEFEF91
:100C2600EABBE4BBE1B3E06EE1BBE2B1E06AE2B984
:100C36000895E881F0E0F595E795E575AE2FE88132
:100C4600EE0FEA7AEA2BE883F0E00E946820E3736D
:100C5600AE2FE881EE0FEE0FEC7CEA2BE883F0E096
:100C66000E946420EF70AE2FE881E295E07FEA2BC8
:100C7600E88337C095981D9AE4E6F0E0FA93EA9384
:100C86000E94661F1D98E4E6F0E0FA93EA930E943C
:100C9600661F1D9A959AE4E6F0E0FA93EA930E949D
:100CA600661F0895959A9798E881EA93C2DFEBBB91
:100CB600E0E0E5BB00001F98969800001F9A969A00
:100CC60000000FC0959A979AE881EA93B2DFEBBBD2
:100CD600E0E0E5BB00001F98969800001F9A969AE0
:100CE6000000219608951A930A931A810B81959A0A
:100CF600979A1BBB05BB00001F98969800001F9A89
:100D0600969A0000198108812496089588DFB2DF3B
:100D1600E1E0EA93C7DFE1E0EA93C4DFE1E0EA93CA
:100D2600C1DFE8ECF0E0FA93EA930E94661FE2EE78
:100D3600EA93B8DFE3E2EA93C5DFE2E0EA93C2DFD3
:100D4600E4E0EA93BFDFE0EEEA93ACDFE1E0EA93AA
:100D5600B9DFE1E0F0E0FA93EA930E94661FE0EE65
:100D6600EA93A0DFE3E0EA93ADDFE1E0EA939ADFFE
:100D7600E8E7F0E0FA93EA930E94661FE6EEEA934C
:100D860091DFE1E0EA939EDFEAEDEA939BDFE3E79A
:100D9600EA9398DFE0EBEA9385DFE4E2EA9392DFF9
:100DA600E0E0EA938FDFE1E0EA938CDFEFEDEA9390
:100DB60089DFE1E0EA9386DFEFE0EA9383DFE0E0B4
:100DC600EA9380DFE4EBEA936DDFE3E0EA937ADF10
:100DD600E4E8EA9377DFE0E0EA9374DFEAE5EA9392
:100DE60071DFEAE0EA936EDFE0E0EA936BDFE8E0CA
:100DF600EA9368DFE0E0EA9365DFE6EBEA9352DF29
:100E0600E1E0EA935FDFECE2EA935CDFE0E0EA939D
:100E160059DFECE0EA9356DFEAE0EA9353DFE0E0DD
:100E2600EA9350DFE4E0EA934DDFEAEBEA933ADF38
:100E3600EFE0EA9347DFE8EBEA9334DFE7E0EA9393
:100E460041DFE1E0EA933EDFE6E3EA932BDFE3E00E
:100E5600EA9338DFECEBEA9325DFE0E5EA9332DF4D
:100E6600E0E9EA932FDFE0E5EA932CDFE1E0EA939D
:100E760029DFE0EFEA9316DFE3E0EA9323DFE5E01C
:100E8600F0E0FA93EA930E94661FE9E2EA930ADF2A
:100E9600E0EDEA9307DFEDE0EA9314DF0895EAE276
:100EA600EA9300DFEF81EA930DDFEE81EA930ADF32
:100EB600ED81EA9307DFEC81EA9304DFEBE2EA9344
:100EC600F1DEEB81EA93FEDEEA81EA93FBDEE9815D
:100ED600EA93F8DEE881EA93F5DE289608950E9403
:100EE6004721E8E2EA93DEDEE0E0F0E0FA93EA93F7
:100EF600EFEDF1E0FA93EA93E0E0F0E0FA93EA939B
:100F0600EFE0F1E0FA93EA93CADFECE2EA93CADE95
:100F160000E010E00031E1E01E0788F420E030E058
:100F2600203EE1E03E0740F4EC81FD81FA93EA932E
:100F3600DADE2F5F3F4FF4CF0F5F1F4FEBCFE9E2B3
:100F4600EA93B0DE0E944E21269608951A930A93DC
:100F5600E885F985FA93EA93AA85BB855096119799
:100F6600BA93AA93EA85FB85FA93EA93AC85BD8585
:100F760050961197BA93AA9392DFECE2EA9392DE27
:100F860010E01032E8F400E00830C0F4E12FAA8542
:100F9600BB85F0E0EA0FFB1F1490E02FA0E80E944B
:100FA6005C20E121E13018F0EC81FD8102C0EA818C
:100FB600FB81FA93EA9397DE0F5FE6CF1F5FE1CFDF
:100FC60019810881B0C3E885F0E0E033A0E0FA07B4
:100FD60019F4ECE0F1E08EC1E133A0E0FA0719F470
:100FE600ECE2F1E087C1E233A0E0FA0719F4ECE4A1
:100FF600F1E080C1E333A0E0FA0719F4ECE6F1E092
:1010060079C1E433A0E0FA0719F4ECE8F1E072C123
:10101600E533A0E0FA0719F4ECEAF1E06BC1E63338
:10102600A0E0FA0719F4ECECF1E064C1E733A0E0C4
:10103600FA0719F4ECEEF1E05DC1E833A0E0FA0737
:1010460019F4ECE0F2E056C1E933A0E0FA0719F42E
:10105600ECE2F2E04FC1E132A0E0FA0719F4ECE667
:10106600F2E048C1E832A0E0FA0719F4ECE8F2E051
:1010760041C1E932A0E0FA0719F4ECEAF2E03AC11C
:10108600EF32A0E0FA0719F4ECECF2E033C1EA33F0
:10109600A0E0FA0719F4ECE2F3E02CC1EC33A0E08F
:1010A600FA0719F4ECE4F3E025C1ED33A0E0FA0702
:1010B60019F4ECE6F3E01EC1EE33A0E0FA0719F4EA
:1010C600ECE8F3E017C1EF33A0E0FA0719F4ECEA15
:1010D600F3E010C1EB32A0E0FA0719F4ECEEF2E00F
:1010E60009C1ED32A0E0FA0719F4ECE0F3E002C121
:1010F600E03CA0E0FA0719F4ECECF3E0FBC0E13CBD
:10110600A0E0FA0719F4ECEEF3E0F4C0E23CA0E04C
:10111600FA0719F4ECE0F4E0EDC0E33CA0E0FA07CE
:1011260019F4ECE2F4E0E6C0E43CA0E0FA0719F4B6
:10113600ECE4F4E0DFC0E53CA0E0FA0719F4ECE6E5
:10114600F4E0D8C0E63CA0E0FA0719F4ECE8F4E0D5
:10115600D1C0E73CA0E0FA0719F4ECEAF4E0CAC013
:10116600E83CA0E0FA0719F4ECECF4E0C3C0E93C73
:10117600A0E0FA0719F4ECEEF4E0BCC0EA3CA0E00B
:10118600FA0719F4ECE0F5E0B5C0EB3CA0E0FA078D
:1011960019F4ECE2F5E0AEC0EC3CA0E0FA0719F475
:1011A600ECE4F5E0A7C0ED3CA0E0FA0719F4ECE6A4
:1011B600F5E0A0C0EE3CA0E0FA0719F4ECE8F5E093
:1011C60099C0EF3CA0E0FA0719F4ECEAF5E092C00A
:1011D600E03DA0E0FA0719F4ECECF5E08BC0E13D48
:1011E600A0E0FA0719F4ECEEF5E084C0E23DA0E0D9
:1011F600FA0719F4ECE0F6E07DC0E33DA0E0FA075B
:1012060019F4ECE2F6E076C0E43DA0E0FA0719F442
:10121600ECE4F6E06FC0E53DA0E0FA0719F4ECE671
:10122600F6E068C0E63DA0E0FA0719F4ECE8F6E05F
:1012360061C0E73DA0E0FA0719F4ECEAF6E05AC00F
:10124600E83DA0E0FA0719F4ECECF6E053C0E93DFE
:10125600A0E0FA0719F4ECEEF6E04CC0EA3DA0E097
:10126600FA0719F4ECE0F7E045C0EB3DA0E0FA0719
:1012760019F4ECE2F7E03EC0EC3DA0E0FA0719F401
:10128600ECE4F7E037C0ED3DA0E0FA0719F4ECE630
:10129600F7E030C0EE3DA0E0FA0719F4ECE8F7E01D
:1012A60029C0EF3DA0E0FA0719F4ECEAF7E022C006
:1012B600EE32A0E0FA0719F4ECEAF0E01BC0E032E7
:1012C600A0E0FA0719F4ECE4F2E014C0E130A0E083
:1012D600FA0719F4ECECF0E00DC0E230A0E0FA07F2
:1012E60019F4ECEEF0E006C0E330A0E0FA07A9F44A
:1012F600ECE8F0E0FA93EA93E885F985FA93EA9345
:10130600E885F985FA93EA93E885F985FA93EA93ED
:10131600E885F985FA93EA9319DE29960895A88552
:10132600B985EC91E030D9F0ED91A887B987EA93B9
:10133600EF81F885FA93EA93EF81F885FA93EA93B9
:10134600EF81F885FA93EA93EF81F885FA93EA93A9
:101356003ADEEE81FF817096EE83FF83E0CF2A9618
:1013660008952597E0E3E883E983E0E2EA83EB83E7
:10137600EC831A9310E0EF85F8893097D1F0E12FCE
:10138600F0E0DE011196EA0FFB1FBF01AF85B889B9
:10139600EAE0F0E00E94E120E05DDB01EC93AF853E
:1013A600B889EAE0F0E00E94A420EF87F88B1F5F7F
:1013B600E2CFEA85E03001F1E150EA87F0E0DE01B4
:1013C6001196AE0FBF1FEC91EA93EE85FF85FA9357
:1013D600EA93EE85FF85FA93EA93ED85FE85FA9307
:1013E600EA93ED85FE85FA93EA93EDDDED85FE85BC
:1013F6007096ED87FE87DDCF188161960895289750
:101406001A930A93EA89FB89FA93EA93EA89FB8994
:10141600FA93EA93EA89FB89FA93EA93EA89FB89C4
:10142600FA93EA933CDDECE2EA933CDCAA89BB89B9
:10143600E889F989EA1BFB0B31968F01112332F4F7
:10144600F801AFEFBFEF0E949A208F01AE85BF85EE
:10145600EC85FD85EA1BFB0B319666277727EA8329
:10146600FB836C837D83AD81AA2352F4AFEFBFEF7C
:101476008FEF9FEF0E949F20EA83FB836C837D831F
:10148600F801AA81BB818C819D810E946D200E94FA
:101496009F20EA83FB836C837D83E0E0EE83EF830A
:1014A600E887E987EA81FB816C817D81AE81BF8116
:1014B600888599850E94402194F4EA85FB85FA93F4
:1014C600EA9311DCEE81FF8168857985EF5FFF4F36
:1014D6006F4F7F4FEE83FF8368877987E3CF96C18F
:1014E6002A970E944521A98DBA8DEF89F88DEA1BAE
:1014F600FB0BAF01552332F4FA01AFEFBFEF0E94A9
:101506009A20AF01AD89BE89EB89FC89EA1BFB0BEA
:10151600EE87FF87AF85AA2332F4AFEFBFEF0E94B5
:101526009A20EE87FF87EF89F88DA98DBA8DAE17C1
:10153600BF0718F4E1E0F0E002C0EFEFFFEFEC8741
:10154600FD87EB89FC89AD89BE89AE17BF0718F404
:10155600E1E0F0E002C0EFEFFFEFEA87FB87AE8540
:10156600BF85FA01EA1BFB0BE887F987E98DFA8D3F
:10157600FA93EA93EA89F0E0AB8DBC8DEA0FFB1F84
:10158600FA93EA93E98DFA8DFA93EA93EE89F0E0FD
:10159600AB8DBC8DEA0FFB1FFA93EA9380DCECE27D
:1015A600EA930E945506A889BB27E889F0E00E94C5
:1015B6009A209F0100E010E02017310744F0E989E6
:1015C600FA89FA93EA938FDB0F5F1F4FF5CFEF8906
:1015D600F88DA98DBA8DEA17FB0739F4EB89FC89DA
:1015E600AD89BE89EA17FB0709F001C034C0E8855A
:1015F600F985EE0FFF1FEE83FF83EE85FF850E94C0
:101606005020AE81BF81EA17FB0784F4AE85BF8503
:10161600E885F985EA1BFB0BE887F987EC85FD85EC
:10162600A98DBA8DEA0FFB1FE98FFA8FAE81BF81B4
:10163600A417B5077CF4FA01A885B985EA0FFB1F44
:10164600E887F987EA85FB85AD89BE89EA0FFB1F26
:10165600ED8BFE8B8BCF0E944C216B960895EA850D
:10166600FB85FA93EA93EA85FB85FA93EA93EA8582
:10167600FB85FA93EA93E885F985AC85BD85EA0F83
:10168600FB1FFA93EA93E885F985FA93EA93B7DEA6
:10169600EA85FB85FA93EA93EC81FD81AC85BD85ED
:1016A600EA0FFB1FFA93EA93EA85FB85FA93EA931E
:1016B600EA85FB85FA93EA93E885F985FA93EA9336
:1016C6009EDEEA85FB85FA93EA93EA85FB85FA9323
:1016D600EA93AE81BF81E885F985EA1BFB0BFA9395
:1016E600EA93EA85FB85FA93EA93E885F985FA9306
:1016F600EA9385DEAA81BB81E885F985EA1BFB0BA7
:10170600FA93EA93EA85FB85FA93EA93EA85FB85E1
:10171600FA93EA93EA85FB85FA93EA93E885F985D5
:10172600FA93EA936CDE2C96089528971A930A93F7
:10173600EA89FB89FA93EA93EA89FB89FA93EA93A1
:10174600EA89FB89FA93EA93EA89FB89FA93EA9391
:10175600A6DBECE2EA930E945506AA89BB89E889D2
:10176600F989EA1BFB0B31968F01112332F4F8013C
:10177600AFEFBFEF0E949A208F01AE85BF85EC8543
:10178600FD85EA1BFB0B319666277727EA83FB83E9
:101796006C837D83AD81AA2352F4AFEFBFEF8FEF49
:1017A6009FEF0E949F20EA83FB836C837D83F80171
:1017B600AA81BB818C819D810E946D200E949F2001
:1017C600EA83FB836C837D83E0E0EE83EF83E88727
:1017D600E987EA81FB816C817D81AE81BF81888545
:1017E60099850E94402194F4EA85FB85FA93EA9351
:1017F6007ADAEE81FF8168857985EF5FFF4F6F4F5B
:101806007F4FEE83FF8368877987E3CF198108814D
:1018160064960895129A139808951A930A931A983B
:10182600E1E0F0E0FA93EA930E94661FE3EDEA93A3
:101836000E945F1F80E991E00197F1F7E0E0EA93EB
:101846000E945F1F0E2F1127102F0027E0E0EA935A
:101856000E945F1FF0E00E0F1F1F1A9AF80109C1C0
:101866001A930A931A98E1E0F0E0FA93EA930E9439
:10187600661FE3E9EA930E945F1F80E991E0019702
:10188600F1F7E0E0EA930E945F1F0E2F1127102F59
:101896000027E0E0EA930E945F1FF0E00E0F1F1F93
:1018A6001A9AF801E6C01A98E5E0F0E0FA93EA938E
:1018B6000E94661FE0E9EA930E945F1F80E991E0BB
:1018C6000197F1F7E0E0EA930E945F1FE0E0EA93F8
:1018D6000E945F1F1A9A08951A930A939EDFE45195
:1018E600F5408F01112312F400E010E0F8010E9488
:1018F6006D200E94D81FDF01CB01E5E5F5ED65E718
:1019060072E40E9406200E94A11F8F01F801B1C057
:101916001A930A93A5DFE453F8408F01112312F4BA
:1019260000E010E0F8010E946D200E94D81FDF0140
:10193600CB01EEE1FEE96EEC72E40E9406200E9405
:10194600A11F8F01F80195C01A930A9310E0A0E039
:101956000B99A1E0A13010F00C943B0DE0E0E09370
:101966003006E0933106E0933206E0933306E093C7
:101976003406E0933506E0933606E093370600E03A
:10198600003180F54ADFE451F540A0913006B09170
:1019960031068091320690913306662777270E949A
:1019A6004B20E0933006F093310660933206709335
:1019B600330656DFE453F840A0913406B09135065D
:1019C6008091360690913706662777270E944B202E
:1019D600E0933406F0933506609336067093370627
:1019E6000F5FCECFA0913306AA234AF4E0E0E0933E
:1019F6003006E0933106E0933206E0933306A09179
:101A06003706AA234AF4E0E0E0933406E09335066D
:101A1600E0933606E0933706E0913006F091310602
:101A260060913206709133060E94D81FDF01CB0108
:101A3600E5E5F5ED65E774E40E9406200E949F1F28
:101A46002F01E0913406F0913506609136067091CB
:101A560037060E94D81FDF01CB01EEE1FEE96EECEE
:101A660074E40E9406200E949F1F3F011CDF11E0C4
:101A7600E12F0991199108951A93CCDE1A981B98B3
:101A860085E38A95F1F71A9A1B9AE0E0E09330060F
:101A9600E0933106E0933206E0933306E093340692
:101AA600E0933506E0933606E093370610E01031F2
:101AB60060F512DFA0913006B091310680913206B2
:101AC60090913306662777270E944B20E0933006D5
:101AD600F0933106609332067093330619DFA091B6
:101AE6003406B09135068091360690913706662702
:101AF60077270E944B20E0933406F09335066093D7
:101B06003606709337061F5FD2CFA0913006B0918C
:101B160031068091320690913306E0E1F0E060E014
:101B260070E00E94DC202F01A0913406B0913506AA
:101B36008091360690913706E0E1F0E060E070E0D3
:101B46000E94DC203F01AFDE64C4AA93EA93FA93B5
:101B5600EFB7EA931A930A9310919B0000919C00A9
:101B6600E12FEC71B9F4ED2DD394F0E0E85CF94F78
:101B76000083E0E2ED1509F4DD24A0915806AF5F7D
:101B8600A0935806A03231F4E0E0E0935806E1E075
:101B9600E09359064FC1E091A206E03021F0A091F2
:101BA600A006A23009F020C0E0919B06EF5FE0930B
:101BB6009B06E150F0E0E65AF94FE081E0939C0085
:101BC600A0919B06A03419F4E0E0E0939B06E09117
:101BD600A206E150E093A206E03031F4E3E0E093A0
:101BE600A006E0E0E093A10608950A921A92FA92FE
:101BF6006A937A938A939A93AA93BA93EA93FA93F7
:101C0600EFB7EA93C8DFE991EFBFF991E991B9918E
:101C1600A9919991899179916991F9901990099071
:101C26001895A091A006A03041F4A0919C06A8307A
:101C360020F0A091A106A33308F40AC0E1E0E093E6
:101C4600A006949AE8E0E093A206E0E0E093A106FD
:101C5600A091A006A13021F4A091A106AB3008F412
:101C66000DC0E2E0E093A00696DFE0919C06F0E06E
:101C76003897E0939C06E0E0E093A106A091A006C9
:101C8600A33021F4A091A106A63008F406C0E0E036
:101C9600E093A0069498E093A106A091A106A5362C
:101CA60020F0E0E0E093A00694980895EFEFE0932B
:101CB6009D06E0939E0608951A93E981A0919D06DC
:101CC600EA271E2FE12FF0E0E453F84FE491A091AC
:101CD6009E06EA27E0939D06E12FF0E0E453F74FD6
:101CE600049000929E06188122960895E0919A0625
:101CF600EF5FE0939A06E150F0E0E65AF94FA091C3
:101D06009D06A083A0919A06A03419F4E0E0E09322
:101D16009A06E0919C06EF5FE0939C06E0919A0696
:101D2600EF5FE0939A06E150F0E0E65AF94FA09192
:101D36009E06A083A0919A06A03419F4E0E0E093F1
:101D46009A06E0919C06EF5FE0939C060895CEDF2D
:101D5600E1E0E0939F060895E0919F06E03009F0E8
:101D6600A5DFE0E0E0939F06E0919A06EF5FE0933F
:101D76009A06E150F0E0E65AF94FA881A083A091B7
:101D86009A06A03419F4E0E0E0939A06E0919C06E6
:101D9600EF5FE0939C06E881EA938EDFE2C0AA93A8
:101DA600EA93FA93EFB7EA931A930A931BB10CB12D
:101DB600E12FEC7111F00C941D0FE091BA06E030A2
:101DC600B9F0E091B706EF5FE093B706E150F0E0B7
:101DD600ED55F94F0083A091B706A43119F4E0E060
:101DE600E093B706E091B906EF5FE093B90622C02B
:101DF600E091BD07E030F1F4A091BC07AF5FA0937E
:101E0600BC07AF3F39F4E1E0E093BD07EEEFE093A6
:101E1600BC0710C0E091BA07F0E0E554F94F008323
:101E2600A091BA07AF5FA093BA07AF3F19F4E0E0FD
:101E3600E093BA0709911991E991EFBFF991E991F8
:101E4600A99118951A93E091BC07E030E1F3F89454
:101E5600E091BB07EF5FE093BB07E150F0E0E5548C
:101E6600F94F1081A091BB07AF3F19F4E0E0E09372
:101E7600BB07E091BC07E150E093BC077894C8C269
:101E86001A93E091B906E030E1F3F894E091B806D0
:101E9600EF5FE093B806E150F0E0ED55F94F1081A1
:101EA600A091B806A43119F4E0E0E093B806E091F9
:101EB600B906E150E093B9067894AAC2AA93EA93C8
:101EC600FA93EFB7EA93E091C807E030A9F0E15042
:101ED600E093C807E091C707EF5FE093C707E150BB
:101EE600F0E0E254F84FE081ECB9A091C707A830C2
:101EF60019F4E0E0E093C707E991EFBFF991E991A2
:101F0600A9911895A091C807A830E1F3F894E0913B
:101F1600C807E03011F45D9918C0E091C607EF5F7D
:101F2600E093C607E150F0E0E254F84FA881A083A1
:101F3600A091C607A83019F4E0E0E093C607E09147
:101F4600C807EF5FE093C80702C0E881ECB9789450
:101F560008C0E0E001C0E2E0E093BA06E881EA9357
:101F6600D1DF21960895EC81F0E0E130A0E0FA0798
:101F7600E9F4E0E0F5E0FA93EA93E0E1F0E0FA93C1
:101F8600EA93E7EFF0E0FA93EA93E885F985FA93A6
:101F9600EA93E885F985FA93EA930E949209ED811E
:101FA600FE81FA93EA93E0E1F0E062C0E230A0E05D
:101FB600FA07E9F4E6E0F5E0FA93EA93E8E8F0E0F8
:101FC600FA93EA93E7EFF0E0FA93EA93E885F98566
:101FD600FA93EA93E885F985FA93EA930E949209BF
:101FE600ED81FE81FA93EA93E8E8F0E041C0E33040
:101FF600A0E0FA07E9F4ECE0F5E0FA93EA93E0E012
:10200600F1E0FA93EA93E7EFF0E0FA93EA93E885D2
:10201600F985FA93EA93E885F985FA93EA930E949B
:102026009209ED81FE81FA93EA93E0E0F1E020C0A7
:10203600E430A0E0FA0761F5E2E1F5E0FA93EA930D
:10204600E8E7F1E0FA93EA93E7EFF0E0FA93EA9330
:10205600E885F985FA93EA93E885F985FA93EA9390
:102066000E949209ED81FE81FA93EA93E8E7F1E096
:10207600FA93EA93E7EFF0E0FA93EA93E885F985B5
:10208600FA93EA93E885F985FA93EA930E9492090E
:102096008AC5E6E0F0E0FA93EA93EAE6F0E0FA931E
:1020A600EA93E0EFF0E0FA93EA93EEE0F1E0FA93D8
:1020B600EA93EFEFFFEFFA93EA930E94980BEEE7AD
:1020C600F0E0FA93EA93E2EEF0E0FA93EA93E0EFB7
:1020D600F0E0FA93EA93EEE0F1E0FA93EA93EFEF99
:1020E600FFEFFA93EA930E94980BE6EFF0E0FA937B
:1020F600EA93EAE5F1E0FA93EA93E0EFF0E0FA9387
:10210600EA93EEE0F1E0FA93EA93EFEFFFEFFA934A
:10211600EA930E94980BEEE6F1E0FA93EA93E2ED79
:10212600F1E0FA93EA93E0EFF0E0FA93EA93EEE057
:10213600F1E0FA93EA93EFEFFFEFFA93EA930E9446
:10214600980BE7E0F0E0FA93EA93E9E6F0E0FA9319
:10215600EA93E1EFF0E0FA93EA93EDE0F1E0FA9327
:10216600EA93E1E0F0E0FA93EA93E0E0F0E0FA9334
:10217600EA930E94320BEFE7F0E0FA93EA93E1EE7E
:10218600F0E0FA93EA93E1EFF0E0FA93EA93EDE0F8
:10219600F1E0FA93EA93E1E0F0E0FA93EA93E0E003
:1021A600F0E0FA93EA930E94320BE7EFF0E0FA933D
:1021B600EA93E9E5F1E0FA93EA93E1EFF0E0FA93C6
:1021C600EA93EDE0F1E0FA93EA93E1E0F0E0FA93C6
:1021D600EA93E0E0F0E0FA93EA930E94320BEFE62E
:1021E600F1E0FA93EA93E1EDF1E0FA93EA93E1EF95
:1021F600F0E0FA93EA93EDE0F1E0FA93EA93E1E096
:10220600F0E0FA93EA93E0E0F0E0FA93EA930E94B2
:10221600320BE8E1F5E0FA93EA93E1E0EA93E0E0D5
:10222600F0E0FA93EA93EFEFFFEFFA93EA939BDE7F
:10223600EDE1F5E0FA93EA93E2E0EA93E0E0F0E01C
:10224600FA93EA93EFEFFFEFFA93EA938CDEE1E27B
:10225600F5E0FA93EA93E3E0EA93E0E0F0E0FA933C
:10226600EA93EFEFFFEFFA93EA937DDEE5E2F5E01E
:10227600FA93EA93E4E0EA93E0E0F0E0FA93EA9373
:10228600EFEFFFEFFA93EA936EDE08950A921A9241
:10229600FA926A937A938A939A93AA93BA93EA9351
:1022A600FA93EFB7EA93E6E0E2BFA091CE07B091CA
:1022B600CF07AF3FE0E0BE0738F4AEECB7E0ED91F4
:1022C600FD913196FE93EE93A0EDB7E0ED91FD9171
:1022D6003196FE93EE93A2EDB7E0ED91FD91319626
:1022E600FE93EE93A091A106AF3F28F4E091A106DC
:1022F600EF5FE093A10695DCE991EFBFF991E991D3
:10230600B991A9919991899179916991F9901990C9
:10231600099018951A9310E0A091CE07B091CF07B7
:10232600D39720F00E94A70CE03009F471C0E6E0D4
:10233600F0E0E415F50528F4EAE6F0E04E165F064F
:1023460008F014C0E0EFF0E0E615F70568F4EEE0FB
:10235600F1E06E167F0640F4A091CE07B091CF074C
:10236600A739E0E0BE0708F401C011E0EEE7F0E0AF
:10237600E415F50528F4E2EEF0E04E165F0608F0E7
:102386000CC0E0EFF0E0E615F70528F4EEE0F1E02A
:102396006E167F0608F001C012E0E6EFF0E0E415E5
:1023A600F50528F4EAE5F1E04E165F0608F00CC0E4
:1023B600E0EFF0E0E615F70528F4EEE0F1E06E1642
:1023C6007F0608F001C013E0EEE6F1E0E415F5053E
:1023D60028F4E2EDF1E04E165F0608F014C0E0EFD7
:1023E600F0E0E615F70568F4EEE0F1E06E167F061C
:1023F60040F4A091CE07B091CF07A739E0E0BE0721
:1024060008F401C014E0E0E0E093CE07E093CF07C4
:10241600E12F199108950E94472100E110E026E07E
:1024260030E0EBE2F5E0FA93EA931A930A933A93D3
:102436002A93EA85FB85FA93EA93E0E0F0E0FA93C3
:10244600EA930E949209ECE3F5E0FA93EA931A9371
:102456000A93F9017096FA93EA93EA85FB85FA9353
:10246600EA93E0E0F0E0FA93EA930E949209EE81A3
:10247600F0E0309711F00C94A912EDE4F5E0FA9330
:10248600EA931A930A933A932A93EA85FB85FA9379
:10249600EA93E0E0F0E0FA93EA930E949209E8E515
:1024A600F5E0FA93EA931A930A93F9017096FA9370
:1024B600EA93EA85FB85FA93EA93E0E0F0E0FA9383
:1024C600EA930E949209ECE5F5E0FA93EA93E2E2D8
:1024D600F1E0FA93EA93E6E0F0E0FA93EA93EA850C
:1024E600FB85FA93EA93E0E0F0E0FA93EA930E9420
:1024F6009209E9E6F5E0FA93EA93E2E2F1E0FA936B
:10250600EA93E6E1F0E0FA93EA93EA85FB85FA932B
:10251600EA93E0E0F0E0FA93EA930E949209E6E794
:10252600F5E0FA93EA93E2EAF1E0FA93EA93E6E158
:10253600F0E0FA93EA93EA85FB85FA93EA93E0E002
:10254600F0E0FA93EA930E9492092BC3E130A0E0EF
:10255600FA0711F00C941813E9E7F5E0FA93EA93F9
:102566001A930A933A932A93EA85FB85FA93EA9398
:10257600E0E0F0E0FA93EA930E949209EDE7F5E0D5
:10258600FA93EA931A930A93F9017096FA93EA93E7
:10259600EA85FB85FA93EA93E0E0F0E0FA93EA93A2
:1025A6000E949209E1E8F5E0FA93EA93E2E2F1E0AB
:1025B600FA93EA93E6E0F0E0FA93EA93EA85FB857C
:1025C600FA93EA93E0E0F0E0FA93EA930E94920924
:1025D600EEE8F5E0FA93EA93E2E2F1E0FA93EA93A1
:1025E600E6E1F0E0FA93EA93EA85FB85FA93EA934B
:1025F600E0E0F0E0FA93EA930E949209EBE9F5E055
:10260600FA93EA93E2EAF1E0FA93EA93E6E1F0E07C
:10261600FA93EA93EA85FB85FA93EA93E0E0F0E021
:10262600FA93EA930E949209BCC2E230A0E0FA074C
:1026360011F00C947113EEE9F5E0FA93EA931A930C
:102646000A933A932A93EA85FB85FA93EA93E0E0A4
:10265600F0E0FA93EA930E949209EFEAF5E0FA9322
:10266600EA931A930A93F9017096FA93EA93EA8524
:10267600FB85FA93EA93E0E0F0E0FA93EA930E948E
:102686009209EBEBF5E0FA93EA93E2E2F1E0FA93D2
:10269600EA93E6E0F0E0FA93EA93EA85FB85FA939B
:1026A600EA93E0E0F0E0FA93EA930E949209E8ECFC
:1026B600F5E0FA93EA93E2E2F1E0FA93EA93E6E1CF
:1026C600F0E0FA93EA93EA85FB85FA93EA93E0E071
:1026D600F0E0FA93EA930E94920963C2E530A0E023
:1026E600FA0721F0E630A0E0FA0709F406C0E73061
:1026F600A0E0FA0711F00C944514E5EDF5E0FA9325
:10270600EA931A930A933A932A93EA85FB85FA93F6
:10271600EA93E0E0F0E0FA93EA930E949209E9ED89
:10272600F5E0FA93EA931A930A93F9017096FA93ED
:10273600EA93EA85FB85FA93EA93E0E0F0E0FA9300
:10274600EA930E94920900E510E0E091D407F09127
:10275600D507FA93EA931A930A933A932A93E4E0F5
:10276600EA93EB85FC85FA93EA93E0E0F0E0FA93CE
:10277600EA930E94B409005A1F4FEDEDF5E0FA9373
:10278600EA931A930A933A932A93EA85FB85FA9376
:10279600EA93E0E0F0E0FA93EA930E949209005C83
:1027A6001F4FE091BD07F0E0FA93EA931A930A935C
:1027B6003A932A93E1E0EA93EB85FC85FA93EA9350
:1027C600E0E0F0E0FA93EA930E94B40900E510E035
:1027D60026E130E0E091DE07F091DF07FA93EA9315
:1027E6001A930A933A932A93E3E0EA93EB85FC85DE
:1027F600FA93EA93AF85B0E0159719F4E8E0F1E2B1
:1028060002C0E0E0F0E0FA93EA930E94B409005CAB
:102816001F4FE091E007F091E107FA93EA931A93CC
:102826000A933A932A93E3E0EA93EB85FC85FA93BD
:10283600EA93AF85B0E0169719F4E8E0F1E202C03A
:10284600E0E0F0E0FA93EA930E94B409005C1F4FBF
:10285600E091E207F091E307FA93EA931A930A9359
:102866003A932A93E3E0EA93EB85FC85FA93EA939D
:10287600AF85B0E0179719F4E8E0F1E202C0E0E0B6
:10288600F0E08BC1E830A0E0FA0721F0E930A0E0E3
:10289600FA0709F404C0EA30A0E0FA0709F404C014
:1028A600EB30A0E0FA0709F404C0EC30A0E0FA0728
:1028B60009F406C0ED30A0E0FA0711F00C944215B9
:1028C600E1EEF5E0FA93EA931A930A933A932A9380
:1028D600EA85FB85FA93EA93E0E0F0E0FA93EA935F
:1028E6000E949209E5EEF5E0FA93EA931A930A93A9
:1028F600F9017096FA93EA93EA85FB85FA93EA93CF
:10290600E0E0F0E0FA93EA930E94920900E510E015
:10291600E091E407F091E507FA93EA931A930A9394
:102926003A932A93E3E0EA93EB85FC85FA93EA93DC
:10293600AF85B0E0189719F4E8E0F1E202C0E0E0F4
:10294600F0E0FA93EA930E94B409005C1F4FE0910D
:10295600E607F091E707FA93EA931A930A933A93F4
:102966002A93E3E0EA93EB85FC85FA93EA93AF8535
:10297600B0E0199719F4E8E0F1E202C0E0E0F0E017
:10298600FA93EA930E94B409005C1F4FE091E807AE
:10299600F091E907FA93EA931A930A933A932A93E2
:1029A600E3E0EA93EB85FC85FA93EA93AF85B0E022
:1029B6001A9719F4E8E0F1E202C0E0E0F0E0FA93D9
:1029C600EA930E94B40900E510E026E130E0E091C8
:1029D600EA07F091EB07FA93EA931A930A933A936C
:1029E6002A93E3E0EA93EB85FC85FA93EA93AF85B5
:1029F600B0E01B9719F4E8E0F1E202C0E0E0F0E095
:102A0600FA93EA930E94B409005C1F4FE091EC0729
:102A1600F091ED07FA93EA931A930A933A932A935D
:102A2600E3E0EA93EB85FC85FA93EA93AF85B0E0A1
:102A36001C9719F4E8E0F1E202C0E0E0F0E0FA9356
:102A4600EA930E94B409005C1F4FE091EE07F091F3
:102A5600EF07FA93EA931A930A933A932A93E3E0D9
:102A6600EA93EB85FC85FA93EA93AF85B0E01D9770
:102A760019F4E8E0F1E202C0E0E0F0E08EC0EE30EA
:102A8600A0E0FA0721F0EF30A0E0FA0709F406C04B
:102A9600E031A0E0FA0711F00C94D415E9EEF5E068
:102AA600FA93EA931A930A933A932A93EA85FB8553
:102AB600FA93EA93E0E0F0E0FA93EA930E9492092F
:102AC600EDEEF5E0FA93EA931A930A93F9017096FC
:102AD600FA93EA93EA85FB85FA93EA93E0E0F0E05D
:102AE600FA93EA930E949209005C1F4FE091F00767
:102AF600F091F107FA93EA931A930A933A932A9379
:102B0600E3E0EA93EB85FC85FA93EA93AF85B0E0C0
:102B16001E9719F4E8E0F1E202C0E0E0F0E0FA9373
:102B2600EA930E94B409005C1F4FE091F207F0910E
:102B3600F307FA93EA931A930A933A932A93E3E0F4
:102B4600EA93EB85FC85FA93EA93AF85B0E01F978D
:102B560019F4E8E0F1E202C0E0E0F0E0FA93EA936B
:102B66000E94B409205F3F4FE091F407F091F5070A
:102B7600FA93EA931A930A933A932A93E1E0EA9333
:102B8600EB85FC85FA93EA93AF85B0E0509719F48C
:102B9600E8E0F1E202C0E0E0F0E0FA93EA930E9496
:102BA600B4090E944E21279608950E94452102E20B
:102BB60011E026E030E048EF50E0A091CA07A230CD
:102BC60011F40C943916E985F0E0FA93EA931A9316
:102BD6000A933A932A93E3E0EA935A934A93E0E0FE
:102BE600F0E0FA93EA930E94B409005C1F4FE8856F
:102BF600F0E0FA93EA931A930A933A932A93E3E05E
:102C0600EA935A934A93E0E0F0E0FA93EA930E943B
:102C1600B409005C1F4FEF81F0E0FA93EA931A9330
:102C26000A933A932A93E3E0EA935A934A93E0E0AD
:102C3600F0E0FA93EA930E94B40902E611E0205FFD
:102C46003F4FEE81F0E0FA93EA931A930A933A9390
:102C56002A93E3E0EA935A934A93E0E0F0E0FA938A
:102C6600EA930E94B409005C1F4F28C0005C1F4F06
:102C7600E985F0E0FA93EA931A930A933A932A9332
:102C8600E3E0EA935A934A93E0E0F0E0FA93EA939A
:102C96000E94B409205F3F4FE885F0E0FA93EA937B
:102CA6001A930A933A932A93E3E0EA935A934A9340
:102CB600E0E0F0E0FA93EA930E94B4090E944C2106
:102CC6002A960895EAEFFFEFE093D607F093D70729
:102CD60008952C97E0E0E883EFE1E983E7E0EA83F3
:102CE600EFEFEB83E7E0EC83E0EEED830E94452116
:102CF600E091D607F091D7073C968F0129E830E09E
:102D0600A091D607B091D707AF3DE1E0BE0794F09A
:102D1600E091D207F091D307E093D407F093D5075B
:102D2600E091BC07E03019F00E94250FF9CFE0E0F2
:102D3600E093CC07A091BC07A23038F0A33020F472
:102D4600A091CA07A23009F41AC0A091D207B09187
:102D5600D307A536E0E0BE0790F0E091D207F091E8
:102D6600D307E093D407F093D507E091BC07E03092
:102D760019F00E94250FF9CFE0E0E093CC07A0916F
:102D8600CC07A03061F0A0E00B99A1E0A13030F4AF
:102D9600A091CE07B091CF07D39708F401C020C306
:102DA6000F3DE1E01E0714F00EED11E0A091D707EC
:102DB600AA2312F40C946517E091D607F091D70771
:102DC600FA93EA93F8013296FA93EA93EAE2F0E08C
:102DD600FA93EA93E9EEF0E0FA93EA93E0E0F0E0A2
:102DE600FA93EA930E94980BE091D607F091D707E1
:102DF600FA93EA931A930A933A932A933A932A9365
:102E0600E8E0F1E2FA93EA930E94020AE091D6071B
:102E1600F091D707FA93EA931A930A93F901BD96AC
:102E2600FA93EA93F901BD96FA93EA93E8E0F1E2A0
:102E3600FA93EA930E94020AE091D607F091D70727
:102E4600FA93EA931A930A93F901BD97FA93EA93D0
:102E5600F901BD97FA93EA93E8E0F1E2FA93EA936F
:102E66000E94020AE091D607F091D707FA93EA93F7
:102E76001A930A93F901E65AFF4FFA93EA93F90176
:102E8600E65AFF4FFA93EA93E8E0F1E2FA93EA93FF
:102E96000E94020AE091D607F091D707FA93EA93C7
:102EA6001A930A93F901EA55F040FA93EA93F90165
:102EB600EA55F040FA93EA93E8E0F1E2FA93EA93EE
:102EC6000E94020AA0E00B99A1E0A13030F4A09183
:102ED600CE07B091CF07DD9708F401C081C2A0915B
:102EE600CA07A23011F40C94B21840E0423010F038
:102EF6000C94B118A091D607B091D707AF3DE1E089
:102F0600BE070CF02BC1E091D607F091D707369695
:102F16008F010F3DE1E01E0714F00EED11E0A091C8
:102F2600BC07A33070F0A0E00B99A1E0A13040F4FB
:102F3600A091CE07B091CF07A734E0E0BE0708F412
:102F460001C04EC20E94250FF0E0EC87FD870E946B
:102F5600250FF0E0EE87FF870E94250FF0E0E88B53
:102F6600F98B50E0533010F00C94A618E52FF0E0E2
:102F7600DE011C96EE0FFF1FEA0FFB1FBF01E52FB8
:102F8600F0E0DE011C96EE0FFF1FAE0FBF1F0E9482
:102F96000521A0E8B0E00E941021EA1BFB0BDB0133
:102FA600ED93FC93E52FF0E0DE011C96EE0FFF1F7C
:102FB600EA0FFB1FBF0100801180E091CA07AEED4A
:102FC600B7E0F0E0EE0FFF1FAE0FBF1F0E94052116
:102FD600D0010E947220DB01ED93FC93E52FF0E017
:102FE600DE011C96EE0FFF1FAE0FBF1FED91FD9188
:102FF6000E9466200E946420FE93EE93E52FF0E087
:10300600DE011C96EE0FFF1FAE0FBF1F0E940521AB
:10301600F17069F0E52FF0E0DE011C96EE0FFF1F60
:10302600AE0FBF1FED91FD91FF6FFE93EE93E52F5F
:10303600F0E0DE011C96EE0FFF1FAE0FBF1FED91F5
:10304600FD91E20FF31FFE93EE93E52FF0E0DE0114
:103056001C96EE0FFF1FAE0FBF1F0E940521E93E13
:10306600A0E0FA0764F0E52FF0E0DE011C96EE0F13
:10307600FF1FAE0FBF1FE8EEF0E0ED93FC93E52FC8
:10308600F0E0DE011C96EE0FFF1FAE0FBF1F0E9481
:103096000521BA9764F4E52FF0E0DE011C96EE0FE9
:1030A600FF1FAE0FBF1FEAE2F0E0ED93FC93A09185
:1030B600D707AA2382F1E091D607F091D707FA93B2
:1030C600EA931A930A93E52FA8EDB7E0F0E0EE0F26
:1030D600FF1FAE0FBF1F0E940521FA93EA93E52F4B
:1030E600F0E0DE015296EE0FFF1FAE0FBF1F0E94EB
:1030F6000521FA93EA93E52FF0E0DE011E96EE0F26
:10310600FF1FAE0FBF1F0E940521FA93EA93E2E06C
:10311600EA930E94730AE52FA8EDB7E0F0E0EE0F00
:10312600FF1FEA0FFB1F0F01E52FF0E0DE011C96E3
:10313600EE0FFF1FAE0FBF1F0E940521D001ED93BA
:10314600FC935F5F0FCFE091D607F091D7073696D5
:10315600E093D607F093D7074F5FC8CE41C140E052
:10316600423010F00C94F319A091D607B091D7070E
:10317600AF3DE1E0BE070CF033C1E091D607F09118
:10318600D70736968F010F3DE1E01E0714F00EEDCE
:1031960011E0A091BC07A23070F0A0E00B99A1E06D
:1031A600A13040F4A091CE07B091CF07A734E0E05C
:1031B600BE0708F401C014C10E94250FF0E0EC8799
:1031C600FD870E94250FF0E0EE87FF8750E0523022
:1031D60010F00C94E819E52FF0E0DE011C96EE0FD6
:1031E600FF1FEA0FFB1FBF01E52FF0E0DE011C9673
:1031F600EE0FFF1FAE0FBF1F0E940521A0E8B0E033
:103206000E941021EA1BFB0BDB01ED93FC93E52FDB
:10321600F0E0DE011C96EE0FFF1FEA0FFB1FBF0159
:1032260000801180E091CA07AEEDB7E0F0E0EE0F46
:10323600FF1FAE0FBF1F0E940521D0010E94722002
:10324600DB01ED93FC93E52FF0E0DE011C96EE0F1B
:10325600FF1FAE0FBF1FED91FD910E9466200E94D9
:103266006420FE93EE93E52FF0E0DE011C96EE0F50
:10327600FF1FAE0FBF1F0E940521F17069F0E52FF9
:10328600F0E0DE011C96EE0FFF1FAE0FBF1FED91A3
:10329600FD91FF6FFE93EE93E52FF0E0DE011C96A5
:1032A600EE0FFF1FEA0FFB1FBF0100801180A52F45
:1032B600B0E0119719F4EDE2F0E002C0E3EDFFEFA4
:1032C600E20FF31FE00DF11DDB01ED93FC93E52FFB
:1032D600F0E0DE011C96EE0FFF1FAE0FBF1F0E942F
:1032E6000521E93EA0E0FA0764F0E52FF0E0DE01F3
:1032F6001C96EE0FFF1FAE0FBF1FE8EEF0E0ED933A
:10330600FC93E52FF0E0DE011C96EE0FFF1FAE0FDB
:10331600BF1F0E940521BA9764F4E52FF0E0DE0195
:103326001C96EE0FFF1FAE0FBF1FEAE2F0E0ED9313
:10333600FC93A091D707AA2382F1E091D607F091DA
:10334600D707FA93EA931A930A93E52FA8EDB7E005
:10335600F0E0EE0FFF1FAE0FBF1F0E940521FA938C
:10336600EA93E52FF0E0DE015296EE0FFF1FAE0F57
:10337600BF1F0E940521FA93EA93E52FF0E0DE01D4
:103386001E96EE0FFF1FAE0FBF1F0E940521FA9378
:10339600EA93E2E0EA930E94730AE52FA8EDB7E00C
:1033A600F0E0EE0FFF1FEA0FFB1F0F01E52FF0E025
:1033B600DE011C96EE0FFF1FAE0FBF1F0E940521F8
:1033C600D001ED93FC935F5F02CFE091D607F091B9
:1033D600D7073696E093D607F093D7074F5FC0CE50
:1033E6000E944C2162960895AB81A63660F4A336FE
:1033F60050F0AA81A63638F4A33628F0A981A6365D
:1034060010F4A336D0F4E6E6EA930E94AF0EE6E0A7
:10341600EA930E94AF0EE0E6EA930E94AF0EEB81BC
:10342600EA930E94AF0EEA81EA930E94AF0EE98109
:10343600EA930E94AF0E0E94AA0EA881A13310F053
:10344600A333D0F0E1E0EA930E94AF0EE6E0EA9300
:103456000E94AF0EE0E2EA930E94AF0EE1E0EA932B
:103466000E94AF0EE2E3EA930E94AF0EE0E0EA9319
:103476000E94AF0E0E94AA0E3BC3A881A33030F172
:10348600EBE4EA930E94850FE881F0E03397EA9334
:103496000E94850FE881AEEDB7E0F0E0EE0FFF1F6A
:1034A600AE0FBF1FEC91EA930E94850FE881AEED47
:1034B600B7E0F0E0EE0FFF1FAE0FBF1F0E94052121
:1034C600EF2FF0E0EA930E94850F16C0E881A0E096
:1034D600B0E0F0E0EE0FFF1FEA0FFB1F0F01E881DF
:1034E600AEEDB7E0F0E0EE0FFF1FAE0FBF1F0E947C
:1034F6000521D0010E9427210C94641F0E944721B8
:10350600E091CB07F0E0309711F00C94E11AA0910E
:10351600D007B091D107A93CE0E0BE07B8F0A09172
:10352600CB07A23098F4E091B906E03019F00E947A
:10353600430FF9CFE3E5EA930E94AE0FE1E0E09393
:10354600CB07E0E0E093D007E093D107A091CC074A
:10355600A03041F4A091C907A03021F4A091CB0777
:10356600A03009F02AC0E091BC07E03019F00E94B3
:10357600250FF9CFE091CA07F0E0309711F4E5E5A1
:103586000BC0E130A0E0FA0711F4E9E405C0E2302F
:10359600A0E0FA0721F4EAE5EA930E94AC0FE2E024
:1035A600E093CB07E1E0E093CC078CDBE0E0E0932F
:1035B600D207E093D307E093BD0780C0E130A0E0D7
:1035C600FA0711F00C94361BA091B906A93010F435
:1035D6000C94351B0E94430F1E2F0E94430F0E2F83
:1035E6000E94430F3E2F0E94430F2E2F0A933A93B9
:1035F6002A931A93F9DEE091C907E03049F5E09184
:10360600CA07F0E0E230A0E0FA0769F40E94430F2F
:103616000E94430F0E94430F0E94430F0E2F0E94E9
:10362600430F3E2F10C0E130A0E0FA0751F40E948C
:10363600430F0E2F0E94430F3E2F0E94430F2E2F43
:1036460002C0309729F40A933A932A931A93ADDA73
:10365600E091B906E03019F00E94430FF9CFE0E09F
:10366600E093CB072BC0E230A0E0FA0739F5A09132
:10367600CA07A23051F4A091D207B091D307A03562
:10368600E0E0BE0710F45F9708F40DC0A091C807EC
:10369600A03021F4A091BD07A03009F004C0EAE5EE
:1036A600EA930E94AC0FA091D207B091D307A73E30
:1036B600E0E0BE0718F0E0E0E093CB07E091C90731
:1036C600F0E0E130A0E0FA07E9F4E0E0E093C907B2
:1036D600E5EFF5E0FA93EA93E4E0EA93E0E0F0E060
:1036E600FA93EA93EFEFFFEFFA93EA930E94B60F8D
:1036F600E091CA07EA93E8EFF0E0FA93EA930E94B2
:103706000E1204C0309711F00C94231CE091CC07E4
:10371600E03009F0DEDA0E948D11E130A1F4A091CB
:10372600CA07AF5FA093CA07A33018F0E0E0E093A2
:10373600CA07E091CA07EA93E8EFF0E0FA93EA9342
:103746000E940E127CC0E23011F00C94E11BE09155
:10375600CA07AEEDB7E0F0E0EE0FFF1FAE0FBF1FDA
:103766006D917C91ECEFF9E0DF01E091CA07F0E0A2
:10377600EE0FFF1FEA0FFB1F0E9409216E177F073E
:10378600E0F4E091CA07AEEDB7E0F0E0EE0FFF1F00
:10379600EA0FFB1FCF0160817181E091CA07ACEC93
:1037A600B9E0F0E0EE0FFF1FEA0FFB1F0E940921B0
:1037B600E60FF71FDC01ED93FC9341C0E33011F0F7
:1037C6000C941D1CE091CA07AEEDB7E0F0E0EE0FD9
:1037D600FF1FAE0FBF1F6D917C91E4EEF9E0DF0194
:1037E600E091CA07F0E0EE0FFF1FEA0FFB1F0E94F1
:1037F6000921E617F707E8F4E091CA07AEEDB7E04E
:10380600F0E0EE0FFF1FEA0FFB1F0F0160817181D1
:10381600E091CA07ACECB9E0F0E0EE0FFF1FEA0F4B
:10382600FB1F0E940D21FB01EA1BFB0BD001ED9350
:10383600FC9305C0E43019F4E4E0E093C90756C1EF
:10384600E430A0E0FA0791F5E5E0E093C907E0E08F
:10385600E093CD07EAEFF5E0FA93EA93E4E0EA9322
:10386600E0E0F0E0FA93EA93EFEFFFEFFA93EA93E2
:103876000E94B60FE091C907A091CD07EA0FEA931F
:10388600EFE0F8E7FA93EA930E940E12E091CD0773
:10389600AEEDB7E0F0E0EE0FFF1FAE0FBF1F0E94C8
:1038A6000521E093F607F093F70706C0E530A0E0A0
:1038B600FA0711F00C94451D0E948D11E13011F0AC
:1038C6000C94A11CE091CD07AEEDB7E0F0E0EE0F51
:1038D600FF1FAE0FBF1F0E940521A091F607B091F2
:1038E600F707EA17FB0721F0E091CD07EA93C5DD5C
:1038F600A091CD07AF5FA093CD07AC3018F0E0E004
:10390600E093CD07E091C907A091CD07EA0FEA93AE
:10391600EFE0F8E7FA93EA930E940E12E091CD07E2
:10392600AEEDB7E0F0E0EE0FFF1FAE0FBF1F0E9437
:103936000521E093F607F093F707A3C0E23011F0F4
:103946000C94E81CE091CD07AEEDB7E0F0E0EE0F89
:10395600FF1FAE0FBF1F6D917C91ECEFF9E0DF0109
:10396600E091CD07F0E0EE0FFF1FEA0FFB1F0E946C
:1039760009216E177F0740F5E091CD07AEEDB7E060
:10398600F0E0EE0FFF1FEA0FFB1FCF016081718190
:10399600E091CD07ACECB9E0F0E0EE0FFF1FEA0FC7
:1039A600FB1F0E940921E60FF71FDC01ED93FC9334
:1039B600E091C907A091CD07EA0FEA93EFE0F8E797
:1039C600FA93EA930E940E125CC0E33011F00C9455
:1039D600301DE091CD07AEEDB7E0F0E0EE0FFF1F32
:1039E600AE0FBF1F6D917C91E4EEF9E0DF01E0912F
:1039F600CD07F0E0EE0FFF1FEA0FFB1F0E94092123
:103A0600E617F70748F5E091CD07AEEDB7E0F0E031
:103A1600EE0FFF1FEA0FFB1F0F0160817181E0911E
:103A2600CD07ACECB9E0F0E0EE0FFF1FEA0FFB1F8D
:103A36000E940D21FB01EA1BFB0BD001ED93FC93C9
:103A4600E091C907A091CD07EA0FEA93EFE0F8E706
:103A5600FA93EA930E940E1214C0E43091F4E091B6
:103A6600CD07AEEDB7E0F0E0EE0FFF1FEA0FFB1F4C
:103A7600A091F607B091F707A083B183E1E0E09348
:103A8600C90734C0E83CA0E0FA0721F50E948D1171
:103A9600E130F9F0E230E9F0E330D9F0E430C9F48E
:103AA600E0E0E093C907E0E0F6E0FA93EA93E4E0A9
:103AB600EA93E0E0F0E0FA93EA93EFEFFFEFFA9390
:103AC600EA930E94B60FEAEFF0E0FA93EA930E94B7
:103AD600661F0CC0EA3FA0E0FA0741F40E94A70C5B
:103AE600E13020F0E0E0E093C907C7980E944E213C
:103AF600249608951A93E7E4EA930E94AE0FE0E055
:103B0600E093D007E093D107E5E0E093CB07A091DF
:103B1600B906A23140F4A091D007B091D107A436DE
:103B2600E0E0BE0708F001C0F2CF10E01C3010F054
:103B36000C942D1E1330A8F4E12FAEEDB7E0F0E0A3
:103B4600EE0FFF1FEA0FFB1F0F01E12FA0E0B0E011
:103B5600F0E0EE0FFF1FAE0FBF1F0E941721D0012E
:103B66002EC0A091B906A23060F1E12FAEEDB7E00C
:103B7600F0E0EE0FFF1FEA0FFB1FFF93EF930E948B
:103B8600430FAF91BF91F0E0ED93FC93E12FAEEDC3
:103B9600B7E0F0E0EE0FFF1FEA0FFB1FFF93EF9376
:103BA600DF010E940521FF93EF930E94430FFE2F32
:103BB600E0E0AF91BF91EA2BFB2BAF91BF91ED9364
:103BC600FC93E12FAEEDB7E0F0E0EE0FFF1FAE0F76
:103BD600BF1F6D917C91E4EEF9E0DF01E12FF0E08B
:103BE600EE0FFF1FEA0FFB1F0E9409216E177F07CA
:103BF600C0F0E12FAEEDB7E0F0E0EE0FFF1FAE0F25
:103C0600BF1F6D917C91ECEFF9E0DF01E12FF0E051
:103C1600EE0FFF1FEA0FFB1F0E940921E617F707A9
:103C2600B8F4E12FAEEDB7E0F0E0EE0FFF1FEA0FBC
:103C3600FB1FBF01E4E1FAE0DF01E12FF0E0EE0F48
:103C4600FF1FEA0FFB1F0E940921DB01ED93FC9386
:103C56001F5F6CCFE0E0E093CB0719910895E0E099
:103C6600EBBBEABBE0E8E8BBE7E8E7BBE0E0E5BBC7
:103C7600E4BBE2BBE0E1E1BBE3B9E2B9E0E0E0933B
:103C86006200E0936100E0936500E0936400E0BFAA
:103C9600E4E0E3BFE6E0E2BFE0E0E1BFEFBDEEBD9A
:103CA600EDBDECBDE7BDE6BDEBBDEABDE9BDE8BDDA
:103CB600E0937900E0937800E5BDE4BDE3BDE093D1
:103CC6008B00E0938A00E0938900E0938800E093FC
:103CD6008100E0938000E0938700E0938600E09304
:103CE6008500E0938400E0938300E0938200E093F4
:103CF6006A00EABFE9BFE1E0E7BFE0E0E0937D00EC
:103D0600EBB9E8EDEAB9E6E0E0939500E0E0E09390
:103D16009000E8E0E9B9E0E0E0939B00E8EDE0938D
:103D26009A00E6E0E0939D00E0E0E0939800E7E685
:103D3600E0939900E0E8E8B9E0E0E0BDE6B9E2E545
:103D4600EDB9E0E0EEB9E093740078940E9489063C
:103D56000E943F0DE0E0F0E0FA93EA930E947207BA
:103D6600E6E0F6E0FA93EA93E0ECF0E0FA93EA9301
:103D7600E0E7F0E0FA93EA93E8EFF0E0FA93EA93EB
:103D8600E0E0F0E0FA93EA930E949209C798E8EC23
:103D9600F0E0FA93EA930E94661FEDE0F6E0FA93EC
:103DA600EA93E0ECF0E0FA93EA93E0E8F0E0FA93C5
:103DB600EA93E0E0FFE1FA93EA93E0E0F0E0FA93B9
:103DC600EA930E949209E8ECF0E0FA93EA930E94E3
:103DD600661FE4E1F6E0FA93EA93E0ECF0E0FA938A
:103DE600EA93E0E9F0E0FA93EA93E7E0F0EEFA937B
:103DF600EA93E0E0F0E0FA93EA930E949209E8EC95
:103E0600F0E0FA93EA930E94661FEBE1F6E0FA937C
:103E1600EA93E0ECF0E0FA93EA93E0E7F0E0FA9355
:103E2600EA93E0E0F0E0FA93EA93FA93EA930E94C9
:103E36009209E8ECF0E0FA93EA930E94661FE2E248
:103E4600F6E0FA93EA93E0ECF0E0FA93EA93E0E81E
:103E5600F0E0FA93EA93E0E0F0E0FA93EA93FA935B
:103E6600EA930E949209E8ECF0E0FA93EA930E9442
:103E7600661FE9E2F6E0FA93EA93E0ECF0E0FA93E3
:103E8600EA93E0E9F0E0FA93EA93E0E0F0E0FA93EF
:103E9600EA93FA93EA930E9492090E944C10E1E099
:103EA600E093C90727DEA895EFE1E1BDEFE0E1BDAC
:103EB600A89524DBFDCFFFCFE881EFB9779BFECF36
:103EC600EFB121960895E991F991309639F080EA9B
:103ED6009FE00197F1F7A8953197C9F70895552303
:103EE60042F4503811F4E0FF04C03196691F791F7F
:103EF6006BF050E8572711F45F9373C05F3F31F0C2
:103F0600660F000C57956795752F08955F930020EF
:103F16000AF073C06CC050E8192E1522880F991F3D
:103F26009527550F879550E8072E0522660F771FB0
:103F36007527550F67950895689401C0E8945F93B7
:103F4600F2DF703818F07F3F08F44BC056E1571B7C
:103F5600AAF4519558300EF4593030F0EFEFFFEFD8
:103F66006FEF7FE777F91AC077275523B9F0EE0F81
:103F7600FF1F661F771F5A95D1F710C07727583055
:103F860028F0EF2FF62F672F5850F9CF552331F031
:103F960076956795F795E7955A95D1F700200AF437
:103FA60080D05F910895689401C0E894309760408E
:103FB6007040B1F0002426F0772312F4009471D0FB
:103FC600172E7EE1112032F07A95EE0FFF1F661F45
:103FD600111CF9CFEF2FF62F612D5F938ADF5F91CA
:103FE6000895EE27FF27662777275F910895EFEF5D
:103FF600FFEF6FE77FEF5F910895EFEFFFEF6FE75A
:104006007FE75F9108955F9386DF703821F4112072
:104016000AF4EDCFF2CF903809F4E3CF01240894E7
:10402600970B1BF4D4F30020F3CF792F1F932F9314
:104036003F934F93112411272227332744275527CF
:1040460090E2AE17BF078607410730F0AE1BBF0BE5
:10405600860B410B089401C08894551F221F331FFD
:10406600111CAA1FBB1F881F441F9A9551F7F901FF
:10407600612D4F913F912F911F91662332F0550F7D
:10408600EE1FFF1F661F7A9543F229DF5F910895A1
:10409600EA0FFB1F681F791F0895F195E195F0401F
:1040A6000895F09560957095E195FF4F6F4F7F4F9E
:1040B6000895EE230E2EEA2F19F0E6950A94E9F7F5
:1040C6000895F595E795F595E795F595E795F595B1
:1040D600E79508956F2F660F660B762F0895FA9F62
:1040E600F02DEB9FF00DEA9FE02DF10D08957A9FDC
:1040F600702D6B9F700DF89F700DE99F700D6A9F74
:10410600602D710DFB9F600D711DE89F600D711D87
:104116008827FA9FF02D610D781FEB9FF00D611D2A
:10412600781FEA9FE02DF10D681F781F089549D08A
:10413600D6DF0EF4B2DF089552D0D9DF0EF4B1DF28
:1041460008950024112490E1AA0FBB1F001C111C26
:104156000E1A1F0A18F40E0E1F1E01C0A1609A95B2
:1041660099F7FD01D00108953F934F935F93002483
:1041760011244427552730E2AA0FBB1F881F991F19
:10418600001C111C441F551F0E1A1F0A460B570B05
:1041960028F40E0E1F1E461F571F01C0A1603A9538
:1041A60059F7FD01BC01D001CA015F914F913F91C2
:1041B600089515D0D9DF0EF474DF0895C2DFFD012E
:1041C6000895E894F7FF02C068DF6894B7FF06C059
:1041D600A095B095119600F8039400FA0895E89416
:1041E60077FF02C05EDF689497FF0BC00024A0959E
:1041F600B095809590951196801D901D00F80394BA
:1042060000FA0895ED91FC91119708950590F491A7
:10421600E02D0895A591B49108951B2EBF2FF12D81
:104226001A2EAE2FE12D0895119602D0FE2F11976A
:10423600E199FECFFF93FFB7F894AEBBBFBBE09A00
:10424600EDB3FFBFFF91089507D01196EF93EF2FBF
:1042560003D0EF9111970895E19B02C0A895FCCF7A
:104266009FB7F894AEBBBFBBE09A8DB3E81719F0C1
:10427600EDBBE29AE19A9FBF0895AE17BF07860786
:10428600970708955A934A933A932A931A930A934F
:1042960008955D814C813B812A81198108810895A9
:00000001FF
