:060000000C94FE040C94B8
:1000060000000C9400000C9400000C9400000C946A
:1000160000000C9400000C9400000C9400000C945A
:1000260000000C9400000C9400000C9400000C944A
:1000360000000C9400000C9400000C94B50C0C9479
:1000460000000C94C80A0C9400000C94380B0C9415
:1000560000000C9400000C9400000C9400000C941A
:1000660000000C9400000C9400000C9400000C940A
:1000760000000C947F0B0C9400000C94AA0B0C94BB
:1000860000000C94000000000000000000000000CA
:10009600000000000000000000000000000000005A
:1000A600000000000000000000000000000000004A
:1000B60000000000000000000000000000000180B9
:1000C6000180000000000000018003C007E0066018
:1000D6000C300C3018181818300C300C60066006FE
:1000E6007FFE7FFE000000007FFE7FFE600660064A
:1000F600300C300C181818180C300C30066007E05D
:1001060003C001800000000007E00C301818181822
:1001160018181818181818181818181818180C304D
:1001260007E00000000000000180038007800180D6
:1001360001800180018001800180018001800180B1
:1001460003C000000000000007E00C30181810087B
:1001560000180030006000C00180030006000C1883
:100166001FF800000000000007E008101008100843
:10017600001000E0003000180008000818180C30C5
:1001860007E00000000000000030007000F001B041
:10019600033006300C3018301FF8003000300030C5
:1001A60000780000000000000FF80FF008001000B3
:1001B60010001FE0003000180018001818181C3036
:1001C6000FE000000000000003E006100C0008002D
:1001D60018001FE01C3018181818181818180C30BA
:1001E60007E00000000000001FF8101800100020B3
:1001F6000020004000400080008001000100020055
:10020600020000000000000007E00C300810081093
:100216000C3007E00C3018181818181818180C307D
:1002260007E000000000000007E00C30181818185E
:1002360018180C3807F8001800100020002000C01D
:1002460003000000000000000000000000000000A5
:100256000000000000000000000000000000000098
:100266000000000000000000018001800180018084
:1002760001800180018001800180018000000180F1
:100286000180000000000000006000800100020004
:1002960002000400040004000200020001000080C5
:1002A6000060000000000000060001000080004021
:1002B6000040002000200020004000400080010097
:1002C60006000000000000000000000800180030D2
:1002D600006000C00180030006000C00180010003A
:1002E6000000000000000000000001800180018085
:1002F600018001803FFC3FFC01800180018001807C
:100306000180000000000000000000000000000066
:10031600000000003FFC3FFC000000000000000061
:1003260000000000000000000000000001800180C5
:1003360000000000000000000000018001800000B5
:1003460000000000000000000030006000C00180D6
:10035600030006000C0006000300018000C00060D8
:1003660000300000000000000000000000000FF058
:100376000FF00000000000000FF00FF0000000007A
:1003860000000000000000000C00060003000180D1
:1003960000C000600030006000C00180030006005D
:1003A6000C0000000000000003C006600C300C309A
:1003B6000430006000C001800180018000000180DF
:1003C600018000000000000000E000E001200120A4
:1003D60002300210041004180FF81818100C300C14
:1003E600781E0000000000007FFE301E3002300044
:1003F60030003FF83FFC300E30063006300E3FFC32
:100406007FF80000000000007FF03018300C300C40
:1004160030183FF83FFC300E30063006300E3FFCF9
:100426007FF80000000000007FFE301E3002300022
:100436003000300030003000300030003000300036
:10044600780000000000000003FC011801180118E4
:100456000118011801180218041808183FFC383C46
:10046600300C2004000000007FFC301C30043000FB
:1004760030803F803F803080300030003004301CB8
:100486007FFC00000000000063C6518A11880990B5
:10049600099007E007E00DB019981188318C218486
:1004A60063C60000000000000FE03838600C00044E
:1004B600000C03F80008000400060006600C3FF874
:1004C6000FE0000000000000781E300C301C303CAD
:1004D600306C30CC318C330C360C3C0C380C300C78
:1004E600781E0000000003C0799E300C301C303CA2
:1004F600306C30CC318C330C360C3C0C380C300C58
:10050600781E000000000000783C306C30C031805E
:1005160033003F00398030C0306030303018300C46
:10052600781E00000000000001FE008C008C008C8C
:10053600008C010C010C010C020C020C040C680C62
:10054600701E000000000000700E381C381C342C91
:10055600342C342C324C324C324C318C318C318C24
:10056600781E000000000000781E300C300C300CA5
:10057600300C3FFC3FFC300C300C300C300C300C97
:10058600781E00000000000007E01E78381C300CC2
:10059600700E700E700E700E700E300C381C1E78B9
:1005A60007E00000000000007FFE3FFC300C300C2E
:1005B600300C300C300C300C300C300C300C300C55
:1005C600781E0000000000007FF8300C3006300670
:1005D6003006300C3FF8300030003000300030007C
:1005E600780000000000000007E01E78381C300488
:1005F600700070007000700070003004381C1E78A7
:1006060007E00000000000007FFE61864182018055
:1006160001800180018001800180018001800180CC
:1006260003C0000000000000780E300418040C0817
:1006360006080310019000E0006000400C400C80AA
:10064600070000000000000003C001800FF0399C85
:100656006186418241826186399C0FF0018001806A
:1006660003C0000000000000781E300418080C10BB
:1006760006200340018002C0046008301018200CD8
:10068600781E000000000000781E300C300C300C84
:10069600300C300C300C300C300C300C300C300C74
:1006A6007FFE000600020000781E300C300C300C75
:1006B600300C380C1FFC000C000C000C000C000C5D
:1006C600001E0000000000007BDE318C318C318C76
:1006D600318C318C318C318C318C318C318C318C2C
:1006E6007FFE0000000000007BDE318C318C318CF7
:1006F600318C318C318C318C318C318C318C318C0C
:100706007FFE0006000200007C00580058005800DA
:10071600180018001FF8180C180618061806180CEA
:100726003FF8000000000000781E300C300C300C42
:10073600300C300C3F8C304C302C302C302C304C64
:100746007F9E00000000000078003000300030007E
:10075600300030003FF8300C300630063006300CE2
:100766007FF800000000000007E01E78381C300CFF
:10077600000E000E00FE000E000E300C381C1E7817
:1007860007E000000000000079F8330C320436065A
:10079600360636063E063606360636063204330C6E
:1007A60079F800000000000003FE060C0C0C0C0C8F
:1007B6000C0C060C03FC030C060C0C0C180C300C71
:1007C600781E000000000A000A000A000500050065
:1007D60005000500050005000500050001001400E0
:1007E60014001400050005000500050005000500BD
:1007F600050005000000DC00DC00DC00F401F4016B
:10080600F401F401F401F401F401F40101005A00C9
:100816005A002D00640064006400640064006400F3
:100826006400640000001027E80364000A00010069
:1008360000100001100001000000FAFF2020202017
:100846002000D1CBC5C40020202B0020202D00CFB6
:10085600C0D3C7C000202020202020202020202018
:10086600202020202000CDC0CFD0DFC6C5CDC8C5F2
:1008760000D4C0C700D2CECA00CDC0CFD0DFC6C517
:10088600CDC8C520C820D2CECA00C2CEC7C1D3C6E5
:10089600C4C5CDC8DF00CEC1CD00C0CCCF00CFC50A
:1008A600D00020CACD0020CAD200CACDD200C1DBFA
:1008B600D1D2C0D6CF00C3D600CDE0EFF0F3E3F33C
:1008C60020F3E1E0E2FC200A00CDE0EFF0F3E3E8FC
:1008D60020EFF0E8E1E0E2FC200A00CFEEE4E4E0FD
:1008E600E920EEE1EEF0EEF2EEE2200A00CDE520A0
:1008F600E3EEEDE82C20EFEEECE5E4EBE5EDEDE5DF
:10090600E5200A00CCC5CDDE00CDC0C7C0C400C4FA
:10091600C5D1CACECC00010002003E080600000583
:10092600420806000605420806000C0542080600B5
:100936001205420805001805480804001D054D0863
:1009460004002105510806002505550802009807F0
:10095600400811002B055B0811003C055B080B00E5
:100966004D056C0804005805770804005C057B08F3
:10097600040060057708110064057F080C00750502
:100986009008040081059C0804008505A008040061
:100996008905A40804008D05A80804009105AC0883
:1009A60004009505B00808009905B4080D00A105D6
:1009B6005F080D00AE055F080300BB05BC08050017
:1009C600BE050A090600C3050F090600C905550834
:1009D6000700CF0515090700D60515090700DD052F
:1009E60015090700E40565080700EB05650807001B
:1009F600F20565080000F894EE27ECBBF1E0F5BFC0
:100A0600E5BFE0936C00F8E1F1BDE1BD8DE0A2E049
:100A1600BB27ED938A95E9F780E090E1A0E0B1E08D
:100A2600ED930197E9F7ECE1F9E08591959100974F
:100A360061F0A591B59105901590BF01F001059063
:100A46000D920197E1F7FB01F0CF8BBFEFEFEDBF02
:100A5600E0E1EEBFC0E0D5E00C94E413EFEFEABBB3
:100A6600E4BBE1B3E06EE1BBE2B1E06AE2B908954E
:100A76000E944316F595E795E575AE2FE881EE0FD2
:100A8600EA7AEA2BE8830E9443160E94A81AE373C7
:100A9600AE2FE881EE0FEE0FEC7CEA2BE8830E9486
:100AA60043160E94A41AEF70AE2FE881E295E07F0C
:100AB600EA2BE88323C095981D9A0E9446161D9836
:100AC6000E9446161D9A959A0E9446160895959A72
:100AD60097980E944C1600001F98969800001F9A3F
:100AE600969A00000BC0959A979A0E944C160000A1
:100AF6001F98969800001F9A969A000021960895CE
:100B06001A930A931A810B81959A979A1BBB05BB78
:100B160000001F98969800001F9A969A0000198167
:100B26000881249608959ADFC6DF0E9454160E9413
:100B360054160E9454160E945816E2EEEA93C7DF36
:100B4600E3E2EA93D0DFE2E00E945E16E0EE0E9466
:100B560065160E946C16E0EE0E9472160E945416EC
:100B6600E8E7F0E00E947916E6EE0E946516EAEDE7
:100B7600EA93B9DFE3E7EA93B6DFE0EBEA93A7DFB0
:100B8600E4E20E947D160E948416EFED0E9488160C
:100B9600EFE00E947D16E4EB0E947216E4E80E94E4
:100BA6007D16EAE5EA939FDFEAE00E947D16E8E01B
:100BB6000E947D16E6EB0E946516ECE20E947D1609
:100BC600ECE0EA9390DFEAE0EA938DDFE0E00E9452
:100BD6005E16EAEBEA937BDFEFE0EA9384DFE8EB6D
:100BE600EA9375DFE7E00E948816E6E30E94721634
:100BF600ECEBEA936CDFE0E5EA9375DFE0E9EA9374
:100C060072DFE0E50E948816E0EF0E947216E5E0CA
:100C1600F0E00E947916E9E2EA9359DFE0EDEA9303
:100C260056DFEDE0EA935FDF0895EAE2EA934FDFED
:100C3600EF81EA9358DFEE81EA9355DFED81EA937F
:100C460052DFEC81EA934FDFEBE2EA9340DFEB8180
:100C5600EA9349DFEA81EA9346DFE981EA9343DFD3
:100C6600E881EA9340DF289608950E94871BE8E210
:100C7600EA932DDF0E948C16EFEDF1E00E949116AB
:100C8600EFE0F1E00E94941600E010E00031E1E0B0
:100C96001E0780F420E030E0203EE1E03E0738F415
:100CA600EC81FD810E949C162F5F3F4FF5CF0F5FB1
:100CB6001F4FECCFE9E2EA930ADF0E948E1B2696CD
:100CC60008951A930A930E94A016AA85BB8550968A
:100CD6001197BA93AA930E94A516AC85BD85509626
:100CE6001197BA93AA93A1DFECE2EA93F0DE10E043
:100CF6001032E8F400E00830C0F4E12FAA85BB8585
:100D0600F0E0EA0FFB1F1490E02FA0E80E949C1A67
:100D1600E121E13018F0EC81FD8102C0EA81FB811E
:100D2600FA93EA93EDDE0F5FE6CF1F5FE1CF1981FD
:100D3600088132C30E94AA16E033A0E0FA0719F42C
:100D4600ECE0F1E08EC1E133A0E0FA0719F4ECE241
:100D5600F1E087C1E233A0E0FA0719F4ECE4F1E030
:100D660080C1E333A0E0FA0719F4ECE6F1E079C1BB
:100D7600E433A0E0FA0719F4ECE8F1E072C1E533D8
:100D8600A0E0FA0719F4ECEAF1E06BC1E633A0E063
:100D9600FA0719F4ECECF1E064C1E733A0E0FA07D6
:100DA60019F4ECEEF1E05DC1E833A0E0FA0719F4BE
:100DB600ECE0F2E056C1E933A0E0FA0719F4ECE200
:100DC600F2E04FC1E132A0E0FA0719F4ECE6F2E0F6
:100DD60048C1E832A0E0FA0719F4ECE8F2E041C1B4
:100DE600E932A0E0FA0719F4ECEAF2E03AC1EF3290
:100DF600A0E0FA0719F4ECECF2E033C1EA33A0E024
:100E0600FA0719F4ECE2F3E02CC1EC33A0E0FA07A0
:100E160019F4ECE4F3E025C1ED33A0E0FA0719F488
:100E2600ECE6F3E01EC1EE33A0E0FA0719F4ECE8B5
:100E3600F3E017C1EF33A0E0FA0719F4ECEAF3E0A8
:100E460010C1EB32A0E0FA0719F4ECEEF2E009C1AA
:100E5600ED32A0E0FA0719F4ECE0F3E002C1E03C61
:100E6600A0E0FA0719F4ECECF3E0FBC0E13CA0E0EB
:100E7600FA0719F4ECEEF3E0F4C0E23CA0E0FA075E
:100E860019F4ECE0F4E0EDC0E33CA0E0FA0719F455
:100E9600ECE2F4E0E6C0E43CA0E0FA0719F4ECE486
:100EA600F4E0DFC0E53CA0E0FA0719F4ECE6F4E074
:100EB600D8C0E63CA0E0FA0719F4ECE8F4E0D1C0AB
:100EC600E73CA0E0FA0719F4ECEAF4E0CAC0E83C13
:100ED600A0E0FA0719F4ECECF4E0C3C0E93CA0E0AA
:100EE600FA0719F4ECEEF4E0BCC0EA3CA0E0FA071D
:100EF60019F4ECE0F5E0B5C0EB3CA0E0FA0719F414
:100F0600ECE2F5E0AEC0EC3CA0E0FA0719F4ECE444
:100F1600F5E0A7C0ED3CA0E0FA0719F4ECE6F5E031
:100F2600A0C0EE3CA0E0FA0719F4ECE8F5E099C0A1
:100F3600EF3CA0E0FA0719F4ECEAF5E092C0E03DD8
:100F4600A0E0FA0719F4ECECF5E08BC0E13DA0E077
:100F5600FA0719F4ECEEF5E084C0E23DA0E0FA07EA
:100F660019F4ECE0F6E07DC0E33DA0E0FA0719F4E1
:100F7600ECE2F6E076C0E43DA0E0FA0719F4ECE412
:100F8600F6E06FC0E53DA0E0FA0719F4ECE6F6E0FE
:100F960068C0E63DA0E0FA0719F4ECE8F6E061C0A7
:100FA600E73DA0E0FA0719F4ECEAF6E05AC0E83D9E
:100FB600A0E0FA0719F4ECECF6E053C0E93DA0E036
:100FC600FA0719F4ECEEF6E04CC0EA3DA0E0FA07A9
:100FD60019F4ECE0F7E045C0EB3DA0E0FA0719F4A0
:100FE600ECE2F7E03EC0EC3DA0E0FA0719F4ECE4D1
:100FF600F7E037C0ED3DA0E0FA0719F4ECE6F7E0BC
:1010060030C0EE3DA0E0FA0719F4ECE8F7E029C09D
:10101600EF3DA0E0FA0719F4ECEAF7E022C0EE3261
:10102600A0E0FA0719F4ECEAF0E01BC0E032A0E019
:10103600FA0719F4ECE4F2E014C0E130A0E0FA0794
:1010460019F4ECECF0E00DC0E230A0E0FA0719F478
:10105600ECEEF0E006C0E330A0E0FA0769F4ECE855
:10106600F0E0FA93EA930E94A0160E94A0160E944E
:10107600A0160E94A01625DE29960895A885B98592
:10108600EC91E03099F0ED91A887B987EA930E9438
:10109600AD160E94AD160E94AD160E94AD164ADE30
:1010A600EE81FF817096EE83FF83E8CF2A9608953E
:1010B600EC81F0E0E530A0E0FA0799F4A985BA855D
:1010C600E0E1F7E20E94B2160E94A0160E94AD1659
:1010D6000E94AD160E94B716E0E1F7E20E94BC1628
:1010E60004C0E430A0E0FA0799F4A985BA85E8EED1
:1010F600F3E00E94B2160E94A0160E94AD160E944E
:10110600AD160E94B716E8EEF3E00E94BC1604C0C6
:10111600E330A0E0FA0799F4A985BA85E4E6F0E0A1
:101126000E94B2160E94A0160E94AD160E94AD162D
:101136000E94B716E4E6F0E00E94BC1604C0E23056
:10114600A0E0FA0799F4A985BA85EAE0F0E00E94E2
:10115600B2160E94A0160E94AD160E94AD160E94FD
:10116600B716EAE0F0E00E94BC1604C0E130A0E049
:10117600FA0761F4E985E05DEA930E94A0160E94F1
:10118600A0160E94AD160E94AD16D4DD2B960895CA
:101196000E94C6160E94D81612F40E94E2160E94F9
:1011A600E91622F40E94F9160E94FE160E940917FB
:1011B6000E941C173CF4EA85FB850E949C160E943F
:1011C6002417F6CF05C12A970E94851BA98DBA8DD3
:1011D600EF89F88DEA1BFB0BAF01552332F4FA01B8
:1011E600AFEFBFEF0E94DA1AAF01AD89BE89EB8976
:1011F600FC89EA1BFB0BEE87FF87AF85AA2332F437
:10120600AFEFBFEF0E94DA1AEE87FF87EF89F88DFE
:10121600A98DBA8DAE17BF0718F4E1E0F0E002C061
:10122600EFEFFFEFEC87FD87EB89FC89AD89BE897F
:10123600AE17BF0718F4E1E0F0E002C0EFEFFFEFF2
:10124600EA87FB87AE85BF85FA01EA1BFB0BE887B9
:10125600F987E98DFA8DFA93EA93EA890E943117A4
:10126600FA93EA93E98DFA8DFA93EA93EE890E944E
:1012760031170E949416A889BB27E889F0E00E94DE
:10128600DA1A9F0100E010E0201731073CF0E989E7
:10129600FA890E949C160F5F1F4FF6CFEF89F88DD3
:1012A600A98DBA8DEA17FB0739F4EB89FC89AD895C
:1012B600BE89EA17FB0709F001C032C0E885F98547
:1012C600EE0FFF1FEE83FF83EE85FF850E94901AC7
:1012D600AE81BF81EA17FB0774F4AE85BF850E9415
:1012E6003717E887F987EC85FD85A98DBA8DEA0F52
:1012F600FB1FE98FFA8FAE81BF81A417B5077CF477
:10130600FA01A885B985EA0FFB1FE887F987EA8500
:10131600FB85AD89BE89EA0FFB1FED8BFE8B99CF4E
:101326000E948C1B6B9608950E94A5160E94A51616
:101336000E94A516E885F9850E943C170E94A01612
:1013460027DF0E94A516EC81FD810E943C170E94B2
:10135600A5160E94A5160E94A0161ADF0E94A516C1
:101366000E94A516AE81BF810E943717FA93EA93B1
:101376000E94A5160E94A0160BDFAA81BB810E94BF
:101386003717FA93EA930E94A5160E94A5160E94A3
:10139600A5160E94A016FCDE2C9608950E94C6167D
:1013A6000E94D81612F40E94E2160E94E91622F450
:1013B6000E94F9160E94FE160E9409170E941C1729
:1013C6003CF4EA85FB850E949C160E942417F6CF02
:1013D6001981088164960895129A139808951A93AC
:1013E6000A931A980E946C16E3ED0E9443179AC05E
:1013F6001A930A931A980E946C16E3E90E944317FF
:1014060091C01A98E5E0F0E00E947916E0E9EA93C7
:101416000E94C31480E991E00197F1F7E0E0EA93B6
:101426000E94C314E0E0EA930E94C3141A9A089536
:101436001A930A93D4DFE451F5408F01112312F475
:1014460000E010E00E945C17E5E5F5ED65E772E463
:101456000E94641767C01A930A93CADFE453F840E0
:101466008F01112312F400E010E00E945C17EEE1F8
:10147600FEE96EEC72E40E94641754C01A930A9354
:1014860010E00E946B1710F00C94940A0E947017DB
:101496000E947A1700E0003160F4A1DFE451F540C4
:1014A6000E948417A5DFE453F8400E9499170F5F46
:1014B600F2CFA091FC05AA2312F40E947017A09106
:1014C6000006AA2312F40E947A17E091F905F0911A
:1014D600FA056091FB057091FC050E94141ADF0164
:1014E600CB01E5E5F5ED65E774E40E94421A0E943A
:1014F600DB192F01E091FD05F091FE056091FF05D6
:10150600709100060E94141ADF01CB01EEE1FEE99C
:101516006EEC74E40E94421A0E94DB193F0171DFEF
:1015260011E0E12F0991199108951A9355DF1A9840
:101536001B9885E38A95F1F71A9A1B9A0E947017F1
:101546000E947A1710E0103140F472DF0E9484176F
:1015560082DF0E9499171F5FF6CFA091F905B0911F
:10156600FA058091FB059091FC050E94AE172F01AC
:10157600A091FD05B091FE058091FF0590910006B2
:101586000E94AE173F013DDF76C2EA93FA93EFB7AA
:10159600EA931A930A931BB10CB1E12FEC7191F502
:1015A600E0911606E03081F0ED2DD394F0E0EF5F88
:1015B600F94F0083E4E1ED1509F4DD24E091150609
:1015C600EF5FE09315061EC0E0911707EF5FE0930B
:1015D60017070E94B5170083E0911907EF5FE093A4
:1015E6001907E03079F4689420F8EFEFE0931907D3
:1015F600E0911707E03011F0E15002C0E0911907C1
:10160600E093170709911991E991EFBFF991E991D3
:1016160018951A93E0911907E030E1F3E091180765
:10162600EF5FE09318070E94B5171081F894E091D8
:101636001907E150E093190778941CC21A93E091B8
:101646001506E030E1F3EC2DC394F0E0EF5FF94FBF
:101656001081E4E1EC1509F4CC24F894E091150628
:10166600E150E0931506789405C20E94BA17E091FE
:101676002407E03099F0E150E0932407E091230736
:10168600EF5FE09323070E94C017E081ECB9A091B9
:101696002307A83019F4E0E0E093230774C0A09173
:1016A6002407A830E1F3F894E0912407E03011F420
:1016B6005D9916C0E0912207EF5FE09322070E9432
:1016C600C017A881A083A0912207A83019F4E0E0F2
:1016D600E0932207E0912407EF5FE093240702C01E
:1016E600E881ECB978947EC0E0E00E94C5177AC024
:1016F600E2E00E94C51776C00E94BA171A930A93B1
:1017060010919B0000919C00E12FEC71E9F4E091AF
:101716004507EF5FE09345070E94CB17EB5DF84F57
:101726000083A0914507A03219F4E0E0E093450755
:10173600A0914707AF5FA0934707A03229F4E0E0E6
:10174600E0934707689421F8099119911CC00E94FB
:10175600BA17E0918A07E030B1F0E150E0938A07CA
:10176600E0918907EF5FE09389070E94CB17E85B5A
:10177600F84FE081E0939C00A0918907A03419F40A
:10178600E0E0E0938907E991EFBFF991E991A9912A
:101796001895A0918A07A034E1F3F894E0918A079E
:1017A600E03021F4E0919B00E072C1F4E0918807FB
:1017B600EF5FE09388070E94CB17E85BF84FA8819C
:1017C600A083A0918807A03419F4E0E0E09388078D
:1017D600E0918A07EF5FE0938A0703C0E881E09310
:1017E6009C00789421960895EC810E94CE1779F496
:1017F600E0E0F5E0FA93EA93E0E1F0E00E94D31727
:101806000E94A0160E94DA17E0E1F0E038C0E2304C
:10181600A0E0FA0779F4E6E0F5E0FA93EA93E8E85F
:10182600F0E00E94D3170E94A0160E94DA17E8E89B
:10183600F0E025C0E330A0E0FA0779F4ECE0F5E04B
:10184600FA93EA93E0E0F1E00E94D3170E94A01613
:101856000E94DA17E0E0F1E012C0E430A0E0FA07F7
:10186600C9F4E2E1F5E0FA93EA93E8E7F1E00E94D1
:10187600D3170E94A0160E94DA17E8E7F1E0FA9360
:10188600EA93E7EFF0E0FA93EA930E94A0160E942B
:10189600A016F4DBB8C2E6E0F0E0FA93EA93EAE6D3
:1018A600F0E00E94E117EEE7F0E0FA93EA93E2EE49
:1018B600F0E00E94E117E6EFF0E0FA93EA93EAE53A
:1018C600F1E00E94E117EEE6F1E0FA93EA93E2ED29
:1018D600F1E00E94E117E7E0F0E0FA93EA93E9E627
:1018E600F0E00E94F11720DDEFE7F0E0FA93EA93CB
:1018F600E1EEF0E00E94F11717DDE7EFF0E0FA9372
:10190600EA93E9E5F1E00E94F1170EDDEFE6F1E07A
:10191600FA93EA93E1EDF1E00E94F11705DDE8E1C3
:10192600F5E0FA93EA93E1E0EA930E948C160E94AE
:10193600FE17EDE1F5E00E9404180E948C160E9445
:10194600FE17E1E2F5E0FA93EA93E3E0EA930E94F8
:101956008C160E94FE17E5E2F5E00E9409180E9427
:10196600FE170895AA93BA93EA93FA93EFB7EA9308
:10197600E6E0E2BF0E940E18AF3FE0E0BE0720F4AB
:10198600A0E9B7E00E941318A2E9B7E00E94131875
:10199600A4E9B7E00E941318E991EFBFF991E99124
:1019A600B991A99118951A9310E00E940E18D39731
:1019B60018F064DDE03009F45DC0E6E0F0E0E4151F
:1019C600F50528F4EAE6F0E04E165F0608F00EC0CC
:1019D6000E94191848F40E941E1830F40E940E182E
:1019E600A739E0E0BE0708F401C011E0EEE7F0E039
:1019F600E415F50528F4E2EEF0E04E165F0608F071
:101A060008C00E94191818F40E941E1808F001C098
:101A160012E0E6EFF0E0E415F50528F4EAE5F1E07A
:101A26004E165F0608F008C00E94191818F40E94A6
:101A36001E1808F001C013E0EEE6F1E0E415F50526
:101A460028F4E2EDF1E04E165F0608F00EC00E94A3
:101A5600191848F40E941E1830F40E940E18A7396F
:101A6600E0E0BE0708F401C014E0E0E0E093900770
:101A7600E0939107E12F199108950E94871B00E1D9
:101A860010E026E030E0EBE2F5E00E9423180E9429
:101A960028180E944108ECE3F5E00E9423180E94F2
:101AA6002D180E944108EE810E94341889F4EDE455
:101AB600F5E00E9423180E9428180E944108E8E5D4
:101AC600F5E00E9423180E942D180E94410899C132
:101AD600E130A0E0FA0789F4ECE5F5E00E9423186E
:101AE6000E9428180E944108E0E6F5E00E942318AB
:101AF6000E942D180E94410884C1E230A0E0FA0736
:101B060089F4E4E6F5E00E9423180E9428180E9452
:101B16004108E5E7F5E00E9423180E942D180E946F
:101B260041086FC1E530A0E0FA0721F0E630A0E0F9
:101B3600FA0709F406C0E730A0E0FA0711F00C94A2
:101B46000F0EE1E8F5E00E9423180E9428180E9473
:101B56004108E5E8F5E00E9423180E942D180E942E
:101B6600410800E510E0E0919607F09197070E9482
:101B760023183A932A93E4E0EA93EB85FC850E94C6
:101B860091160E945B08005A1F4FE9E8F5E00E9493
:101B960023180E9428180E944108005C1F4FE0E0AD
:101BA60020FCE1E00E9437180E9439180E94911625
:101BB6000E944018E091A007F091A1070E94231807
:101BC6000E944718159719F4E8E0F1E202C0E0E038
:101BD600F0E00E945218E091A207F091A3070E943C
:101BE60023180E944718169719F4E8E0F1E202C09C
:101BF600E0E0F0E00E945218E091A407F091A507FA
:101C06000E9423180E944718179719F4E8E0F1E29A
:101C160002C0E0E0F0E0F1C0E830A0E0FA0721F011
:101C2600E930A0E0FA0709F404C0EA30A0E0FA07B8
:101C360009F404C0EB30A0E0FA0709F404C0EC3064
:101C4600A0E0FA0709F406C0ED30A0E0FA0711F0AB
:101C56000C94A60EEDE8F5E00E9423180E942818C1
:101C66000E944108E1E9F5E00E9423180E942D1820
:101C76000E94410800E510E0E091A607F091A70751
:101C86000E9423180E944718189719F4E8E0F1E219
:101C960002C0E0E0F0E00E945218E091A807F0913F
:101CA600A9070E9423180E944718199719F4E8E01B
:101CB600F1E202C0E0E0F0E00E945218E091AA07CB
:101CC600F091AB070E9423180E9447181A9719F43F
:101CD600E8E0F1E202C0E0E0F0E0FA93EA930E9465
:101CE6004018E091AC07F091AD070E9423180E94BE
:101CF60047181B9719F4E8E0F1E202C0E0E0F0E0D3
:101D06000E945218E091AE07F091AF070E94231887
:101D16000E9447181C9719F4E8E0F1E202C0E0E0DF
:101D2600F0E00E945218E091B007F091B1070E94CE
:101D360023180E9447181D9719F4E8E0F1E202C043
:101D4600E0E0F0E05AC0EE30A0E0FA0721F0EF3014
:101D5600A0E0FA0709F406C0E031A0E0FA0711F0A6
:101D66000C94040FE5E9F5E00E9423180E94281858
:101D76000E944108E9E9F5E00E9423180E942D1807
:101D86000E944108005C1F4FE091B207F091B30733
:101D96000E9423180E9447181E9719F4E8E0F1E202
:101DA60002C0E0E0F0E00E945218E091B407F09122
:101DB600B5070E9423180E9447181F9719F4E8E0F8
:101DC600F1E202C0E0E0F0E0FA93EA930E945B08D9
:101DD600205F3F4FE091B607F091B7070E942318A6
:101DE6000E943918FA93EA93AF85B0E0509719F438
:101DF600E8E0F1E202C0E0E0F0E0FA93EA930E9444
:101E06005B080E948E1B279608950E94851B02E29E
:101E160011E026E030E048EF50E0E1EAF5E00E940C
:101E260023180E9459180E944108EEEAF5E00E9424
:101E36002318F9017096FA93EA930E945E180E949D
:101E46004108A0918C07A23051F1E9850E9437180C
:101E56000E9461180E9466180E94AA160E94231802
:101E66000E9461180E946618EF810E9437180E942E
:101E760061180E945B0802E611E0205F3F4FEE8189
:101E86000E9437180E9461180E946618EBEBF5E075
:101E96000E9423180E9459180E94410813C0005C32
:101EA6001F4FE9850E9437180E9461180E945B083F
:101EB600205F3F4F0E94AA160E9423180E946118B5
:101EC6000E945B080E948C1B2A960895EAEFFFEF9A
:101ED6000E946B1808952C97E0E0E883EFE1E98310
:101EE600E7E0EA83EFEFEB83E7E0EC83E0EEED83F8
:101EF6000E94851B0E9470183C968F0129E830E0ED
:101F06000E94751864F00E947D18E0911907E03070
:101F160019F00E940C0BF9CFE0E0E0938E07A09138
:101F26001907A23038F0A33020F4A0918C07A23014
:101F360009F414C0A0919407B0919507A536E0E086
:101F4600BE0760F00E947D18E0911907E03019F095
:101F56000E940C0BF9CFE0E0E0938E07A0918E076C
:101F6600A03041F00E946B1720F40E940E18D39700
:101F760008F401C095C10F3DE1E01E0714F00EED17
:101F860011E0A0919907AA2312F40C940E100E9456
:101F96007018FA93EA93F8013296FA93EA93EAE212
:101FA600F0E0FA93EA93E9EEF0E00E9491160E94BF
:101FB600D1090E9486183A932A933A932A930E944B
:101FC6008818F901BD96FA93EA93F901BD960E9425
:101FD6008F18F901BD97FA93EA93F901BD970E940C
:101FE6008F18F901E65AFF4FFA93EA93F901E65A78
:101FF600FF4F0E948F18F901EA55F040FA93EA93D1
:10200600F901EA55F040FA93EA93E8E0F1E2FA932F
:10201600EA930E94CB080E946B1720F40E940E18C8
:10202600DD9708F401C03CC1A0918C07A23011F4E1
:102036000C94B31040E0423010F00C94B2100E94A1
:1020460075180CF08CC00E94921814F00EED11E079
:10205600A0911907A33050F00E946B1730F40E942C
:102066000E18A734E0E0BE0708F401C019C10E94AB
:102076009918EC87FD870E949918EE87FF870E94C2
:102086009918E88BF98B50E0533010F00C94AB1094
:102096000E949D18EA0FFB1FBF010E949D180E9417
:1020A600A4180E94A9180E94B3180E94C0180E9482
:1020B600C7180E94CC180E94A418F17039F00E942B
:1020C6009D180E94C718FF6FFE93EE930E949D18FD
:1020D6000E94C718E20FF31FFE93EE930E949D180D
:1020E6000E94A418E93EA0E0FA0724F00E949D1879
:1020F6000E94D3180E949D180E94A418BA9724F42F
:102106000E949D180E94DA18A0919907AA2392F0BE
:102116000E9486180E94E1180E94A4180E94E818DE
:102126000E94ED180E94E8180E94F2180E940418F6
:102136000E94E6080E94E118EA0FFB1F0F010E94A9
:102146009D180E94A418D001ED93FC935F5F9CCF6D
:102156000E94701836960E946B184F5F6CCFA0C015
:1021660040E0423010F00C9453110E9475180CF0A8
:1021760097C00E94921814F00EED11E0A091190775
:10218600A23050F00E946B1730F40E940E18A7344C
:10219600E0E0BE0708F401C083C00E949918EC87EE
:1021A600FD870E949918EE87FF8750E0523010F0A5
:1021B6000C944C110E949D18EA0FFB1FBF010E9450
:1021C6009D180E94A4180E94A9180E94B3180E9484
:1021D600C0180E94C7180E94CC180E94A418F1705B
:1021E60039F00E949D180E94C718FF6FFE93EE9368
:1021F6000E949D18EA0FFB1FBF0100801180A52FCA
:10220600B0E0119719F4EDE2F0E002C0E3EDFFEF64
:10221600E20FF31FE00DF11DDB01ED93FC930E942D
:102226009D180E94A418E93EA0E0FA0724F00E9437
:102236009D180E94D3180E949D180E94A418BA9750
:1022460024F40E949D180E94DA18A0919907AA23E7
:1022560092F00E9486180E94E1180E94A4180E941B
:10226600E8180E94ED180E94E8180E94F2180E94D1
:1022760004180E94E6080E94E118EA0FFB1F0F01EE
:102286000E949D180E94A418D001ED93FC935F5FF5
:102296008DCF0E94701836960E946B184F5F61CFE3
:1022A6000E948C1B62960895949AAA81AF3620F0FC
:1022B600EFEBF8E00E94F718AA81AA3520F4EFECBC
:1022C600F8E00E94F718A881A23320F4E1EEF8E0C6
:1022D6000E94F718A881A33320F0E3EFF8E00E94EC
:1022E600F718E6C1A881A330B0F0EBE4EA930E94A8
:1022F600520B0E94431633970E94FE18AE0FBF1F63
:10230600EC910E94FE180E94A418EF2FF0E0EA93C9
:102316000E94520B0EC0E8810E940819EA0FFB1FAB
:102326000F01E8810E940E190E94A418D0010E9494
:10233600671B0C94C8140E94871BE0918D070E94AE
:10234600341811F00C94FB11A0919207B0919307E9
:10235600AD32E1E0BE07B0F0A0918D07A23090F457
:10236600E0911506E03019F00E94210BF9CFE3E564
:10237600EA93BED9E1E0E0938D07E0E0E0939207AF
:10238600E0939307A0918E07A03041F4A0918B07AC
:10239600A03021F4A0918D07A03009F028C096DD69
:1023A600E0911907E03019F00E940C0BF9CFE0918B
:1023B6008C070E94341811F4E5E50BC0E130A0E06B
:1023C600FA0711F4E9E405C0E230A0E0FA0721F4C7
:1023D600EAE5EA930E94770BE2E0E0938D07E1E0FD
:1023E600E0938E07E0E0E0939407E093950751C0F1
:1023F600E130A0E0FA07F1F5A0911506A930C8F181
:102406000E94210B1E2F0E9414190A933A932A93B5
:102416001A934ADFE0918B07E03009F50E941E19F6
:10242600E230A0E0FA0769F40E94210B0E94210B1A
:102436000E94210B0E94210B0E2F0E94210B3E2F82
:1024460009C0E130A0E0FA0719F40E94141902C08D
:10245600309729F40A933A932A931A93D6DCE0919B
:102466001506E03019F00E94210BF9CFE0E0E09369
:102476008D070FC0E230A0E0FA0759F4A091940747
:10248600B0919507A93CE0E0BE0718F0E0E0E093C4
:102496008D07E0918B070E94CE1761F4E0E0E09390
:1024A6008B07EEEBF5E00E9409180E94FE170E94CA
:1024B600221904C0309711F00C94B512E0918E07E2
:1024C600E03009F008DD6FDAE13069F4A0918C079D
:1024D600AF5FA0938C07A33018F0E0E0E0938C0781
:1024E6000E9422193EC0E230E9F40E942B190E9494
:1024F6002E19ECEFF7E0DF010E941E190E94331936
:102506006E177F0770F40E942B19EA0FFB1FCF018D
:102516000E943A190E943319E60FF71FDC01ED936A
:10252600FC931FC0E330C1F40E942B190E942E19A0
:10253600E4EEF7E0DF010E941E190E943319E61748
:10254600F70748F40E942B19EA0FFB1F0F010E94A0
:102556003A190E94421905C0E43019F4E4E0E09308
:102566008B07A4C0E430A0E0FA07B9F4E5E0E093F5
:102576008B07E0E0E0938F07E3ECF5E00E94091893
:102586000E94FE170E944F190E945B190E94A41810
:10259600E093B807F093B90706C0E530A0E0FA0764
:1025A60011F00C943213FFD9E130E1F40E945B196B
:1025B6000E94A418A091B807B091B907EA17FB07C3
:1025C60021F0E0918F07EA938DDEA0918F07AF5F30
:1025D600A0938F07AC3018F0E0E0E0938F070E94DD
:1025E6004F193CC0E230E1F40E945B190E942E199B
:1025F600ECEFF7E00E945E196E177F0780F40E94E9
:102606005B19EA0FFB1FCF010E9463190E94331961
:10261600E60FF71FDC01ED93FC930E944F191EC0D5
:10262600E330B9F40E945B190E942E19E4EEF7E03C
:102636000E945E19E617F70758F40E945B19EA0F25
:10264600FB1F0F010E9463190E9442190E944F1935
:1026560005C0E43019F4E1E0E0938B0727C0E83CBD
:10266600A0E0FA07B9F49FD9E13099F0E23089F099
:10267600E33079F0E43069F4E0E0E0938B07E9ECCD
:10268600F5E00E9409180E94FE17EAEFF0E00E94AA
:1026960079160CC0EA3FA0E0FA0741F40E94410A0D
:1026A600E13020F0E0E0E0938B07C7980E948E1B94
:1026B600249608951A93E7E4EA930E947B0BE0E0E0
:1026C600E0939207E0939307E5E0E0938D07A091EE
:1026D6001506A23140F4A0919207B0919307A43653
:1026E600E0E0BE0708F001C0F2CF10E01C3010F0A9
:1026F6000C94DF13133078F4E12F0E940E19EA0FC1
:10270600FB1F0F01E12F0E940819AE0FBF1F0E9489
:10271600571BD00128C0A0911506A23030F1E12F39
:102726000E940E19EA0FFB1FFF93EF930E94210BE5
:10273600AF91BF91F0E0ED93FC93E12F0E940E194B
:10274600EA0FFB1FFF93EF93DF010E94451BFF93E8
:10275600EF930E94210BFE2FE0E0AF91BF91EA2B91
:10276600FB2BAF91BF91ED93FC93E12F0E940E19C5
:102776000E942E19E4EEF7E00E946B196E177F0790
:1027860060F0E12F0E940E190E942E19ECEFF7E07F
:102796000E946B19E617F70768F4E12F0E940E19DD
:1027A600EA0FFB1FBF01E4E1F8E00E946B19DB01B1
:1027B600ED93FC931F5F9ACFE0E0E0938D071991AC
:1027C6000895E0E0EBBBEABBE0E8E8BBE7E8E7BB7F
:1027D600E0E0E5BBE4BBE2BBE0E1E1BBE3B9E2B9C3
:1027E600E0E0E0936200E0936100E0936500E0932F
:1027F6006400E0BFE4E0E3BFE6E0E2BFE0E0E1BFA3
:10280600EFBDEEBDEDBDECBDE7BDE6BDEBBDEABD82
:10281600E9BDE8BDE0937900E0937800E5BDE4BD4D
:10282600E3BDE0938B00E0938A00E0938900E09398
:102836008800E0938100E0938000E0938700E093B6
:102846008600E0938500E0938400E0938300E093A4
:102856008200E0936A00EABFE9BFE1E0E7BFE0E09B
:10286600E0937D00EBB9E8EDEAB9E6E0E093950088
:10287600E0E0E0939000E8E0E9B9E0E0E0939B0057
:10288600E8EDE0939A00E6E0E0939D00E0E0E09357
:102896009800E7E6E0939900E0E8E8B9E0E0E0BDFB
:1028A600E6B9E2E5EDB9E0E0EEB9E09374007894BC
:1028B6000E9496050E94980A0E948C160E9438066D
:1028C600EFECF5E00E946F19E0E7F0E0FA93EA9387
:1028D600E8EFF0E00E9491160E944108C7980E9416
:1028E6005816E6EDF5E00E946F19E0E8F0E0FA937D
:1028F600EA93E0E0FFE10E9491160E947619EDED61
:10290600F5E00E946F19E0E9F0E0FA93EA93E7E058
:10291600F0EE0E9491160E947619E4EEF5E00E9410
:102926006F19E0E7F0E00E9491160E948C160E9453
:102936007619EBEEF5E00E946F19E0E8F0E00E94F0
:1029460091160E948C160E947619E2EFF5E00E941D
:102956006F19E0E9F0E00E9491160E948C160E9421
:1029660041080E944E0CE1E0E0938B07A3DEA89598
:10297600EFE1E1BDEFE0E1BDA895DDDCFDCFFFCFE6
:10298600E881EFB9779BFECFEFB121960895EA81F2
:10299600EA930E94CC0BA881B9810E941318239652
:1029A600089526970E94851B10E0AC85BD85E0E062
:1029B600F0E0ED93FC93EA89FB893196EA8BFB8B79
:1029C6003197E4912E2FE03011F40C940116E12F8B
:1029D600E03039F4253211F411E002C00E94791971
:1029E6000CC1E130A9F4253219F40E94791904C109
:1029F60012E040E000E02D3211F401E0FEC02B327F
:102A060011F44BE2FAC0203211F440E2F6C002C0E3
:102A1600E23039F450E013E0203311F40068EDC0E1
:102A260004C0E33011F00C940016203310F02A3362
:102A360008F007C0AAE05A9F502DE22FE0535E0F20
:102A4600DCC0E22FE33649F40E948219E889F9894D
:102A5600A481AA930E948819CFC0E33741F40E944B
:102A660082190E9490190E942E161E2F0AC0E03766
:102A760061F40E9482190E9490190E9438161E2F36
:102A8600086002600F7730E035C0E43611F0E936B1
:102A960011F4046002C0E53731F4ECE2F8E0EE83AD
:102AA600FF8315E00DC0E83511F4086004C0E8376F
:102AB60011F00C94FF15E6E3F8E0EE83FF8314E0D3
:102AC60002FF14C00E9482190E949A19AB85AA239C
:102AD6003AF4EA85FB850E94901AEA87FB874DE265
:102AE600403011F01F5F01C00B7F04C00E948219A5
:102AF6000E949A1900FD11C0151778F407FF08C047
:102B060002FF04C00B7F242F115001C020E301C037
:102B160020E20E9479195150EFCF312F01FF17C0E3
:102B26003030A1F003FF06C0EE81FF812591EE83D0
:102B3600FF8305C0AE81BF812D91AE83BF830E9406
:102B46007919503009F051503150EACF4BC020E38B
:102B5600EE81FF810E94491BE887F987EE81FF819C
:102B66003296EE83FF83E885F985AA85BB85AE1785
:102B7600BF0750F02F5FA885B985EA85FB85EA1B5C
:102B8600FB0BEA87FB87EFCF2A3328F003FF02C04F
:102B9600295F01C0295D04FD1AC0213320F4A885F0
:102BA600B985119709F409C0531710F000FF01C049
:102BB60013C020E207FF0BC020E3006102FF07C03D
:102BC6000B7F4A930E948819503009F051500E9499
:102BD6007919503009F051503150A885B9851297AE
:102BE60008F0B5CF00FF08C0503031F05150E0E298
:102BF600EA930E948819F8CF10E0DDCEAC85BD853A
:102C06000E94451B0E948C1B64960895FF92F82E25
:102C160026971A930A93DE0114960E94871A8D014D
:102C2600E0E0EC83ED83EE83EF83DE0118960E94ED
:102C3600871A0E94451B0E942318EAECF4E1FA93D6
:102C4600EA93FE013896FA93EA93ABDE198108817E
:102C56002896FF900895A991B991EE27FF276D91C7
:102C6600662311F03196FBCF0895AA27BB27E99179
:102C7600F9910590002011F01196FBCFFD01089502
:102C8600E881F0E00895E4E6F0E0FA93EA930C9424
:102C9600A219E881EA930E943B05EBBBE0E0E5BBA5
:102CA6000895E1E0EA930C946A05E8ECF0E0FA9303
:102CB600EA930C94A219EA930E947605E4E0EA935B
:102CC6000C947605EA930E946A05E1E0EA930C9477
:102CD6007605E1E0F0E0FA93EA930C94A219EA9300
:102CE6000E946A05E3E0EA930C947605FA93EA9368
:102CF6000C94A219EA930E947605E0E0EA930C94FC
:102D06007605E1E0EA930C947605EA930E9476054F
:102D1600F8CFE0E0F0E0FA93EA930895FA93EA93A5
:102D2600F8CFFA93EA930E941806ECE2EA930C9421
:102D36006A05FA93EA930C948305E885F985FA9374
:102D4600EA930895EA85FB85FA93EA930895E88560
:102D5600F0E00895EF81F885FA93EA9308950E94CA
:102D6600E41AE05DEA93E9CF0E949D06A985BA853B
:102D760008950E94211BE987FA87EF81F8857096EE
:102D8600EF83F887089528971A930A93EA89FB89AF
:102D9600FA93EA93EA89FB89FA93EA93EA89FB892B
:102DA600FA93EA93EA89FB89BCCFAA89BB89E889A9
:102DB600F989EA1BFB0B31968F0111230895F8015F
:102DC600AFEFBFEF0E94DA1A8F010895AE85BF8577
:102DD600EC85FD85EA1BFB0B319666277727EA8390
:102DE600FB836C837D83AD81AA230895EA81FB81F1
:102DF6006C817D810895AFEFBFEF8FEF9FEF0E944B
:102E0600DF1AEA83FB836C837D830895F801AA8128
:102E1600BB818C819D810E94AD1A0E94DF1AEA83D4
:102E2600FB836C837D83E0E0EE83EF83E887E987AD
:102E36000895DCDFAE81BF81888599850E94801B5D
:102E46000895EE81FF8168857985EF5FFF4F6F4FAB
:102E56007F4FEE83FF83688779870895F0E0AB8D17
:102E6600BC8DEA0FFB1F0895E885F985EA1BFB0B6D
:102E76000895AC85BD85EA0FFB1FFA93EA93089582
:102E8600EA930E94C31480E991E00197F1F7E0E02C
:102E9600EA930E94C3140E2F1127102F0027E0E09B
:102EA600EA930E94C314F0E00E0F1F1F1A9AF8014E
:102EB6000895F8010E94AD1A0E94141ADF01CB0191
:102EC60008950E94421A0E94DD198F01F8010895A3
:102ED600A0E00B99A1E0A1300895E0E0E093F905A8
:102EE600E093FA05E093FB05E093FC050895E0E026
:102EF600E093FD05E093FE05E093FF05E0930006F1
:102F06000895A091F905B091FA058091FB0590917D
:102F1600FC05662777270E948B1AE093F905F09344
:102F2600FA056093FB057093FC050895A091FD05D5
:102F3600B091FE058091FF059091000666277727E0
:102F46000E948B1AE093FD05F093FE056093FF0542
:102F5600709300060895E0E1F0E060E070E00E9402
:102F66001C1B0895E150F0E0E95EF94F0895AA931D
:102F7600EA93FA93EFB7EA930895E150F0E0E65E3C
:102F8600F84F0895E0931606E881EA930C94520BE5
:102F9600E150F0E00895F0E0E130A0E0FA0708958E
:102FA600FA93EA93E7EFF0E0FA93EA93C6CE0E942B
:102FB6004108ED81FE81FA93EA930895FA93EA9324
:102FC600E0EFF0E0FA93EA93EEE0F1E0FA93EA93A9
:102FD600EFEFFFEFFA93EA930C94D109FA93EA9391
:102FE600E1EFF0E0FA93EA93EDE0F1E0FA93EA9389
:102FF600E1E0F0E093CEEFEFFFEFFA93EA930C9463
:10300600F70BFA93EA93E2E0EA930895FA93EA93C8
:10301600E4E0EA937ECEA0919007B09191070895DF
:10302600ED91FD913196FE93EE930895E0EFF0E079
:10303600E615F7050895EEE0F1E06E167F060895B1
:10304600FA93EA931A930A9308953A932A93EA8590
:10305600FB8564CEF9017096FA93EA93EA85FB85BF
:103066005DCEF0E030970895F0E0EACF3A932A93E8
:10307600E1E0EA93EB85FC8508950E945B0800E594
:1030860010E026E130E008953A932A93E3E0EA93CC
:10309600EB85FC85FA93EA93AF85B0E00895FA9341
:1030A600EA930E945B08005C1F4F08953A932A93A7
:1030B6005A934A932ECE5A934A932BCE3A932A93F7
:1030C600E3E0EA93F8CF0E945B08005C1F4F089587
:1030D600E0939807F09399070895E0919807F09187
:1030E60099070895A0919807B0919907AF3DE1E03F
:1030F600BE070895E0919407F0919507E09396072F
:10310600F09397070895E9DF9BCFE8E0F1E2FA93A1
:10311600EA930E94CB08F7CFFA93EA93F6CFDDDF66
:1031260036968F010F3DE1E01E0708950E940C0BB5
:10313600F0E00895E52FF0E0DE011C96EE0FFF1F8C
:103146000895AE0FBF1F0E94451B0895A0E8B0E08A
:103156000E94501BEA1BFB0BDB01ED93FC93EACFAD
:10316600EA0FFB1FBF0100801180E0918C07A0EAE7
:10317600B7E0F0E0EE0FFF1FE4CFD0010E94B21AD5
:10318600DB01ED93FC93D6CFAE0FBF1FED91FD9102
:1031960008950E94A61A0E94A41AFE93EE93CACF1F
:1031A600AE0FBF1FE8EEF0E0ED93FC930895AE0F6F
:1031B600BF1FEAE2F0E0ED93FC930895E52FAAE93C
:1031C600B7E0F0E0EE0FFF1F0895FA93EA93E52FBC
:1031D600F0E00895DE015296EE0FFF1FB2CFDE013A
:1031E6001E96EE0FFF1FADCFFA93EA9380E00E9482
:1031F600091622960895EA930E94520BE881A0EAE6
:10320600B7E0F0E0EE0FFF1F0895A0E0B0E0F0E0B9
:10321600EE0FFF1F0895A0EAB7E0F0E0EE0FFF1FE4
:1032260008950E94210B0E2F0E94210B3E2F0E9413
:10323600210B2E2F0895E0918C07F0E00895E09180
:103246008C07EA93E8EFF0E0FA93EA930C94400DCA
:10325600E0918C07E0CFAE0FBF1F6D917C91089572
:10326600EE0FFF1FEA0FFB1F0E94491B08956081A6
:103276007181E0918C07ACECB7E0F0E00895EE0FB9
:10328600FF1FEA0FFB1F0E944D1BFB01EA1BFB0BF6
:10329600D001ED93FC930895E0918B07A0918F07E1
:1032A600EA0FEA93EFE0F8E7FA93EA930C94400DFD
:1032B600E0918F07B0CFDF01E0918F07F0E0D0CF2C
:1032C60060817181E0918F07ACECB7E0F0E0089582
:1032D600DF01E12FF0E0C4CFFA93EA93E0ECF0E0EF
:1032E600FA93EA9308950E944108DFCC2A93ED856C
:1032F600FE85FA93EA93E989FA8909950895E8899A
:10330600F9893497E88BF98B0895ED85FE85FA9354
:10331600EA93E989FA8909950895A889B9891496DD
:103326000E94451BEE83FF83FA93EA930895A889CA
:10333600B98914960E94451BEA87FB870895E9918F
:10334600F991309639F080EA9FE00197F1F7A89558
:103356003197C9F70895552342F4503811F4E0FF28
:1033660004C03196691F791F6BF050E8572711F496
:103376005F9373C05F3F31F0660F000C57956795FA
:10338600752F08955F9300200AF073C06CC050E853
:10339600192E1522880F991F9527550F879550E8E6
:1033A600072E0522660F771F7527550F6795089517
:1033B600689401C0E8945F93F2DF703818F07F3F9D
:1033C60008F44BC056E1571BAAF4519558300EF439
:1033D600593030F0EFEFFFEF6FEF7FE777F91AC064
:1033E60077275523B9F0EE0FFF1F661F771F5A95F3
:1033F600D1F710C07727583028F0EF2FF62F672F18
:103406005850F9CF552331F076956795F795E7959E
:103416005A95D1F700200AF484D05F9108956894F4
:1034260001C0E894309760407040B1F0002426F067
:10343600772312F4009475D0172E7EE1112032F016
:103446007A95EE0FFF1F661F111CF9CFEF2FF62F8F
:10345600612D5F938ADF5F910895EE27FF27662728
:1034660077275F910895EFEFFFEF6FE77FEF5F91AB
:103476000895EFEFFFEF6FE77FE75F9108955F93A2
:1034860086DF703821F411200AF4EDCFF2CF9038A0
:1034960009F4E3CF01240894970B1BF4D4F300201E
:1034A600F3CF792F1F932F933F934F931124112717
:1034B600222733274427552790E2AE17BF078607F2
:1034C600410730F0AE1BBF0B860B410B089401C0C1
:1034D6008894551F221F331F111CAA1FBB1F881F4C
:1034E600441F9A9551F7F901612D4F913F912F9104
:1034F6001F91662332F0550FEE1FFF1F661F7A9548
:1035060043F229DF5F9108950024AF0DB01D0895A1
:10351600EA0FFB1F681F791F0895F195E195F040AA
:103526000895F09560957095E195FF4F6F4F7F4F29
:103536000895EE230E2EEA2F19F0E6950A94E9F780
:103546000895F595E795F595E795F595E795F5953C
:10355600E79508956F2F660F660B762F0895FA9FED
:10356600F02DEB9FF00DEA9FE02DF10D08957A9F67
:10357600702D6B9F700DF89F700DE99F700D6A9FFF
:10358600602D710DFB9F600D711DE89F600D711D13
:103596008827FA9FF02D610D781FEB9FF00D611DB6
:1035A600781FEA9FE02DF10D681F781F089549D016
:1035B600D6DF0EF4B2DF089552D0D9DF0EF4B1DFB4
:1035C60008950024112490E1AA0FBB1F001C111CB2
:1035D6000E1A1F0A18F40E0E1F1E01C0A1609A953E
:1035E60099F7FD01D00108953F934F935F9300240F
:1035F60011244427552730E2AA0FBB1F881F991FA5
:10360600001C111C441F551F0E1A1F0A460B570B90
:1036160028F40E0E1F1E461F571F01C0A1603A95C3
:1036260059F7FD01BC01D001CA015F914F913F914D
:10363600089515D0D9DF0EF474DF0895C2DFFD01B9
:103646000895E894F7FF02C068DF6894B7FF06C0E4
:10365600A095B095119600F8039400FA0895E894A1
:1036660077FF02C05EDF689497FF0BC00024A09529
:10367600B095809590951196801D901D00F8039445
:1036860000FA0895ED91FC91119708950590F49133
:10369600E02D0895A591B49108951B2EBF2FF12D0D
:1036A6001A2EAE2FE12D0895119602D0FE2F1197F6
:1036B600E199FECFFF93FFB7F894AEBBBFBBE09A8C
:1036C600EDB3FFBFFF91089507D01196EF93EF2F4B
:1036D60003D0EF9111970895E19B02C0A895FCCF06
:1036E6009FB7F894AEBBBFBBE09A8DB3E81719F04D
:1036F600EDBBE29AE19A9FBF0895AE17BF07860712
:10370600970708955A934A933A932A931A930A93DA
:1037160008955D814C813B812A8119810881089534
:00000001FF
