:020000000C945E
:10000200BB040C9400000C9400000C9400000C94AF
:1000120000000C9400000C9400000C9400000C945E
:1000220000000C9400000C9400000C9400000C944E
:1000320000000C9400000C9400000C9400000C943E
:10004200780A0C9400000C948A090C9400000C9419
:10005200D1090C9400000C9400000C9400000C9444
:1000620000000C9400000C9400000C9400000C940E
:1000720000000C9400000C94160A0C9400000C94DE
:10008200410A0C9400000C940000000000000000E3
:10009200000000000000000000000000000000005E
:1000A200000000000000000000000000000000004E
:1000B200000000000000000000000000000000003E
:1000C200000001800180000000000000018003C0E8
:1000D20007E006600C300C3018181818300C300C81
:1000E200600660067FFE7FFE000000007FFE7FFE4E
:1000F20060066006300C300C181818180C300C30E2
:10010200066007E003C001800000000007E00C3039
:10011200181818181818181818181818181818185D
:1001220018180C3007E00000000000000180038076
:1001320007800180018001800180018001800180AF
:100142000180018003C000000000000007E00C30C5
:100152001818100800180030006000C00180030069
:1001620006000C181FF800000000000007E008104D
:1001720010081008001000E0003000180008000805
:1001820018180C3007E0000000000000003000707A
:1001920000F001B0033006300C3018301FF8003088
:1001A2000030003000780000000000000FF80FF06F
:1001B2000800100010001FE000300018001800189E
:1001C20018181C300FE000000000000003E00610C9
:1001D2000C00080018001FE01C3018181818181816
:1001E20018180C3007E00000000000001FF810187B
:1001F200001000200020004000400080008001002C
:1002020001000200020000000000000007E00C30C4
:10021200081008100C3007E00C30181818181818BD
:1002220018180C3007E000000000000007E00C3056
:100232001818181818180C3807F8001800100020A1
:10024200002000C0030000000000000000000000C9
:10025200000000000000000000000000000000009C
:10026200000000000000000000000000018001808A
:100272000180018001800180018001800180018074
:10028200000001800180000000000000006000808A
:100292000100020002000400040004000200020047
:1002A2000100008000600000000000000600010064
:1002B200008000400040002000200020004000405C
:1002C200008001000600000000000000000000089D
:1002D20000180030006000C00180030006000C001E
:1002E2001800100000000000000000000000018063
:1002F20001800180018001803FFC3FFC0180018080
:100302000180018001800000000000000000000068
:1003120000000000000000003FFC3FFC0000000065
:1003220000000000000000000000000000000000CB
:100332000180018000000000000000000000018038
:10034200018000000000000000000000003000609A
:1003520000C00180030006000C00060003000180BB
:1003620000C000600030000000000000000000003B
:1003720000000FF00FF00000000000000FF00FF07F
:100382000000000000000000000000000C00060059
:100392000300018000C000600030006000C00180E6
:1003A200030006000C0000000000000003C006600D
:1003B2000C300C300430006000C0018001800180EC
:1003C20000000180018000000000000000E000E069
:1003D2000120012002300210041004180FF818182E
:1003E200100C300C781E0000000000007FFE301E52
:1003F2003002300030003FF83FFC300E300630064D
:10040200300E3FFC7FF80000000000007FF0301843
:10041200300C300C30183FF83FFC300E30063006FE
:10042200300E3FFC7FF80000000000007FFE301E0F
:100432003002300030003000300030003000300038
:1004420030003000780000000000000003FC0118BA
:1004520001180118011801180118021804180818C7
:100462003FFC383C300C2004000000007FFC301CB4
:100472003004300030803F803F80308030003000D8
:100482003004301C7FFC00000000000063C6518A6B
:1004920011880990099007E007E00DB019981188BA
:1004A200318C218463C60000000000000FE0383860
:1004B200600C0004000C03F80008000400060006AB
:1004C200600C3FF80FE0000000000000781E300CC6
:1004D200301C303C306C30CC318C330C360C3C0C44
:1004E200380C300C781E0000000003C0799E300CDE
:1004F200301C303C306C30CC318C330C360C3C0C24
:10050200380C300C781E000000000000783C306C83
:1005120030C0318033003F00398030C0306030302D
:100522003018300C781E00000000000001FE008C24
:10053200008C008C008C010C010C010C020C020CD2
:10054200040C680C701E000000000000700E381CC5
:10055200381C342C342C342C324C324C324C318CEE
:10056200318C318C781E000000000000781E300CA7
:10057200300C300C300C3FFC3FFC300C300C300C9B
:10058200300C300C781E00000000000007E01E78DE
:10059200381C300C700E700E700E700E700E300C17
:1005A200381C1E7807E00000000000007FFE3FFCC0
:1005B200300C300C300C300C300C300C300C300C59
:1005C200300C300C781E0000000000007FF8300C68
:1005D200300630063006300C3FF830003000300074
:1005E20030003000780000000000000007E01E78B4
:1005F200381C30047000700070007000700030040D
:10060200381C1E7807E00000000000007FFE6186B3
:10061200418201800180018001800180018001808E
:100622000180018003C0000000000000780E300449
:1006320018040C0806080310019000E00060004056
:100642000C400C80070000000000000003C0018085
:100652000FF0399C6186418241826186399C0FF09C
:100662000180018003C0000000000000781E3004F9
:1006720018080C1006200340018002C004600830F4
:100682001018200C781E000000000000781E300CAC
:10069200300C300C300C300C300C300C300C300C78
:1006A200300C300C7FFE000600020000781E300C79
:1006B200300C300C300C380C1FFC000C000C000C01
:1006C200000C000C001E0000000000007BDE318CDC
:1006D200318C318C318C318C318C318C318C318C30
:1006E200318C318C7FFE0000000000007BDE318CFB
:1006F200318C318C318C318C318C318C318C318C10
:10070200318C318C7FFE0006000200007C00580014
:1007120058005800180018001FF8180C1806180680
:100722001806180C3FF8000000000000781E300C7C
:10073200300C300C300C300C3F8C304C302C302CC8
:10074200302C304C7F9E000000000000780030000A
:1007520030003000300030003FF8300C30063006F8
:100762003006300C7FF800000000000007E01E7821
:10077200381C300C000E000E00FE000E000E300C75
:10078200381C1E7807E000000000000079F8330CE6
:1007920032043606360636063E0636063606360675
:1007A2003204330C79F800000000000003FE060C4E
:1007B2000C0C0C0C0C0C060C03FC030C060C0C0CA5
:1007C200180C300C781E00000000F4010A002C0105
:1007D2000000F0000E016400F0000E017800DC0061
:1007E200F0000E01F0005401F0000E016801CC018E
:1007F200B80BFA00E803202020202000CCC5CDDE73
:100802000020202B0020202D00CFC0D3C7C0002005
:1008120020202020202020202020202020202000F6
:10082200CDC0CFD0DFC6C5CDC8C500D4C0C700D2A9
:10083200CECA00CDC0CFD0DFC6C5CDC8C520C82026
:10084200D2CECA00C2CEC7C1D3C6C4C5CDC8DF008E
:10085200C4C5D1CACECC00D1D2C0D0D200000100D2
:100862002D4E414E00494E46000001000200D207C3
:1008720001000208D40702000408D6070100080894
:10088200D80701000A08DA0702000C08DC07010099
:100892000E08DE0701001008E00701001208E20757
:1008A20002001408E40701001608E607020018080F
:1008B200E80701001A08EA0702001C08EC07020018
:1008C2001E08EE0702002008F00702002E08F207B9
:1008D20001003008F40702003208F607060000059E
:1008E200F80706000605F80706000C05F8070600DB
:1008F2001205F80705001805FE0704001D05030888
:10090200040021050708060025050B0811002B0528
:10091200110811003C0511080B004D0522080400C6
:1009220058052D0804005C053108040060052D08F7
:100932001100640535080C0075054608070081059D
:10094200520807008805520807008F055208070061
:1009520096051B0807009D051B080700A4051B0838
:100962000600AB0559080600B1050B08010058083E
:1009720060080000F894EE27ECBBF1E0F5BFE5BF9C
:10098200E0936C008DE0A2E0BB27ED938A95E9F736
:1009920080E090E1A0E0B1E0ED930197E9F7ECE6A9
:1009A200F8E085919591009761F0A591B591059038
:1009B2001590BF01F00105900D920197E1F7FB013F
:1009C200F0CF8BBFEFEFEDBFE0E1EEBFC0E0D5E0CF
:1009D2000C94600DAA93E881E695E575AE2FE88147
:1009E200EE0FEA7AEA2BE883E695E695E373AE2FFB
:1009F200E881EE0FEE0FEC7CEA2BE883E295EF70D4
:100A0200AE2FE881E295E07FEA2BE88325C0959836
:100A12001D9A0E945A0F1D980E945A0F1D9A959A6C
:100A22000E945A0F0895AA93959A97980E945E0F72
:100A320000001F98969800001F9A969A00000CC01A
:100A4200AA93959A979A0E945E0F00001F98969813
:100A520000001F9A969A000021960895BA93AA93CD
:100A62001A930A931A810B81959A979A1BBB05BB1D
:100A720000001F98969800001F9A969A000019810C
:100A8200088124960895C3DFA1E0CDDFA1E0CBDF8A
:100A9200A1E0C9DFA8ECB0E00E944D12A2EEC3DFD4
:100AA200A3E2CEDFA2E0CCDFA4E0CADFA0EE0E9488
:100AB200650F0E946A0FA0EE0E946E0FA1E0B3DFE5
:100AC200A8E7B0E00E944D12A6EE0E94650FAAEDC3
:100AD200B7DFA3E7B5DFA0EBA6DFA4E20E94730FA6
:100AE200A1E0AEDFAFED0E94780FAFE00E94730F7E
:100AF200A4EB0E946E0FA4E80E94730FAAE5A0DF88
:100B0200AAE00E94730FA8E00E94730FA6EB0E9456
:100B1200650FACE20E94730FACE092DFAAE00E9484
:100B2200730FA4E08DDFAAEB7EDFAFE089DFA8EBD5
:100B32007ADFA7E00E94780FA6E30E946E0FACEB6B
:100B420072DFA0E57DDFA0E97BDFA0E50E94780FE0
:100B5200A0EF0E946E0FA5E0B0E00E944D12A9E244
:100B620062DFA0ED60DFADE06BDF0895BA93AA9378
:100B7200AAE259DFAF8164DFAE8162DFAD8160DF5F
:100B8200AC815EDFABE24FDFAB815ADFAA8158DF77
:100B9200A98156DFA88154DF28960895BA93AA93B3
:100BA2000E948D14A8E23FDF0E947D0FEFEDF1E07D
:100BB2000E94820FAFE0B1E00E94850F00E010E0DA
:100BC2000031E1E01E0778F420E030E0203EE1E071
:100BD2003E0730F4AC81BD8141DF2F5F3F4FF6CF3E
:100BE2000F5F1F4FEDCFA9E21EDF0E9494142696DD
:100BF2000895BA93AA931A930A930E948A0FAA8518
:100C0200BB85509611970E948F0FAC85BD8550967B
:100C120011970E94850F10E01032D8F400E00830DE
:100C2200B0F4E12FAA85BB85F0E0EA0FFB1F149018
:100C3200E02FA0E80E94A013E121E13018F0AC817E
:100C4200BD8102C0AA81BB8109DF0F5FE8CF1F5FB0
:100C5200E3CF19810881C6C2BA93AA93E885F0E06E
:100C6200E033A0E0FA0719F4ECE0F1E08EC1E133E1
:100C7200A0E0FA0719F4ECE2F1E087C1E233A0E068
:100C8200FA0719F4ECE4F1E080C1E333A0E0FA07DB
:100C920019F4ECE6F1E079C1E433A0E0FA0719F4C3
:100CA200ECE8F1E072C1E533A0E0FA0719F4ECEAEE
:100CB200F1E06BC1E633A0E0FA0719F4ECECF1E0E5
:100CC20064C1E733A0E0FA0719F4ECEEF1E05DC18C
:100CD200E833A0E0FA0719F4ECE0F2E056C1E93398
:100CE200A0E0FA0719F4ECE2F2E04FC1E132A0E031
:100CF200FA0719F4ECE6F2E048C1E832A0E0FA079C
:100D020019F4ECE8F2E041C1E932A0E0FA0719F483
:100D1200ECEAF2E03AC1EF32A0E0FA0719F4ECECA7
:100D2200F2E033C1EA33A0E0FA0719F4ECE2F3E0AF
:100D32002CC1EC33A0E0FA0719F4ECE4F3E025C18E
:100D4200ED33A0E0FA0719F4ECE6F3E01EC1EE334E
:100D5200A0E0FA0719F4ECE8F3E017C1EF33A0E0E2
:100D6200FA0719F4ECEAF3E010C1EB32A0E0FA075B
:100D720019F4ECEEF2E009C1ED32A0E0FA0719F441
:100D8200ECE0F3E002C1E03CA0E0FA0719F4ECEC7D
:100D9200F3E0FBC0E13CA0E0FA0719F4ECEEF3E06B
:100DA200F4C0E23CA0E0FA0719F4ECE0F4E0EDC094
:100DB200E33CA0E0FA0719F4ECE2F4E0E6C0E43C1C
:100DC200A0E0FA0719F4ECE4F4E0DFC0E53CA0E0AF
:100DD200FA0719F4ECE6F4E0D8C0E63CA0E0FA0722
:100DE20019F4ECE8F4E0D1C0E73CA0E0FA0719F40A
:100DF200ECEAF4E0CAC0E83CA0E0FA0719F4ECEC33
:100E0200F4E0C3C0E93CA0E0FA0719F4ECEEF4E028
:100E1200BCC0EA3CA0E0FA0719F4ECE0F5E0B5C08A
:100E2200EB3CA0E0FA0719F4ECE2F5E0AEC0EC3CD2
:100E3200A0E0FA0719F4ECE4F5E0A7C0ED3CA0E06D
:100E4200FA0719F4ECE6F5E0A0C0EE3CA0E0FA07E0
:100E520019F4ECE8F5E099C0EF3CA0E0FA0719F4C8
:100E6200ECEAF5E092C0E03DA0E0FA0719F4ECEC00
:100E7200F5E08BC0E13DA0E0FA0719F4ECEEF5E0F5
:100E820084C0E23DA0E0FA0719F4ECE0F6E07DC090
:100E9200E33DA0E0FA0719F4ECE2F6E076C0E43DA7
:100EA200A0E0FA0719F4ECE4F6E06FC0E53DA0E03B
:100EB200FA0719F4ECE6F6E068C0E63DA0E0FA07AE
:100EC20019F4ECE8F6E061C0E73DA0E0FA0719F496
:100ED200ECEAF6E05AC0E83DA0E0FA0719F4ECECBF
:100EE200F6E053C0E93DA0E0FA0719F4ECEEF6E0B3
:100EF2004CC0EA3DA0E0FA0719F4ECE0F7E045C087
:100F0200EB3DA0E0FA0719F4ECE2F7E03EC0EC3D5D
:100F1200A0E0FA0719F4ECE4F7E037C0ED3DA0E0F9
:100F2200FA0719F4ECE6F7E030C0EE3DA0E0FA076C
:100F320019F4ECE8F7E029C0EF3DA0E0FA0719F454
:100F4200ECEAF7E022C0EE32A0E0FA0719F4ECEA8C
:100F5200F0E01BC0E032A0E0FA0719F4ECE4F2E0A2
:100F620014C0E130A0E0FA0719F4ECECF0E00DC097
:100F7200E230A0E0FA0719F4ECEEF0E006C0E3304C
:100F8200A0E0FA0769F4ECE8F0E0FA93EA930E9431
:100F92008A0F0E948A0F0E948A0FA885B98529DECE
:100FA20029960895BA93AA93A885B985EC91E03061
:100FB20099F0ED91A887B987EA930E94960F0E9453
:100FC200960F0E94960FAF81B88546DEEE81FF81B3
:100FD2007096EE83FF83E8CF2A9608950E949B0FB6
:100FE2000E94AF0F12F40E94B90F0E94C00F22F4A8
:100FF2000E94D00F0E94D50F0E94E00F0E94F30FB3
:1010020034F4AA85BB852ADD0E94FB0FF7CF05C108
:10101200AA932A970E948B14A98DBA8DEF89F88D15
:10102200EA1BFB0BAF0155232AF4AFEFBFEF0E947F
:10103200DA13AF01AD89BE89EB89FC89EA1BFB0B90
:10104200EE87FF87AF85AA2332F4AFEFBFEF0E948E
:10105200DA13EE87FF87EF89F88DA98DBA8DAE1767
:10106200BF0718F4E1E0F0E002C0EFEFFFEFEC871A
:10107200FD87EB89FC89AD89BE89AE17BF0718F4DD
:10108200E1E0F0E002C0EFEFFFEFEA87FB87AE8519
:10109200BF85FA01EA1BFB0BE887F987E98DFA8D18
:1010A200FA93EA93EA89F0E0AB8DBC8D0E940810B6
:1010B200E98DFA8DFA93EA93EE89F0E0AB8DBC8D5F
:1010C200AE0FBF1F0E94850FA889BB27E889F0E0F9
:1010D2000E94DA139F0100E010E02017310734F07C
:1010E200A989BA89BBDC0F5F1F4FF7CFEF89F88D53
:1010F200A98DBA8DEA17FB0739F4EB89FC89AD8912
:10110200BE89EA17FB0709F001C032C0E885F985FC
:10111200EE0FFF1FEE83FF83EE85FF850E948C1387
:10112200AE81BF81EA17FB0774F4AE85BF850E94CA
:101132000D10E887F987EC85FD85A98DBA8DEA0F38
:10114200FB1FE98FFA8FAE81BF81A417B5077CF42C
:10115200FA01A885B985EA0FFB1FE887F987EA85B6
:10116200FB85AD89BE89EA0FFB1FED8BFE8B96CF07
:101172000E9492146B9608950E948F0F0E94121083
:101182000E941210E885F985AC85BD850E94081081
:101192000E941710EC81FD81AC85BD850E9408106C
:1011A2000E9412100E9412100E9417100E94121028
:1011B200AE81BF810E940D10FA93EA930E94121031
:1011C200A885B9850BDFAA81BB810E940D10FA9315
:1011D200EA930E9412100E9412100E941210A88517
:1011E200B985FCDE2C9608950E949B0F0E94AF0FDA
:1011F20012F40E94B90F0E94C00F22F40E94D00F75
:101202000E94D50F0E94E00F0E94F30F34F4AA85CA
:10121200BB8524DC0E94FB0FF7CF198108816496FD
:1012220008951A930A931A980E946A0FA3ED0E94D6
:101232001C1058C01A930A931A980E946A0FA3E9C5
:101242000E941C104FC01A98A5E0B0E00E944D12F7
:10125200A0E90E94520F80E991E00197F1F7A0E026
:101262000E94520FA0E00E94520F1A9A08951A93F8
:101272000A93D7DFE451F5408F01112312F400E005
:1012820010E00E943210E5E5F5ED65E772E40E9498
:101292003A1028C01A930A93CDDFE453F8408F0125
:1012A200112312F400E010E00E943210EEE1FEE998
:1012B2006EEC72E40E943A1015C01A930A9310E081
:1012C200A0E00B99A1E0A13060F40E94401000E080
:1012D200003120F40E9452100F5FFACF0E947F105B
:1012E20011E0E12F0991199108951A981B9885E34D
:1012F2008A95F1F71A9A1B9A0E9440104424E0E161
:101302004E1620F40E9452104394F9CF0E947F108F
:1013120008950E949F101A930A931BB10CB1E12FFA
:10132200EC71E9F4E091DE07EF5FE093DE07E15054
:10133200F0E0EA52F84F0083A091DE07A83019F4DA
:10134200E0E0E093DE07A091E007AF5FA093E00743
:10135200A83029F4E0E0E093E007689421F80991CD
:101362001991AAC01A93E091E007E030E1F3E0910D
:10137200DF07EF5FE093DF07E150F0E0EA52F84F5A
:101382001081A091DF07A83019F4E0E0E093DF07B5
:10139200F894E091E007E150E093E0077894AEC161
:1013A2000E949F10E091EB07E030A9F0E150E0933A
:1013B200EB07E091EA07EF5FE093EA07E150F0E024
:1013C200EF51F84FE081ECB9A091EA07A83019F487
:1013D200E0E0E093EA0770C0AA93A091EB07A8307F
:1013E200E1F3F894E091EB07E03011F45D9918C055
:1013F200E091E907EF5FE093E907E150F0E0EF5198
:10140200F84FA881A083A091E907A83019F4E0E081
:10141200E093E907E091EB07EF5FE093EB0702C08F
:10142200E881ECB97894219608950E949F101A934E
:101432000A9310919B0000919C00E12FEC71E9F45A
:10144200E091F407EF5FE093F407E150F0E0E4513C
:10145200F84F0083A091F407A83019F4E0E0E0937C
:10146200F407A091F607AF5FA093F607A83029F41E
:10147200E0E0E093F607689422F8099119911CC004
:101482000E949F10E0910108E030B1F0E150E0933A
:101492000108E0910008EF5FE0930008E150F0E0FE
:1014A200E950F84FE081E0939C00A0910008A83039
:1014B20019F4E0E0E0930008E991EFBFF991E991B6
:1014C200A9911895AA93E881F0E0309729F40E9437
:1014D200A510E095E12107C0E130A0E0FA0729F468
:1014E2000E94A510E129A62FEC93229608950A9254
:1014F2001A92FA926A937A938A939A93AA93BA93D4
:10150200EA93FA93EFB7EA93E6E0E2BFA3E2B8E028
:101512000E94AE10A8E3B8E00E94AE10A0E5B8E0C9
:101522000E94AE10A4E5B8E00E94AE10A6E5B8E0B5
:101532000E94AE10A0914B08A13008F04CC0A091BF
:101542004C08A13020F50E94B4100E94B910A8E204
:10155200B8E00E94AE10A0912808B09129085F97C8
:1015620010F00E94BE10E0912E08F0912F08A09179
:101572002808B0912908EA17FB0740F4E0E0E0935D
:101582002808E0932908E3E00E94C31023C00E94C8
:10159200BE100E94B410ACE2B8E00E94AE10A0915E
:1015A2002C08B0912D085F9710F00E94B910E091BD
:1015B2003208F0913308A0912C08B0912D08EA1757
:1015C200FB0740F4E0E0E0932C08E0932D08E5E00F
:1015D2000E94C31023C00E94BE100E94B910AAE24A
:1015E200B8E00E94AE10A0912A08B0912B085F9734
:1015F20010F00E94B410E0913008F0913108A091EF
:101602002A08B0912B08EA17FB0740F4E0E0E093C8
:101612002A08E0932B08E4E00E94C310E991EFBF8F
:10162200F991E991B991A9919991899179916991E8
:10163200F9901990099018951A9310E03EDEE03067
:1016420009F45CC00E94C710E615F70528F40E9451
:10165200CC106E167F0608F00CC00E94D110E8155F
:10166200F90528F40E94D6108E169F0608F001C0D4
:1016720011E00E94DB10E615F70528F40E94E01045
:101682006E167F0608F00CC00E94E510E815F905F9
:1016920028F40E94EA108E169F0608F001C012E09C
:1016A2000E94EF10E615F70528F40E94F4106E165A
:1016B2007F0608F00CC00E94F910E815F90528F41D
:1016C2000E94FE108E169F0608F001C013E00E94D1
:1016D2000311E615F70528F40E9408116E167F061D
:1016E20008F00CC00E940D11E815F90528F40E94BB
:1016F20012118E169F0608F001C014E0E12F199115
:101702000895BA93AA93EC810E94171159F4E0E06C
:10171200F5E00E941C110E9423110E9427110E94D1
:101722001C112CC0E230A0E0FA0759F4E6E0F5E023
:101732000E942E110E9423110E9427110E942E1135
:101742001DC0E330A0E0FA0759F4ECE0F5E00E9496
:1017520035110E9423110E9427110E9435110EC0DB
:10176200E430A0E0FA0799F4E2E1F5E00E943C11CE
:101772000E9423110E9427110E943C113796FA936E
:10178200EA930E948A0FA885B9850E94D3072796FB
:1017920008950E94C710FA93EA930E94CC10FA931C
:1017A200EA930E94D110FA93EA930E94D6100E9403
:1017B20043110E94DB10FA93EA930E94E010FA931D
:1017C200EA930E94E510FA93EA930E94EA100E94BB
:1017D20043110E94EF10FA93EA930E94F410FA93D5
:1017E200EA930E94F910FA93EA930E94FE100E9473
:1017F20043110E940311FA93EA930E940811FA938B
:10180200EA930E940D11FA93EA930E9412110E9428
:1018120043110E94C7103196FA93EA930E94CC10AA
:101822003197FA93EA930E94D1103196FA93EA9390
:101832000E94D6100E9449110E94DB103196FA9341
:10184200EA930E94E0103197FA93EA930E94E5101E
:101852003196FA93EA930E94EA100E9449110E947B
:10186200EF103196FA93EA930E94F4103197FA93AB
:10187200EA930E94F9103196FA93EA930E94FE10BD
:101882000E9449110E9403113196FA93EA930E9431
:1018920008113197FA93EA930E940D113196FA9347
:1018A200EA930E9412110E944911E8E1F5E0FA93CD
:1018B200EA93E1E0EA930E947D0F0E945411EDE168
:1018C200F5E0FA93EA93E2E0EA930E947D0F0E9428
:1018D2005411E1E2F5E0FA93EA93E3E0EA930E941D
:1018E2007D0F0E945411E5E2F5E00E9458110E941A
:1018F20054110895BA93AA930E948D140E945D1107
:10190200A885B9850E9466118F010233E0E01E07A7
:1019120014F402E310E0093EE0E01E0714F007EEC3
:1019220010E0A4E0B0E00E945D14DF010E945D11AE
:101932000E9466119F012233E0E03E0714F422E385
:1019420030E00E9477110E9484110E947711EBE42B
:10195200F0E0FA93EA930E949011E4E6F0E0FA9341
:10196200EA930E949011EDE7F0E0FA93EA930E9465
:101972009011E6E9F0E0FA93EA930E949011EFEAFF
:10198200F0E0FA93EA930E949011E8ECF0E0FA9307
:10199200EA930E9490113A932A933A932A93E7E0AA
:1019A200FFEFFA93EA93A1E00E9409080E947711DF
:1019B200E0914408F0914508FA93EA931A930A9346
:1019C200EE85FF85FA93EA93A2E00E940908EC8172
:1019D200FD81A0914208B0914308EA0FFB1FE093FA
:1019E2004208F09343080093440810934508AC81E1
:1019F200BD81E0EEF1E0EA1BFB0BA0914208B09141
:101A02004308EA17FB07A8F4E0914208F091430863
:101A1200FA93EA93E0EEF1E0FA93EA930E948411DA
:101A2200E0E0E0934208E09343080E9477110E94AD
:101A320084110E9494142A960895BA93AA93EBE211
:101A4200F5E00E9497110E94A011ECE3F5E00E94DC
:101A5200971170960E94A011EC81F0E0309749F442
:101A6200EDE4F5E00E9497110E94A011E8E5F5E08F
:101A720019C0E130A0E0FA0749F4ECE5F5E00E9474
:101A820097110E94A011E0E6F5E00CC0E230A0E060
:101A9200FA0799F4E4E6F5E00E9497110E94A0117A
:101AA200E5E7F5E0FA93EA93ED81F0E0FA93EA9341
:101AB200EE81F0E070960E94A011259608950FEF36
:101AC2001FEFE0E0EBBBEFEFEABBE0E0E8BBE7EFE4
:101AD200E7BBE0E0E5BBEFEFE4BBE0E0E2BBEBEF4E
:101AE200E1BBE0E0E3B9E6EBE2B9E0E0E0936200FB
:101AF200E8EFE0936100E0E0E0936500EFE1E0935E
:101B02006400E0E0E0BFE4E0E3BFE6E0E2BFE0E083
:101B1200E1BFEFBDEEBDEDBDECBDE7BDE6BDEBBD8A
:101B2200EABDE9BDE8BDE0937900E0937800E5BD48
:101B3200E4BDE3BDE0938B00E0938A00E09389006B
:101B4200E0938800E0938100E0938000E0938700B7
:101B5200E0938600E0938500E0938400E0938300A5
:101B6200E0938200E0936A00EABFE9BFE1E0E7BFE9
:101B7200E0E0E0937D00EBB9E8EDEAB9E6E0E0935E
:101B82009500E0E0E0939000E8E0E9B9E0E0E0935E
:101B92009B00E8EDE0939A00E6E0E0939D00E0E030
:101BA200E0939800E7E6E0939900E0E8E8B9E0E026
:101BB200E0BDE7B9E4E8E6B9E2E5EDB9E0E0EEB9A7
:101BC200E09374000E94FC1178940E94BE100E945F
:101BD200B4100E94B910A8EEB3E00E944D120E9408
:101BE2004405E6E0EA93A1E06DDCA6E0B0E00E94E5
:101BF2006114E230F0F04424E3E04E16A8F4E42D40
:101C02000E94AA11EA0FFB1FBF01E42DACECB7E062
:101C1200F0E0EE0FFF1FEA0FFB1F0E944714DB01EB
:101C22000E946D144394E8CFA6E0B0E0E0E00E9489
:101C32007514A0E0B0E00E94CF05E1E8F5E00E9453
:101C4200B011E0E7F0E00E94B711E8E8F5E00E9489
:101C5200B011E0E8F0E0FA93EA93E7E0FFEFFA93DD
:101C6200EA930E94C511EFE8F5E00E94B011E0E9A5
:101C7200F0E00E94B711E6E9F5E00E94B011E0E75A
:101C8200F0E00E94820F0E94C511EDE9F5E00E948A
:101C9200B011E0E8F0E00E94820F0E94C511E4EA70
:101CA200F5E00E94B011E0E9F0E00E94820FA0E0AE
:101CB200B0E00E94D3076DDD0E947609E2E3F0E016
:101CC200E0934408F0934508E0E0E0934208E09393
:101CD20043080E94CD110E94DF11EEE0F1E0E09393
:101CE2003408F0933508E0914D08F0E0309709F0A0
:101CF2009EC0A7E471DBA091E007A13088F00E94AA
:101D0200B309FE2FE0E0FF93EF930E94B309F0E0E6
:101D1200AF91BF91EA0FFB1FE0935208F093530873
:101D22000E94CD11E0915208F0915308FA93EA9380
:101D3200E0E0FFE1FA93EA93A2E0B0E00E945D14D2
:101D4200DF01D8DD0E945E09E13008F46FC00E9415
:101D5200EA1179F4E0914A08EF5FE0934A08A09112
:101D62004A08A33018F0E0E0E0934A080E94DF112D
:101D72005DC0E230A0E0FA0711F5E0914A08E030D8
:101D820071F40E94F4110E94F711329738F00E9408
:101D9200F4110E94F7113A970E946D140FC00E942D
:101DA200F4110E94F711E83EA3E0FA0738F40E940A
:101DB200F4110E94F71131960E946D1437C0E3307E
:101DC200A0E0FA0711F5E0914A08E03081F40E94A0
:101DD200F4110E94F711E83EA3E0FA0738F40E94DA
:101DE200F4110E94F7113A960E946D140DC00E94E0
:101DF200F4110E94F711329738F00E94F4110E94F8
:101E0200F71131970E946D1411C0E430A0E0FA0777
:101E120069F4E8ECE0934D08EBEAF5E00E94581112
:101E22000E945411AAEFB0E00E944D1238C0E13076
:101E3200A0E0FA07A1F1E83CA0E0FA0709F50E9448
:101E42005E09E130E0F00E94EA11C9F0E230A0E060
:101E5200FA07A9F0E330A0E0FA0789F0E430A0E045
:101E6200FA0769F4E0E0E0934D08E1EBF5E00E9447
:101E720058110E945411AAEFB0E00E944D120FC0F7
:101E8200EA3FA0E0FA0759F40E945E09E13038F017
:101E9200E0E0E0934D08E6E0EA93A1E013DB23CF14
:101EA200FFCFAA93E881EFB9779BFECFEFB12196DE
:101EB2000895A4E6B0E00C944D12A8810E94EB04B0
:101EC200EBBBE0E0E5BB08950E941405A1E00C9491
:101ED2002105A1E0B0E00C944D120E941405A3E08C
:101EE2000C9421050E942105A0E00C9421050E947A
:101EF2002105A1E00C942105E0E0F0E0FA93EA93D9
:101F02000895FA93EA93F8CF0E94B705ACE20C94D5
:101F12001405E885F985FA93EA930895BA93AA938A
:101F2200EA85FB85FA93EA930895EF81F885FA939F
:101F3200EA930895BA93AA9328971A930A93EA897F
:101F4200FB89FA93EA93EA89FB89FA93EA93EA898D
:101F5200FB89FA93EA93AA89BB89D6CFAA89BB895E
:101F6200E889F989EA1BFB0B31968F011123089549
:101F7200F801AFEFBFEF0E94DA138F010895AE852B
:101F8200BF85EC85FD85EA1BFB0B3196662777271B
:101F9200EA83FB836C837D83AD81AA230895EA8162
:101FA200FB816C817D810895AFEFBFEF8FEF9FEFD3
:101FB2000E94DF13EA83FB836C837D830895F8011B
:101FC200AA81BB818C819D810E94A8130E94DF138C
:101FD200EA83FB836C837D83E0E0EE83EF83E88713
:101FE200E9870895DCDFAE81BF81888599850E94EB
:101FF20086140895EE81FF8168857985EF5FFF4F32
:102002006F4F7F4FEE83FF83688779870895EA0FCA
:10201200FB1FFA93EA930895E885F985EA1BFB0B07
:102022000895EA85FB85FA93EA930895A885B98510
:102032000E94EF07F6CF0E94520F80E991E00197CC
:10204200F1F7A0E00E94520F0E2F1127102F002748
:10205200A0E00E94520FF0E00E0F1F1F1A9AF80123
:102062000895F8010E94A8130E94BD12DF01CB015E
:1020720008950E9442130E9486128F010895E0E0A3
:10208200E093B705E093B805E093B905E093BA058C
:10209200E093BB05E093BC05E093BD05E093BE056C
:1020A20008950E943809A091B705B091B8058091B2
:1020B200B9059091BA05662777270E948713E093A6
:1020C200B705F093B8056093B9057093BA050E94FD
:1020D2004B09A091BB05B091BC058091BD059091C3
:1020E200BE05662777270E948713E093BB05F0930E
:1020F200BC056093BD057093BE050895A091B70518
:10210200B091B8058091B9059091BA05E0E1F0E08F
:1021120060E070E00E941C143F01A091BB05B091E9
:10212200BC058091BD059091BE05E0E1F0E060E064
:1021320070E00E941C144F010C942409AA93EA93A4
:10214200FA93EFB7EA930895A2E6B0E06A2F1C90E3
:10215200E981A1E00E9498130895ED91FD913196D5
:10216200FE93EE930895E4E0EA93A1E00C94630AEF
:10217200E5E0EA93A1E00C94630AE3E0EA93A1E0CC
:102182000C94630AEA93A0E00C94630AE0910608B7
:10219200F09107080895E0910808F0910908089560
:1021A200E0910208F09103080895E0910408F0918B
:1021B20005080895E0910E08F0910F080895E09146
:1021C2001008F09111080895E0910A08F0910B08A7
:1021D2000895E0910C08F0910D080895E091160819
:1021E200F09117080895E0911808F09119080895E0
:1021F200E0911208F09113080895E0911408F0910B
:1022020015080895E0911E08F0911F080895E091C5
:102212002008F09121080895E0911A08F0911B0816
:102222000895E0911C08F0911D080895F0E0E13056
:10223200A0E0FA070895FA93EA93A8DF3A96FA9390
:10224200EA93AECF3796FA93EA9363CEA885B9851F
:102252000E94D307ED81FE810895FA93EA93AADFE3
:102262003A96FA93EA93B0CFFA93EA93B7DF3A96A3
:10227200FA93EA93BDCFFA93EA93C4DF3A96FA93BC
:10228200EA93CACFFA93EA93AFEFBFEF0C94F50843
:102292003197FA93EA93E1E0F0E0FA93EA93A0E04F
:1022A200B0E00C94BD08AFEFBFEF0C94820BFA9331
:1022B200EA93E4E0EA9320CEE0914608F0914708E1
:1022C20060914808709149080895882799270E94CB
:1022D2004D140E944213A0E0B0E088E693E40E940D
:1022E20050140E94F0120E9486120895E091420852
:1022F200F0914308FA93EA93EE81FF81A09142089C
:10230200B091430884CEE2E3F0E0FA93EA93E9EE77
:10231200F0E0FA93EA93A0E0B0E00C94F508FA93A7
:10232200EA93A8E0B1E20E94EF07E0CFFA93EA93C2
:10233200ED81F0E0FA93EA93EE81F0E00895FA93EA
:10234200EA93EE81FF81FA93EA93A0E0B0E00C9465
:10235200D307A0E0B0E0F0E0EE0FFF1F0895FA937C
:10236200EA93E0ECF0E0FA93EA930895FA93EA93A1
:10237200E0E0FFE1FA93EA93A0E0B0E00E94D30725
:10238200ACE2B1E00C944D12A0E0B0E00E94D307A1
:10239200ACE2B1E00C944D12A0E0B0E00E945D14FA
:1023A200DF01E6EBF0E00E94E413A6E4B8E0662762
:1023B20077270E94BD120E9442140895E0914A08B4
:1023C200EA93EEE1EA93E0E1EA93A8EFB0E00C943D
:1023D2001E0DE0E0E0935408E09355080E941D0BA7
:1023E200E093220823CFE0914A08B3CFAE0FBF1F7C
:1023F2000E945D14089590989198889A899815C0C2
:1024020089988898EE270000819B0895809B089503
:1024120004D0899A02D0889AE1E06BE107C0899AD8
:10242200889A03D08898F9DF899865E36A95F1F76D
:10243200089578E08898F1DF809BFECFEEDF8894E4
:1024420081990894889AF1DFEE1F7A9599F77A2F8D
:10245200772311F4899801C0899ADFDF8898E5DF34
:10246200889ADBDF8998D9CF78E0AA0F10F489988F
:1024720001C0899ADADF8898D0DF809BFECFCDDF5A
:10248200889A7A9591F78998C8DF8898CEDFE1E03B
:102492008199EE27889AC1CF109639F080EA9FE0A1
:1024A2000197F1F7A8951197C9F70895552342F4BA
:1024B200503811F4E0FF04C03196691F791F6BF0A8
:1024C20050E8572711F45F93CAC05F3F31F0660F9F
:1024D200000C57956795752F08955F9300200AF0B9
:1024E200CAC0C3C050E8192E1522880F991F95271C
:1024F200550F879550E8072E0522660F771F75271F
:10250200550F67950895689401C0E8945F93F2DFD0
:10251200703818F07F3F08F4A2C056E1571BAAF4A6
:10252200519558300EF4593030F0EFEFFFEF6FEF66
:102532007FE777F91AC077275523B9F0EE0FFF1F0F
:10254200661F771F5A95D1F710C07727583028F0A9
:10255200EF2FF62F672F5850F9CF552331F076958C
:102562006795F795E7955A95D1F700200AF4D7D0E9
:102572005F910895689401C0E8943097604070407C
:10258200B1F0002426F0772312F40094C8D0172E5D
:102592007EE1112032F07A95EE0FFF1F661F111CAB
:1025A200F9CFEF2FF62F612D5F938ADF5F910895A8
:1025B2004F93AF01FD01DA01AB01BC01CA01402D0D
:1025C200012C142E4F910895EA0FFB1F681F0895E6
:1025D200E095F0956095EF5FFF4F6F4F08955F9321
:1025E20081DF903849F150E81526703821F1572FD4
:1025F200591B2BF112F4DCDFFACF583118F0AA275D
:10260200BB278827583028F0AB2FB82F882758507F
:10261200F9CF552329F08695B795A7955A95D9F7FD
:10262200502D512572F0D0DF38F46795F795E79574
:10263200739513F420C0BCDF43DF5F910895D8F790
:10264200FBCFEA1BFB0B680B51F010F40094C0DFC8
:10265200662392F3EE0FFF1F661F7A95CBF7EE27E4
:10266200FF27662777275F910895EFEFFFEF6FE768
:102672007FEF5F910895EFEFFFEF6FE77FE75F91E5
:1026820008955F932FDF703821F411200AF4EDCF03
:10269200F2CF903809F4E3CF01240894970B1BF48E
:1026A200D4F30020F3CF792F1F932F933F934F93AF
:1026B20011241127222733274427552790E2AE17EA
:1026C200BF078607410730F0AE1BBF0B860B410BDD
:1026D200089401C08894551F221F331F111CAA1F82
:1026E200BB1F881F441F9A9551F7F901612D4F9125
:1026F2003F912F911F91662332F0550FEE1FFF1F5E
:10270200661F7A9543F2D2DE5F910895EA0FFB1FAE
:10271200681F791F0895F195E195F0400895F095AD
:1027220060957095E195FF4F6F4F7F4F0895EE23AF
:102732000E2EEA2F19F0EE0F0A94E9F70895EE2310
:102742000E2EEA2F19F0E6950A94E9F708956F2FF5
:10275200660F660B762F08958B2F880F880B982FA4
:102762000895FA9FF02DEB9FF00DEA9FE02DF10DF9
:1027720008957A9F702D6B9F700DF89F700DE99FE1
:10278200700D6A9F602D710DFB9F600D711DE89F9A
:10279200600D711D8827FA9FF02D610D781FEB9F48
:1027A200F00D611D781FEA9FE02DF10D681F781F63
:1027B200089546D0D6DF0EF4AEDF08954FD0D9DFAC
:1027C2000EF4ADDF08950024112490E1AA0FBB1F7F
:1027D200001C111C0E1A1F0A18F40E0E1F1E01C037
:1027E200A1609A9599F7FD01D00108953F934F9307
:1027F2005F93002411244427552730E2AA0FBB1F00
:10280200881F991F001C111C441F551F0E1A1F0AF6
:10281200460B570B28F40E0E1F1E461F571F01C0F2
:10282200A1603A9559F7FD01BC01D001CA015F913F
:102832004F913F91089512D0D9DF0EF470DF0895C1
:10284200E894F7FF02C067DF6894B7FF06C0A0955F
:10285200B095119600F8039400FA0895E89477FF72
:1028620002C05DDF689497FF0BC00024A095B0956D
:10287200809590951196801D901D00F8039400FAA2
:102882000895ED93FD936D937C9308950590F491D3
:10289200E02D0895689401C0E89401D06EDE182EF0
:1028A200862F612D192E972F712D1B2EBF2FF12DE3
:1028B2001A2EAE2FE12D0895119602D0FE2F1197F8
:1028C200E199FECFFF93FFB7F894AEBBBFBBE09A8E
:1028D200EDB3FFBFFF91089507D01196EF93EF2F4D
:1028E20003D0EF9111970895E19B02C0A895FCCF08
:1028F2009FB7F894AEBBBFBBE09A8DB3E81719F04F
:10290200EDBBE29AE19A9FBF0895AE17BF07860713
:10291200970708955A934A933A932A931A930A93DC
:1029220008955D814C813B812A8119810881089536
:00000001FF
